{
	"contracts/VerifySigmaProtocol1-1.sol": {
		"VerifySigmaProtocol": {
			"abi": [
				{
					"inputs": [
						{
							"internalType": "uint256[2]",
							"name": "point1",
							"type": "uint256[2]"
						},
						{
							"internalType": "uint256[2]",
							"name": "point2",
							"type": "uint256[2]"
						}
					],
					"name": "pointAdd",
					"outputs": [
						{
							"internalType": "uint256[2]",
							"name": "result",
							"type": "uint256[2]"
						}
					],
					"stateMutability": "view",
					"type": "function"
				},
				{
					"inputs": [
						{
							"internalType": "uint256[2]",
							"name": "point",
							"type": "uint256[2]"
						},
						{
							"internalType": "uint256",
							"name": "scalar",
							"type": "uint256"
						}
					],
					"name": "pointMul",
					"outputs": [
						{
							"internalType": "uint256[2]",
							"name": "result",
							"type": "uint256[2]"
						}
					],
					"stateMutability": "view",
					"type": "function"
				},
				{
					"inputs": [
						{
							"internalType": "uint256[][2]",
							"name": "A",
							"type": "uint256[][2]"
						},
						{
							"internalType": "uint256[][2]",
							"name": "B",
							"type": "uint256[][2]"
						},
						{
							"internalType": "uint256[]",
							"name": "zList_1",
							"type": "uint256[]"
						},
						{
							"internalType": "uint256[]",
							"name": "zList_2",
							"type": "uint256[]"
						},
						{
							"internalType": "uint256[2]",
							"name": "upk",
							"type": "uint256[2]"
						},
						{
							"internalType": "uint256[][2]",
							"name": "XList",
							"type": "uint256[][2]"
						},
						{
							"internalType": "uint256[][2]",
							"name": "YList",
							"type": "uint256[][2]"
						}
					],
					"name": "sigmaProofOfValueVerifier",
					"outputs": [
						{
							"internalType": "bool",
							"name": "result",
							"type": "bool"
						}
					],
					"stateMutability": "view",
					"type": "function"
				},
				{
					"inputs": [],
					"name": "test",
					"outputs": [
						{
							"internalType": "uint256",
							"name": "x",
							"type": "uint256"
						}
					],
					"stateMutability": "view",
					"type": "function"
				}
			],
			"devdoc": {
				"kind": "dev",
				"methods": {},
				"version": 1
			},
			"evm": {
				"assembly": "    /* \"contracts/VerifySigmaProtocol1-1.sol\":96:6703  contract VerifySigmaProtocol {... */\n  mstore(0x40, 0x80)\n    /* \"contracts/VerifySigmaProtocol1-1.sol\":149:313  uint256[2] private g = [0x171e826ad4a870fd925e0bf0e87884e70e080879c2205ef10114f28a3b6f6dd7,... */\n  mload(0x40)\n  dup1\n  0x40\n  add\n  0x40\n  mstore\n  dup1\n    /* \"contracts/VerifySigmaProtocol1-1.sol\":173:239  0x171e826ad4a870fd925e0bf0e87884e70e080879c2205ef10114f28a3b6f6dd7 */\n  0x171e826ad4a870fd925e0bf0e87884e70e080879c2205ef10114f28a3b6f6dd7\n    /* \"contracts/VerifySigmaProtocol1-1.sol\":149:313  uint256[2] private g = [0x171e826ad4a870fd925e0bf0e87884e70e080879c2205ef10114f28a3b6f6dd7,... */\n  dup2\n  mstore\n  0x20\n  add\n    /* \"contracts/VerifySigmaProtocol1-1.sol\":246:312  0x2bd407d897fbbca9f88adfd2d15252e69de8c1564eb4d3d27162e259172f1a1d */\n  0x2bd407d897fbbca9f88adfd2d15252e69de8c1564eb4d3d27162e259172f1a1d\n    /* \"contracts/VerifySigmaProtocol1-1.sol\":149:313  uint256[2] private g = [0x171e826ad4a870fd925e0bf0e87884e70e080879c2205ef10114f28a3b6f6dd7,... */\n  dup2\n  mstore\n  pop\n  0x00\n  swap1\n  0x02\n  tag_1\n  swap3\n  swap2\n  swap1\n  tag_2\n  jump\t// in\ntag_1:\n  pop\n    /* \"contracts/VerifySigmaProtocol1-1.sol\":320:482  uint256[2] private h = [0x5e8290bfaba1ccfad33259a92884cc00644d5fb019ca4dcbdb50123ab32aaf1,... */\n  mload(0x40)\n  dup1\n  0x40\n  add\n  0x40\n  mstore\n  dup1\n    /* \"contracts/VerifySigmaProtocol1-1.sol\":344:409  0x5e8290bfaba1ccfad33259a92884cc00644d5fb019ca4dcbdb50123ab32aaf1 */\n  0x05e8290bfaba1ccfad33259a92884cc00644d5fb019ca4dcbdb50123ab32aaf1\n    /* \"contracts/VerifySigmaProtocol1-1.sol\":320:482  uint256[2] private h = [0x5e8290bfaba1ccfad33259a92884cc00644d5fb019ca4dcbdb50123ab32aaf1,... */\n  dup2\n  mstore\n  0x20\n  add\n    /* \"contracts/VerifySigmaProtocol1-1.sol\":416:481  0x5e352269c07449ea6667d7608c648894125d94e751b1b46a9cf56bbb02f3766 */\n  0x05e352269c07449ea6667d7608c648894125d94e751b1b46a9cf56bbb02f3766\n    /* \"contracts/VerifySigmaProtocol1-1.sol\":320:482  uint256[2] private h = [0x5e8290bfaba1ccfad33259a92884cc00644d5fb019ca4dcbdb50123ab32aaf1,... */\n  dup2\n  mstore\n  pop\n  0x02\n  swap1\n  0x02\n  tag_3\n  swap3\n  swap2\n  swap1\n  tag_2\n  jump\t// in\ntag_3:\n  pop\n    /* \"contracts/VerifySigmaProtocol1-1.sol\":96:6703  contract VerifySigmaProtocol {... */\n  callvalue\n  dup1\n  iszero\n  tag_4\n  jumpi\n  0x00\n  dup1\n  revert\ntag_4:\n  pop\n  jump(tag_5)\ntag_2:\n  dup3\n  0x02\n  dup2\n  add\n  swap3\n  dup3\n  iszero\n  tag_6\n  jumpi\n  swap2\n  0x20\n  mul\n  dup3\n  add\ntag_7:\n  dup3\n  dup2\n  gt\n  iszero\n  tag_8\n  jumpi\n  dup3\n  mload\n  dup3\n  sstore\n  swap2\n  0x20\n  add\n  swap2\n  swap1\n  0x01\n  add\n  swap1\n  jump(tag_7)\ntag_8:\ntag_6:\n  pop\n  swap1\n  pop\n  tag_9\n  swap2\n  swap1\n  tag_10\n  jump\t// in\ntag_9:\n  pop\n  swap1\n  jump\t// out\ntag_10:\ntag_11:\n  dup1\n  dup3\n  gt\n  iszero\n  tag_12\n  jumpi\n  0x00\n  dup2\n  0x00\n  swap1\n  sstore\n  pop\n  0x01\n  add\n  jump(tag_11)\ntag_12:\n  pop\n  swap1\n  jump\t// out\ntag_5:\n  dataSize(sub_0)\n  dup1\n  dataOffset(sub_0)\n  0x00\n  codecopy\n  0x00\n  return\nstop\n\nsub_0: assembly {\n        /* \"contracts/VerifySigmaProtocol1-1.sol\":96:6703  contract VerifySigmaProtocol {... */\n      mstore(0x40, 0x80)\n      callvalue\n      dup1\n      iszero\n      tag_1\n      jumpi\n      0x00\n      dup1\n      revert\n    tag_1:\n      pop\n      jumpi(tag_2, lt(calldatasize, 0x04))\n      shr(0xe0, calldataload(0x00))\n      dup1\n      0xc1f349fe\n      eq\n      tag_3\n      jumpi\n      dup1\n      0xe3ca5699\n      eq\n      tag_4\n      jumpi\n      dup1\n      0xf8a8fd6d\n      eq\n      tag_5\n      jumpi\n      dup1\n      0xfa2bf10b\n      eq\n      tag_6\n      jumpi\n    tag_2:\n      0x00\n      dup1\n      revert\n        /* \"contracts/VerifySigmaProtocol1-1.sol\":2309:3500  function sigmaProofOfValueVerifier(uint256[][2] memory A, uint256[][2] memory B, ... */\n    tag_3:\n      tag_7\n      0x04\n      dup1\n      calldatasize\n      sub\n      dup2\n      add\n      swap1\n      tag_8\n      swap2\n      swap1\n      tag_9\n      jump\t// in\n    tag_8:\n      tag_10\n      jump\t// in\n    tag_7:\n      mload(0x40)\n      tag_11\n      swap2\n      swap1\n      tag_12\n      jump\t// in\n    tag_11:\n      mload(0x40)\n      dup1\n      swap2\n      sub\n      swap1\n      return\n        /* \"contracts/VerifySigmaProtocol1-1.sol\":984:1448  function pointMul(uint256[2] memory point, uint256 scalar)... */\n    tag_4:\n      tag_13\n      0x04\n      dup1\n      calldatasize\n      sub\n      dup2\n      add\n      swap1\n      tag_14\n      swap2\n      swap1\n      tag_15\n      jump\t// in\n    tag_14:\n      tag_16\n      jump\t// in\n    tag_13:\n      mload(0x40)\n      tag_17\n      swap2\n      swap1\n      tag_18\n      jump\t// in\n    tag_17:\n      mload(0x40)\n      dup1\n      swap2\n      sub\n      swap1\n      return\n        /* \"contracts/VerifySigmaProtocol1-1.sol\":1456:2301  function test() public view returns (uint256 x) {... */\n    tag_5:\n      tag_19\n      tag_20\n      jump\t// in\n    tag_19:\n      mload(0x40)\n      tag_21\n      swap2\n      swap1\n      tag_22\n      jump\t// in\n    tag_21:\n      mload(0x40)\n      dup1\n      swap2\n      sub\n      swap1\n      return\n        /* \"contracts/VerifySigmaProtocol1-1.sol\":492:976  function pointAdd(uint256[2] memory point1, uint256[2] memory point2)... */\n    tag_6:\n      tag_23\n      0x04\n      dup1\n      calldatasize\n      sub\n      dup2\n      add\n      swap1\n      tag_24\n      swap2\n      swap1\n      tag_25\n      jump\t// in\n    tag_24:\n      tag_26\n      jump\t// in\n    tag_23:\n      mload(0x40)\n      tag_27\n      swap2\n      swap1\n      tag_18\n      jump\t// in\n    tag_27:\n      mload(0x40)\n      dup1\n      swap2\n      sub\n      swap1\n      return\n        /* \"contracts/VerifySigmaProtocol1-1.sol\":2309:3500  function sigmaProofOfValueVerifier(uint256[][2] memory A, uint256[][2] memory B, ... */\n    tag_10:\n        /* \"contracts/VerifySigmaProtocol1-1.sol\":2557:2568  bool result */\n      0x00\n        /* \"contracts/VerifySigmaProtocol1-1.sol\":2615:2623  B.length */\n      0x02\n        /* \"contracts/VerifySigmaProtocol1-1.sol\":2603:2611  A.length */\n      dup1\n        /* \"contracts/VerifySigmaProtocol1-1.sol\":2603:2623  A.length == B.length */\n      eq\n        /* \"contracts/VerifySigmaProtocol1-1.sol\":2603:2653  A.length == B.length && A.length == zList_1.length */\n      dup1\n      iszero\n      tag_29\n      jumpi\n      pop\n        /* \"contracts/VerifySigmaProtocol1-1.sol\":2639:2646  zList_1 */\n      dup6\n        /* \"contracts/VerifySigmaProtocol1-1.sol\":2639:2653  zList_1.length */\n      mload\n        /* \"contracts/VerifySigmaProtocol1-1.sol\":2627:2635  A.length */\n      0x02\n        /* \"contracts/VerifySigmaProtocol1-1.sol\":2627:2653  A.length == zList_1.length */\n      eq\n        /* \"contracts/VerifySigmaProtocol1-1.sol\":2603:2653  A.length == B.length && A.length == zList_1.length */\n    tag_29:\n        /* \"contracts/VerifySigmaProtocol1-1.sol\":2603:2683  A.length == B.length && A.length == zList_1.length && A.length == zList_2.length */\n      dup1\n      iszero\n      tag_30\n      jumpi\n      pop\n        /* \"contracts/VerifySigmaProtocol1-1.sol\":2669:2676  zList_2 */\n      dup5\n        /* \"contracts/VerifySigmaProtocol1-1.sol\":2669:2683  zList_2.length */\n      mload\n        /* \"contracts/VerifySigmaProtocol1-1.sol\":2657:2665  A.length */\n      0x02\n        /* \"contracts/VerifySigmaProtocol1-1.sol\":2657:2683  A.length == zList_2.length */\n      eq\n        /* \"contracts/VerifySigmaProtocol1-1.sol\":2603:2683  A.length == B.length && A.length == zList_1.length && A.length == zList_2.length */\n    tag_30:\n        /* \"contracts/VerifySigmaProtocol1-1.sol\":2603:2725  A.length == B.length && A.length == zList_1.length && A.length == zList_2.length ... */\n      dup1\n      iszero\n      tag_31\n      jumpi\n      pop\n        /* \"contracts/VerifySigmaProtocol1-1.sol\":2713:2725  XList.length */\n      0x02\n        /* \"contracts/VerifySigmaProtocol1-1.sol\":2701:2709  A.length */\n      dup1\n        /* \"contracts/VerifySigmaProtocol1-1.sol\":2701:2725  A.length == XList.length */\n      eq\n        /* \"contracts/VerifySigmaProtocol1-1.sol\":2603:2725  A.length == B.length && A.length == zList_1.length && A.length == zList_2.length ... */\n    tag_31:\n        /* \"contracts/VerifySigmaProtocol1-1.sol\":2603:2753  A.length == B.length && A.length == zList_1.length && A.length == zList_2.length ... */\n      dup1\n      iszero\n      tag_32\n      jumpi\n      pop\n        /* \"contracts/VerifySigmaProtocol1-1.sol\":2741:2753  YList.length */\n      0x02\n        /* \"contracts/VerifySigmaProtocol1-1.sol\":2729:2737  A.length */\n      dup1\n        /* \"contracts/VerifySigmaProtocol1-1.sol\":2729:2753  A.length == YList.length */\n      eq\n        /* \"contracts/VerifySigmaProtocol1-1.sol\":2603:2753  A.length == B.length && A.length == zList_1.length && A.length == zList_2.length ... */\n    tag_32:\n        /* \"contracts/VerifySigmaProtocol1-1.sol\":2581:2867  require(... */\n      tag_33\n      jumpi\n      mload(0x40)\n      0x08c379a000000000000000000000000000000000000000000000000000000000\n      dup2\n      mstore\n      0x04\n      add\n      tag_34\n      swap1\n      tag_35\n      jump\t// in\n    tag_34:\n      mload(0x40)\n      dup1\n      swap2\n      sub\n      swap1\n      revert\n    tag_33:\n        /* \"contracts/VerifySigmaProtocol1-1.sol\":2913:2914  0 */\n      0x00\n        /* \"contracts/VerifySigmaProtocol1-1.sol\":2902:2910  A.length */\n      0x02\n        /* \"contracts/VerifySigmaProtocol1-1.sol\":2902:2914  A.length > 0 */\n      gt\n        /* \"contracts/VerifySigmaProtocol1-1.sol\":2880:3023  require(... */\n      tag_36\n      jumpi\n      mload(0x40)\n      0x08c379a000000000000000000000000000000000000000000000000000000000\n      dup2\n      mstore\n      0x04\n      add\n      tag_37\n      swap1\n      tag_38\n      jump\t// in\n    tag_37:\n      mload(0x40)\n      dup1\n      swap2\n      sub\n      swap1\n      revert\n    tag_36:\n        /* \"contracts/VerifySigmaProtocol1-1.sol\":3036:3053  uint256 hashInput */\n      0x00\n        /* \"contracts/VerifySigmaProtocol1-1.sol\":3068:3079  sumArray(B) */\n      tag_39\n        /* \"contracts/VerifySigmaProtocol1-1.sol\":3077:3078  B */\n      dup9\n        /* \"contracts/VerifySigmaProtocol1-1.sol\":3068:3076  sumArray */\n      tag_40\n        /* \"contracts/VerifySigmaProtocol1-1.sol\":3068:3079  sumArray(B) */\n      jump\t// in\n    tag_39:\n        /* \"contracts/VerifySigmaProtocol1-1.sol\":3056:3067  sumArray(A) */\n      tag_41\n        /* \"contracts/VerifySigmaProtocol1-1.sol\":3065:3066  A */\n      dup11\n        /* \"contracts/VerifySigmaProtocol1-1.sol\":3056:3064  sumArray */\n      tag_40\n        /* \"contracts/VerifySigmaProtocol1-1.sol\":3056:3067  sumArray(A) */\n      jump\t// in\n    tag_41:\n        /* \"contracts/VerifySigmaProtocol1-1.sol\":3056:3079  sumArray(A)+sumArray(B) */\n      tag_42\n      swap2\n      swap1\n      tag_43\n      jump\t// in\n    tag_42:\n        /* \"contracts/VerifySigmaProtocol1-1.sol\":3036:3079  uint256 hashInput = sumArray(A)+sumArray(B) */\n      swap1\n      pop\n        /* \"contracts/VerifySigmaProtocol1-1.sol\":3090:3116  string memory hashInputStr */\n      0x00\n        /* \"contracts/VerifySigmaProtocol1-1.sol\":3119:3138  uint2str(hashInput) */\n      tag_44\n        /* \"contracts/VerifySigmaProtocol1-1.sol\":3128:3137  hashInput */\n      dup3\n        /* \"contracts/VerifySigmaProtocol1-1.sol\":3119:3127  uint2str */\n      tag_45\n        /* \"contracts/VerifySigmaProtocol1-1.sol\":3119:3138  uint2str(hashInput) */\n      jump\t// in\n    tag_44:\n        /* \"contracts/VerifySigmaProtocol1-1.sol\":3090:3138  string memory hashInputStr = uint2str(hashInput) */\n      swap1\n      pop\n        /* \"contracts/VerifySigmaProtocol1-1.sol\":3149:3161  bytes32 hash */\n      0x00\n        /* \"contracts/VerifySigmaProtocol1-1.sol\":3191:3203  hashInputStr */\n      dup2\n        /* \"contracts/VerifySigmaProtocol1-1.sol\":3174:3204  abi.encodePacked(hashInputStr) */\n      add(0x20, mload(0x40))\n      tag_46\n      swap2\n      swap1\n      tag_47\n      jump\t// in\n    tag_46:\n      mload(0x40)\n      0x20\n      dup2\n      dup4\n      sub\n      sub\n      dup2\n      mstore\n      swap1\n      0x40\n      mstore\n        /* \"contracts/VerifySigmaProtocol1-1.sol\":3164:3205  keccak256(abi.encodePacked(hashInputStr)) */\n      dup1\n      mload\n      swap1\n      0x20\n      add\n      keccak256\n        /* \"contracts/VerifySigmaProtocol1-1.sol\":3149:3205  bytes32 hash = keccak256(abi.encodePacked(hashInputStr)) */\n      swap1\n      pop\n        /* \"contracts/VerifySigmaProtocol1-1.sol\":3216:3225  uint256 e */\n      0x00\n        /* \"contracts/VerifySigmaProtocol1-1.sol\":3236:3240  hash */\n      dup2\n        /* \"contracts/VerifySigmaProtocol1-1.sol\":3228:3241  uint256(hash) */\n      0x00\n      shr\n        /* \"contracts/VerifySigmaProtocol1-1.sol\":3216:3241  uint256 e = uint256(hash) */\n      swap1\n      pop\n        /* \"contracts/VerifySigmaProtocol1-1.sol\":3258:3267  uint256 i */\n      0x00\n        /* \"contracts/VerifySigmaProtocol1-1.sol\":3254:3467  for(uint256 i = 0; i < A.length; i++) {... */\n    tag_48:\n        /* \"contracts/VerifySigmaProtocol1-1.sol\":3277:3285  A.length */\n      0x02\n        /* \"contracts/VerifySigmaProtocol1-1.sol\":3273:3274  i */\n      dup2\n        /* \"contracts/VerifySigmaProtocol1-1.sol\":3273:3285  i < A.length */\n      lt\n        /* \"contracts/VerifySigmaProtocol1-1.sol\":3254:3467  for(uint256 i = 0; i < A.length; i++) {... */\n      iszero\n      tag_49\n      jumpi\n        /* \"contracts/VerifySigmaProtocol1-1.sol\":3307:3370  validResponse1(zList_1[i],... */\n      tag_51\n        /* \"contracts/VerifySigmaProtocol1-1.sol\":3322:3329  zList_1 */\n      dup12\n        /* \"contracts/VerifySigmaProtocol1-1.sol\":3330:3331  i */\n      dup3\n        /* \"contracts/VerifySigmaProtocol1-1.sol\":3322:3332  zList_1[i] */\n      dup2\n      mload\n      dup2\n      lt\n      tag_52\n      jumpi\n      tag_53\n      tag_54\n      jump\t// in\n    tag_53:\n    tag_52:\n      0x20\n      mul\n      0x20\n      add\n      add\n      mload\n        /* \"contracts/VerifySigmaProtocol1-1.sol\":3347:3352  XList */\n      dup10\n        /* \"contracts/VerifySigmaProtocol1-1.sol\":3353:3354  i */\n      dup4\n        /* \"contracts/VerifySigmaProtocol1-1.sol\":3347:3355  XList[i] */\n      0x02\n      dup2\n      lt\n      tag_55\n      jumpi\n      tag_56\n      tag_54\n      jump\t// in\n    tag_56:\n    tag_55:\n      0x20\n      mul\n      add\n      mload\n        /* \"contracts/VerifySigmaProtocol1-1.sol\":3357:3358  A */\n      dup16\n        /* \"contracts/VerifySigmaProtocol1-1.sol\":3359:3360  i */\n      dup5\n        /* \"contracts/VerifySigmaProtocol1-1.sol\":3357:3361  A[i] */\n      0x02\n      dup2\n      lt\n      tag_57\n      jumpi\n      tag_58\n      tag_54\n      jump\t// in\n    tag_58:\n    tag_57:\n      0x20\n      mul\n      add\n      mload\n        /* \"contracts/VerifySigmaProtocol1-1.sol\":3363:3366  upk */\n      dup13\n        /* \"contracts/VerifySigmaProtocol1-1.sol\":3368:3369  e */\n      dup7\n        /* \"contracts/VerifySigmaProtocol1-1.sol\":3307:3321  validResponse1 */\n      tag_59\n        /* \"contracts/VerifySigmaProtocol1-1.sol\":3307:3370  validResponse1(zList_1[i],... */\n      jump\t// in\n    tag_51:\n        /* \"contracts/VerifySigmaProtocol1-1.sol\":3385:3455  validResponse2(zList_1[i], zList_2[i],... */\n      tag_60\n        /* \"contracts/VerifySigmaProtocol1-1.sol\":3400:3407  zList_1 */\n      dup12\n        /* \"contracts/VerifySigmaProtocol1-1.sol\":3408:3409  i */\n      dup3\n        /* \"contracts/VerifySigmaProtocol1-1.sol\":3400:3410  zList_1[i] */\n      dup2\n      mload\n      dup2\n      lt\n      tag_61\n      jumpi\n      tag_62\n      tag_54\n      jump\t// in\n    tag_62:\n    tag_61:\n      0x20\n      mul\n      0x20\n      add\n      add\n      mload\n        /* \"contracts/VerifySigmaProtocol1-1.sol\":3412:3419  zList_2 */\n      dup12\n        /* \"contracts/VerifySigmaProtocol1-1.sol\":3420:3421  i */\n      dup4\n        /* \"contracts/VerifySigmaProtocol1-1.sol\":3412:3422  zList_2[i] */\n      dup2\n      mload\n      dup2\n      lt\n      tag_63\n      jumpi\n      tag_64\n      tag_54\n      jump\t// in\n    tag_64:\n    tag_63:\n      0x20\n      mul\n      0x20\n      add\n      add\n      mload\n        /* \"contracts/VerifySigmaProtocol1-1.sol\":3437:3442  YList */\n      dup10\n        /* \"contracts/VerifySigmaProtocol1-1.sol\":3443:3444  i */\n      dup5\n        /* \"contracts/VerifySigmaProtocol1-1.sol\":3437:3445  YList[i] */\n      0x02\n      dup2\n      lt\n      tag_65\n      jumpi\n      tag_66\n      tag_54\n      jump\t// in\n    tag_66:\n    tag_65:\n      0x20\n      mul\n      add\n      mload\n        /* \"contracts/VerifySigmaProtocol1-1.sol\":3447:3448  B */\n      dup16\n        /* \"contracts/VerifySigmaProtocol1-1.sol\":3449:3450  i */\n      dup6\n        /* \"contracts/VerifySigmaProtocol1-1.sol\":3447:3451  B[i] */\n      0x02\n      dup2\n      lt\n      tag_67\n      jumpi\n      tag_68\n      tag_54\n      jump\t// in\n    tag_68:\n    tag_67:\n      0x20\n      mul\n      add\n      mload\n        /* \"contracts/VerifySigmaProtocol1-1.sol\":3453:3454  e */\n      dup7\n        /* \"contracts/VerifySigmaProtocol1-1.sol\":3385:3399  validResponse2 */\n      tag_69\n        /* \"contracts/VerifySigmaProtocol1-1.sol\":3385:3455  validResponse2(zList_1[i], zList_2[i],... */\n      jump\t// in\n    tag_60:\n        /* \"contracts/VerifySigmaProtocol1-1.sol\":3287:3290  i++ */\n      dup1\n      dup1\n      0x01\n      add\n      swap2\n      pop\n      pop\n        /* \"contracts/VerifySigmaProtocol1-1.sol\":3254:3467  for(uint256 i = 0; i < A.length; i++) {... */\n      jump(tag_48)\n    tag_49:\n      pop\n        /* \"contracts/VerifySigmaProtocol1-1.sol\":3488:3492  true */\n      0x01\n        /* \"contracts/VerifySigmaProtocol1-1.sol\":3479:3492  result = true */\n      swap5\n      pop\n        /* \"contracts/VerifySigmaProtocol1-1.sol\":2570:3500  {... */\n      pop\n      pop\n      pop\n      pop\n        /* \"contracts/VerifySigmaProtocol1-1.sol\":2309:3500  function sigmaProofOfValueVerifier(uint256[][2] memory A, uint256[][2] memory B, ... */\n      swap8\n      swap7\n      pop\n      pop\n      pop\n      pop\n      pop\n      pop\n      pop\n      jump\t// out\n        /* \"contracts/VerifySigmaProtocol1-1.sol\":984:1448  function pointMul(uint256[2] memory point, uint256 scalar)... */\n    tag_16:\n        /* \"contracts/VerifySigmaProtocol1-1.sol\":1073:1097  uint256[2] memory result */\n      tag_70\n      tag_71\n      jump\t// in\n    tag_70:\n        /* \"contracts/VerifySigmaProtocol1-1.sol\":1110:1127  bytes memory data */\n      0x00\n        /* \"contracts/VerifySigmaProtocol1-1.sol\":1147:1152  point */\n      dup4\n        /* \"contracts/VerifySigmaProtocol1-1.sol\":1153:1154  0 */\n      0x00\n        /* \"contracts/VerifySigmaProtocol1-1.sol\":1147:1155  point[0] */\n      0x02\n      dup2\n      lt\n      tag_73\n      jumpi\n      tag_74\n      tag_54\n      jump\t// in\n    tag_74:\n    tag_73:\n      0x20\n      mul\n      add\n      mload\n        /* \"contracts/VerifySigmaProtocol1-1.sol\":1157:1162  point */\n      dup5\n        /* \"contracts/VerifySigmaProtocol1-1.sol\":1163:1164  1 */\n      0x01\n        /* \"contracts/VerifySigmaProtocol1-1.sol\":1157:1165  point[1] */\n      0x02\n      dup2\n      lt\n      tag_75\n      jumpi\n      tag_76\n      tag_54\n      jump\t// in\n    tag_76:\n    tag_75:\n      0x20\n      mul\n      add\n      mload\n        /* \"contracts/VerifySigmaProtocol1-1.sol\":1167:1173  scalar */\n      dup5\n        /* \"contracts/VerifySigmaProtocol1-1.sol\":1130:1174  abi.encodePacked(point[0], point[1], scalar) */\n      add(0x20, mload(0x40))\n      tag_77\n      swap4\n      swap3\n      swap2\n      swap1\n      tag_78\n      jump\t// in\n    tag_77:\n      mload(0x40)\n      0x20\n      dup2\n      dup4\n      sub\n      sub\n      dup2\n      mstore\n      swap1\n      0x40\n      mstore\n        /* \"contracts/VerifySigmaProtocol1-1.sol\":1110:1174  bytes memory data = abi.encodePacked(point[0], point[1], scalar) */\n      swap1\n      pop\n        /* \"contracts/VerifySigmaProtocol1-1.sol\":1186:1198  bool success */\n      0x00\n        /* \"contracts/VerifySigmaProtocol1-1.sol\":1200:1223  bytes memory returnData */\n      dup1\n        /* \"contracts/VerifySigmaProtocol1-1.sol\":1235:1239  0x07 */\n      0x07\n        /* \"contracts/VerifySigmaProtocol1-1.sol\":1227:1251  address(0x07).staticcall */\n      0xffffffffffffffffffffffffffffffffffffffff\n      and\n        /* \"contracts/VerifySigmaProtocol1-1.sol\":1252:1256  data */\n      dup4\n        /* \"contracts/VerifySigmaProtocol1-1.sol\":1227:1257  address(0x07).staticcall(data) */\n      mload(0x40)\n      tag_79\n      swap2\n      swap1\n      tag_80\n      jump\t// in\n    tag_79:\n      0x00\n      mload(0x40)\n      dup1\n      dup4\n      sub\n      dup2\n      dup6\n      gas\n      staticcall\n      swap2\n      pop\n      pop\n      returndatasize\n      dup1\n      0x00\n      dup2\n      eq\n      tag_83\n      jumpi\n      mload(0x40)\n      swap2\n      pop\n      and(add(returndatasize, 0x3f), not(0x1f))\n      dup3\n      add\n      0x40\n      mstore\n      returndatasize\n      dup3\n      mstore\n      returndatasize\n      0x00\n      0x20\n      dup5\n      add\n      returndatacopy\n      jump(tag_82)\n    tag_83:\n      0x60\n      swap2\n      pop\n    tag_82:\n      pop\n        /* \"contracts/VerifySigmaProtocol1-1.sol\":1185:1257  (bool success, bytes memory returnData) = address(0x07).staticcall(data) */\n      swap2\n      pop\n      swap2\n      pop\n        /* \"contracts/VerifySigmaProtocol1-1.sol\":1276:1283  success */\n      dup2\n        /* \"contracts/VerifySigmaProtocol1-1.sol\":1276:1310  success && returnData.length >= 64 */\n      dup1\n      iszero\n      tag_84\n      jumpi\n      pop\n        /* \"contracts/VerifySigmaProtocol1-1.sol\":1308:1310  64 */\n      0x40\n        /* \"contracts/VerifySigmaProtocol1-1.sol\":1287:1297  returnData */\n      dup2\n        /* \"contracts/VerifySigmaProtocol1-1.sol\":1287:1304  returnData.length */\n      mload\n        /* \"contracts/VerifySigmaProtocol1-1.sol\":1287:1310  returnData.length >= 64 */\n      lt\n      iszero\n        /* \"contracts/VerifySigmaProtocol1-1.sol\":1276:1310  success && returnData.length >= 64 */\n    tag_84:\n        /* \"contracts/VerifySigmaProtocol1-1.sol\":1268:1343  require(success && returnData.length >= 64, \"Scalar multiplication failed\") */\n      tag_85\n      jumpi\n      mload(0x40)\n      0x08c379a000000000000000000000000000000000000000000000000000000000\n      dup2\n      mstore\n      0x04\n      add\n      tag_86\n      swap1\n      tag_87\n      jump\t// in\n    tag_86:\n      mload(0x40)\n      dup1\n      swap2\n      sub\n      swap1\n      revert\n    tag_85:\n        /* \"contracts/VerifySigmaProtocol1-1.sol\":1366:1391  _toUint256(returnData, 0) */\n      tag_88\n        /* \"contracts/VerifySigmaProtocol1-1.sol\":1377:1387  returnData */\n      dup2\n        /* \"contracts/VerifySigmaProtocol1-1.sol\":1389:1390  0 */\n      0x00\n        /* \"contracts/VerifySigmaProtocol1-1.sol\":1366:1376  _toUint256 */\n      tag_89\n        /* \"contracts/VerifySigmaProtocol1-1.sol\":1366:1391  _toUint256(returnData, 0) */\n      jump\t// in\n    tag_88:\n        /* \"contracts/VerifySigmaProtocol1-1.sol\":1354:1360  result */\n      dup5\n        /* \"contracts/VerifySigmaProtocol1-1.sol\":1361:1362  0 */\n      0x00\n        /* \"contracts/VerifySigmaProtocol1-1.sol\":1354:1363  result[0] */\n      0x02\n      dup2\n      lt\n      tag_90\n      jumpi\n      tag_91\n      tag_54\n      jump\t// in\n    tag_91:\n    tag_90:\n      0x20\n      mul\n      add\n        /* \"contracts/VerifySigmaProtocol1-1.sol\":1354:1391  result[0] = _toUint256(returnData, 0) */\n      dup2\n      dup2\n      mstore\n      pop\n      pop\n        /* \"contracts/VerifySigmaProtocol1-1.sol\":1414:1440  _toUint256(returnData, 32) */\n      tag_92\n        /* \"contracts/VerifySigmaProtocol1-1.sol\":1425:1435  returnData */\n      dup2\n        /* \"contracts/VerifySigmaProtocol1-1.sol\":1437:1439  32 */\n      0x20\n        /* \"contracts/VerifySigmaProtocol1-1.sol\":1414:1424  _toUint256 */\n      tag_89\n        /* \"contracts/VerifySigmaProtocol1-1.sol\":1414:1440  _toUint256(returnData, 32) */\n      jump\t// in\n    tag_92:\n        /* \"contracts/VerifySigmaProtocol1-1.sol\":1402:1408  result */\n      dup5\n        /* \"contracts/VerifySigmaProtocol1-1.sol\":1409:1410  1 */\n      0x01\n        /* \"contracts/VerifySigmaProtocol1-1.sol\":1402:1411  result[1] */\n      0x02\n      dup2\n      lt\n      tag_93\n      jumpi\n      tag_94\n      tag_54\n      jump\t// in\n    tag_94:\n    tag_93:\n      0x20\n      mul\n      add\n        /* \"contracts/VerifySigmaProtocol1-1.sol\":1402:1440  result[1] = _toUint256(returnData, 32) */\n      dup2\n      dup2\n      mstore\n      pop\n      pop\n        /* \"contracts/VerifySigmaProtocol1-1.sol\":1099:1448  {... */\n      pop\n      pop\n      pop\n        /* \"contracts/VerifySigmaProtocol1-1.sol\":984:1448  function pointMul(uint256[2] memory point, uint256 scalar)... */\n      swap3\n      swap2\n      pop\n      pop\n      jump\t// out\n        /* \"contracts/VerifySigmaProtocol1-1.sol\":1456:2301  function test() public view returns (uint256 x) {... */\n    tag_20:\n        /* \"contracts/VerifySigmaProtocol1-1.sol\":1493:1502  uint256 x */\n      0x00\n        /* \"contracts/VerifySigmaProtocol1-1.sol\":1515:1527  bytes32 hash */\n      dup1\n        /* \"contracts/VerifySigmaProtocol1-1.sol\":1540:2264  abi.encodePacked(\"07540a0172fce1b7b04c5f841d9aadd2a05219403205efdc1d896ae2072ac62416317acea5734f30ac74dc8bc0a3e88a61d547b6e450db280010773928efbff51415e216f4134b0cd22f42b4071c998d6385047be239c3c9e2b1bf63afca04402371bbc6ebd9554550efa099fdc4108b7f4744febdaff2bfae5274b5742b70bb1415e216f4134b0cd22f42b4071c998d6385047be239c3c9e2b1bf63afca04402e7c6f45a38b24e89d8e12948fa32a5d76e4d61b52c2109a839645823a5e70be1c91f5bbb274c296594f38b9afda1a97c4a752d90e9a0fb87d41cc65e5072c25200ce8b4f56869be899eddba5733abe8674c3aa021bbf9fd4b15423fc195bbb81415e216f4134b0cd22f42b4071c998d6385047be239c3c9e2b1bf63afca04401205025075a21991e99359a5571bfea884895d1155b86f2ab9021fd5f0c639a4303c2f858ce646aeee20cee0b6708a6f49403594b40067d8d59d48d992b275a9\") */\n      add(0x20, mload(0x40))\n      tag_96\n      swap1\n      tag_97\n      jump\t// in\n    tag_96:\n      mload(0x40)\n      0x20\n      dup2\n      dup4\n      sub\n      sub\n      dup2\n      mstore\n      swap1\n      0x40\n      mstore\n        /* \"contracts/VerifySigmaProtocol1-1.sol\":1530:2265  keccak256(abi.encodePacked(\"07540a0172fce1b7b04c5f841d9aadd2a05219403205efdc1d896ae2072ac62416317acea5734f30ac74dc8bc0a3e88a61d547b6e450db280010773928efbff51415e216f4134b0cd22f42b4071c998d6385047be239c3c9e2b1bf63afca04402371bbc6ebd9554550efa099fdc4108b7f4744febdaff2bfae5274b5742b70bb1415e216f4134b0cd22f42b4071c998d6385047be239c3c9e2b1bf63afca04402e7c6f45a38b24e89d8e12948fa32a5d76e4d61b52c2109a839645823a5e70be1c91f5bbb274c296594f38b9afda1a97c4a752d90e9a0fb87d41cc65e5072c25200ce8b4f56869be899eddba5733abe8674c3aa021bbf9fd4b15423fc195bbb81415e216f4134b0cd22f42b4071c998d6385047be239c3c9e2b1bf63afca04401205025075a21991e99359a5571bfea884895d1155b86f2ab9021fd5f0c639a4303c2f858ce646aeee20cee0b6708a6f49403594b40067d8d59d48d992b275a9\")) */\n      dup1\n      mload\n      swap1\n      0x20\n      add\n      keccak256\n        /* \"contracts/VerifySigmaProtocol1-1.sol\":1515:2265  bytes32 hash = keccak256(abi.encodePacked(\"07540a0172fce1b7b04c5f841d9aadd2a05219403205efdc1d896ae2072ac62416317acea5734f30ac74dc8bc0a3e88a61d547b6e450db280010773928efbff51415e216f4134b0cd22f42b4071c998d6385047be239c3c9e2b1bf63afca04402371bbc6ebd9554550efa099fdc4108b7f4744febdaff2bfae5274b5742b70bb1415e216f4134b0cd22f42b4071c998d6385047be239c3c9e2b1bf63afca04402e7c6f45a38b24e89d8e12948fa32a5d76e4d61b52c2109a839645823a5e70be1c91f5bbb274c296594f38b9afda1a97c4a752d90e9a0fb87d41cc65e5072c25200ce8b4f56869be899eddba5733abe8674c3aa021bbf9fd4b15423fc195bbb81415e216f4134b0cd22f42b4071c998d6385047be239c3c9e2b1bf63afca04401205025075a21991e99359a5571bfea884895d1155b86f2ab9021fd5f0c639a4303c2f858ce646aeee20cee0b6708a6f49403594b40067d8d59d48d992b275a9\")) */\n      swap1\n      pop\n        /* \"contracts/VerifySigmaProtocol1-1.sol\":2288:2292  hash */\n      dup1\n        /* \"contracts/VerifySigmaProtocol1-1.sol\":2280:2293  uint256(hash) */\n      0x00\n      shr\n        /* \"contracts/VerifySigmaProtocol1-1.sol\":2276:2293  x = uint256(hash) */\n      swap2\n      pop\n        /* \"contracts/VerifySigmaProtocol1-1.sol\":1504:2301  {... */\n      pop\n        /* \"contracts/VerifySigmaProtocol1-1.sol\":1456:2301  function test() public view returns (uint256 x) {... */\n      swap1\n      jump\t// out\n        /* \"contracts/VerifySigmaProtocol1-1.sol\":492:976  function pointAdd(uint256[2] memory point1, uint256[2] memory point2)... */\n    tag_26:\n        /* \"contracts/VerifySigmaProtocol1-1.sol\":592:616  uint256[2] memory result */\n      tag_98\n      tag_71\n      jump\t// in\n    tag_98:\n        /* \"contracts/VerifySigmaProtocol1-1.sol\":629:646  bytes memory data */\n      0x00\n        /* \"contracts/VerifySigmaProtocol1-1.sol\":666:672  point1 */\n      dup4\n        /* \"contracts/VerifySigmaProtocol1-1.sol\":673:674  0 */\n      0x00\n        /* \"contracts/VerifySigmaProtocol1-1.sol\":666:675  point1[0] */\n      0x02\n      dup2\n      lt\n      tag_100\n      jumpi\n      tag_101\n      tag_54\n      jump\t// in\n    tag_101:\n    tag_100:\n      0x20\n      mul\n      add\n      mload\n        /* \"contracts/VerifySigmaProtocol1-1.sol\":677:683  point1 */\n      dup5\n        /* \"contracts/VerifySigmaProtocol1-1.sol\":684:685  1 */\n      0x01\n        /* \"contracts/VerifySigmaProtocol1-1.sol\":677:686  point1[1] */\n      0x02\n      dup2\n      lt\n      tag_102\n      jumpi\n      tag_103\n      tag_54\n      jump\t// in\n    tag_103:\n    tag_102:\n      0x20\n      mul\n      add\n      mload\n        /* \"contracts/VerifySigmaProtocol1-1.sol\":688:694  point2 */\n      dup5\n        /* \"contracts/VerifySigmaProtocol1-1.sol\":695:696  0 */\n      0x00\n        /* \"contracts/VerifySigmaProtocol1-1.sol\":688:697  point2[0] */\n      0x02\n      dup2\n      lt\n      tag_104\n      jumpi\n      tag_105\n      tag_54\n      jump\t// in\n    tag_105:\n    tag_104:\n      0x20\n      mul\n      add\n      mload\n        /* \"contracts/VerifySigmaProtocol1-1.sol\":699:705  point2 */\n      dup6\n        /* \"contracts/VerifySigmaProtocol1-1.sol\":706:707  1 */\n      0x01\n        /* \"contracts/VerifySigmaProtocol1-1.sol\":699:708  point2[1] */\n      0x02\n      dup2\n      lt\n      tag_106\n      jumpi\n      tag_107\n      tag_54\n      jump\t// in\n    tag_107:\n    tag_106:\n      0x20\n      mul\n      add\n      mload\n        /* \"contracts/VerifySigmaProtocol1-1.sol\":649:709  abi.encodePacked(point1[0], point1[1], point2[0], point2[1]) */\n      add(0x20, mload(0x40))\n      tag_108\n      swap5\n      swap4\n      swap3\n      swap2\n      swap1\n      tag_109\n      jump\t// in\n    tag_108:\n      mload(0x40)\n      0x20\n      dup2\n      dup4\n      sub\n      sub\n      dup2\n      mstore\n      swap1\n      0x40\n      mstore\n        /* \"contracts/VerifySigmaProtocol1-1.sol\":629:709  bytes memory data = abi.encodePacked(point1[0], point1[1], point2[0], point2[1]) */\n      swap1\n      pop\n        /* \"contracts/VerifySigmaProtocol1-1.sol\":721:733  bool success */\n      0x00\n        /* \"contracts/VerifySigmaProtocol1-1.sol\":735:758  bytes memory returnData */\n      dup1\n        /* \"contracts/VerifySigmaProtocol1-1.sol\":770:774  0x06 */\n      0x06\n        /* \"contracts/VerifySigmaProtocol1-1.sol\":762:786  address(0x06).staticcall */\n      0xffffffffffffffffffffffffffffffffffffffff\n      and\n        /* \"contracts/VerifySigmaProtocol1-1.sol\":787:791  data */\n      dup4\n        /* \"contracts/VerifySigmaProtocol1-1.sol\":762:792  address(0x06).staticcall(data) */\n      mload(0x40)\n      tag_110\n      swap2\n      swap1\n      tag_80\n      jump\t// in\n    tag_110:\n      0x00\n      mload(0x40)\n      dup1\n      dup4\n      sub\n      dup2\n      dup6\n      gas\n      staticcall\n      swap2\n      pop\n      pop\n      returndatasize\n      dup1\n      0x00\n      dup2\n      eq\n      tag_113\n      jumpi\n      mload(0x40)\n      swap2\n      pop\n      and(add(returndatasize, 0x3f), not(0x1f))\n      dup3\n      add\n      0x40\n      mstore\n      returndatasize\n      dup3\n      mstore\n      returndatasize\n      0x00\n      0x20\n      dup5\n      add\n      returndatacopy\n      jump(tag_112)\n    tag_113:\n      0x60\n      swap2\n      pop\n    tag_112:\n      pop\n        /* \"contracts/VerifySigmaProtocol1-1.sol\":720:792  (bool success, bytes memory returnData) = address(0x06).staticcall(data) */\n      swap2\n      pop\n      swap2\n      pop\n        /* \"contracts/VerifySigmaProtocol1-1.sol\":811:818  success */\n      dup2\n        /* \"contracts/VerifySigmaProtocol1-1.sol\":811:845  success && returnData.length >= 64 */\n      dup1\n      iszero\n      tag_114\n      jumpi\n      pop\n        /* \"contracts/VerifySigmaProtocol1-1.sol\":843:845  64 */\n      0x40\n        /* \"contracts/VerifySigmaProtocol1-1.sol\":822:832  returnData */\n      dup2\n        /* \"contracts/VerifySigmaProtocol1-1.sol\":822:839  returnData.length */\n      mload\n        /* \"contracts/VerifySigmaProtocol1-1.sol\":822:845  returnData.length >= 64 */\n      lt\n      iszero\n        /* \"contracts/VerifySigmaProtocol1-1.sol\":811:845  success && returnData.length >= 64 */\n    tag_114:\n        /* \"contracts/VerifySigmaProtocol1-1.sol\":803:871  require(success && returnData.length >= 64, \"Point addition failed\") */\n      tag_115\n      jumpi\n      mload(0x40)\n      0x08c379a000000000000000000000000000000000000000000000000000000000\n      dup2\n      mstore\n      0x04\n      add\n      tag_116\n      swap1\n      tag_117\n      jump\t// in\n    tag_116:\n      mload(0x40)\n      dup1\n      swap2\n      sub\n      swap1\n      revert\n    tag_115:\n        /* \"contracts/VerifySigmaProtocol1-1.sol\":894:919  _toUint256(returnData, 0) */\n      tag_118\n        /* \"contracts/VerifySigmaProtocol1-1.sol\":905:915  returnData */\n      dup2\n        /* \"contracts/VerifySigmaProtocol1-1.sol\":917:918  0 */\n      0x00\n        /* \"contracts/VerifySigmaProtocol1-1.sol\":894:904  _toUint256 */\n      tag_89\n        /* \"contracts/VerifySigmaProtocol1-1.sol\":894:919  _toUint256(returnData, 0) */\n      jump\t// in\n    tag_118:\n        /* \"contracts/VerifySigmaProtocol1-1.sol\":882:888  result */\n      dup5\n        /* \"contracts/VerifySigmaProtocol1-1.sol\":889:890  0 */\n      0x00\n        /* \"contracts/VerifySigmaProtocol1-1.sol\":882:891  result[0] */\n      0x02\n      dup2\n      lt\n      tag_119\n      jumpi\n      tag_120\n      tag_54\n      jump\t// in\n    tag_120:\n    tag_119:\n      0x20\n      mul\n      add\n        /* \"contracts/VerifySigmaProtocol1-1.sol\":882:919  result[0] = _toUint256(returnData, 0) */\n      dup2\n      dup2\n      mstore\n      pop\n      pop\n        /* \"contracts/VerifySigmaProtocol1-1.sol\":942:968  _toUint256(returnData, 32) */\n      tag_121\n        /* \"contracts/VerifySigmaProtocol1-1.sol\":953:963  returnData */\n      dup2\n        /* \"contracts/VerifySigmaProtocol1-1.sol\":965:967  32 */\n      0x20\n        /* \"contracts/VerifySigmaProtocol1-1.sol\":942:952  _toUint256 */\n      tag_89\n        /* \"contracts/VerifySigmaProtocol1-1.sol\":942:968  _toUint256(returnData, 32) */\n      jump\t// in\n    tag_121:\n        /* \"contracts/VerifySigmaProtocol1-1.sol\":930:936  result */\n      dup5\n        /* \"contracts/VerifySigmaProtocol1-1.sol\":937:938  1 */\n      0x01\n        /* \"contracts/VerifySigmaProtocol1-1.sol\":930:939  result[1] */\n      0x02\n      dup2\n      lt\n      tag_122\n      jumpi\n      tag_123\n      tag_54\n      jump\t// in\n    tag_123:\n    tag_122:\n      0x20\n      mul\n      add\n        /* \"contracts/VerifySigmaProtocol1-1.sol\":930:968  result[1] = _toUint256(returnData, 32) */\n      dup2\n      dup2\n      mstore\n      pop\n      pop\n        /* \"contracts/VerifySigmaProtocol1-1.sol\":618:976  {... */\n      pop\n      pop\n      pop\n        /* \"contracts/VerifySigmaProtocol1-1.sol\":492:976  function pointAdd(uint256[2] memory point1, uint256[2] memory point2)... */\n      swap3\n      swap2\n      pop\n      pop\n      jump\t// out\n        /* \"contracts/VerifySigmaProtocol1-1.sol\":3741:3928  function sumArray(uint256[][2] memory array) internal pure returns (uint256 sum) {... */\n    tag_40:\n        /* \"contracts/VerifySigmaProtocol1-1.sol\":3809:3820  uint256 sum */\n      0x00\n        /* \"contracts/VerifySigmaProtocol1-1.sol\":3838:3847  uint256 i */\n      dup1\n        /* \"contracts/VerifySigmaProtocol1-1.sol\":3850:3851  0 */\n      0x00\n        /* \"contracts/VerifySigmaProtocol1-1.sol\":3838:3851  uint256 i = 0 */\n      swap1\n      pop\n        /* \"contracts/VerifySigmaProtocol1-1.sol\":3833:3921  for (uint256 i = 0; i < array.length; i++) {... */\n    tag_125:\n        /* \"contracts/VerifySigmaProtocol1-1.sol\":3857:3869  array.length */\n      0x02\n        /* \"contracts/VerifySigmaProtocol1-1.sol\":3853:3854  i */\n      dup2\n        /* \"contracts/VerifySigmaProtocol1-1.sol\":3853:3869  i < array.length */\n      lt\n        /* \"contracts/VerifySigmaProtocol1-1.sol\":3833:3921  for (uint256 i = 0; i < array.length; i++) {... */\n      iszero\n      tag_126\n      jumpi\n        /* \"contracts/VerifySigmaProtocol1-1.sol\":3898:3903  array */\n      dup3\n        /* \"contracts/VerifySigmaProtocol1-1.sol\":3904:3905  i */\n      dup2\n        /* \"contracts/VerifySigmaProtocol1-1.sol\":3898:3906  array[i] */\n      0x02\n      dup2\n      lt\n      tag_128\n      jumpi\n      tag_129\n      tag_54\n      jump\t// in\n    tag_129:\n    tag_128:\n      0x20\n      mul\n      add\n      mload\n        /* \"contracts/VerifySigmaProtocol1-1.sol\":3907:3908  0 */\n      0x00\n        /* \"contracts/VerifySigmaProtocol1-1.sol\":3898:3909  array[i][0] */\n      dup2\n      mload\n      dup2\n      lt\n      tag_130\n      jumpi\n      tag_131\n      tag_54\n      jump\t// in\n    tag_131:\n    tag_130:\n      0x20\n      mul\n      0x20\n      add\n      add\n      mload\n        /* \"contracts/VerifySigmaProtocol1-1.sol\":3891:3909  sum += array[i][0] */\n      dup3\n      tag_132\n      swap2\n      swap1\n      tag_43\n      jump\t// in\n    tag_132:\n      swap2\n      pop\n        /* \"contracts/VerifySigmaProtocol1-1.sol\":3871:3874  i++ */\n      dup1\n      dup1\n      0x01\n      add\n      swap2\n      pop\n      pop\n        /* \"contracts/VerifySigmaProtocol1-1.sol\":3833:3921  for (uint256 i = 0; i < array.length; i++) {... */\n      jump(tag_125)\n    tag_126:\n      pop\n        /* \"contracts/VerifySigmaProtocol1-1.sol\":3741:3928  function sumArray(uint256[][2] memory array) internal pure returns (uint256 sum) {... */\n      swap2\n      swap1\n      pop\n      jump\t// out\n        /* \"contracts/VerifySigmaProtocol1-1.sol\":5756:6329  function uint2str(uint _i) internal pure returns (string memory _uintAsString) {... */\n    tag_45:\n        /* \"contracts/VerifySigmaProtocol1-1.sol\":5806:5833  string memory _uintAsString */\n      0x60\n        /* \"contracts/VerifySigmaProtocol1-1.sol\":5856:5857  0 */\n      0x00\n        /* \"contracts/VerifySigmaProtocol1-1.sol\":5850:5852  _i */\n      dup3\n        /* \"contracts/VerifySigmaProtocol1-1.sol\":5850:5857  _i == 0 */\n      sub\n        /* \"contracts/VerifySigmaProtocol1-1.sol\":5846:5896  if (_i == 0) {... */\n      tag_134\n      jumpi\n        /* \"contracts/VerifySigmaProtocol1-1.sol\":5874:5884  return \"0\" */\n      mload(0x40)\n      dup1\n      0x40\n      add\n      0x40\n      mstore\n      dup1\n      0x01\n      dup2\n      mstore\n      0x20\n      add\n      0x3000000000000000000000000000000000000000000000000000000000000000\n      dup2\n      mstore\n      pop\n      swap1\n      pop\n      jump(tag_133)\n        /* \"contracts/VerifySigmaProtocol1-1.sol\":5846:5896  if (_i == 0) {... */\n    tag_134:\n        /* \"contracts/VerifySigmaProtocol1-1.sol\":5906:5912  uint j */\n      0x00\n        /* \"contracts/VerifySigmaProtocol1-1.sol\":5915:5917  _i */\n      dup3\n        /* \"contracts/VerifySigmaProtocol1-1.sol\":5906:5917  uint j = _i */\n      swap1\n      pop\n        /* \"contracts/VerifySigmaProtocol1-1.sol\":5928:5936  uint len */\n      0x00\n        /* \"contracts/VerifySigmaProtocol1-1.sol\":5947:6016  while (j != 0) {... */\n    tag_135:\n        /* \"contracts/VerifySigmaProtocol1-1.sol\":5959:5960  0 */\n      0x00\n        /* \"contracts/VerifySigmaProtocol1-1.sol\":5954:5955  j */\n      dup3\n        /* \"contracts/VerifySigmaProtocol1-1.sol\":5954:5960  j != 0 */\n      eq\n        /* \"contracts/VerifySigmaProtocol1-1.sol\":5947:6016  while (j != 0) {... */\n      tag_136\n      jumpi\n        /* \"contracts/VerifySigmaProtocol1-1.sol\":5977:5982  len++ */\n      dup1\n      dup1\n      tag_137\n      swap1\n      tag_138\n      jump\t// in\n    tag_137:\n      swap2\n      pop\n      pop\n        /* \"contracts/VerifySigmaProtocol1-1.sol\":6002:6004  10 */\n      0x0a\n        /* \"contracts/VerifySigmaProtocol1-1.sol\":5997:6004  j /= 10 */\n      dup3\n      tag_139\n      swap2\n      swap1\n      tag_140\n      jump\t// in\n    tag_139:\n      swap2\n      pop\n        /* \"contracts/VerifySigmaProtocol1-1.sol\":5947:6016  while (j != 0) {... */\n      jump(tag_135)\n    tag_136:\n        /* \"contracts/VerifySigmaProtocol1-1.sol\":6026:6043  bytes memory bstr */\n      0x00\n        /* \"contracts/VerifySigmaProtocol1-1.sol\":6056:6059  len */\n      dup2\n        /* \"contracts/VerifySigmaProtocol1-1.sol\":6046:6060  new bytes(len) */\n      0xffffffffffffffff\n      dup2\n      gt\n      iszero\n      tag_141\n      jumpi\n      tag_142\n      tag_143\n      jump\t// in\n    tag_142:\n    tag_141:\n      mload(0x40)\n      swap1\n      dup1\n      dup3\n      mstore\n      dup1\n      0x1f\n      add\n      not(0x1f)\n      and\n      0x20\n      add\n      dup3\n      add\n      0x40\n      mstore\n      dup1\n      iszero\n      tag_144\n      jumpi\n      dup2\n      0x20\n      add\n      0x01\n      dup3\n      mul\n      dup1\n      calldatasize\n      dup4\n      calldatacopy\n      dup1\n      dup3\n      add\n      swap2\n      pop\n      pop\n      swap1\n      pop\n    tag_144:\n      pop\n        /* \"contracts/VerifySigmaProtocol1-1.sol\":6026:6060  bytes memory bstr = new bytes(len) */\n      swap1\n      pop\n        /* \"contracts/VerifySigmaProtocol1-1.sol\":6071:6077  uint k */\n      0x00\n        /* \"contracts/VerifySigmaProtocol1-1.sol\":6080:6083  len */\n      dup3\n        /* \"contracts/VerifySigmaProtocol1-1.sol\":6071:6083  uint k = len */\n      swap1\n      pop\n        /* \"contracts/VerifySigmaProtocol1-1.sol\":6094:6292  while (_i != 0) {... */\n    tag_145:\n        /* \"contracts/VerifySigmaProtocol1-1.sol\":6107:6108  0 */\n      0x00\n        /* \"contracts/VerifySigmaProtocol1-1.sol\":6101:6103  _i */\n      dup7\n        /* \"contracts/VerifySigmaProtocol1-1.sol\":6101:6108  _i != 0 */\n      eq\n        /* \"contracts/VerifySigmaProtocol1-1.sol\":6094:6292  while (_i != 0) {... */\n      tag_146\n      jumpi\n        /* \"contracts/VerifySigmaProtocol1-1.sol\":6131:6132  1 */\n      0x01\n        /* \"contracts/VerifySigmaProtocol1-1.sol\":6129:6130  k */\n      dup2\n        /* \"contracts/VerifySigmaProtocol1-1.sol\":6129:6132  k-1 */\n      tag_147\n      swap2\n      swap1\n      tag_148\n      jump\t// in\n    tag_147:\n        /* \"contracts/VerifySigmaProtocol1-1.sol\":6125:6132  k = k-1 */\n      swap1\n      pop\n        /* \"contracts/VerifySigmaProtocol1-1.sol\":6147:6157  uint8 temp */\n      0x00\n        /* \"contracts/VerifySigmaProtocol1-1.sol\":6187:6189  10 */\n      0x0a\n        /* \"contracts/VerifySigmaProtocol1-1.sol\":6182:6184  10 */\n      dup1\n        /* \"contracts/VerifySigmaProtocol1-1.sol\":6177:6179  _i */\n      dup9\n        /* \"contracts/VerifySigmaProtocol1-1.sol\":6177:6184  _i / 10 */\n      tag_149\n      swap2\n      swap1\n      tag_140\n      jump\t// in\n    tag_149:\n        /* \"contracts/VerifySigmaProtocol1-1.sol\":6177:6189  _i / 10 * 10 */\n      tag_150\n      swap2\n      swap1\n      tag_151\n      jump\t// in\n    tag_150:\n        /* \"contracts/VerifySigmaProtocol1-1.sol\":6172:6174  _i */\n      dup8\n        /* \"contracts/VerifySigmaProtocol1-1.sol\":6172:6189  _i - _i / 10 * 10 */\n      tag_152\n      swap2\n      swap1\n      tag_148\n      jump\t// in\n    tag_152:\n        /* \"contracts/VerifySigmaProtocol1-1.sol\":6161:6163  48 */\n      0x30\n        /* \"contracts/VerifySigmaProtocol1-1.sol\":6161:6190  48 + uint8(_i - _i / 10 * 10) */\n      tag_153\n      swap2\n      swap1\n      tag_154\n      jump\t// in\n    tag_153:\n        /* \"contracts/VerifySigmaProtocol1-1.sol\":6147:6191  uint8 temp = (48 + uint8(_i - _i / 10 * 10)) */\n      swap1\n      pop\n        /* \"contracts/VerifySigmaProtocol1-1.sol\":6206:6215  bytes1 b1 */\n      0x00\n        /* \"contracts/VerifySigmaProtocol1-1.sol\":6225:6229  temp */\n      dup2\n        /* \"contracts/VerifySigmaProtocol1-1.sol\":6218:6230  bytes1(temp) */\n      0xf8\n      shl\n        /* \"contracts/VerifySigmaProtocol1-1.sol\":6206:6230  bytes1 b1 = bytes1(temp) */\n      swap1\n      pop\n        /* \"contracts/VerifySigmaProtocol1-1.sol\":6255:6257  b1 */\n      dup1\n        /* \"contracts/VerifySigmaProtocol1-1.sol\":6245:6249  bstr */\n      dup5\n        /* \"contracts/VerifySigmaProtocol1-1.sol\":6250:6251  k */\n      dup5\n        /* \"contracts/VerifySigmaProtocol1-1.sol\":6245:6252  bstr[k] */\n      dup2\n      mload\n      dup2\n      lt\n      tag_155\n      jumpi\n      tag_156\n      tag_54\n      jump\t// in\n    tag_156:\n    tag_155:\n      0x20\n      add\n      add\n        /* \"contracts/VerifySigmaProtocol1-1.sol\":6245:6257  bstr[k] = b1 */\n      swap1\n      not(0xffffffffffffffffffffffffffffffffffffffffffffffffffffffffffffff)\n      and\n      swap1\n      dup2\n      0x00\n      byte\n      swap1\n      mstore8\n      pop\n        /* \"contracts/VerifySigmaProtocol1-1.sol\":6278:6280  10 */\n      0x0a\n        /* \"contracts/VerifySigmaProtocol1-1.sol\":6272:6280  _i /= 10 */\n      dup9\n      tag_157\n      swap2\n      swap1\n      tag_140\n      jump\t// in\n    tag_157:\n      swap8\n      pop\n        /* \"contracts/VerifySigmaProtocol1-1.sol\":6110:6292  {... */\n      pop\n      pop\n        /* \"contracts/VerifySigmaProtocol1-1.sol\":6094:6292  while (_i != 0) {... */\n      jump(tag_145)\n    tag_146:\n        /* \"contracts/VerifySigmaProtocol1-1.sol\":6316:6320  bstr */\n      dup2\n        /* \"contracts/VerifySigmaProtocol1-1.sol\":6302:6321  return string(bstr) */\n      swap5\n      pop\n      pop\n      pop\n      pop\n      pop\n        /* \"contracts/VerifySigmaProtocol1-1.sol\":5756:6329  function uint2str(uint _i) internal pure returns (string memory _uintAsString) {... */\n    tag_133:\n      swap2\n      swap1\n      pop\n      jump\t// out\n        /* \"contracts/VerifySigmaProtocol1-1.sol\":3936:4493  function validResponse1(uint256 z_1,... */\n    tag_59:\n        /* \"contracts/VerifySigmaProtocol1-1.sol\":4080:4104  uint256[2] memory upkz_1 */\n      tag_159\n      tag_71\n      jump\t// in\n    tag_159:\n        /* \"contracts/VerifySigmaProtocol1-1.sol\":4199:4228  uint256[2] memory mediPoint_1 */\n      tag_160\n      tag_71\n      jump\t// in\n    tag_160:\n        /* \"contracts/VerifySigmaProtocol1-1.sol\":4327:4348  uint256[2] memory AXe */\n      tag_161\n      tag_71\n      jump\t// in\n    tag_161:\n        /* \"contracts/VerifySigmaProtocol1-1.sol\":4460:4485  compareArray(upkz_1, AXe) */\n      tag_162\n        /* \"contracts/VerifySigmaProtocol1-1.sol\":4473:4479  upkz_1 */\n      dup4\n        /* \"contracts/VerifySigmaProtocol1-1.sol\":4481:4484  AXe */\n      dup3\n        /* \"contracts/VerifySigmaProtocol1-1.sol\":4460:4472  compareArray */\n      tag_163\n        /* \"contracts/VerifySigmaProtocol1-1.sol\":4460:4485  compareArray(upkz_1, AXe) */\n      jump\t// in\n    tag_162:\n        /* \"contracts/VerifySigmaProtocol1-1.sol\":4069:4493  {... */\n      pop\n      pop\n      pop\n        /* \"contracts/VerifySigmaProtocol1-1.sol\":3936:4493  function validResponse1(uint256 z_1,... */\n      pop\n      pop\n      pop\n      pop\n      pop\n      jump\t// out\n        /* \"contracts/VerifySigmaProtocol1-1.sol\":4501:5321  function validResponse2(uint256 z_1, uint256 z_2, ... */\n    tag_69:\n        /* \"contracts/VerifySigmaProtocol1-1.sol\":4637:4666  uint256[2] memory mediPoint_1 */\n      tag_165\n      tag_71\n      jump\t// in\n    tag_165:\n        /* \"contracts/VerifySigmaProtocol1-1.sol\":4767:4796  uint256[2] memory mediPoint_2 */\n      tag_166\n      tag_71\n      jump\t// in\n    tag_166:\n        /* \"contracts/VerifySigmaProtocol1-1.sol\":4897:4923  uint256[2] memory gz_1hz_2 */\n      tag_167\n      tag_71\n      jump\t// in\n    tag_167:\n        /* \"contracts/VerifySigmaProtocol1-1.sol\":5153:5174  uint256[2] memory BYe */\n      tag_168\n      tag_71\n      jump\t// in\n    tag_168:\n        /* \"contracts/VerifySigmaProtocol1-1.sol\":5286:5313  compareArray(gz_1hz_2, BYe) */\n      tag_169\n        /* \"contracts/VerifySigmaProtocol1-1.sol\":5299:5307  gz_1hz_2 */\n      dup3\n        /* \"contracts/VerifySigmaProtocol1-1.sol\":5309:5312  BYe */\n      dup3\n        /* \"contracts/VerifySigmaProtocol1-1.sol\":5286:5298  compareArray */\n      tag_163\n        /* \"contracts/VerifySigmaProtocol1-1.sol\":5286:5313  compareArray(gz_1hz_2, BYe) */\n      jump\t// in\n    tag_169:\n        /* \"contracts/VerifySigmaProtocol1-1.sol\":4626:5321  {... */\n      pop\n      pop\n      pop\n      pop\n        /* \"contracts/VerifySigmaProtocol1-1.sol\":4501:5321  function validResponse2(uint256 z_1, uint256 z_2, ... */\n      pop\n      pop\n      pop\n      pop\n      pop\n      jump\t// out\n        /* \"contracts/VerifySigmaProtocol1-1.sol\":6399:6698  function _toUint256(bytes memory data, uint256 start) private pure returns (uint256) {... */\n    tag_89:\n        /* \"contracts/VerifySigmaProtocol1-1.sol\":6475:6482  uint256 */\n      0x00\n        /* \"contracts/VerifySigmaProtocol1-1.sol\":6526:6528  32 */\n      0x20\n        /* \"contracts/VerifySigmaProtocol1-1.sol\":6518:6523  start */\n      dup3\n        /* \"contracts/VerifySigmaProtocol1-1.sol\":6518:6528  start + 32 */\n      tag_171\n      swap2\n      swap1\n      tag_43\n      jump\t// in\n    tag_171:\n        /* \"contracts/VerifySigmaProtocol1-1.sol\":6503:6507  data */\n      dup4\n        /* \"contracts/VerifySigmaProtocol1-1.sol\":6503:6514  data.length */\n      mload\n        /* \"contracts/VerifySigmaProtocol1-1.sol\":6503:6528  data.length >= start + 32 */\n      lt\n      iszero\n        /* \"contracts/VerifySigmaProtocol1-1.sol\":6495:6552  require(data.length >= start + 32, \"Invalid data length\") */\n      tag_172\n      jumpi\n      mload(0x40)\n      0x08c379a000000000000000000000000000000000000000000000000000000000\n      dup2\n      mstore\n      0x04\n      add\n      tag_173\n      swap1\n      tag_174\n      jump\t// in\n    tag_173:\n      mload(0x40)\n      dup1\n      swap2\n      sub\n      swap1\n      revert\n    tag_172:\n        /* \"contracts/VerifySigmaProtocol1-1.sol\":6563:6577  uint256 result */\n      0x00\n        /* \"contracts/VerifySigmaProtocol1-1.sol\":6648:6653  start */\n      dup3\n        /* \"contracts/VerifySigmaProtocol1-1.sol\":6642:6646  0x20 */\n      0x20\n        /* \"contracts/VerifySigmaProtocol1-1.sol\":6638:6654  add(0x20, start) */\n      add\n        /* \"contracts/VerifySigmaProtocol1-1.sol\":6632:6636  data */\n      dup5\n        /* \"contracts/VerifySigmaProtocol1-1.sol\":6628:6655  add(data, add(0x20, start)) */\n      add\n        /* \"contracts/VerifySigmaProtocol1-1.sol\":6622:6656  mload(add(data, add(0x20, start))) */\n      mload\n        /* \"contracts/VerifySigmaProtocol1-1.sol\":6612:6656  result := mload(add(data, add(0x20, start))) */\n      swap1\n      pop\n        /* \"contracts/VerifySigmaProtocol1-1.sol\":6684:6690  result */\n      dup1\n        /* \"contracts/VerifySigmaProtocol1-1.sol\":6677:6690  return result */\n      swap2\n      pop\n      pop\n        /* \"contracts/VerifySigmaProtocol1-1.sol\":6399:6698  function _toUint256(bytes memory data, uint256 start) private pure returns (uint256) {... */\n      swap3\n      swap2\n      pop\n      pop\n      jump\t// out\n        /* \"contracts/VerifySigmaProtocol1-1.sol\":5329:5748  function compareArray(uint256[2] memory array1, uint256[2] memory array2) internal pure {... */\n    tag_163:\n        /* \"contracts/VerifySigmaProtocol1-1.sol\":5449:5462  array2.length */\n      0x02\n        /* \"contracts/VerifySigmaProtocol1-1.sol\":5432:5445  array1.length */\n      dup1\n        /* \"contracts/VerifySigmaProtocol1-1.sol\":5432:5462  array1.length != array2.length */\n      eq\n        /* \"contracts/VerifySigmaProtocol1-1.sol\":5428:5741  if (array1.length != array2.length) {... */\n      tag_176\n      jumpi\n        /* \"contracts/VerifySigmaProtocol1-1.sol\":5479:5525  revert(\"valid failed, array length not equal\") */\n      mload(0x40)\n      0x08c379a000000000000000000000000000000000000000000000000000000000\n      dup2\n      mstore\n      0x04\n      add\n      tag_177\n      swap1\n      tag_178\n      jump\t// in\n    tag_177:\n      mload(0x40)\n      dup1\n      swap2\n      sub\n      swap1\n      revert\n        /* \"contracts/VerifySigmaProtocol1-1.sol\":5428:5741  if (array1.length != array2.length) {... */\n    tag_176:\n        /* \"contracts/VerifySigmaProtocol1-1.sol\":5563:5572  uint256 i */\n      0x00\n        /* \"contracts/VerifySigmaProtocol1-1.sol\":5558:5730  for (uint256 i = 0; i < array1.length; i++) {... */\n    tag_180:\n        /* \"contracts/VerifySigmaProtocol1-1.sol\":5582:5595  array1.length */\n      0x02\n        /* \"contracts/VerifySigmaProtocol1-1.sol\":5578:5579  i */\n      dup2\n        /* \"contracts/VerifySigmaProtocol1-1.sol\":5578:5595  i < array1.length */\n      lt\n        /* \"contracts/VerifySigmaProtocol1-1.sol\":5558:5730  for (uint256 i = 0; i < array1.length; i++) {... */\n      iszero\n      tag_181\n      jumpi\n        /* \"contracts/VerifySigmaProtocol1-1.sol\":5638:5644  array2 */\n      dup2\n        /* \"contracts/VerifySigmaProtocol1-1.sol\":5645:5646  i */\n      dup2\n        /* \"contracts/VerifySigmaProtocol1-1.sol\":5638:5647  array2[i] */\n      0x02\n      dup2\n      lt\n      tag_183\n      jumpi\n      tag_184\n      tag_54\n      jump\t// in\n    tag_184:\n    tag_183:\n      0x20\n      mul\n      add\n      mload\n        /* \"contracts/VerifySigmaProtocol1-1.sol\":5625:5631  array1 */\n      dup4\n        /* \"contracts/VerifySigmaProtocol1-1.sol\":5632:5633  i */\n      dup3\n        /* \"contracts/VerifySigmaProtocol1-1.sol\":5625:5634  array1[i] */\n      0x02\n      dup2\n      lt\n      tag_185\n      jumpi\n      tag_186\n      tag_54\n      jump\t// in\n    tag_186:\n    tag_185:\n      0x20\n      mul\n      add\n      mload\n        /* \"contracts/VerifySigmaProtocol1-1.sol\":5625:5647  array1[i] != array2[i] */\n      eq\n        /* \"contracts/VerifySigmaProtocol1-1.sol\":5621:5715  if (array1[i] != array2[i]) {... */\n      tag_187\n      jumpi\n        /* \"contracts/VerifySigmaProtocol1-1.sol\":5672:5695  revert(\"valid failed!\") */\n      mload(0x40)\n      0x08c379a000000000000000000000000000000000000000000000000000000000\n      dup2\n      mstore\n      0x04\n      add\n      tag_188\n      swap1\n      tag_189\n      jump\t// in\n    tag_188:\n      mload(0x40)\n      dup1\n      swap2\n      sub\n      swap1\n      revert\n        /* \"contracts/VerifySigmaProtocol1-1.sol\":5621:5715  if (array1[i] != array2[i]) {... */\n    tag_187:\n        /* \"contracts/VerifySigmaProtocol1-1.sol\":5597:5600  i++ */\n      dup1\n      dup1\n      0x01\n      add\n      swap2\n      pop\n      pop\n        /* \"contracts/VerifySigmaProtocol1-1.sol\":5558:5730  for (uint256 i = 0; i < array1.length; i++) {... */\n      jump(tag_180)\n    tag_181:\n      pop\n        /* \"contracts/VerifySigmaProtocol1-1.sol\":5329:5748  function compareArray(uint256[2] memory array1, uint256[2] memory array2) internal pure {... */\n      pop\n      pop\n      jump\t// out\n    tag_71:\n      mload(0x40)\n      dup1\n      0x40\n      add\n      0x40\n      mstore\n      dup1\n      0x02\n      swap1\n      0x20\n      dup3\n      mul\n      dup1\n      calldatasize\n      dup4\n      calldatacopy\n      dup1\n      dup3\n      add\n      swap2\n      pop\n      pop\n      swap1\n      pop\n      pop\n      swap1\n      jump\t// out\n        /* \"#utility.yul\":7:82   */\n    tag_190:\n        /* \"#utility.yul\":40:46   */\n      0x00\n        /* \"#utility.yul\":73:75   */\n      0x40\n        /* \"#utility.yul\":67:76   */\n      mload\n        /* \"#utility.yul\":57:76   */\n      swap1\n      pop\n        /* \"#utility.yul\":7:82   */\n      swap1\n      jump\t// out\n        /* \"#utility.yul\":88:205   */\n    tag_191:\n        /* \"#utility.yul\":197:198   */\n      0x00\n        /* \"#utility.yul\":194:195   */\n      dup1\n        /* \"#utility.yul\":187:199   */\n      revert\n        /* \"#utility.yul\":211:328   */\n    tag_192:\n        /* \"#utility.yul\":320:321   */\n      0x00\n        /* \"#utility.yul\":317:318   */\n      dup1\n        /* \"#utility.yul\":310:322   */\n      revert\n        /* \"#utility.yul\":334:451   */\n    tag_193:\n        /* \"#utility.yul\":443:444   */\n      0x00\n        /* \"#utility.yul\":440:441   */\n      dup1\n        /* \"#utility.yul\":433:445   */\n      revert\n        /* \"#utility.yul\":457:559   */\n    tag_194:\n        /* \"#utility.yul\":498:504   */\n      0x00\n        /* \"#utility.yul\":549:551   */\n      0x1f\n        /* \"#utility.yul\":545:552   */\n      not\n        /* \"#utility.yul\":540:542   */\n      0x1f\n        /* \"#utility.yul\":533:538   */\n      dup4\n        /* \"#utility.yul\":529:543   */\n      add\n        /* \"#utility.yul\":525:553   */\n      and\n        /* \"#utility.yul\":515:553   */\n      swap1\n      pop\n        /* \"#utility.yul\":457:559   */\n      swap2\n      swap1\n      pop\n      jump\t// out\n        /* \"#utility.yul\":565:745   */\n    tag_143:\n        /* \"#utility.yul\":613:690   */\n      0x4e487b7100000000000000000000000000000000000000000000000000000000\n        /* \"#utility.yul\":610:611   */\n      0x00\n        /* \"#utility.yul\":603:691   */\n      mstore\n        /* \"#utility.yul\":710:714   */\n      0x41\n        /* \"#utility.yul\":707:708   */\n      0x04\n        /* \"#utility.yul\":700:715   */\n      mstore\n        /* \"#utility.yul\":734:738   */\n      0x24\n        /* \"#utility.yul\":731:732   */\n      0x00\n        /* \"#utility.yul\":724:739   */\n      revert\n        /* \"#utility.yul\":751:1032   */\n    tag_195:\n        /* \"#utility.yul\":834:861   */\n      tag_257\n        /* \"#utility.yul\":856:860   */\n      dup3\n        /* \"#utility.yul\":834:861   */\n      tag_194\n      jump\t// in\n    tag_257:\n        /* \"#utility.yul\":826:832   */\n      dup2\n        /* \"#utility.yul\":822:862   */\n      add\n        /* \"#utility.yul\":964:970   */\n      dup2\n        /* \"#utility.yul\":952:962   */\n      dup2\n        /* \"#utility.yul\":949:971   */\n      lt\n        /* \"#utility.yul\":928:946   */\n      0xffffffffffffffff\n        /* \"#utility.yul\":916:926   */\n      dup3\n        /* \"#utility.yul\":913:947   */\n      gt\n        /* \"#utility.yul\":910:972   */\n      or\n        /* \"#utility.yul\":907:995   */\n      iszero\n      tag_258\n      jumpi\n        /* \"#utility.yul\":975:993   */\n      tag_259\n      tag_143\n      jump\t// in\n    tag_259:\n        /* \"#utility.yul\":907:995   */\n    tag_258:\n        /* \"#utility.yul\":1015:1025   */\n      dup1\n        /* \"#utility.yul\":1011:1013   */\n      0x40\n        /* \"#utility.yul\":1004:1026   */\n      mstore\n        /* \"#utility.yul\":794:1032   */\n      pop\n        /* \"#utility.yul\":751:1032   */\n      pop\n      pop\n      jump\t// out\n        /* \"#utility.yul\":1038:1167   */\n    tag_196:\n        /* \"#utility.yul\":1072:1078   */\n      0x00\n        /* \"#utility.yul\":1099:1119   */\n      tag_261\n      tag_190\n      jump\t// in\n    tag_261:\n        /* \"#utility.yul\":1089:1119   */\n      swap1\n      pop\n        /* \"#utility.yul\":1128:1161   */\n      tag_262\n        /* \"#utility.yul\":1156:1160   */\n      dup3\n        /* \"#utility.yul\":1148:1154   */\n      dup3\n        /* \"#utility.yul\":1128:1161   */\n      tag_195\n      jump\t// in\n    tag_262:\n        /* \"#utility.yul\":1038:1167   */\n      swap2\n      swap1\n      pop\n      jump\t// out\n        /* \"#utility.yul\":1173:1447   */\n    tag_197:\n        /* \"#utility.yul\":1273:1277   */\n      0x00\n        /* \"#utility.yul\":1363:1381   */\n      0xffffffffffffffff\n        /* \"#utility.yul\":1355:1361   */\n      dup3\n        /* \"#utility.yul\":1352:1382   */\n      gt\n        /* \"#utility.yul\":1349:1405   */\n      iszero\n      tag_264\n      jumpi\n        /* \"#utility.yul\":1385:1403   */\n      tag_265\n      tag_143\n      jump\t// in\n    tag_265:\n        /* \"#utility.yul\":1349:1405   */\n    tag_264:\n        /* \"#utility.yul\":1435:1439   */\n      0x20\n        /* \"#utility.yul\":1427:1433   */\n      dup3\n        /* \"#utility.yul\":1423:1440   */\n      mul\n        /* \"#utility.yul\":1415:1440   */\n      swap1\n      pop\n        /* \"#utility.yul\":1173:1447   */\n      swap2\n      swap1\n      pop\n      jump\t// out\n        /* \"#utility.yul\":1453:1570   */\n    tag_198:\n        /* \"#utility.yul\":1562:1563   */\n      0x00\n        /* \"#utility.yul\":1559:1560   */\n      dup1\n        /* \"#utility.yul\":1552:1564   */\n      revert\n        /* \"#utility.yul\":1576:1887   */\n    tag_199:\n        /* \"#utility.yul\":1653:1657   */\n      0x00\n        /* \"#utility.yul\":1743:1761   */\n      0xffffffffffffffff\n        /* \"#utility.yul\":1735:1741   */\n      dup3\n        /* \"#utility.yul\":1732:1762   */\n      gt\n        /* \"#utility.yul\":1729:1785   */\n      iszero\n      tag_268\n      jumpi\n        /* \"#utility.yul\":1765:1783   */\n      tag_269\n      tag_143\n      jump\t// in\n    tag_269:\n        /* \"#utility.yul\":1729:1785   */\n    tag_268:\n        /* \"#utility.yul\":1815:1819   */\n      0x20\n        /* \"#utility.yul\":1807:1813   */\n      dup3\n        /* \"#utility.yul\":1803:1820   */\n      mul\n        /* \"#utility.yul\":1795:1820   */\n      swap1\n      pop\n        /* \"#utility.yul\":1875:1879   */\n      0x20\n        /* \"#utility.yul\":1869:1873   */\n      dup2\n        /* \"#utility.yul\":1865:1880   */\n      add\n        /* \"#utility.yul\":1857:1880   */\n      swap1\n      pop\n        /* \"#utility.yul\":1576:1887   */\n      swap2\n      swap1\n      pop\n      jump\t// out\n        /* \"#utility.yul\":1893:1970   */\n    tag_200:\n        /* \"#utility.yul\":1930:1937   */\n      0x00\n        /* \"#utility.yul\":1959:1964   */\n      dup2\n        /* \"#utility.yul\":1948:1964   */\n      swap1\n      pop\n        /* \"#utility.yul\":1893:1970   */\n      swap2\n      swap1\n      pop\n      jump\t// out\n        /* \"#utility.yul\":1976:2098   */\n    tag_201:\n        /* \"#utility.yul\":2049:2073   */\n      tag_272\n        /* \"#utility.yul\":2067:2072   */\n      dup2\n        /* \"#utility.yul\":2049:2073   */\n      tag_200\n      jump\t// in\n    tag_272:\n        /* \"#utility.yul\":2042:2047   */\n      dup2\n        /* \"#utility.yul\":2039:2074   */\n      eq\n        /* \"#utility.yul\":2029:2092   */\n      tag_273\n      jumpi\n        /* \"#utility.yul\":2088:2089   */\n      0x00\n        /* \"#utility.yul\":2085:2086   */\n      dup1\n        /* \"#utility.yul\":2078:2090   */\n      revert\n        /* \"#utility.yul\":2029:2092   */\n    tag_273:\n        /* \"#utility.yul\":1976:2098   */\n      pop\n      jump\t// out\n        /* \"#utility.yul\":2104:2243   */\n    tag_202:\n        /* \"#utility.yul\":2150:2155   */\n      0x00\n        /* \"#utility.yul\":2188:2194   */\n      dup2\n        /* \"#utility.yul\":2175:2195   */\n      calldataload\n        /* \"#utility.yul\":2166:2195   */\n      swap1\n      pop\n        /* \"#utility.yul\":2204:2237   */\n      tag_275\n        /* \"#utility.yul\":2231:2236   */\n      dup2\n        /* \"#utility.yul\":2204:2237   */\n      tag_201\n      jump\t// in\n    tag_275:\n        /* \"#utility.yul\":2104:2243   */\n      swap3\n      swap2\n      pop\n      pop\n      jump\t// out\n        /* \"#utility.yul\":2266:2976   */\n    tag_203:\n        /* \"#utility.yul\":2362:2367   */\n      0x00\n        /* \"#utility.yul\":2387:2468   */\n      tag_277\n        /* \"#utility.yul\":2403:2467   */\n      tag_278\n        /* \"#utility.yul\":2460:2466   */\n      dup5\n        /* \"#utility.yul\":2403:2467   */\n      tag_199\n      jump\t// in\n    tag_278:\n        /* \"#utility.yul\":2387:2468   */\n      tag_196\n      jump\t// in\n    tag_277:\n        /* \"#utility.yul\":2378:2468   */\n      swap1\n      pop\n        /* \"#utility.yul\":2488:2493   */\n      dup1\n        /* \"#utility.yul\":2517:2523   */\n      dup4\n        /* \"#utility.yul\":2510:2515   */\n      dup3\n        /* \"#utility.yul\":2503:2524   */\n      mstore\n        /* \"#utility.yul\":2551:2555   */\n      0x20\n        /* \"#utility.yul\":2544:2549   */\n      dup3\n        /* \"#utility.yul\":2540:2556   */\n      add\n        /* \"#utility.yul\":2533:2556   */\n      swap1\n      pop\n        /* \"#utility.yul\":2604:2608   */\n      0x20\n        /* \"#utility.yul\":2596:2602   */\n      dup5\n        /* \"#utility.yul\":2592:2609   */\n      mul\n        /* \"#utility.yul\":2584:2590   */\n      dup4\n        /* \"#utility.yul\":2580:2610   */\n      add\n        /* \"#utility.yul\":2633:2636   */\n      dup6\n        /* \"#utility.yul\":2625:2631   */\n      dup2\n        /* \"#utility.yul\":2622:2637   */\n      gt\n        /* \"#utility.yul\":2619:2741   */\n      iszero\n      tag_279\n      jumpi\n        /* \"#utility.yul\":2652:2731   */\n      tag_280\n      tag_198\n      jump\t// in\n    tag_280:\n        /* \"#utility.yul\":2619:2741   */\n    tag_279:\n        /* \"#utility.yul\":2767:2773   */\n      dup4\n        /* \"#utility.yul\":2750:2970   */\n    tag_281:\n        /* \"#utility.yul\":2784:2790   */\n      dup2\n        /* \"#utility.yul\":2779:2782   */\n      dup2\n        /* \"#utility.yul\":2776:2791   */\n      lt\n        /* \"#utility.yul\":2750:2970   */\n      iszero\n      tag_283\n      jumpi\n        /* \"#utility.yul\":2859:2862   */\n      dup1\n        /* \"#utility.yul\":2888:2925   */\n      tag_284\n        /* \"#utility.yul\":2921:2924   */\n      dup9\n        /* \"#utility.yul\":2909:2919   */\n      dup3\n        /* \"#utility.yul\":2888:2925   */\n      tag_202\n      jump\t// in\n    tag_284:\n        /* \"#utility.yul\":2883:2886   */\n      dup5\n        /* \"#utility.yul\":2876:2926   */\n      mstore\n        /* \"#utility.yul\":2955:2959   */\n      0x20\n        /* \"#utility.yul\":2950:2953   */\n      dup5\n        /* \"#utility.yul\":2946:2960   */\n      add\n        /* \"#utility.yul\":2939:2960   */\n      swap4\n      pop\n        /* \"#utility.yul\":2826:2970   */\n      pop\n        /* \"#utility.yul\":2810:2814   */\n      0x20\n        /* \"#utility.yul\":2805:2808   */\n      dup2\n        /* \"#utility.yul\":2801:2815   */\n      add\n        /* \"#utility.yul\":2794:2815   */\n      swap1\n      pop\n        /* \"#utility.yul\":2750:2970   */\n      jump(tag_281)\n    tag_283:\n        /* \"#utility.yul\":2754:2775   */\n      pop\n        /* \"#utility.yul\":2368:2976   */\n      pop\n      pop\n        /* \"#utility.yul\":2266:2976   */\n      swap4\n      swap3\n      pop\n      pop\n      pop\n      jump\t// out\n        /* \"#utility.yul\":2999:3369   */\n    tag_204:\n        /* \"#utility.yul\":3070:3075   */\n      0x00\n        /* \"#utility.yul\":3119:3122   */\n      dup3\n        /* \"#utility.yul\":3112:3116   */\n      0x1f\n        /* \"#utility.yul\":3104:3110   */\n      dup4\n        /* \"#utility.yul\":3100:3117   */\n      add\n        /* \"#utility.yul\":3096:3123   */\n      slt\n        /* \"#utility.yul\":3086:3208   */\n      tag_286\n      jumpi\n        /* \"#utility.yul\":3127:3206   */\n      tag_287\n      tag_193\n      jump\t// in\n    tag_287:\n        /* \"#utility.yul\":3086:3208   */\n    tag_286:\n        /* \"#utility.yul\":3244:3250   */\n      dup2\n        /* \"#utility.yul\":3231:3251   */\n      calldataload\n        /* \"#utility.yul\":3269:3363   */\n      tag_288\n        /* \"#utility.yul\":3359:3362   */\n      dup5\n        /* \"#utility.yul\":3351:3357   */\n      dup3\n        /* \"#utility.yul\":3344:3348   */\n      0x20\n        /* \"#utility.yul\":3336:3342   */\n      dup7\n        /* \"#utility.yul\":3332:3349   */\n      add\n        /* \"#utility.yul\":3269:3363   */\n      tag_203\n      jump\t// in\n    tag_288:\n        /* \"#utility.yul\":3260:3363   */\n      swap2\n      pop\n        /* \"#utility.yul\":3076:3369   */\n      pop\n        /* \"#utility.yul\":2999:3369   */\n      swap3\n      swap2\n      pop\n      pop\n      jump\t// out\n        /* \"#utility.yul\":3395:4318   */\n    tag_205:\n        /* \"#utility.yul\":3514:3519   */\n      0x00\n        /* \"#utility.yul\":3539:3643   */\n      tag_290\n        /* \"#utility.yul\":3555:3642   */\n      tag_291\n        /* \"#utility.yul\":3635:3641   */\n      dup5\n        /* \"#utility.yul\":3555:3642   */\n      tag_197\n      jump\t// in\n    tag_291:\n        /* \"#utility.yul\":3539:3643   */\n      tag_196\n      jump\t// in\n    tag_290:\n        /* \"#utility.yul\":3530:3643   */\n      swap1\n      pop\n        /* \"#utility.yul\":3663:3668   */\n      dup1\n        /* \"#utility.yul\":3716:3720   */\n      0x20\n        /* \"#utility.yul\":3708:3714   */\n      dup5\n        /* \"#utility.yul\":3704:3721   */\n      mul\n        /* \"#utility.yul\":3696:3702   */\n      dup4\n        /* \"#utility.yul\":3692:3722   */\n      add\n        /* \"#utility.yul\":3745:3748   */\n      dup6\n        /* \"#utility.yul\":3737:3743   */\n      dup2\n        /* \"#utility.yul\":3734:3749   */\n      gt\n        /* \"#utility.yul\":3731:3853   */\n      iszero\n      tag_292\n      jumpi\n        /* \"#utility.yul\":3764:3843   */\n      tag_293\n      tag_198\n      jump\t// in\n    tag_293:\n        /* \"#utility.yul\":3731:3853   */\n    tag_292:\n        /* \"#utility.yul\":3879:3885   */\n      dup4\n        /* \"#utility.yul\":3862:4312   */\n    tag_294:\n        /* \"#utility.yul\":3896:3902   */\n      dup2\n        /* \"#utility.yul\":3891:3894   */\n      dup2\n        /* \"#utility.yul\":3888:3903   */\n      lt\n        /* \"#utility.yul\":3862:4312   */\n      iszero\n      tag_296\n      jumpi\n        /* \"#utility.yul\":3985:3988   */\n      dup1\n        /* \"#utility.yul\":3972:3989   */\n      calldataload\n        /* \"#utility.yul\":4021:4039   */\n      0xffffffffffffffff\n        /* \"#utility.yul\":4008:4019   */\n      dup2\n        /* \"#utility.yul\":4005:4040   */\n      gt\n        /* \"#utility.yul\":4002:4124   */\n      iszero\n      tag_297\n      jumpi\n        /* \"#utility.yul\":4043:4122   */\n      tag_298\n      tag_193\n      jump\t// in\n    tag_298:\n        /* \"#utility.yul\":4002:4124   */\n    tag_297:\n        /* \"#utility.yul\":4167:4178   */\n      dup1\n        /* \"#utility.yul\":4159:4165   */\n      dup7\n        /* \"#utility.yul\":4155:4179   */\n      add\n        /* \"#utility.yul\":4205:4267   */\n      tag_299\n        /* \"#utility.yul\":4263:4266   */\n      dup10\n        /* \"#utility.yul\":4251:4261   */\n      dup3\n        /* \"#utility.yul\":4205:4267   */\n      tag_204\n      jump\t// in\n    tag_299:\n        /* \"#utility.yul\":4200:4203   */\n      dup6\n        /* \"#utility.yul\":4193:4268   */\n      mstore\n        /* \"#utility.yul\":4297:4301   */\n      0x20\n        /* \"#utility.yul\":4292:4295   */\n      dup6\n        /* \"#utility.yul\":4288:4302   */\n      add\n        /* \"#utility.yul\":4281:4302   */\n      swap5\n      pop\n        /* \"#utility.yul\":3938:4312   */\n      pop\n      pop\n        /* \"#utility.yul\":3922:3926   */\n      0x20\n        /* \"#utility.yul\":3917:3920   */\n      dup2\n        /* \"#utility.yul\":3913:3927   */\n      add\n        /* \"#utility.yul\":3906:3927   */\n      swap1\n      pop\n        /* \"#utility.yul\":3862:4312   */\n      jump(tag_294)\n    tag_296:\n        /* \"#utility.yul\":3866:3887   */\n      pop\n        /* \"#utility.yul\":3520:4318   */\n      pop\n      pop\n        /* \"#utility.yul\":3395:4318   */\n      swap4\n      swap3\n      pop\n      pop\n      pop\n      jump\t// out\n        /* \"#utility.yul\":4344:4733   */\n    tag_206:\n        /* \"#utility.yul\":4438:4443   */\n      0x00\n        /* \"#utility.yul\":4487:4490   */\n      dup3\n        /* \"#utility.yul\":4480:4484   */\n      0x1f\n        /* \"#utility.yul\":4472:4478   */\n      dup4\n        /* \"#utility.yul\":4468:4485   */\n      add\n        /* \"#utility.yul\":4464:4491   */\n      slt\n        /* \"#utility.yul\":4454:4576   */\n      tag_301\n      jumpi\n        /* \"#utility.yul\":4495:4574   */\n      tag_302\n      tag_193\n      jump\t// in\n    tag_302:\n        /* \"#utility.yul\":4454:4576   */\n    tag_301:\n        /* \"#utility.yul\":4599:4603   */\n      0x02\n        /* \"#utility.yul\":4621:4727   */\n      tag_303\n        /* \"#utility.yul\":4723:4726   */\n      dup5\n        /* \"#utility.yul\":4715:4721   */\n      dup3\n        /* \"#utility.yul\":4707:4713   */\n      dup6\n        /* \"#utility.yul\":4621:4727   */\n      tag_205\n      jump\t// in\n    tag_303:\n        /* \"#utility.yul\":4612:4727   */\n      swap2\n      pop\n        /* \"#utility.yul\":4444:4733   */\n      pop\n        /* \"#utility.yul\":4344:4733   */\n      swap3\n      swap2\n      pop\n      pop\n      jump\t// out\n        /* \"#utility.yul\":4739:4988   */\n    tag_207:\n        /* \"#utility.yul\":4814:4818   */\n      0x00\n        /* \"#utility.yul\":4904:4922   */\n      0xffffffffffffffff\n        /* \"#utility.yul\":4896:4902   */\n      dup3\n        /* \"#utility.yul\":4893:4923   */\n      gt\n        /* \"#utility.yul\":4890:4946   */\n      iszero\n      tag_305\n      jumpi\n        /* \"#utility.yul\":4926:4944   */\n      tag_306\n      tag_143\n      jump\t// in\n    tag_306:\n        /* \"#utility.yul\":4890:4946   */\n    tag_305:\n        /* \"#utility.yul\":4976:4980   */\n      0x20\n        /* \"#utility.yul\":4968:4974   */\n      dup3\n        /* \"#utility.yul\":4964:4981   */\n      mul\n        /* \"#utility.yul\":4956:4981   */\n      swap1\n      pop\n        /* \"#utility.yul\":4739:4988   */\n      swap2\n      swap1\n      pop\n      jump\t// out\n        /* \"#utility.yul\":5012:5655   */\n    tag_208:\n        /* \"#utility.yul\":5106:5111   */\n      0x00\n        /* \"#utility.yul\":5131:5210   */\n      tag_308\n        /* \"#utility.yul\":5147:5209   */\n      tag_309\n        /* \"#utility.yul\":5202:5208   */\n      dup5\n        /* \"#utility.yul\":5147:5209   */\n      tag_207\n      jump\t// in\n    tag_309:\n        /* \"#utility.yul\":5131:5210   */\n      tag_196\n      jump\t// in\n    tag_308:\n        /* \"#utility.yul\":5122:5210   */\n      swap1\n      pop\n        /* \"#utility.yul\":5230:5235   */\n      dup1\n        /* \"#utility.yul\":5283:5287   */\n      0x20\n        /* \"#utility.yul\":5275:5281   */\n      dup5\n        /* \"#utility.yul\":5271:5288   */\n      mul\n        /* \"#utility.yul\":5263:5269   */\n      dup4\n        /* \"#utility.yul\":5259:5289   */\n      add\n        /* \"#utility.yul\":5312:5315   */\n      dup6\n        /* \"#utility.yul\":5304:5310   */\n      dup2\n        /* \"#utility.yul\":5301:5316   */\n      gt\n        /* \"#utility.yul\":5298:5420   */\n      iszero\n      tag_310\n      jumpi\n        /* \"#utility.yul\":5331:5410   */\n      tag_311\n      tag_198\n      jump\t// in\n    tag_311:\n        /* \"#utility.yul\":5298:5420   */\n    tag_310:\n        /* \"#utility.yul\":5446:5452   */\n      dup4\n        /* \"#utility.yul\":5429:5649   */\n    tag_312:\n        /* \"#utility.yul\":5463:5469   */\n      dup2\n        /* \"#utility.yul\":5458:5461   */\n      dup2\n        /* \"#utility.yul\":5455:5470   */\n      lt\n        /* \"#utility.yul\":5429:5649   */\n      iszero\n      tag_314\n      jumpi\n        /* \"#utility.yul\":5538:5541   */\n      dup1\n        /* \"#utility.yul\":5567:5604   */\n      tag_315\n        /* \"#utility.yul\":5600:5603   */\n      dup9\n        /* \"#utility.yul\":5588:5598   */\n      dup3\n        /* \"#utility.yul\":5567:5604   */\n      tag_202\n      jump\t// in\n    tag_315:\n        /* \"#utility.yul\":5562:5565   */\n      dup5\n        /* \"#utility.yul\":5555:5605   */\n      mstore\n        /* \"#utility.yul\":5634:5638   */\n      0x20\n        /* \"#utility.yul\":5629:5632   */\n      dup5\n        /* \"#utility.yul\":5625:5639   */\n      add\n        /* \"#utility.yul\":5618:5639   */\n      swap4\n      pop\n        /* \"#utility.yul\":5505:5649   */\n      pop\n        /* \"#utility.yul\":5489:5493   */\n      0x20\n        /* \"#utility.yul\":5484:5487   */\n      dup2\n        /* \"#utility.yul\":5480:5494   */\n      add\n        /* \"#utility.yul\":5473:5494   */\n      swap1\n      pop\n        /* \"#utility.yul\":5429:5649   */\n      jump(tag_312)\n    tag_314:\n        /* \"#utility.yul\":5433:5454   */\n      pop\n        /* \"#utility.yul\":5112:5655   */\n      pop\n      pop\n        /* \"#utility.yul\":5012:5655   */\n      swap4\n      swap3\n      pop\n      pop\n      pop\n      jump\t// out\n        /* \"#utility.yul\":5679:6018   */\n    tag_209:\n        /* \"#utility.yul\":5748:5753   */\n      0x00\n        /* \"#utility.yul\":5797:5800   */\n      dup3\n        /* \"#utility.yul\":5790:5794   */\n      0x1f\n        /* \"#utility.yul\":5782:5788   */\n      dup4\n        /* \"#utility.yul\":5778:5795   */\n      add\n        /* \"#utility.yul\":5774:5801   */\n      slt\n        /* \"#utility.yul\":5764:5886   */\n      tag_317\n      jumpi\n        /* \"#utility.yul\":5805:5884   */\n      tag_318\n      tag_193\n      jump\t// in\n    tag_318:\n        /* \"#utility.yul\":5764:5886   */\n    tag_317:\n        /* \"#utility.yul\":5909:5913   */\n      0x02\n        /* \"#utility.yul\":5931:6012   */\n      tag_319\n        /* \"#utility.yul\":6008:6011   */\n      dup5\n        /* \"#utility.yul\":6000:6006   */\n      dup3\n        /* \"#utility.yul\":5992:5998   */\n      dup6\n        /* \"#utility.yul\":5931:6012   */\n      tag_208\n      jump\t// in\n    tag_319:\n        /* \"#utility.yul\":5922:6012   */\n      swap2\n      pop\n        /* \"#utility.yul\":5754:6018   */\n      pop\n        /* \"#utility.yul\":5679:6018   */\n      swap3\n      swap2\n      pop\n      pop\n      jump\t// out\n        /* \"#utility.yul\":6024:8717   */\n    tag_9:\n        /* \"#utility.yul\":6402:6408   */\n      0x00\n        /* \"#utility.yul\":6410:6416   */\n      dup1\n        /* \"#utility.yul\":6418:6424   */\n      0x00\n        /* \"#utility.yul\":6426:6432   */\n      dup1\n        /* \"#utility.yul\":6434:6440   */\n      0x00\n        /* \"#utility.yul\":6442:6448   */\n      dup1\n        /* \"#utility.yul\":6450:6456   */\n      0x00\n        /* \"#utility.yul\":6499:6502   */\n      0x0100\n        /* \"#utility.yul\":6487:6496   */\n      dup9\n        /* \"#utility.yul\":6478:6485   */\n      dup11\n        /* \"#utility.yul\":6474:6497   */\n      sub\n        /* \"#utility.yul\":6470:6503   */\n      slt\n        /* \"#utility.yul\":6467:6587   */\n      iszero\n      tag_321\n      jumpi\n        /* \"#utility.yul\":6506:6585   */\n      tag_322\n      tag_191\n      jump\t// in\n    tag_322:\n        /* \"#utility.yul\":6467:6587   */\n    tag_321:\n        /* \"#utility.yul\":6654:6655   */\n      0x00\n        /* \"#utility.yul\":6643:6652   */\n      dup9\n        /* \"#utility.yul\":6639:6656   */\n      add\n        /* \"#utility.yul\":6626:6657   */\n      calldataload\n        /* \"#utility.yul\":6684:6702   */\n      0xffffffffffffffff\n        /* \"#utility.yul\":6676:6682   */\n      dup2\n        /* \"#utility.yul\":6673:6703   */\n      gt\n        /* \"#utility.yul\":6670:6787   */\n      iszero\n      tag_323\n      jumpi\n        /* \"#utility.yul\":6706:6785   */\n      tag_324\n      tag_192\n      jump\t// in\n    tag_324:\n        /* \"#utility.yul\":6670:6787   */\n    tag_323:\n        /* \"#utility.yul\":6811:6912   */\n      tag_325\n        /* \"#utility.yul\":6904:6911   */\n      dup11\n        /* \"#utility.yul\":6895:6901   */\n      dup3\n        /* \"#utility.yul\":6884:6893   */\n      dup12\n        /* \"#utility.yul\":6880:6902   */\n      add\n        /* \"#utility.yul\":6811:6912   */\n      tag_206\n      jump\t// in\n    tag_325:\n        /* \"#utility.yul\":6801:6912   */\n      swap8\n      pop\n        /* \"#utility.yul\":6597:6922   */\n      pop\n        /* \"#utility.yul\":6989:6991   */\n      0x20\n        /* \"#utility.yul\":6978:6987   */\n      dup9\n        /* \"#utility.yul\":6974:6992   */\n      add\n        /* \"#utility.yul\":6961:6993   */\n      calldataload\n        /* \"#utility.yul\":7020:7038   */\n      0xffffffffffffffff\n        /* \"#utility.yul\":7012:7018   */\n      dup2\n        /* \"#utility.yul\":7009:7039   */\n      gt\n        /* \"#utility.yul\":7006:7123   */\n      iszero\n      tag_326\n      jumpi\n        /* \"#utility.yul\":7042:7121   */\n      tag_327\n      tag_192\n      jump\t// in\n    tag_327:\n        /* \"#utility.yul\":7006:7123   */\n    tag_326:\n        /* \"#utility.yul\":7147:7248   */\n      tag_328\n        /* \"#utility.yul\":7240:7247   */\n      dup11\n        /* \"#utility.yul\":7231:7237   */\n      dup3\n        /* \"#utility.yul\":7220:7229   */\n      dup12\n        /* \"#utility.yul\":7216:7238   */\n      add\n        /* \"#utility.yul\":7147:7248   */\n      tag_206\n      jump\t// in\n    tag_328:\n        /* \"#utility.yul\":7137:7248   */\n      swap7\n      pop\n        /* \"#utility.yul\":6932:7258   */\n      pop\n        /* \"#utility.yul\":7325:7327   */\n      0x40\n        /* \"#utility.yul\":7314:7323   */\n      dup9\n        /* \"#utility.yul\":7310:7328   */\n      add\n        /* \"#utility.yul\":7297:7329   */\n      calldataload\n        /* \"#utility.yul\":7356:7374   */\n      0xffffffffffffffff\n        /* \"#utility.yul\":7348:7354   */\n      dup2\n        /* \"#utility.yul\":7345:7375   */\n      gt\n        /* \"#utility.yul\":7342:7459   */\n      iszero\n      tag_329\n      jumpi\n        /* \"#utility.yul\":7378:7457   */\n      tag_330\n      tag_192\n      jump\t// in\n    tag_330:\n        /* \"#utility.yul\":7342:7459   */\n    tag_329:\n        /* \"#utility.yul\":7483:7561   */\n      tag_331\n        /* \"#utility.yul\":7553:7560   */\n      dup11\n        /* \"#utility.yul\":7544:7550   */\n      dup3\n        /* \"#utility.yul\":7533:7542   */\n      dup12\n        /* \"#utility.yul\":7529:7551   */\n      add\n        /* \"#utility.yul\":7483:7561   */\n      tag_204\n      jump\t// in\n    tag_331:\n        /* \"#utility.yul\":7473:7561   */\n      swap6\n      pop\n        /* \"#utility.yul\":7268:7571   */\n      pop\n        /* \"#utility.yul\":7638:7640   */\n      0x60\n        /* \"#utility.yul\":7627:7636   */\n      dup9\n        /* \"#utility.yul\":7623:7641   */\n      add\n        /* \"#utility.yul\":7610:7642   */\n      calldataload\n        /* \"#utility.yul\":7669:7687   */\n      0xffffffffffffffff\n        /* \"#utility.yul\":7661:7667   */\n      dup2\n        /* \"#utility.yul\":7658:7688   */\n      gt\n        /* \"#utility.yul\":7655:7772   */\n      iszero\n      tag_332\n      jumpi\n        /* \"#utility.yul\":7691:7770   */\n      tag_333\n      tag_192\n      jump\t// in\n    tag_333:\n        /* \"#utility.yul\":7655:7772   */\n    tag_332:\n        /* \"#utility.yul\":7796:7874   */\n      tag_334\n        /* \"#utility.yul\":7866:7873   */\n      dup11\n        /* \"#utility.yul\":7857:7863   */\n      dup3\n        /* \"#utility.yul\":7846:7855   */\n      dup12\n        /* \"#utility.yul\":7842:7864   */\n      add\n        /* \"#utility.yul\":7796:7874   */\n      tag_204\n      jump\t// in\n    tag_334:\n        /* \"#utility.yul\":7786:7874   */\n      swap5\n      pop\n        /* \"#utility.yul\":7581:7884   */\n      pop\n        /* \"#utility.yul\":7923:7926   */\n      0x80\n        /* \"#utility.yul\":7950:8026   */\n      tag_335\n        /* \"#utility.yul\":8018:8025   */\n      dup11\n        /* \"#utility.yul\":8009:8015   */\n      dup3\n        /* \"#utility.yul\":7998:8007   */\n      dup12\n        /* \"#utility.yul\":7994:8016   */\n      add\n        /* \"#utility.yul\":7950:8026   */\n      tag_209\n      jump\t// in\n    tag_335:\n        /* \"#utility.yul\":7940:8026   */\n      swap4\n      pop\n        /* \"#utility.yul\":7894:8036   */\n      pop\n        /* \"#utility.yul\":8103:8106   */\n      0xc0\n        /* \"#utility.yul\":8092:8101   */\n      dup9\n        /* \"#utility.yul\":8088:8107   */\n      add\n        /* \"#utility.yul\":8075:8108   */\n      calldataload\n        /* \"#utility.yul\":8135:8153   */\n      0xffffffffffffffff\n        /* \"#utility.yul\":8127:8133   */\n      dup2\n        /* \"#utility.yul\":8124:8154   */\n      gt\n        /* \"#utility.yul\":8121:8238   */\n      iszero\n      tag_336\n      jumpi\n        /* \"#utility.yul\":8157:8236   */\n      tag_337\n      tag_192\n      jump\t// in\n    tag_337:\n        /* \"#utility.yul\":8121:8238   */\n    tag_336:\n        /* \"#utility.yul\":8262:8363   */\n      tag_338\n        /* \"#utility.yul\":8355:8362   */\n      dup11\n        /* \"#utility.yul\":8346:8352   */\n      dup3\n        /* \"#utility.yul\":8335:8344   */\n      dup12\n        /* \"#utility.yul\":8331:8353   */\n      add\n        /* \"#utility.yul\":8262:8363   */\n      tag_206\n      jump\t// in\n    tag_338:\n        /* \"#utility.yul\":8252:8363   */\n      swap3\n      pop\n        /* \"#utility.yul\":8046:8373   */\n      pop\n        /* \"#utility.yul\":8440:8443   */\n      0xe0\n        /* \"#utility.yul\":8429:8438   */\n      dup9\n        /* \"#utility.yul\":8425:8444   */\n      add\n        /* \"#utility.yul\":8412:8445   */\n      calldataload\n        /* \"#utility.yul\":8472:8490   */\n      0xffffffffffffffff\n        /* \"#utility.yul\":8464:8470   */\n      dup2\n        /* \"#utility.yul\":8461:8491   */\n      gt\n        /* \"#utility.yul\":8458:8575   */\n      iszero\n      tag_339\n      jumpi\n        /* \"#utility.yul\":8494:8573   */\n      tag_340\n      tag_192\n      jump\t// in\n    tag_340:\n        /* \"#utility.yul\":8458:8575   */\n    tag_339:\n        /* \"#utility.yul\":8599:8700   */\n      tag_341\n        /* \"#utility.yul\":8692:8699   */\n      dup11\n        /* \"#utility.yul\":8683:8689   */\n      dup3\n        /* \"#utility.yul\":8672:8681   */\n      dup12\n        /* \"#utility.yul\":8668:8690   */\n      add\n        /* \"#utility.yul\":8599:8700   */\n      tag_206\n      jump\t// in\n    tag_341:\n        /* \"#utility.yul\":8589:8700   */\n      swap2\n      pop\n        /* \"#utility.yul\":8383:8710   */\n      pop\n        /* \"#utility.yul\":6024:8717   */\n      swap3\n      swap6\n      swap9\n      swap2\n      swap5\n      swap8\n      pop\n      swap3\n      swap6\n      pop\n      jump\t// out\n        /* \"#utility.yul\":8723:8813   */\n    tag_210:\n        /* \"#utility.yul\":8757:8764   */\n      0x00\n        /* \"#utility.yul\":8800:8805   */\n      dup2\n        /* \"#utility.yul\":8793:8806   */\n      iszero\n        /* \"#utility.yul\":8786:8807   */\n      iszero\n        /* \"#utility.yul\":8775:8807   */\n      swap1\n      pop\n        /* \"#utility.yul\":8723:8813   */\n      swap2\n      swap1\n      pop\n      jump\t// out\n        /* \"#utility.yul\":8819:8928   */\n    tag_211:\n        /* \"#utility.yul\":8900:8921   */\n      tag_344\n        /* \"#utility.yul\":8915:8920   */\n      dup2\n        /* \"#utility.yul\":8900:8921   */\n      tag_210\n      jump\t// in\n    tag_344:\n        /* \"#utility.yul\":8895:8898   */\n      dup3\n        /* \"#utility.yul\":8888:8922   */\n      mstore\n        /* \"#utility.yul\":8819:8928   */\n      pop\n      pop\n      jump\t// out\n        /* \"#utility.yul\":8934:9144   */\n    tag_12:\n        /* \"#utility.yul\":9021:9025   */\n      0x00\n        /* \"#utility.yul\":9059:9061   */\n      0x20\n        /* \"#utility.yul\":9048:9057   */\n      dup3\n        /* \"#utility.yul\":9044:9062   */\n      add\n        /* \"#utility.yul\":9036:9062   */\n      swap1\n      pop\n        /* \"#utility.yul\":9072:9137   */\n      tag_346\n        /* \"#utility.yul\":9134:9135   */\n      0x00\n        /* \"#utility.yul\":9123:9132   */\n      dup4\n        /* \"#utility.yul\":9119:9136   */\n      add\n        /* \"#utility.yul\":9110:9116   */\n      dup5\n        /* \"#utility.yul\":9072:9137   */\n      tag_211\n      jump\t// in\n    tag_346:\n        /* \"#utility.yul\":8934:9144   */\n      swap3\n      swap2\n      pop\n      pop\n      jump\t// out\n        /* \"#utility.yul\":9150:9670   */\n    tag_15:\n        /* \"#utility.yul\":9241:9247   */\n      0x00\n        /* \"#utility.yul\":9249:9255   */\n      dup1\n        /* \"#utility.yul\":9298:9300   */\n      0x60\n        /* \"#utility.yul\":9286:9295   */\n      dup4\n        /* \"#utility.yul\":9277:9284   */\n      dup6\n        /* \"#utility.yul\":9273:9296   */\n      sub\n        /* \"#utility.yul\":9269:9301   */\n      slt\n        /* \"#utility.yul\":9266:9385   */\n      iszero\n      tag_348\n      jumpi\n        /* \"#utility.yul\":9304:9383   */\n      tag_349\n      tag_191\n      jump\t// in\n    tag_349:\n        /* \"#utility.yul\":9266:9385   */\n    tag_348:\n        /* \"#utility.yul\":9424:9425   */\n      0x00\n        /* \"#utility.yul\":9449:9525   */\n      tag_350\n        /* \"#utility.yul\":9517:9524   */\n      dup6\n        /* \"#utility.yul\":9508:9514   */\n      dup3\n        /* \"#utility.yul\":9497:9506   */\n      dup7\n        /* \"#utility.yul\":9493:9515   */\n      add\n        /* \"#utility.yul\":9449:9525   */\n      tag_209\n      jump\t// in\n    tag_350:\n        /* \"#utility.yul\":9439:9525   */\n      swap3\n      pop\n        /* \"#utility.yul\":9395:9535   */\n      pop\n        /* \"#utility.yul\":9574:9576   */\n      0x40\n        /* \"#utility.yul\":9600:9653   */\n      tag_351\n        /* \"#utility.yul\":9645:9652   */\n      dup6\n        /* \"#utility.yul\":9636:9642   */\n      dup3\n        /* \"#utility.yul\":9625:9634   */\n      dup7\n        /* \"#utility.yul\":9621:9643   */\n      add\n        /* \"#utility.yul\":9600:9653   */\n      tag_202\n      jump\t// in\n    tag_351:\n        /* \"#utility.yul\":9590:9653   */\n      swap2\n      pop\n        /* \"#utility.yul\":9545:9663   */\n      pop\n        /* \"#utility.yul\":9150:9670   */\n      swap3\n      pop\n      swap3\n      swap1\n      pop\n      jump\t// out\n        /* \"#utility.yul\":9676:9780   */\n    tag_212:\n        /* \"#utility.yul\":9741:9747   */\n      0x00\n        /* \"#utility.yul\":9769:9773   */\n      0x02\n        /* \"#utility.yul\":9759:9773   */\n      swap1\n      pop\n        /* \"#utility.yul\":9676:9780   */\n      swap2\n      swap1\n      pop\n      jump\t// out\n        /* \"#utility.yul\":9786:9929   */\n    tag_213:\n        /* \"#utility.yul\":9883:9894   */\n      0x00\n        /* \"#utility.yul\":9920:9923   */\n      dup2\n        /* \"#utility.yul\":9905:9923   */\n      swap1\n      pop\n        /* \"#utility.yul\":9786:9929   */\n      swap3\n      swap2\n      pop\n      pop\n      jump\t// out\n        /* \"#utility.yul\":9935:10033   */\n    tag_214:\n        /* \"#utility.yul\":10000:10004   */\n      0x00\n        /* \"#utility.yul\":10023:10026   */\n      dup2\n        /* \"#utility.yul\":10015:10026   */\n      swap1\n      pop\n        /* \"#utility.yul\":9935:10033   */\n      swap2\n      swap1\n      pop\n      jump\t// out\n        /* \"#utility.yul\":10039:10147   */\n    tag_215:\n        /* \"#utility.yul\":10116:10140   */\n      tag_356\n        /* \"#utility.yul\":10134:10139   */\n      dup2\n        /* \"#utility.yul\":10116:10140   */\n      tag_200\n      jump\t// in\n    tag_356:\n        /* \"#utility.yul\":10111:10114   */\n      dup3\n        /* \"#utility.yul\":10104:10141   */\n      mstore\n        /* \"#utility.yul\":10039:10147   */\n      pop\n      pop\n      jump\t// out\n        /* \"#utility.yul\":10153:10332   */\n    tag_216:\n        /* \"#utility.yul\":10222:10232   */\n      0x00\n        /* \"#utility.yul\":10243:10289   */\n      tag_358\n        /* \"#utility.yul\":10285:10288   */\n      dup4\n        /* \"#utility.yul\":10277:10283   */\n      dup4\n        /* \"#utility.yul\":10243:10289   */\n      tag_215\n      jump\t// in\n    tag_358:\n        /* \"#utility.yul\":10321:10325   */\n      0x20\n        /* \"#utility.yul\":10316:10319   */\n      dup4\n        /* \"#utility.yul\":10312:10326   */\n      add\n        /* \"#utility.yul\":10298:10326   */\n      swap1\n      pop\n        /* \"#utility.yul\":10153:10332   */\n      swap3\n      swap2\n      pop\n      pop\n      jump\t// out\n        /* \"#utility.yul\":10338:10449   */\n    tag_217:\n        /* \"#utility.yul\":10406:10410   */\n      0x00\n        /* \"#utility.yul\":10438:10442   */\n      0x20\n        /* \"#utility.yul\":10433:10436   */\n      dup3\n        /* \"#utility.yul\":10429:10443   */\n      add\n        /* \"#utility.yul\":10421:10443   */\n      swap1\n      pop\n        /* \"#utility.yul\":10338:10449   */\n      swap2\n      swap1\n      pop\n      jump\t// out\n        /* \"#utility.yul\":10487:11181   */\n    tag_218:\n        /* \"#utility.yul\":10623:10675   */\n      tag_361\n        /* \"#utility.yul\":10669:10674   */\n      dup2\n        /* \"#utility.yul\":10623:10675   */\n      tag_212\n      jump\t// in\n    tag_361:\n        /* \"#utility.yul\":10691:10775   */\n      tag_362\n        /* \"#utility.yul\":10768:10774   */\n      dup2\n        /* \"#utility.yul\":10763:10766   */\n      dup5\n        /* \"#utility.yul\":10691:10775   */\n      tag_213\n      jump\t// in\n    tag_362:\n        /* \"#utility.yul\":10684:10775   */\n      swap3\n      pop\n        /* \"#utility.yul\":10799:10853   */\n      tag_363\n        /* \"#utility.yul\":10847:10852   */\n      dup3\n        /* \"#utility.yul\":10799:10853   */\n      tag_214\n      jump\t// in\n    tag_363:\n        /* \"#utility.yul\":10876:10883   */\n      dup1\n        /* \"#utility.yul\":10907:10908   */\n      0x00\n        /* \"#utility.yul\":10892:11174   */\n    tag_364:\n        /* \"#utility.yul\":10917:10923   */\n      dup4\n        /* \"#utility.yul\":10914:10915   */\n      dup2\n        /* \"#utility.yul\":10911:10924   */\n      lt\n        /* \"#utility.yul\":10892:11174   */\n      iszero\n      tag_366\n      jumpi\n        /* \"#utility.yul\":10993:10999   */\n      dup2\n        /* \"#utility.yul\":10987:11000   */\n      mload\n        /* \"#utility.yul\":11020:11083   */\n      tag_367\n        /* \"#utility.yul\":11079:11082   */\n      dup8\n        /* \"#utility.yul\":11064:11077   */\n      dup3\n        /* \"#utility.yul\":11020:11083   */\n      tag_216\n      jump\t// in\n    tag_367:\n        /* \"#utility.yul\":11013:11083   */\n      swap7\n      pop\n        /* \"#utility.yul\":11106:11164   */\n      tag_368\n        /* \"#utility.yul\":11157:11163   */\n      dup4\n        /* \"#utility.yul\":11106:11164   */\n      tag_217\n      jump\t// in\n    tag_368:\n        /* \"#utility.yul\":11096:11164   */\n      swap3\n      pop\n        /* \"#utility.yul\":10952:11174   */\n      pop\n        /* \"#utility.yul\":10939:10940   */\n      0x01\n        /* \"#utility.yul\":10936:10937   */\n      dup2\n        /* \"#utility.yul\":10932:10941   */\n      add\n        /* \"#utility.yul\":10927:10941   */\n      swap1\n      pop\n        /* \"#utility.yul\":10892:11174   */\n      jump(tag_364)\n    tag_366:\n        /* \"#utility.yul\":10896:10910   */\n      pop\n        /* \"#utility.yul\":10599:11181   */\n      pop\n      pop\n      pop\n        /* \"#utility.yul\":10487:11181   */\n      pop\n      pop\n      jump\t// out\n        /* \"#utility.yul\":11187:11501   */\n    tag_18:\n        /* \"#utility.yul\":11326:11330   */\n      0x00\n        /* \"#utility.yul\":11364:11366   */\n      0x40\n        /* \"#utility.yul\":11353:11362   */\n      dup3\n        /* \"#utility.yul\":11349:11367   */\n      add\n        /* \"#utility.yul\":11341:11367   */\n      swap1\n      pop\n        /* \"#utility.yul\":11377:11494   */\n      tag_370\n        /* \"#utility.yul\":11491:11492   */\n      0x00\n        /* \"#utility.yul\":11480:11489   */\n      dup4\n        /* \"#utility.yul\":11476:11493   */\n      add\n        /* \"#utility.yul\":11467:11473   */\n      dup5\n        /* \"#utility.yul\":11377:11494   */\n      tag_218\n      jump\t// in\n    tag_370:\n        /* \"#utility.yul\":11187:11501   */\n      swap3\n      swap2\n      pop\n      pop\n      jump\t// out\n        /* \"#utility.yul\":11507:11625   */\n    tag_219:\n        /* \"#utility.yul\":11594:11618   */\n      tag_372\n        /* \"#utility.yul\":11612:11617   */\n      dup2\n        /* \"#utility.yul\":11594:11618   */\n      tag_200\n      jump\t// in\n    tag_372:\n        /* \"#utility.yul\":11589:11592   */\n      dup3\n        /* \"#utility.yul\":11582:11619   */\n      mstore\n        /* \"#utility.yul\":11507:11625   */\n      pop\n      pop\n      jump\t// out\n        /* \"#utility.yul\":11631:11853   */\n    tag_22:\n        /* \"#utility.yul\":11724:11728   */\n      0x00\n        /* \"#utility.yul\":11762:11764   */\n      0x20\n        /* \"#utility.yul\":11751:11760   */\n      dup3\n        /* \"#utility.yul\":11747:11765   */\n      add\n        /* \"#utility.yul\":11739:11765   */\n      swap1\n      pop\n        /* \"#utility.yul\":11775:11846   */\n      tag_374\n        /* \"#utility.yul\":11843:11844   */\n      0x00\n        /* \"#utility.yul\":11832:11841   */\n      dup4\n        /* \"#utility.yul\":11828:11845   */\n      add\n        /* \"#utility.yul\":11819:11825   */\n      dup5\n        /* \"#utility.yul\":11775:11846   */\n      tag_219\n      jump\t// in\n    tag_374:\n        /* \"#utility.yul\":11631:11853   */\n      swap3\n      swap2\n      pop\n      pop\n      jump\t// out\n        /* \"#utility.yul\":11859:12426   */\n    tag_25:\n        /* \"#utility.yul\":11973:11979   */\n      0x00\n        /* \"#utility.yul\":11981:11987   */\n      dup1\n        /* \"#utility.yul\":12030:12033   */\n      0x80\n        /* \"#utility.yul\":12018:12027   */\n      dup4\n        /* \"#utility.yul\":12009:12016   */\n      dup6\n        /* \"#utility.yul\":12005:12028   */\n      sub\n        /* \"#utility.yul\":12001:12034   */\n      slt\n        /* \"#utility.yul\":11998:12118   */\n      iszero\n      tag_376\n      jumpi\n        /* \"#utility.yul\":12037:12116   */\n      tag_377\n      tag_191\n      jump\t// in\n    tag_377:\n        /* \"#utility.yul\":11998:12118   */\n    tag_376:\n        /* \"#utility.yul\":12157:12158   */\n      0x00\n        /* \"#utility.yul\":12182:12258   */\n      tag_378\n        /* \"#utility.yul\":12250:12257   */\n      dup6\n        /* \"#utility.yul\":12241:12247   */\n      dup3\n        /* \"#utility.yul\":12230:12239   */\n      dup7\n        /* \"#utility.yul\":12226:12248   */\n      add\n        /* \"#utility.yul\":12182:12258   */\n      tag_209\n      jump\t// in\n    tag_378:\n        /* \"#utility.yul\":12172:12258   */\n      swap3\n      pop\n        /* \"#utility.yul\":12128:12268   */\n      pop\n        /* \"#utility.yul\":12307:12309   */\n      0x40\n        /* \"#utility.yul\":12333:12409   */\n      tag_379\n        /* \"#utility.yul\":12401:12408   */\n      dup6\n        /* \"#utility.yul\":12392:12398   */\n      dup3\n        /* \"#utility.yul\":12381:12390   */\n      dup7\n        /* \"#utility.yul\":12377:12399   */\n      add\n        /* \"#utility.yul\":12333:12409   */\n      tag_209\n      jump\t// in\n    tag_379:\n        /* \"#utility.yul\":12323:12409   */\n      swap2\n      pop\n        /* \"#utility.yul\":12278:12419   */\n      pop\n        /* \"#utility.yul\":11859:12426   */\n      swap3\n      pop\n      swap3\n      swap1\n      pop\n      jump\t// out\n        /* \"#utility.yul\":12432:12601   */\n    tag_220:\n        /* \"#utility.yul\":12516:12527   */\n      0x00\n        /* \"#utility.yul\":12550:12556   */\n      dup3\n        /* \"#utility.yul\":12545:12548   */\n      dup3\n        /* \"#utility.yul\":12538:12557   */\n      mstore\n        /* \"#utility.yul\":12590:12594   */\n      0x20\n        /* \"#utility.yul\":12585:12588   */\n      dup3\n        /* \"#utility.yul\":12581:12595   */\n      add\n        /* \"#utility.yul\":12566:12595   */\n      swap1\n      pop\n        /* \"#utility.yul\":12432:12601   */\n      swap3\n      swap2\n      pop\n      pop\n      jump\t// out\n        /* \"#utility.yul\":12607:12917   */\n    tag_221:\n        /* \"#utility.yul\":12747:12781   */\n      0x496e76616c696420696e707574206c656e6774682c20412c20422c207a4c6973\n        /* \"#utility.yul\":12743:12744   */\n      0x00\n        /* \"#utility.yul\":12735:12741   */\n      dup3\n        /* \"#utility.yul\":12731:12745   */\n      add\n        /* \"#utility.yul\":12724:12782   */\n      mstore\n        /* \"#utility.yul\":12816:12850   */\n      0x745f312c207a4c6973745f322c20584c6973742c20594c6973742073686f756c\n        /* \"#utility.yul\":12811:12813   */\n      0x20\n        /* \"#utility.yul\":12803:12809   */\n      dup3\n        /* \"#utility.yul\":12799:12814   */\n      add\n        /* \"#utility.yul\":12792:12851   */\n      mstore\n        /* \"#utility.yul\":12885:12909   */\n      0x642068617665207468652073616d65206c656e67746800000000000000000000\n        /* \"#utility.yul\":12880:12882   */\n      0x40\n        /* \"#utility.yul\":12872:12878   */\n      dup3\n        /* \"#utility.yul\":12868:12883   */\n      add\n        /* \"#utility.yul\":12861:12910   */\n      mstore\n        /* \"#utility.yul\":12607:12917   */\n      pop\n      jump\t// out\n        /* \"#utility.yul\":12923:13289   */\n    tag_222:\n        /* \"#utility.yul\":13065:13068   */\n      0x00\n        /* \"#utility.yul\":13086:13153   */\n      tag_383\n        /* \"#utility.yul\":13150:13152   */\n      0x56\n        /* \"#utility.yul\":13145:13148   */\n      dup4\n        /* \"#utility.yul\":13086:13153   */\n      tag_220\n      jump\t// in\n    tag_383:\n        /* \"#utility.yul\":13079:13153   */\n      swap2\n      pop\n        /* \"#utility.yul\":13162:13255   */\n      tag_384\n        /* \"#utility.yul\":13251:13254   */\n      dup3\n        /* \"#utility.yul\":13162:13255   */\n      tag_221\n      jump\t// in\n    tag_384:\n        /* \"#utility.yul\":13280:13282   */\n      0x60\n        /* \"#utility.yul\":13275:13278   */\n      dup3\n        /* \"#utility.yul\":13271:13283   */\n      add\n        /* \"#utility.yul\":13264:13283   */\n      swap1\n      pop\n        /* \"#utility.yul\":12923:13289   */\n      swap2\n      swap1\n      pop\n      jump\t// out\n        /* \"#utility.yul\":13295:13714   */\n    tag_35:\n        /* \"#utility.yul\":13461:13465   */\n      0x00\n        /* \"#utility.yul\":13499:13501   */\n      0x20\n        /* \"#utility.yul\":13488:13497   */\n      dup3\n        /* \"#utility.yul\":13484:13502   */\n      add\n        /* \"#utility.yul\":13476:13502   */\n      swap1\n      pop\n        /* \"#utility.yul\":13548:13557   */\n      dup2\n        /* \"#utility.yul\":13542:13546   */\n      dup2\n        /* \"#utility.yul\":13538:13558   */\n      sub\n        /* \"#utility.yul\":13534:13535   */\n      0x00\n        /* \"#utility.yul\":13523:13532   */\n      dup4\n        /* \"#utility.yul\":13519:13536   */\n      add\n        /* \"#utility.yul\":13512:13559   */\n      mstore\n        /* \"#utility.yul\":13576:13707   */\n      tag_386\n        /* \"#utility.yul\":13702:13706   */\n      dup2\n        /* \"#utility.yul\":13576:13707   */\n      tag_222\n      jump\t// in\n    tag_386:\n        /* \"#utility.yul\":13568:13707   */\n      swap1\n      pop\n        /* \"#utility.yul\":13295:13714   */\n      swap2\n      swap1\n      pop\n      jump\t// out\n        /* \"#utility.yul\":13720:14025   */\n    tag_223:\n        /* \"#utility.yul\":13860:13894   */\n      0x496e76616c696420696e707574206c656e6774682c20412c20422c207a4c6973\n        /* \"#utility.yul\":13856:13857   */\n      0x00\n        /* \"#utility.yul\":13848:13854   */\n      dup3\n        /* \"#utility.yul\":13844:13858   */\n      add\n        /* \"#utility.yul\":13837:13895   */\n      mstore\n        /* \"#utility.yul\":13929:13963   */\n      0x745f312c207a4c6973745f322c20584c6973742c20594c6973742073686f756c\n        /* \"#utility.yul\":13924:13926   */\n      0x20\n        /* \"#utility.yul\":13916:13922   */\n      dup3\n        /* \"#utility.yul\":13912:13927   */\n      add\n        /* \"#utility.yul\":13905:13964   */\n      mstore\n        /* \"#utility.yul\":13998:14017   */\n      0x642068617665206c656e677468203e2030000000000000000000000000000000\n        /* \"#utility.yul\":13993:13995   */\n      0x40\n        /* \"#utility.yul\":13985:13991   */\n      dup3\n        /* \"#utility.yul\":13981:13996   */\n      add\n        /* \"#utility.yul\":13974:14018   */\n      mstore\n        /* \"#utility.yul\":13720:14025   */\n      pop\n      jump\t// out\n        /* \"#utility.yul\":14031:14397   */\n    tag_224:\n        /* \"#utility.yul\":14173:14176   */\n      0x00\n        /* \"#utility.yul\":14194:14261   */\n      tag_389\n        /* \"#utility.yul\":14258:14260   */\n      0x51\n        /* \"#utility.yul\":14253:14256   */\n      dup4\n        /* \"#utility.yul\":14194:14261   */\n      tag_220\n      jump\t// in\n    tag_389:\n        /* \"#utility.yul\":14187:14261   */\n      swap2\n      pop\n        /* \"#utility.yul\":14270:14363   */\n      tag_390\n        /* \"#utility.yul\":14359:14362   */\n      dup3\n        /* \"#utility.yul\":14270:14363   */\n      tag_223\n      jump\t// in\n    tag_390:\n        /* \"#utility.yul\":14388:14390   */\n      0x60\n        /* \"#utility.yul\":14383:14386   */\n      dup3\n        /* \"#utility.yul\":14379:14391   */\n      add\n        /* \"#utility.yul\":14372:14391   */\n      swap1\n      pop\n        /* \"#utility.yul\":14031:14397   */\n      swap2\n      swap1\n      pop\n      jump\t// out\n        /* \"#utility.yul\":14403:14822   */\n    tag_38:\n        /* \"#utility.yul\":14569:14573   */\n      0x00\n        /* \"#utility.yul\":14607:14609   */\n      0x20\n        /* \"#utility.yul\":14596:14605   */\n      dup3\n        /* \"#utility.yul\":14592:14610   */\n      add\n        /* \"#utility.yul\":14584:14610   */\n      swap1\n      pop\n        /* \"#utility.yul\":14656:14665   */\n      dup2\n        /* \"#utility.yul\":14650:14654   */\n      dup2\n        /* \"#utility.yul\":14646:14666   */\n      sub\n        /* \"#utility.yul\":14642:14643   */\n      0x00\n        /* \"#utility.yul\":14631:14640   */\n      dup4\n        /* \"#utility.yul\":14627:14644   */\n      add\n        /* \"#utility.yul\":14620:14667   */\n      mstore\n        /* \"#utility.yul\":14684:14815   */\n      tag_392\n        /* \"#utility.yul\":14810:14814   */\n      dup2\n        /* \"#utility.yul\":14684:14815   */\n      tag_224\n      jump\t// in\n    tag_392:\n        /* \"#utility.yul\":14676:14815   */\n      swap1\n      pop\n        /* \"#utility.yul\":14403:14822   */\n      swap2\n      swap1\n      pop\n      jump\t// out\n        /* \"#utility.yul\":14828:15008   */\n    tag_225:\n        /* \"#utility.yul\":14876:14953   */\n      0x4e487b7100000000000000000000000000000000000000000000000000000000\n        /* \"#utility.yul\":14873:14874   */\n      0x00\n        /* \"#utility.yul\":14866:14954   */\n      mstore\n        /* \"#utility.yul\":14973:14977   */\n      0x11\n        /* \"#utility.yul\":14970:14971   */\n      0x04\n        /* \"#utility.yul\":14963:14978   */\n      mstore\n        /* \"#utility.yul\":14997:15001   */\n      0x24\n        /* \"#utility.yul\":14994:14995   */\n      0x00\n        /* \"#utility.yul\":14987:15002   */\n      revert\n        /* \"#utility.yul\":15014:15205   */\n    tag_43:\n        /* \"#utility.yul\":15054:15057   */\n      0x00\n        /* \"#utility.yul\":15073:15093   */\n      tag_395\n        /* \"#utility.yul\":15091:15092   */\n      dup3\n        /* \"#utility.yul\":15073:15093   */\n      tag_200\n      jump\t// in\n    tag_395:\n        /* \"#utility.yul\":15068:15093   */\n      swap2\n      pop\n        /* \"#utility.yul\":15107:15127   */\n      tag_396\n        /* \"#utility.yul\":15125:15126   */\n      dup4\n        /* \"#utility.yul\":15107:15127   */\n      tag_200\n      jump\t// in\n    tag_396:\n        /* \"#utility.yul\":15102:15127   */\n      swap3\n      pop\n        /* \"#utility.yul\":15150:15151   */\n      dup3\n        /* \"#utility.yul\":15147:15148   */\n      dup3\n        /* \"#utility.yul\":15143:15152   */\n      add\n        /* \"#utility.yul\":15136:15152   */\n      swap1\n      pop\n        /* \"#utility.yul\":15171:15174   */\n      dup1\n        /* \"#utility.yul\":15168:15169   */\n      dup3\n        /* \"#utility.yul\":15165:15175   */\n      gt\n        /* \"#utility.yul\":15162:15198   */\n      iszero\n      tag_397\n      jumpi\n        /* \"#utility.yul\":15178:15196   */\n      tag_398\n      tag_225\n      jump\t// in\n    tag_398:\n        /* \"#utility.yul\":15162:15198   */\n    tag_397:\n        /* \"#utility.yul\":15014:15205   */\n      swap3\n      swap2\n      pop\n      pop\n      jump\t// out\n        /* \"#utility.yul\":15211:15310   */\n    tag_226:\n        /* \"#utility.yul\":15263:15269   */\n      0x00\n        /* \"#utility.yul\":15297:15302   */\n      dup2\n        /* \"#utility.yul\":15291:15303   */\n      mload\n        /* \"#utility.yul\":15281:15303   */\n      swap1\n      pop\n        /* \"#utility.yul\":15211:15310   */\n      swap2\n      swap1\n      pop\n      jump\t// out\n        /* \"#utility.yul\":15316:15464   */\n    tag_227:\n        /* \"#utility.yul\":15418:15429   */\n      0x00\n        /* \"#utility.yul\":15455:15458   */\n      dup2\n        /* \"#utility.yul\":15440:15458   */\n      swap1\n      pop\n        /* \"#utility.yul\":15316:15464   */\n      swap3\n      swap2\n      pop\n      pop\n      jump\t// out\n        /* \"#utility.yul\":15470:15716   */\n    tag_228:\n        /* \"#utility.yul\":15551:15552   */\n      0x00\n        /* \"#utility.yul\":15561:15674   */\n    tag_402:\n        /* \"#utility.yul\":15575:15581   */\n      dup4\n        /* \"#utility.yul\":15572:15573   */\n      dup2\n        /* \"#utility.yul\":15569:15582   */\n      lt\n        /* \"#utility.yul\":15561:15674   */\n      iszero\n      tag_404\n      jumpi\n        /* \"#utility.yul\":15660:15661   */\n      dup1\n        /* \"#utility.yul\":15655:15658   */\n      dup3\n        /* \"#utility.yul\":15651:15662   */\n      add\n        /* \"#utility.yul\":15645:15663   */\n      mload\n        /* \"#utility.yul\":15641:15642   */\n      dup2\n        /* \"#utility.yul\":15636:15639   */\n      dup5\n        /* \"#utility.yul\":15632:15643   */\n      add\n        /* \"#utility.yul\":15625:15664   */\n      mstore\n        /* \"#utility.yul\":15597:15599   */\n      0x20\n        /* \"#utility.yul\":15594:15595   */\n      dup2\n        /* \"#utility.yul\":15590:15600   */\n      add\n        /* \"#utility.yul\":15585:15600   */\n      swap1\n      pop\n        /* \"#utility.yul\":15561:15674   */\n      jump(tag_402)\n    tag_404:\n        /* \"#utility.yul\":15708:15709   */\n      0x00\n        /* \"#utility.yul\":15699:15705   */\n      dup5\n        /* \"#utility.yul\":15694:15697   */\n      dup5\n        /* \"#utility.yul\":15690:15706   */\n      add\n        /* \"#utility.yul\":15683:15710   */\n      mstore\n        /* \"#utility.yul\":15532:15716   */\n      pop\n        /* \"#utility.yul\":15470:15716   */\n      pop\n      pop\n      pop\n      jump\t// out\n        /* \"#utility.yul\":15722:16112   */\n    tag_229:\n        /* \"#utility.yul\":15828:15831   */\n      0x00\n        /* \"#utility.yul\":15856:15895   */\n      tag_406\n        /* \"#utility.yul\":15889:15894   */\n      dup3\n        /* \"#utility.yul\":15856:15895   */\n      tag_226\n      jump\t// in\n    tag_406:\n        /* \"#utility.yul\":15911:16000   */\n      tag_407\n        /* \"#utility.yul\":15993:15999   */\n      dup2\n        /* \"#utility.yul\":15988:15991   */\n      dup6\n        /* \"#utility.yul\":15911:16000   */\n      tag_227\n      jump\t// in\n    tag_407:\n        /* \"#utility.yul\":15904:16000   */\n      swap4\n      pop\n        /* \"#utility.yul\":16009:16074   */\n      tag_408\n        /* \"#utility.yul\":16067:16073   */\n      dup2\n        /* \"#utility.yul\":16062:16065   */\n      dup6\n        /* \"#utility.yul\":16055:16059   */\n      0x20\n        /* \"#utility.yul\":16048:16053   */\n      dup7\n        /* \"#utility.yul\":16044:16060   */\n      add\n        /* \"#utility.yul\":16009:16074   */\n      tag_228\n      jump\t// in\n    tag_408:\n        /* \"#utility.yul\":16099:16105   */\n      dup1\n        /* \"#utility.yul\":16094:16097   */\n      dup5\n        /* \"#utility.yul\":16090:16106   */\n      add\n        /* \"#utility.yul\":16083:16106   */\n      swap2\n      pop\n        /* \"#utility.yul\":15832:16112   */\n      pop\n        /* \"#utility.yul\":15722:16112   */\n      swap3\n      swap2\n      pop\n      pop\n      jump\t// out\n        /* \"#utility.yul\":16118:16393   */\n    tag_47:\n        /* \"#utility.yul\":16250:16253   */\n      0x00\n        /* \"#utility.yul\":16272:16367   */\n      tag_410\n        /* \"#utility.yul\":16363:16366   */\n      dup3\n        /* \"#utility.yul\":16354:16360   */\n      dup5\n        /* \"#utility.yul\":16272:16367   */\n      tag_229\n      jump\t// in\n    tag_410:\n        /* \"#utility.yul\":16265:16367   */\n      swap2\n      pop\n        /* \"#utility.yul\":16384:16387   */\n      dup2\n        /* \"#utility.yul\":16377:16387   */\n      swap1\n      pop\n        /* \"#utility.yul\":16118:16393   */\n      swap3\n      swap2\n      pop\n      pop\n      jump\t// out\n        /* \"#utility.yul\":16399:16579   */\n    tag_54:\n        /* \"#utility.yul\":16447:16524   */\n      0x4e487b7100000000000000000000000000000000000000000000000000000000\n        /* \"#utility.yul\":16444:16445   */\n      0x00\n        /* \"#utility.yul\":16437:16525   */\n      mstore\n        /* \"#utility.yul\":16544:16548   */\n      0x32\n        /* \"#utility.yul\":16541:16542   */\n      0x04\n        /* \"#utility.yul\":16534:16549   */\n      mstore\n        /* \"#utility.yul\":16568:16572   */\n      0x24\n        /* \"#utility.yul\":16565:16566   */\n      0x00\n        /* \"#utility.yul\":16558:16573   */\n      revert\n        /* \"#utility.yul\":16585:16664   */\n    tag_230:\n        /* \"#utility.yul\":16624:16631   */\n      0x00\n        /* \"#utility.yul\":16653:16658   */\n      dup2\n        /* \"#utility.yul\":16642:16658   */\n      swap1\n      pop\n        /* \"#utility.yul\":16585:16664   */\n      swap2\n      swap1\n      pop\n      jump\t// out\n        /* \"#utility.yul\":16670:16827   */\n    tag_231:\n        /* \"#utility.yul\":16775:16820   */\n      tag_414\n        /* \"#utility.yul\":16795:16819   */\n      tag_415\n        /* \"#utility.yul\":16813:16818   */\n      dup3\n        /* \"#utility.yul\":16795:16819   */\n      tag_200\n      jump\t// in\n    tag_415:\n        /* \"#utility.yul\":16775:16820   */\n      tag_230\n      jump\t// in\n    tag_414:\n        /* \"#utility.yul\":16770:16773   */\n      dup3\n        /* \"#utility.yul\":16763:16821   */\n      mstore\n        /* \"#utility.yul\":16670:16827   */\n      pop\n      pop\n      jump\t// out\n        /* \"#utility.yul\":16833:17371   */\n    tag_78:\n        /* \"#utility.yul\":17001:17004   */\n      0x00\n        /* \"#utility.yul\":17016:17091   */\n      tag_417\n        /* \"#utility.yul\":17087:17090   */\n      dup3\n        /* \"#utility.yul\":17078:17084   */\n      dup7\n        /* \"#utility.yul\":17016:17091   */\n      tag_231\n      jump\t// in\n    tag_417:\n        /* \"#utility.yul\":17116:17118   */\n      0x20\n        /* \"#utility.yul\":17111:17114   */\n      dup3\n        /* \"#utility.yul\":17107:17119   */\n      add\n        /* \"#utility.yul\":17100:17119   */\n      swap2\n      pop\n        /* \"#utility.yul\":17129:17204   */\n      tag_418\n        /* \"#utility.yul\":17200:17203   */\n      dup3\n        /* \"#utility.yul\":17191:17197   */\n      dup6\n        /* \"#utility.yul\":17129:17204   */\n      tag_231\n      jump\t// in\n    tag_418:\n        /* \"#utility.yul\":17229:17231   */\n      0x20\n        /* \"#utility.yul\":17224:17227   */\n      dup3\n        /* \"#utility.yul\":17220:17232   */\n      add\n        /* \"#utility.yul\":17213:17232   */\n      swap2\n      pop\n        /* \"#utility.yul\":17242:17317   */\n      tag_419\n        /* \"#utility.yul\":17313:17316   */\n      dup3\n        /* \"#utility.yul\":17304:17310   */\n      dup5\n        /* \"#utility.yul\":17242:17317   */\n      tag_231\n      jump\t// in\n    tag_419:\n        /* \"#utility.yul\":17342:17344   */\n      0x20\n        /* \"#utility.yul\":17337:17340   */\n      dup3\n        /* \"#utility.yul\":17333:17345   */\n      add\n        /* \"#utility.yul\":17326:17345   */\n      swap2\n      pop\n        /* \"#utility.yul\":17362:17365   */\n      dup2\n        /* \"#utility.yul\":17355:17365   */\n      swap1\n      pop\n        /* \"#utility.yul\":16833:17371   */\n      swap5\n      swap4\n      pop\n      pop\n      pop\n      pop\n      jump\t// out\n        /* \"#utility.yul\":17377:17475   */\n    tag_232:\n        /* \"#utility.yul\":17428:17434   */\n      0x00\n        /* \"#utility.yul\":17462:17467   */\n      dup2\n        /* \"#utility.yul\":17456:17468   */\n      mload\n        /* \"#utility.yul\":17446:17468   */\n      swap1\n      pop\n        /* \"#utility.yul\":17377:17475   */\n      swap2\n      swap1\n      pop\n      jump\t// out\n        /* \"#utility.yul\":17481:17628   */\n    tag_233:\n        /* \"#utility.yul\":17582:17593   */\n      0x00\n        /* \"#utility.yul\":17619:17622   */\n      dup2\n        /* \"#utility.yul\":17604:17622   */\n      swap1\n      pop\n        /* \"#utility.yul\":17481:17628   */\n      swap3\n      swap2\n      pop\n      pop\n      jump\t// out\n        /* \"#utility.yul\":17634:18020   */\n    tag_234:\n        /* \"#utility.yul\":17738:17741   */\n      0x00\n        /* \"#utility.yul\":17766:17804   */\n      tag_423\n        /* \"#utility.yul\":17798:17803   */\n      dup3\n        /* \"#utility.yul\":17766:17804   */\n      tag_232\n      jump\t// in\n    tag_423:\n        /* \"#utility.yul\":17820:17908   */\n      tag_424\n        /* \"#utility.yul\":17901:17907   */\n      dup2\n        /* \"#utility.yul\":17896:17899   */\n      dup6\n        /* \"#utility.yul\":17820:17908   */\n      tag_233\n      jump\t// in\n    tag_424:\n        /* \"#utility.yul\":17813:17908   */\n      swap4\n      pop\n        /* \"#utility.yul\":17917:17982   */\n      tag_425\n        /* \"#utility.yul\":17975:17981   */\n      dup2\n        /* \"#utility.yul\":17970:17973   */\n      dup6\n        /* \"#utility.yul\":17963:17967   */\n      0x20\n        /* \"#utility.yul\":17956:17961   */\n      dup7\n        /* \"#utility.yul\":17952:17968   */\n      add\n        /* \"#utility.yul\":17917:17982   */\n      tag_228\n      jump\t// in\n    tag_425:\n        /* \"#utility.yul\":18007:18013   */\n      dup1\n        /* \"#utility.yul\":18002:18005   */\n      dup5\n        /* \"#utility.yul\":17998:18014   */\n      add\n        /* \"#utility.yul\":17991:18014   */\n      swap2\n      pop\n        /* \"#utility.yul\":17742:18020   */\n      pop\n        /* \"#utility.yul\":17634:18020   */\n      swap3\n      swap2\n      pop\n      pop\n      jump\t// out\n        /* \"#utility.yul\":18026:18297   */\n    tag_80:\n        /* \"#utility.yul\":18156:18159   */\n      0x00\n        /* \"#utility.yul\":18178:18271   */\n      tag_427\n        /* \"#utility.yul\":18267:18270   */\n      dup3\n        /* \"#utility.yul\":18258:18264   */\n      dup5\n        /* \"#utility.yul\":18178:18271   */\n      tag_234\n      jump\t// in\n    tag_427:\n        /* \"#utility.yul\":18171:18271   */\n      swap2\n      pop\n        /* \"#utility.yul\":18288:18291   */\n      dup2\n        /* \"#utility.yul\":18281:18291   */\n      swap1\n      pop\n        /* \"#utility.yul\":18026:18297   */\n      swap3\n      swap2\n      pop\n      pop\n      jump\t// out\n        /* \"#utility.yul\":18303:18481   */\n    tag_235:\n        /* \"#utility.yul\":18443:18473   */\n      0x5363616c6172206d756c7469706c69636174696f6e206661696c656400000000\n        /* \"#utility.yul\":18439:18440   */\n      0x00\n        /* \"#utility.yul\":18431:18437   */\n      dup3\n        /* \"#utility.yul\":18427:18441   */\n      add\n        /* \"#utility.yul\":18420:18474   */\n      mstore\n        /* \"#utility.yul\":18303:18481   */\n      pop\n      jump\t// out\n        /* \"#utility.yul\":18487:18853   */\n    tag_236:\n        /* \"#utility.yul\":18629:18632   */\n      0x00\n        /* \"#utility.yul\":18650:18717   */\n      tag_430\n        /* \"#utility.yul\":18714:18716   */\n      0x1c\n        /* \"#utility.yul\":18709:18712   */\n      dup4\n        /* \"#utility.yul\":18650:18717   */\n      tag_220\n      jump\t// in\n    tag_430:\n        /* \"#utility.yul\":18643:18717   */\n      swap2\n      pop\n        /* \"#utility.yul\":18726:18819   */\n      tag_431\n        /* \"#utility.yul\":18815:18818   */\n      dup3\n        /* \"#utility.yul\":18726:18819   */\n      tag_235\n      jump\t// in\n    tag_431:\n        /* \"#utility.yul\":18844:18846   */\n      0x20\n        /* \"#utility.yul\":18839:18842   */\n      dup3\n        /* \"#utility.yul\":18835:18847   */\n      add\n        /* \"#utility.yul\":18828:18847   */\n      swap1\n      pop\n        /* \"#utility.yul\":18487:18853   */\n      swap2\n      swap1\n      pop\n      jump\t// out\n        /* \"#utility.yul\":18859:19278   */\n    tag_87:\n        /* \"#utility.yul\":19025:19029   */\n      0x00\n        /* \"#utility.yul\":19063:19065   */\n      0x20\n        /* \"#utility.yul\":19052:19061   */\n      dup3\n        /* \"#utility.yul\":19048:19066   */\n      add\n        /* \"#utility.yul\":19040:19066   */\n      swap1\n      pop\n        /* \"#utility.yul\":19112:19121   */\n      dup2\n        /* \"#utility.yul\":19106:19110   */\n      dup2\n        /* \"#utility.yul\":19102:19122   */\n      sub\n        /* \"#utility.yul\":19098:19099   */\n      0x00\n        /* \"#utility.yul\":19087:19096   */\n      dup4\n        /* \"#utility.yul\":19083:19100   */\n      add\n        /* \"#utility.yul\":19076:19123   */\n      mstore\n        /* \"#utility.yul\":19140:19271   */\n      tag_433\n        /* \"#utility.yul\":19266:19270   */\n      dup2\n        /* \"#utility.yul\":19140:19271   */\n      tag_236\n      jump\t// in\n    tag_433:\n        /* \"#utility.yul\":19132:19271   */\n      swap1\n      pop\n        /* \"#utility.yul\":18859:19278   */\n      swap2\n      swap1\n      pop\n      jump\t// out\n        /* \"#utility.yul\":19284:20933   */\n    tag_237:\n        /* \"#utility.yul\":19424:19458   */\n      0x3037353430613031373266636531623762303463356638343164396161646432\n        /* \"#utility.yul\":19420:19421   */\n      0x00\n        /* \"#utility.yul\":19412:19418   */\n      dup3\n        /* \"#utility.yul\":19408:19422   */\n      add\n        /* \"#utility.yul\":19401:19459   */\n      mstore\n        /* \"#utility.yul\":19493:19527   */\n      0x6130353231393430333230356566646331643839366165323037326163363234\n        /* \"#utility.yul\":19488:19490   */\n      0x20\n        /* \"#utility.yul\":19480:19486   */\n      dup3\n        /* \"#utility.yul\":19476:19491   */\n      add\n        /* \"#utility.yul\":19469:19528   */\n      mstore\n        /* \"#utility.yul\":19562:19596   */\n      0x3136333137616365613537333466333061633734646338626330613365383861\n        /* \"#utility.yul\":19557:19559   */\n      0x40\n        /* \"#utility.yul\":19549:19555   */\n      dup3\n        /* \"#utility.yul\":19545:19560   */\n      add\n        /* \"#utility.yul\":19538:19597   */\n      mstore\n        /* \"#utility.yul\":19631:19665   */\n      0x3631643534376236653435306462323830303130373733393238656662666635\n        /* \"#utility.yul\":19626:19628   */\n      0x60\n        /* \"#utility.yul\":19618:19624   */\n      dup3\n        /* \"#utility.yul\":19614:19629   */\n      add\n        /* \"#utility.yul\":19607:19666   */\n      mstore\n        /* \"#utility.yul\":19701:19735   */\n      0x3134313565323136663431333462306364323266343262343037316339393864\n        /* \"#utility.yul\":19695:19698   */\n      0x80\n        /* \"#utility.yul\":19687:19693   */\n      dup3\n        /* \"#utility.yul\":19683:19699   */\n      add\n        /* \"#utility.yul\":19676:19736   */\n      mstore\n        /* \"#utility.yul\":19771:19805   */\n      0x3633383530343762653233396333633965326231626636336166636130343430\n        /* \"#utility.yul\":19765:19768   */\n      0xa0\n        /* \"#utility.yul\":19757:19763   */\n      dup3\n        /* \"#utility.yul\":19753:19769   */\n      add\n        /* \"#utility.yul\":19746:19806   */\n      mstore\n        /* \"#utility.yul\":19841:19875   */\n      0x3233373162626336656264393535343535306566613039396664633431303862\n        /* \"#utility.yul\":19835:19838   */\n      0xc0\n        /* \"#utility.yul\":19827:19833   */\n      dup3\n        /* \"#utility.yul\":19823:19839   */\n      add\n        /* \"#utility.yul\":19816:19876   */\n      mstore\n        /* \"#utility.yul\":19911:19945   */\n      0x3766343734346665626461666632626661653532373462353734326237306262\n        /* \"#utility.yul\":19905:19908   */\n      0xe0\n        /* \"#utility.yul\":19897:19903   */\n      dup3\n        /* \"#utility.yul\":19893:19909   */\n      add\n        /* \"#utility.yul\":19886:19946   */\n      mstore\n        /* \"#utility.yul\":19981:20015   */\n      0x3134313565323136663431333462306364323266343262343037316339393864\n        /* \"#utility.yul\":19975:19978   */\n      0x0100\n        /* \"#utility.yul\":19967:19973   */\n      dup3\n        /* \"#utility.yul\":19963:19979   */\n      add\n        /* \"#utility.yul\":19956:20016   */\n      mstore\n        /* \"#utility.yul\":20051:20085   */\n      0x3633383530343762653233396333633965326231626636336166636130343430\n        /* \"#utility.yul\":20045:20048   */\n      0x0120\n        /* \"#utility.yul\":20037:20043   */\n      dup3\n        /* \"#utility.yul\":20033:20049   */\n      add\n        /* \"#utility.yul\":20026:20086   */\n      mstore\n        /* \"#utility.yul\":20121:20155   */\n      0x3265376336663435613338623234653839643865313239343866613332613564\n        /* \"#utility.yul\":20115:20118   */\n      0x0140\n        /* \"#utility.yul\":20107:20113   */\n      dup3\n        /* \"#utility.yul\":20103:20119   */\n      add\n        /* \"#utility.yul\":20096:20156   */\n      mstore\n        /* \"#utility.yul\":20191:20225   */\n      0x3736653464363162353263323130396138333936343538323361356537306265\n        /* \"#utility.yul\":20185:20188   */\n      0x0160\n        /* \"#utility.yul\":20177:20183   */\n      dup3\n        /* \"#utility.yul\":20173:20189   */\n      add\n        /* \"#utility.yul\":20166:20226   */\n      mstore\n        /* \"#utility.yul\":20261:20295   */\n      0x3163393166356262623237346332393635393466333862396166646131613937\n        /* \"#utility.yul\":20255:20258   */\n      0x0180\n        /* \"#utility.yul\":20247:20253   */\n      dup3\n        /* \"#utility.yul\":20243:20259   */\n      add\n        /* \"#utility.yul\":20236:20296   */\n      mstore\n        /* \"#utility.yul\":20331:20365   */\n      0x6334613735326439306539613066623837643431636336356535303732633235\n        /* \"#utility.yul\":20325:20328   */\n      0x01a0\n        /* \"#utility.yul\":20317:20323   */\n      dup3\n        /* \"#utility.yul\":20313:20329   */\n      add\n        /* \"#utility.yul\":20306:20366   */\n      mstore\n        /* \"#utility.yul\":20401:20435   */\n      0x3230306365386234663536383639626538393965646462613537333361626538\n        /* \"#utility.yul\":20395:20398   */\n      0x01c0\n        /* \"#utility.yul\":20387:20393   */\n      dup3\n        /* \"#utility.yul\":20383:20399   */\n      add\n        /* \"#utility.yul\":20376:20436   */\n      mstore\n        /* \"#utility.yul\":20471:20505   */\n      0x3637346333616130323162626639666434623135343233666331393562626238\n        /* \"#utility.yul\":20465:20468   */\n      0x01e0\n        /* \"#utility.yul\":20457:20463   */\n      dup3\n        /* \"#utility.yul\":20453:20469   */\n      add\n        /* \"#utility.yul\":20446:20506   */\n      mstore\n        /* \"#utility.yul\":20541:20575   */\n      0x3134313565323136663431333462306364323266343262343037316339393864\n        /* \"#utility.yul\":20535:20538   */\n      0x0200\n        /* \"#utility.yul\":20527:20533   */\n      dup3\n        /* \"#utility.yul\":20523:20539   */\n      add\n        /* \"#utility.yul\":20516:20576   */\n      mstore\n        /* \"#utility.yul\":20611:20645   */\n      0x3633383530343762653233396333633965326231626636336166636130343430\n        /* \"#utility.yul\":20605:20608   */\n      0x0220\n        /* \"#utility.yul\":20597:20603   */\n      dup3\n        /* \"#utility.yul\":20593:20609   */\n      add\n        /* \"#utility.yul\":20586:20646   */\n      mstore\n        /* \"#utility.yul\":20681:20715   */\n      0x3132303530323530373561323139393165393933353961353537316266656138\n        /* \"#utility.yul\":20675:20678   */\n      0x0240\n        /* \"#utility.yul\":20667:20673   */\n      dup3\n        /* \"#utility.yul\":20663:20679   */\n      add\n        /* \"#utility.yul\":20656:20716   */\n      mstore\n        /* \"#utility.yul\":20751:20785   */\n      0x3834383935643131353562383666326162393032316664356630633633396134\n        /* \"#utility.yul\":20745:20748   */\n      0x0260\n        /* \"#utility.yul\":20737:20743   */\n      dup3\n        /* \"#utility.yul\":20733:20749   */\n      add\n        /* \"#utility.yul\":20726:20786   */\n      mstore\n        /* \"#utility.yul\":20821:20855   */\n      0x3330336332663835386365363436616565653230636565306236373038613666\n        /* \"#utility.yul\":20815:20818   */\n      0x0280\n        /* \"#utility.yul\":20807:20813   */\n      dup3\n        /* \"#utility.yul\":20803:20819   */\n      add\n        /* \"#utility.yul\":20796:20856   */\n      mstore\n        /* \"#utility.yul\":20891:20925   */\n      0x3439343033353934623430303637643864353964343864393932623237356139\n        /* \"#utility.yul\":20885:20888   */\n      0x02a0\n        /* \"#utility.yul\":20877:20883   */\n      dup3\n        /* \"#utility.yul\":20873:20889   */\n      add\n        /* \"#utility.yul\":20866:20926   */\n      mstore\n        /* \"#utility.yul\":19284:20933   */\n      pop\n      jump\t// out\n        /* \"#utility.yul\":20939:21343   */\n    tag_238:\n        /* \"#utility.yul\":21099:21102   */\n      0x00\n        /* \"#utility.yul\":21120:21206   */\n      tag_436\n        /* \"#utility.yul\":21202:21205   */\n      0x02c0\n        /* \"#utility.yul\":21197:21200   */\n      dup4\n        /* \"#utility.yul\":21120:21206   */\n      tag_227\n      jump\t// in\n    tag_436:\n        /* \"#utility.yul\":21113:21206   */\n      swap2\n      pop\n        /* \"#utility.yul\":21215:21308   */\n      tag_437\n        /* \"#utility.yul\":21304:21307   */\n      dup3\n        /* \"#utility.yul\":21215:21308   */\n      tag_237\n      jump\t// in\n    tag_437:\n        /* \"#utility.yul\":21333:21336   */\n      0x02c0\n        /* \"#utility.yul\":21328:21331   */\n      dup3\n        /* \"#utility.yul\":21324:21337   */\n      add\n        /* \"#utility.yul\":21317:21337   */\n      swap1\n      pop\n        /* \"#utility.yul\":20939:21343   */\n      swap2\n      swap1\n      pop\n      jump\t// out\n        /* \"#utility.yul\":21349:21730   */\n    tag_97:\n        /* \"#utility.yul\":21534:21537   */\n      0x00\n        /* \"#utility.yul\":21556:21704   */\n      tag_439\n        /* \"#utility.yul\":21700:21703   */\n      dup3\n        /* \"#utility.yul\":21556:21704   */\n      tag_238\n      jump\t// in\n    tag_439:\n        /* \"#utility.yul\":21549:21704   */\n      swap2\n      pop\n        /* \"#utility.yul\":21721:21724   */\n      dup2\n        /* \"#utility.yul\":21714:21724   */\n      swap1\n      pop\n        /* \"#utility.yul\":21349:21730   */\n      swap2\n      swap1\n      pop\n      jump\t// out\n        /* \"#utility.yul\":21736:22415   */\n    tag_109:\n        /* \"#utility.yul\":21932:21935   */\n      0x00\n        /* \"#utility.yul\":21947:22022   */\n      tag_441\n        /* \"#utility.yul\":22018:22021   */\n      dup3\n        /* \"#utility.yul\":22009:22015   */\n      dup8\n        /* \"#utility.yul\":21947:22022   */\n      tag_231\n      jump\t// in\n    tag_441:\n        /* \"#utility.yul\":22047:22049   */\n      0x20\n        /* \"#utility.yul\":22042:22045   */\n      dup3\n        /* \"#utility.yul\":22038:22050   */\n      add\n        /* \"#utility.yul\":22031:22050   */\n      swap2\n      pop\n        /* \"#utility.yul\":22060:22135   */\n      tag_442\n        /* \"#utility.yul\":22131:22134   */\n      dup3\n        /* \"#utility.yul\":22122:22128   */\n      dup7\n        /* \"#utility.yul\":22060:22135   */\n      tag_231\n      jump\t// in\n    tag_442:\n        /* \"#utility.yul\":22160:22162   */\n      0x20\n        /* \"#utility.yul\":22155:22158   */\n      dup3\n        /* \"#utility.yul\":22151:22163   */\n      add\n        /* \"#utility.yul\":22144:22163   */\n      swap2\n      pop\n        /* \"#utility.yul\":22173:22248   */\n      tag_443\n        /* \"#utility.yul\":22244:22247   */\n      dup3\n        /* \"#utility.yul\":22235:22241   */\n      dup6\n        /* \"#utility.yul\":22173:22248   */\n      tag_231\n      jump\t// in\n    tag_443:\n        /* \"#utility.yul\":22273:22275   */\n      0x20\n        /* \"#utility.yul\":22268:22271   */\n      dup3\n        /* \"#utility.yul\":22264:22276   */\n      add\n        /* \"#utility.yul\":22257:22276   */\n      swap2\n      pop\n        /* \"#utility.yul\":22286:22361   */\n      tag_444\n        /* \"#utility.yul\":22357:22360   */\n      dup3\n        /* \"#utility.yul\":22348:22354   */\n      dup5\n        /* \"#utility.yul\":22286:22361   */\n      tag_231\n      jump\t// in\n    tag_444:\n        /* \"#utility.yul\":22386:22388   */\n      0x20\n        /* \"#utility.yul\":22381:22384   */\n      dup3\n        /* \"#utility.yul\":22377:22389   */\n      add\n        /* \"#utility.yul\":22370:22389   */\n      swap2\n      pop\n        /* \"#utility.yul\":22406:22409   */\n      dup2\n        /* \"#utility.yul\":22399:22409   */\n      swap1\n      pop\n        /* \"#utility.yul\":21736:22415   */\n      swap6\n      swap5\n      pop\n      pop\n      pop\n      pop\n      pop\n      jump\t// out\n        /* \"#utility.yul\":22421:22592   */\n    tag_239:\n        /* \"#utility.yul\":22561:22584   */\n      0x506f696e74206164646974696f6e206661696c65640000000000000000000000\n        /* \"#utility.yul\":22557:22558   */\n      0x00\n        /* \"#utility.yul\":22549:22555   */\n      dup3\n        /* \"#utility.yul\":22545:22559   */\n      add\n        /* \"#utility.yul\":22538:22585   */\n      mstore\n        /* \"#utility.yul\":22421:22592   */\n      pop\n      jump\t// out\n        /* \"#utility.yul\":22598:22964   */\n    tag_240:\n        /* \"#utility.yul\":22740:22743   */\n      0x00\n        /* \"#utility.yul\":22761:22828   */\n      tag_447\n        /* \"#utility.yul\":22825:22827   */\n      0x15\n        /* \"#utility.yul\":22820:22823   */\n      dup4\n        /* \"#utility.yul\":22761:22828   */\n      tag_220\n      jump\t// in\n    tag_447:\n        /* \"#utility.yul\":22754:22828   */\n      swap2\n      pop\n        /* \"#utility.yul\":22837:22930   */\n      tag_448\n        /* \"#utility.yul\":22926:22929   */\n      dup3\n        /* \"#utility.yul\":22837:22930   */\n      tag_239\n      jump\t// in\n    tag_448:\n        /* \"#utility.yul\":22955:22957   */\n      0x20\n        /* \"#utility.yul\":22950:22953   */\n      dup3\n        /* \"#utility.yul\":22946:22958   */\n      add\n        /* \"#utility.yul\":22939:22958   */\n      swap1\n      pop\n        /* \"#utility.yul\":22598:22964   */\n      swap2\n      swap1\n      pop\n      jump\t// out\n        /* \"#utility.yul\":22970:23389   */\n    tag_117:\n        /* \"#utility.yul\":23136:23140   */\n      0x00\n        /* \"#utility.yul\":23174:23176   */\n      0x20\n        /* \"#utility.yul\":23163:23172   */\n      dup3\n        /* \"#utility.yul\":23159:23177   */\n      add\n        /* \"#utility.yul\":23151:23177   */\n      swap1\n      pop\n        /* \"#utility.yul\":23223:23232   */\n      dup2\n        /* \"#utility.yul\":23217:23221   */\n      dup2\n        /* \"#utility.yul\":23213:23233   */\n      sub\n        /* \"#utility.yul\":23209:23210   */\n      0x00\n        /* \"#utility.yul\":23198:23207   */\n      dup4\n        /* \"#utility.yul\":23194:23211   */\n      add\n        /* \"#utility.yul\":23187:23234   */\n      mstore\n        /* \"#utility.yul\":23251:23382   */\n      tag_450\n        /* \"#utility.yul\":23377:23381   */\n      dup2\n        /* \"#utility.yul\":23251:23382   */\n      tag_240\n      jump\t// in\n    tag_450:\n        /* \"#utility.yul\":23243:23382   */\n      swap1\n      pop\n        /* \"#utility.yul\":22970:23389   */\n      swap2\n      swap1\n      pop\n      jump\t// out\n        /* \"#utility.yul\":23395:23628   */\n    tag_138:\n        /* \"#utility.yul\":23434:23437   */\n      0x00\n        /* \"#utility.yul\":23457:23481   */\n      tag_452\n        /* \"#utility.yul\":23475:23480   */\n      dup3\n        /* \"#utility.yul\":23457:23481   */\n      tag_200\n      jump\t// in\n    tag_452:\n        /* \"#utility.yul\":23448:23481   */\n      swap2\n      pop\n        /* \"#utility.yul\":23503:23569   */\n      0xffffffffffffffffffffffffffffffffffffffffffffffffffffffffffffffff\n        /* \"#utility.yul\":23496:23501   */\n      dup3\n        /* \"#utility.yul\":23493:23570   */\n      sub\n        /* \"#utility.yul\":23490:23593   */\n      tag_453\n      jumpi\n        /* \"#utility.yul\":23573:23591   */\n      tag_454\n      tag_225\n      jump\t// in\n    tag_454:\n        /* \"#utility.yul\":23490:23593   */\n    tag_453:\n        /* \"#utility.yul\":23620:23621   */\n      0x01\n        /* \"#utility.yul\":23613:23618   */\n      dup3\n        /* \"#utility.yul\":23609:23622   */\n      add\n        /* \"#utility.yul\":23602:23622   */\n      swap1\n      pop\n        /* \"#utility.yul\":23395:23628   */\n      swap2\n      swap1\n      pop\n      jump\t// out\n        /* \"#utility.yul\":23634:23814   */\n    tag_241:\n        /* \"#utility.yul\":23682:23759   */\n      0x4e487b7100000000000000000000000000000000000000000000000000000000\n        /* \"#utility.yul\":23679:23680   */\n      0x00\n        /* \"#utility.yul\":23672:23760   */\n      mstore\n        /* \"#utility.yul\":23779:23783   */\n      0x12\n        /* \"#utility.yul\":23776:23777   */\n      0x04\n        /* \"#utility.yul\":23769:23784   */\n      mstore\n        /* \"#utility.yul\":23803:23807   */\n      0x24\n        /* \"#utility.yul\":23800:23801   */\n      0x00\n        /* \"#utility.yul\":23793:23808   */\n      revert\n        /* \"#utility.yul\":23820:24005   */\n    tag_140:\n        /* \"#utility.yul\":23860:23861   */\n      0x00\n        /* \"#utility.yul\":23877:23897   */\n      tag_457\n        /* \"#utility.yul\":23895:23896   */\n      dup3\n        /* \"#utility.yul\":23877:23897   */\n      tag_200\n      jump\t// in\n    tag_457:\n        /* \"#utility.yul\":23872:23897   */\n      swap2\n      pop\n        /* \"#utility.yul\":23911:23931   */\n      tag_458\n        /* \"#utility.yul\":23929:23930   */\n      dup4\n        /* \"#utility.yul\":23911:23931   */\n      tag_200\n      jump\t// in\n    tag_458:\n        /* \"#utility.yul\":23906:23931   */\n      swap3\n      pop\n        /* \"#utility.yul\":23950:23951   */\n      dup3\n        /* \"#utility.yul\":23940:23975   */\n      tag_459\n      jumpi\n        /* \"#utility.yul\":23955:23973   */\n      tag_460\n      tag_241\n      jump\t// in\n    tag_460:\n        /* \"#utility.yul\":23940:23975   */\n    tag_459:\n        /* \"#utility.yul\":23997:23998   */\n      dup3\n        /* \"#utility.yul\":23994:23995   */\n      dup3\n        /* \"#utility.yul\":23990:23999   */\n      div\n        /* \"#utility.yul\":23985:23999   */\n      swap1\n      pop\n        /* \"#utility.yul\":23820:24005   */\n      swap3\n      swap2\n      pop\n      pop\n      jump\t// out\n        /* \"#utility.yul\":24011:24205   */\n    tag_148:\n        /* \"#utility.yul\":24051:24055   */\n      0x00\n        /* \"#utility.yul\":24071:24091   */\n      tag_462\n        /* \"#utility.yul\":24089:24090   */\n      dup3\n        /* \"#utility.yul\":24071:24091   */\n      tag_200\n      jump\t// in\n    tag_462:\n        /* \"#utility.yul\":24066:24091   */\n      swap2\n      pop\n        /* \"#utility.yul\":24105:24125   */\n      tag_463\n        /* \"#utility.yul\":24123:24124   */\n      dup4\n        /* \"#utility.yul\":24105:24125   */\n      tag_200\n      jump\t// in\n    tag_463:\n        /* \"#utility.yul\":24100:24125   */\n      swap3\n      pop\n        /* \"#utility.yul\":24149:24150   */\n      dup3\n        /* \"#utility.yul\":24146:24147   */\n      dup3\n        /* \"#utility.yul\":24142:24151   */\n      sub\n        /* \"#utility.yul\":24134:24151   */\n      swap1\n      pop\n        /* \"#utility.yul\":24173:24174   */\n      dup2\n        /* \"#utility.yul\":24167:24171   */\n      dup2\n        /* \"#utility.yul\":24164:24175   */\n      gt\n        /* \"#utility.yul\":24161:24198   */\n      iszero\n      tag_464\n      jumpi\n        /* \"#utility.yul\":24178:24196   */\n      tag_465\n      tag_225\n      jump\t// in\n    tag_465:\n        /* \"#utility.yul\":24161:24198   */\n    tag_464:\n        /* \"#utility.yul\":24011:24205   */\n      swap3\n      swap2\n      pop\n      pop\n      jump\t// out\n        /* \"#utility.yul\":24211:24621   */\n    tag_151:\n        /* \"#utility.yul\":24251:24258   */\n      0x00\n        /* \"#utility.yul\":24274:24294   */\n      tag_467\n        /* \"#utility.yul\":24292:24293   */\n      dup3\n        /* \"#utility.yul\":24274:24294   */\n      tag_200\n      jump\t// in\n    tag_467:\n        /* \"#utility.yul\":24269:24294   */\n      swap2\n      pop\n        /* \"#utility.yul\":24308:24328   */\n      tag_468\n        /* \"#utility.yul\":24326:24327   */\n      dup4\n        /* \"#utility.yul\":24308:24328   */\n      tag_200\n      jump\t// in\n    tag_468:\n        /* \"#utility.yul\":24303:24328   */\n      swap3\n      pop\n        /* \"#utility.yul\":24363:24364   */\n      dup3\n        /* \"#utility.yul\":24360:24361   */\n      dup3\n        /* \"#utility.yul\":24356:24365   */\n      mul\n        /* \"#utility.yul\":24385:24415   */\n      tag_469\n        /* \"#utility.yul\":24403:24414   */\n      dup2\n        /* \"#utility.yul\":24385:24415   */\n      tag_200\n      jump\t// in\n    tag_469:\n        /* \"#utility.yul\":24374:24415   */\n      swap2\n      pop\n        /* \"#utility.yul\":24564:24565   */\n      dup3\n        /* \"#utility.yul\":24555:24562   */\n      dup3\n        /* \"#utility.yul\":24551:24566   */\n      div\n        /* \"#utility.yul\":24548:24549   */\n      dup5\n        /* \"#utility.yul\":24545:24567   */\n      eq\n        /* \"#utility.yul\":24525:24526   */\n      dup4\n        /* \"#utility.yul\":24518:24527   */\n      iszero\n        /* \"#utility.yul\":24498:24581   */\n      or\n        /* \"#utility.yul\":24475:24614   */\n      tag_470\n      jumpi\n        /* \"#utility.yul\":24594:24612   */\n      tag_471\n      tag_225\n      jump\t// in\n    tag_471:\n        /* \"#utility.yul\":24475:24614   */\n    tag_470:\n        /* \"#utility.yul\":24259:24621   */\n      pop\n        /* \"#utility.yul\":24211:24621   */\n      swap3\n      swap2\n      pop\n      pop\n      jump\t// out\n        /* \"#utility.yul\":24627:24713   */\n    tag_242:\n        /* \"#utility.yul\":24662:24669   */\n      0x00\n        /* \"#utility.yul\":24702:24706   */\n      0xff\n        /* \"#utility.yul\":24695:24700   */\n      dup3\n        /* \"#utility.yul\":24691:24707   */\n      and\n        /* \"#utility.yul\":24680:24707   */\n      swap1\n      pop\n        /* \"#utility.yul\":24627:24713   */\n      swap2\n      swap1\n      pop\n      jump\t// out\n        /* \"#utility.yul\":24719:24907   */\n    tag_154:\n        /* \"#utility.yul\":24757:24760   */\n      0x00\n        /* \"#utility.yul\":24776:24794   */\n      tag_474\n        /* \"#utility.yul\":24792:24793   */\n      dup3\n        /* \"#utility.yul\":24776:24794   */\n      tag_242\n      jump\t// in\n    tag_474:\n        /* \"#utility.yul\":24771:24794   */\n      swap2\n      pop\n        /* \"#utility.yul\":24808:24826   */\n      tag_475\n        /* \"#utility.yul\":24824:24825   */\n      dup4\n        /* \"#utility.yul\":24808:24826   */\n      tag_242\n      jump\t// in\n    tag_475:\n        /* \"#utility.yul\":24803:24826   */\n      swap3\n      pop\n        /* \"#utility.yul\":24849:24850   */\n      dup3\n        /* \"#utility.yul\":24846:24847   */\n      dup3\n        /* \"#utility.yul\":24842:24851   */\n      add\n        /* \"#utility.yul\":24835:24851   */\n      swap1\n      pop\n        /* \"#utility.yul\":24872:24876   */\n      0xff\n        /* \"#utility.yul\":24867:24870   */\n      dup2\n        /* \"#utility.yul\":24864:24877   */\n      gt\n        /* \"#utility.yul\":24861:24900   */\n      iszero\n      tag_476\n      jumpi\n        /* \"#utility.yul\":24880:24898   */\n      tag_477\n      tag_225\n      jump\t// in\n    tag_477:\n        /* \"#utility.yul\":24861:24900   */\n    tag_476:\n        /* \"#utility.yul\":24719:24907   */\n      swap3\n      swap2\n      pop\n      pop\n      jump\t// out\n        /* \"#utility.yul\":24913:25082   */\n    tag_243:\n        /* \"#utility.yul\":25053:25074   */\n      0x496e76616c69642064617461206c656e67746800000000000000000000000000\n        /* \"#utility.yul\":25049:25050   */\n      0x00\n        /* \"#utility.yul\":25041:25047   */\n      dup3\n        /* \"#utility.yul\":25037:25051   */\n      add\n        /* \"#utility.yul\":25030:25075   */\n      mstore\n        /* \"#utility.yul\":24913:25082   */\n      pop\n      jump\t// out\n        /* \"#utility.yul\":25088:25454   */\n    tag_244:\n        /* \"#utility.yul\":25230:25233   */\n      0x00\n        /* \"#utility.yul\":25251:25318   */\n      tag_480\n        /* \"#utility.yul\":25315:25317   */\n      0x13\n        /* \"#utility.yul\":25310:25313   */\n      dup4\n        /* \"#utility.yul\":25251:25318   */\n      tag_220\n      jump\t// in\n    tag_480:\n        /* \"#utility.yul\":25244:25318   */\n      swap2\n      pop\n        /* \"#utility.yul\":25327:25420   */\n      tag_481\n        /* \"#utility.yul\":25416:25419   */\n      dup3\n        /* \"#utility.yul\":25327:25420   */\n      tag_243\n      jump\t// in\n    tag_481:\n        /* \"#utility.yul\":25445:25447   */\n      0x20\n        /* \"#utility.yul\":25440:25443   */\n      dup3\n        /* \"#utility.yul\":25436:25448   */\n      add\n        /* \"#utility.yul\":25429:25448   */\n      swap1\n      pop\n        /* \"#utility.yul\":25088:25454   */\n      swap2\n      swap1\n      pop\n      jump\t// out\n        /* \"#utility.yul\":25460:25879   */\n    tag_174:\n        /* \"#utility.yul\":25626:25630   */\n      0x00\n        /* \"#utility.yul\":25664:25666   */\n      0x20\n        /* \"#utility.yul\":25653:25662   */\n      dup3\n        /* \"#utility.yul\":25649:25667   */\n      add\n        /* \"#utility.yul\":25641:25667   */\n      swap1\n      pop\n        /* \"#utility.yul\":25713:25722   */\n      dup2\n        /* \"#utility.yul\":25707:25711   */\n      dup2\n        /* \"#utility.yul\":25703:25723   */\n      sub\n        /* \"#utility.yul\":25699:25700   */\n      0x00\n        /* \"#utility.yul\":25688:25697   */\n      dup4\n        /* \"#utility.yul\":25684:25701   */\n      add\n        /* \"#utility.yul\":25677:25724   */\n      mstore\n        /* \"#utility.yul\":25741:25872   */\n      tag_483\n        /* \"#utility.yul\":25867:25871   */\n      dup2\n        /* \"#utility.yul\":25741:25872   */\n      tag_244\n      jump\t// in\n    tag_483:\n        /* \"#utility.yul\":25733:25872   */\n      swap1\n      pop\n        /* \"#utility.yul\":25460:25879   */\n      swap2\n      swap1\n      pop\n      jump\t// out\n        /* \"#utility.yul\":25885:26108   */\n    tag_245:\n        /* \"#utility.yul\":26025:26059   */\n      0x76616c6964206661696c65642c206172726179206c656e677468206e6f742065\n        /* \"#utility.yul\":26021:26022   */\n      0x00\n        /* \"#utility.yul\":26013:26019   */\n      dup3\n        /* \"#utility.yul\":26009:26023   */\n      add\n        /* \"#utility.yul\":26002:26060   */\n      mstore\n        /* \"#utility.yul\":26094:26100   */\n      0x7175616c00000000000000000000000000000000000000000000000000000000\n        /* \"#utility.yul\":26089:26091   */\n      0x20\n        /* \"#utility.yul\":26081:26087   */\n      dup3\n        /* \"#utility.yul\":26077:26092   */\n      add\n        /* \"#utility.yul\":26070:26101   */\n      mstore\n        /* \"#utility.yul\":25885:26108   */\n      pop\n      jump\t// out\n        /* \"#utility.yul\":26114:26480   */\n    tag_246:\n        /* \"#utility.yul\":26256:26259   */\n      0x00\n        /* \"#utility.yul\":26277:26344   */\n      tag_486\n        /* \"#utility.yul\":26341:26343   */\n      0x24\n        /* \"#utility.yul\":26336:26339   */\n      dup4\n        /* \"#utility.yul\":26277:26344   */\n      tag_220\n      jump\t// in\n    tag_486:\n        /* \"#utility.yul\":26270:26344   */\n      swap2\n      pop\n        /* \"#utility.yul\":26353:26446   */\n      tag_487\n        /* \"#utility.yul\":26442:26445   */\n      dup3\n        /* \"#utility.yul\":26353:26446   */\n      tag_245\n      jump\t// in\n    tag_487:\n        /* \"#utility.yul\":26471:26473   */\n      0x40\n        /* \"#utility.yul\":26466:26469   */\n      dup3\n        /* \"#utility.yul\":26462:26474   */\n      add\n        /* \"#utility.yul\":26455:26474   */\n      swap1\n      pop\n        /* \"#utility.yul\":26114:26480   */\n      swap2\n      swap1\n      pop\n      jump\t// out\n        /* \"#utility.yul\":26486:26905   */\n    tag_178:\n        /* \"#utility.yul\":26652:26656   */\n      0x00\n        /* \"#utility.yul\":26690:26692   */\n      0x20\n        /* \"#utility.yul\":26679:26688   */\n      dup3\n        /* \"#utility.yul\":26675:26693   */\n      add\n        /* \"#utility.yul\":26667:26693   */\n      swap1\n      pop\n        /* \"#utility.yul\":26739:26748   */\n      dup2\n        /* \"#utility.yul\":26733:26737   */\n      dup2\n        /* \"#utility.yul\":26729:26749   */\n      sub\n        /* \"#utility.yul\":26725:26726   */\n      0x00\n        /* \"#utility.yul\":26714:26723   */\n      dup4\n        /* \"#utility.yul\":26710:26727   */\n      add\n        /* \"#utility.yul\":26703:26750   */\n      mstore\n        /* \"#utility.yul\":26767:26898   */\n      tag_489\n        /* \"#utility.yul\":26893:26897   */\n      dup2\n        /* \"#utility.yul\":26767:26898   */\n      tag_246\n      jump\t// in\n    tag_489:\n        /* \"#utility.yul\":26759:26898   */\n      swap1\n      pop\n        /* \"#utility.yul\":26486:26905   */\n      swap2\n      swap1\n      pop\n      jump\t// out\n        /* \"#utility.yul\":26911:27074   */\n    tag_247:\n        /* \"#utility.yul\":27051:27066   */\n      0x76616c6964206661696c65642100000000000000000000000000000000000000\n        /* \"#utility.yul\":27047:27048   */\n      0x00\n        /* \"#utility.yul\":27039:27045   */\n      dup3\n        /* \"#utility.yul\":27035:27049   */\n      add\n        /* \"#utility.yul\":27028:27067   */\n      mstore\n        /* \"#utility.yul\":26911:27074   */\n      pop\n      jump\t// out\n        /* \"#utility.yul\":27080:27446   */\n    tag_248:\n        /* \"#utility.yul\":27222:27225   */\n      0x00\n        /* \"#utility.yul\":27243:27310   */\n      tag_492\n        /* \"#utility.yul\":27307:27309   */\n      0x0d\n        /* \"#utility.yul\":27302:27305   */\n      dup4\n        /* \"#utility.yul\":27243:27310   */\n      tag_220\n      jump\t// in\n    tag_492:\n        /* \"#utility.yul\":27236:27310   */\n      swap2\n      pop\n        /* \"#utility.yul\":27319:27412   */\n      tag_493\n        /* \"#utility.yul\":27408:27411   */\n      dup3\n        /* \"#utility.yul\":27319:27412   */\n      tag_247\n      jump\t// in\n    tag_493:\n        /* \"#utility.yul\":27437:27439   */\n      0x20\n        /* \"#utility.yul\":27432:27435   */\n      dup3\n        /* \"#utility.yul\":27428:27440   */\n      add\n        /* \"#utility.yul\":27421:27440   */\n      swap1\n      pop\n        /* \"#utility.yul\":27080:27446   */\n      swap2\n      swap1\n      pop\n      jump\t// out\n        /* \"#utility.yul\":27452:27871   */\n    tag_189:\n        /* \"#utility.yul\":27618:27622   */\n      0x00\n        /* \"#utility.yul\":27656:27658   */\n      0x20\n        /* \"#utility.yul\":27645:27654   */\n      dup3\n        /* \"#utility.yul\":27641:27659   */\n      add\n        /* \"#utility.yul\":27633:27659   */\n      swap1\n      pop\n        /* \"#utility.yul\":27705:27714   */\n      dup2\n        /* \"#utility.yul\":27699:27703   */\n      dup2\n        /* \"#utility.yul\":27695:27715   */\n      sub\n        /* \"#utility.yul\":27691:27692   */\n      0x00\n        /* \"#utility.yul\":27680:27689   */\n      dup4\n        /* \"#utility.yul\":27676:27693   */\n      add\n        /* \"#utility.yul\":27669:27716   */\n      mstore\n        /* \"#utility.yul\":27733:27864   */\n      tag_495\n        /* \"#utility.yul\":27859:27863   */\n      dup2\n        /* \"#utility.yul\":27733:27864   */\n      tag_248\n      jump\t// in\n    tag_495:\n        /* \"#utility.yul\":27725:27864   */\n      swap1\n      pop\n        /* \"#utility.yul\":27452:27871   */\n      swap2\n      swap1\n      pop\n      jump\t// out\n\n    auxdata: 0xa264697066735822122050cd003a452b04243409d33aabe2bc8327bcc3ca5a18861b9cbd9a96d68737e364736f6c63430008160033\n}\n",
				"bytecode": {
					"linkReferences": {},
					"object": "608060405260405180604001604052807f171e826ad4a870fd925e0bf0e87884e70e080879c2205ef10114f28a3b6f6dd781526020017f2bd407d897fbbca9f88adfd2d15252e69de8c1564eb4d3d27162e259172f1a1d8152505f9060026200006a929190620000e6565b5060405180604001604052807f05e8290bfaba1ccfad33259a92884cc00644d5fb019ca4dcbdb50123ab32aaf181526020017f05e352269c07449ea6667d7608c648894125d94e751b1b46a9cf56bbb02f37668152506002906002620000d2929190620000e6565b50348015620000df575f80fd5b5062000148565b826002810192821562000118579160200282015b8281111562000117578251825591602001919060010190620000fa565b5b5090506200012791906200012b565b5090565b5b8082111562000144575f815f9055506001016200012c565b5090565b611a8f80620001565f395ff3fe608060405234801561000f575f80fd5b506004361061004a575f3560e01c8063c1f349fe1461004e578063e3ca56991461007e578063f8a8fd6d146100ae578063fa2bf10b146100cc575b5f80fd5b61006860048036038101906100639190610ce2565b6100fc565b6040516100759190610e42565b60405180910390f35b61009860048036038101906100939190610e5b565b610300565b6040516100a59190610f3e565b60405180910390f35b6100b661046d565b6040516100c39190610f66565b60405180910390f35b6100e660048036038101906100e19190610f7f565b61049f565b6040516100f39190610f3e565b60405180910390f35b5f60028014801561010e575085516002145b801561011b575084516002145b80156101275750600280145b80156101335750600280145b610172576040517f08c379a000000000000000000000000000000000000000000000000000000000815260040161016990611063565b60405180910390fd5b5f6002116101b5576040517f08c379a00000000000000000000000000000000000000000000000000000000081526004016101ac90611117565b60405180910390fd5b5f6101bf8861063d565b6101c88a61063d565b6101d29190611162565b90505f6101de8261069e565b90505f816040516020016101f29190611201565b6040516020818303038152906040528051906020012090505f815f1c90505f5b60028110156102ec576102708b828151811061023157610230611217565b5b602002602001015189836002811061024c5761024b611217565b5b60200201518f846002811061026457610263611217565b5b60200201518c8661081c565b6102df8b828151811061028657610285611217565b5b60200260200101518b83815181106102a1576102a0611217565b5b60200260200101518984600281106102bc576102bb611217565b5b60200201518f85600281106102d4576102d3611217565b5b602002015186610848565b8080600101915050610212565b506001945050505050979650505050505050565b6103086109b2565b5f835f6002811061031c5761031b611217565b5b60200201518460016002811061033557610334611217565b5b60200201518460405160200161034d93929190611264565b60405160208183030381529060405290505f80600773ffffffffffffffffffffffffffffffffffffffff168360405161038691906112e4565b5f60405180830381855afa9150503d805f81146103be576040519150601f19603f3d011682016040523d82523d5f602084013e6103c3565b606091505b50915091508180156103d757506040815110155b610416576040517f08c379a000000000000000000000000000000000000000000000000000000000815260040161040d90611344565b60405180910390fd5b610420815f61087d565b845f6002811061043357610432611217565b5b60200201818152505061044781602061087d565b8460016002811061045b5761045a611217565b5b60200201818152505050505092915050565b5f8060405160200161047e906116da565b604051602081830303815290604052805190602001209050805f1c91505090565b6104a76109b2565b5f835f600281106104bb576104ba611217565b5b6020020151846001600281106104d4576104d3611217565b5b6020020151845f600281106104ec576104eb611217565b5b60200201518560016002811061050557610504611217565b5b602002015160405160200161051d94939291906116ee565b60405160208183030381529060405290505f80600673ffffffffffffffffffffffffffffffffffffffff168360405161055691906112e4565b5f60405180830381855afa9150503d805f811461058e576040519150601f19603f3d011682016040523d82523d5f602084013e610593565b606091505b50915091508180156105a757506040815110155b6105e6576040517f08c379a00000000000000000000000000000000000000000000000000000000081526004016105dd90611785565b60405180910390fd5b6105f0815f61087d565b845f6002811061060357610602611217565b5b60200201818152505061061781602061087d565b8460016002811061062b5761062a611217565b5b60200201818152505050505092915050565b5f805f90505b60028110156106985782816002811061065f5761065e611217565b5b60200201515f8151811061067657610675611217565b5b6020026020010151826106899190611162565b91508080600101915050610643565b50919050565b60605f82036106e4576040518060400160405280600181526020017f30000000000000000000000000000000000000000000000000000000000000008152509050610817565b5f8290505f5b5f82146107135780806106fc906117a3565b915050600a8261070c9190611817565b91506106ea565b5f8167ffffffffffffffff81111561072e5761072d6109f9565b5b6040519080825280601f01601f1916602001820160405280156107605781602001600182028036833780820191505090505b5090505f8290505b5f861461080f5760018161077c9190611847565b90505f600a808861078d9190611817565b610797919061187a565b876107a29190611847565b60306107ae91906118c7565b90505f8160f81b9050808484815181106107cb576107ca611217565b5b60200101907effffffffffffffffffffffffffffffffffffffffffffffffffffffffffffff191690815f1a905350600a886108069190611817565b97505050610768565b819450505050505b919050565b6108246109b2565b61082c6109b2565b6108346109b2565b61083e83826108e2565b5050505050505050565b6108506109b2565b6108586109b2565b6108606109b2565b6108686109b2565b61087282826108e2565b505050505050505050565b5f60208261088b9190611162565b835110156108ce576040517f08c379a00000000000000000000000000000000000000000000000000000000081526004016108c590611945565b60405180910390fd5b5f8260200184015190508091505092915050565b60028014610925576040517f08c379a000000000000000000000000000000000000000000000000000000000815260040161091c906119d3565b60405180910390fd5b5f5b60028110156109ad5781816002811061094357610942611217565b5b602002015183826002811061095b5761095a611217565b5b6020020151146109a0576040517f08c379a000000000000000000000000000000000000000000000000000000000815260040161099790611a3b565b60405180910390fd5b8080600101915050610927565b505050565b6040518060400160405280600290602082028036833780820191505090505090565b5f604051905090565b5f80fd5b5f80fd5b5f80fd5b5f601f19601f8301169050919050565b7f4e487b71000000000000000000000000000000000000000000000000000000005f52604160045260245ffd5b610a2f826109e9565b810181811067ffffffffffffffff82111715610a4e57610a4d6109f9565b5b80604052505050565b5f610a606109d4565b9050610a6c8282610a26565b919050565b5f67ffffffffffffffff821115610a8b57610a8a6109f9565b5b602082029050919050565b5f80fd5b5f67ffffffffffffffff821115610ab457610ab36109f9565b5b602082029050602081019050919050565b5f819050919050565b610ad781610ac5565b8114610ae1575f80fd5b50565b5f81359050610af281610ace565b92915050565b5f610b0a610b0584610a9a565b610a57565b90508083825260208201905060208402830185811115610b2d57610b2c610a96565b5b835b81811015610b565780610b428882610ae4565b845260208401935050602081019050610b2f565b5050509392505050565b5f82601f830112610b7457610b736109e5565b5b8135610b84848260208601610af8565b91505092915050565b5f610b9f610b9a84610a71565b610a57565b90508060208402830185811115610bb957610bb8610a96565b5b835b81811015610c0057803567ffffffffffffffff811115610bde57610bdd6109e5565b5b808601610beb8982610b60565b85526020850194505050602081019050610bbb565b5050509392505050565b5f82601f830112610c1e57610c1d6109e5565b5b6002610c2b848285610b8d565b91505092915050565b5f67ffffffffffffffff821115610c4e57610c4d6109f9565b5b602082029050919050565b5f610c6b610c6684610c34565b610a57565b90508060208402830185811115610c8557610c84610a96565b5b835b81811015610cae5780610c9a8882610ae4565b845260208401935050602081019050610c87565b5050509392505050565b5f82601f830112610ccc57610ccb6109e5565b5b6002610cd9848285610c59565b91505092915050565b5f805f805f805f610100888a031215610cfe57610cfd6109dd565b5b5f88013567ffffffffffffffff811115610d1b57610d1a6109e1565b5b610d278a828b01610c0a565b975050602088013567ffffffffffffffff811115610d4857610d476109e1565b5b610d548a828b01610c0a565b965050604088013567ffffffffffffffff811115610d7557610d746109e1565b5b610d818a828b01610b60565b955050606088013567ffffffffffffffff811115610da257610da16109e1565b5b610dae8a828b01610b60565b9450506080610dbf8a828b01610cb8565b93505060c088013567ffffffffffffffff811115610de057610ddf6109e1565b5b610dec8a828b01610c0a565b92505060e088013567ffffffffffffffff811115610e0d57610e0c6109e1565b5b610e198a828b01610c0a565b91505092959891949750929550565b5f8115159050919050565b610e3c81610e28565b82525050565b5f602082019050610e555f830184610e33565b92915050565b5f8060608385031215610e7157610e706109dd565b5b5f610e7e85828601610cb8565b9250506040610e8f85828601610ae4565b9150509250929050565b5f60029050919050565b5f81905092915050565b5f819050919050565b610ebf81610ac5565b82525050565b5f610ed08383610eb6565b60208301905092915050565b5f602082019050919050565b610ef181610e99565b610efb8184610ea3565b9250610f0682610ead565b805f5b83811015610f36578151610f1d8782610ec5565b9650610f2883610edc565b925050600181019050610f09565b505050505050565b5f604082019050610f515f830184610ee8565b92915050565b610f6081610ac5565b82525050565b5f602082019050610f795f830184610f57565b92915050565b5f8060808385031215610f9557610f946109dd565b5b5f610fa285828601610cb8565b9250506040610fb385828601610cb8565b9150509250929050565b5f82825260208201905092915050565b7f496e76616c696420696e707574206c656e6774682c20412c20422c207a4c69735f8201527f745f312c207a4c6973745f322c20584c6973742c20594c6973742073686f756c60208201527f642068617665207468652073616d65206c656e67746800000000000000000000604082015250565b5f61104d605683610fbd565b915061105882610fcd565b606082019050919050565b5f6020820190508181035f83015261107a81611041565b9050919050565b7f496e76616c696420696e707574206c656e6774682c20412c20422c207a4c69735f8201527f745f312c207a4c6973745f322c20584c6973742c20594c6973742073686f756c60208201527f642068617665206c656e677468203e2030000000000000000000000000000000604082015250565b5f611101605183610fbd565b915061110c82611081565b606082019050919050565b5f6020820190508181035f83015261112e816110f5565b9050919050565b7f4e487b71000000000000000000000000000000000000000000000000000000005f52601160045260245ffd5b5f61116c82610ac5565b915061117783610ac5565b925082820190508082111561118f5761118e611135565b5b92915050565b5f81519050919050565b5f81905092915050565b5f5b838110156111c65780820151818401526020810190506111ab565b5f8484015250505050565b5f6111db82611195565b6111e5818561119f565b93506111f58185602086016111a9565b80840191505092915050565b5f61120c82846111d1565b915081905092915050565b7f4e487b71000000000000000000000000000000000000000000000000000000005f52603260045260245ffd5b5f819050919050565b61125e61125982610ac5565b611244565b82525050565b5f61126f828661124d565b60208201915061127f828561124d565b60208201915061128f828461124d565b602082019150819050949350505050565b5f81519050919050565b5f81905092915050565b5f6112be826112a0565b6112c881856112aa565b93506112d88185602086016111a9565b80840191505092915050565b5f6112ef82846112b4565b915081905092915050565b7f5363616c6172206d756c7469706c69636174696f6e206661696c6564000000005f82015250565b5f61132e601c83610fbd565b9150611339826112fa565b602082019050919050565b5f6020820190508181035f83015261135b81611322565b9050919050565b7f30373534306130313732666365316237623034633566383431643961616464325f8201527f613035323139343033323035656664633164383936616532303732616336323460208201527f313633313761636561353733346633306163373464633862633061336538386160408201527f363164353437623665343530646232383030313037373339323865666266663560608201527f313431356532313666343133346230636432326634326234303731633939386460808201527f363338353034376265323339633363396532623162663633616663613034343060a08201527f323337316262633665626439353534353530656661303939666463343130386260c08201527f376634373434666562646166663262666165353237346235373432623730626260e08201527f31343135653231366634313334623063643232663432623430373163393938646101008201527f36333835303437626532333963336339653262316266363361666361303434306101208201527f32653763366634356133386232346538396438653132393438666133326135646101408201527f37366534643631623532633231303961383339363435383233613565373062656101608201527f31633931663562626232373463323936353934663338623961666461316139376101808201527f63346137353264393065396130666238376434316363363565353037326332356101a08201527f32303063653862346635363836396265383939656464626135373333616265386101c08201527f36373463336161303231626266396664346231353432336663313935626262386101e08201527f31343135653231366634313334623063643232663432623430373163393938646102008201527f36333835303437626532333963336339653262316266363361666361303434306102208201527f31323035303235303735613231393931653939333539613535373162666561386102408201527f38343839356431313535623836663261623930323166643566306336333961346102608201527f33303363326638353863653634366165656532306365653062363730386136666102808201527f34393430333539346234303036376438643539643438643939326232373561396102a082015250565b5f6116c36102c08361119f565b91506116ce82611362565b6102c082019050919050565b5f6116e4826116b6565b9150819050919050565b5f6116f9828761124d565b602082019150611709828661124d565b602082019150611719828561124d565b602082019150611729828461124d565b60208201915081905095945050505050565b7f506f696e74206164646974696f6e206661696c656400000000000000000000005f82015250565b5f61176f601583610fbd565b915061177a8261173b565b602082019050919050565b5f6020820190508181035f83015261179c81611763565b9050919050565b5f6117ad82610ac5565b91507fffffffffffffffffffffffffffffffffffffffffffffffffffffffffffffffff82036117df576117de611135565b5b600182019050919050565b7f4e487b71000000000000000000000000000000000000000000000000000000005f52601260045260245ffd5b5f61182182610ac5565b915061182c83610ac5565b92508261183c5761183b6117ea565b5b828204905092915050565b5f61185182610ac5565b915061185c83610ac5565b925082820390508181111561187457611873611135565b5b92915050565b5f61188482610ac5565b915061188f83610ac5565b925082820261189d81610ac5565b915082820484148315176118b4576118b3611135565b5b5092915050565b5f60ff82169050919050565b5f6118d1826118bb565b91506118dc836118bb565b9250828201905060ff8111156118f5576118f4611135565b5b92915050565b7f496e76616c69642064617461206c656e677468000000000000000000000000005f82015250565b5f61192f601383610fbd565b915061193a826118fb565b602082019050919050565b5f6020820190508181035f83015261195c81611923565b9050919050565b7f76616c6964206661696c65642c206172726179206c656e677468206e6f7420655f8201527f7175616c00000000000000000000000000000000000000000000000000000000602082015250565b5f6119bd602483610fbd565b91506119c882611963565b604082019050919050565b5f6020820190508181035f8301526119ea816119b1565b9050919050565b7f76616c6964206661696c656421000000000000000000000000000000000000005f82015250565b5f611a25600d83610fbd565b9150611a30826119f1565b602082019050919050565b5f6020820190508181035f830152611a5281611a19565b905091905056fea264697066735822122050cd003a452b04243409d33aabe2bc8327bcc3ca5a18861b9cbd9a96d68737e364736f6c63430008160033",
					"opcodes": "PUSH1 0x80 PUSH1 0x40 MSTORE PUSH1 0x40 MLOAD DUP1 PUSH1 0x40 ADD PUSH1 0x40 MSTORE DUP1 PUSH32 0x171E826AD4A870FD925E0BF0E87884E70E080879C2205EF10114F28A3B6F6DD7 DUP2 MSTORE PUSH1 0x20 ADD PUSH32 0x2BD407D897FBBCA9F88ADFD2D15252E69DE8C1564EB4D3D27162E259172F1A1D DUP2 MSTORE POP PUSH0 SWAP1 PUSH1 0x2 PUSH3 0x6A SWAP3 SWAP2 SWAP1 PUSH3 0xE6 JUMP JUMPDEST POP PUSH1 0x40 MLOAD DUP1 PUSH1 0x40 ADD PUSH1 0x40 MSTORE DUP1 PUSH32 0x5E8290BFABA1CCFAD33259A92884CC00644D5FB019CA4DCBDB50123AB32AAF1 DUP2 MSTORE PUSH1 0x20 ADD PUSH32 0x5E352269C07449EA6667D7608C648894125D94E751B1B46A9CF56BBB02F3766 DUP2 MSTORE POP PUSH1 0x2 SWAP1 PUSH1 0x2 PUSH3 0xD2 SWAP3 SWAP2 SWAP1 PUSH3 0xE6 JUMP JUMPDEST POP CALLVALUE DUP1 ISZERO PUSH3 0xDF JUMPI PUSH0 DUP1 REVERT JUMPDEST POP PUSH3 0x148 JUMP JUMPDEST DUP3 PUSH1 0x2 DUP2 ADD SWAP3 DUP3 ISZERO PUSH3 0x118 JUMPI SWAP2 PUSH1 0x20 MUL DUP3 ADD JUMPDEST DUP3 DUP2 GT ISZERO PUSH3 0x117 JUMPI DUP3 MLOAD DUP3 SSTORE SWAP2 PUSH1 0x20 ADD SWAP2 SWAP1 PUSH1 0x1 ADD SWAP1 PUSH3 0xFA JUMP JUMPDEST JUMPDEST POP SWAP1 POP PUSH3 0x127 SWAP2 SWAP1 PUSH3 0x12B JUMP JUMPDEST POP SWAP1 JUMP JUMPDEST JUMPDEST DUP1 DUP3 GT ISZERO PUSH3 0x144 JUMPI PUSH0 DUP2 PUSH0 SWAP1 SSTORE POP PUSH1 0x1 ADD PUSH3 0x12C JUMP JUMPDEST POP SWAP1 JUMP JUMPDEST PUSH2 0x1A8F DUP1 PUSH3 0x156 PUSH0 CODECOPY PUSH0 RETURN INVALID PUSH1 0x80 PUSH1 0x40 MSTORE CALLVALUE DUP1 ISZERO PUSH2 0xF JUMPI PUSH0 DUP1 REVERT JUMPDEST POP PUSH1 0x4 CALLDATASIZE LT PUSH2 0x4A JUMPI PUSH0 CALLDATALOAD PUSH1 0xE0 SHR DUP1 PUSH4 0xC1F349FE EQ PUSH2 0x4E JUMPI DUP1 PUSH4 0xE3CA5699 EQ PUSH2 0x7E JUMPI DUP1 PUSH4 0xF8A8FD6D EQ PUSH2 0xAE JUMPI DUP1 PUSH4 0xFA2BF10B EQ PUSH2 0xCC JUMPI JUMPDEST PUSH0 DUP1 REVERT JUMPDEST PUSH2 0x68 PUSH1 0x4 DUP1 CALLDATASIZE SUB DUP2 ADD SWAP1 PUSH2 0x63 SWAP2 SWAP1 PUSH2 0xCE2 JUMP JUMPDEST PUSH2 0xFC JUMP JUMPDEST PUSH1 0x40 MLOAD PUSH2 0x75 SWAP2 SWAP1 PUSH2 0xE42 JUMP JUMPDEST PUSH1 0x40 MLOAD DUP1 SWAP2 SUB SWAP1 RETURN JUMPDEST PUSH2 0x98 PUSH1 0x4 DUP1 CALLDATASIZE SUB DUP2 ADD SWAP1 PUSH2 0x93 SWAP2 SWAP1 PUSH2 0xE5B JUMP JUMPDEST PUSH2 0x300 JUMP JUMPDEST PUSH1 0x40 MLOAD PUSH2 0xA5 SWAP2 SWAP1 PUSH2 0xF3E JUMP JUMPDEST PUSH1 0x40 MLOAD DUP1 SWAP2 SUB SWAP1 RETURN JUMPDEST PUSH2 0xB6 PUSH2 0x46D JUMP JUMPDEST PUSH1 0x40 MLOAD PUSH2 0xC3 SWAP2 SWAP1 PUSH2 0xF66 JUMP JUMPDEST PUSH1 0x40 MLOAD DUP1 SWAP2 SUB SWAP1 RETURN JUMPDEST PUSH2 0xE6 PUSH1 0x4 DUP1 CALLDATASIZE SUB DUP2 ADD SWAP1 PUSH2 0xE1 SWAP2 SWAP1 PUSH2 0xF7F JUMP JUMPDEST PUSH2 0x49F JUMP JUMPDEST PUSH1 0x40 MLOAD PUSH2 0xF3 SWAP2 SWAP1 PUSH2 0xF3E JUMP JUMPDEST PUSH1 0x40 MLOAD DUP1 SWAP2 SUB SWAP1 RETURN JUMPDEST PUSH0 PUSH1 0x2 DUP1 EQ DUP1 ISZERO PUSH2 0x10E JUMPI POP DUP6 MLOAD PUSH1 0x2 EQ JUMPDEST DUP1 ISZERO PUSH2 0x11B JUMPI POP DUP5 MLOAD PUSH1 0x2 EQ JUMPDEST DUP1 ISZERO PUSH2 0x127 JUMPI POP PUSH1 0x2 DUP1 EQ JUMPDEST DUP1 ISZERO PUSH2 0x133 JUMPI POP PUSH1 0x2 DUP1 EQ JUMPDEST PUSH2 0x172 JUMPI PUSH1 0x40 MLOAD PUSH32 0x8C379A000000000000000000000000000000000000000000000000000000000 DUP2 MSTORE PUSH1 0x4 ADD PUSH2 0x169 SWAP1 PUSH2 0x1063 JUMP JUMPDEST PUSH1 0x40 MLOAD DUP1 SWAP2 SUB SWAP1 REVERT JUMPDEST PUSH0 PUSH1 0x2 GT PUSH2 0x1B5 JUMPI PUSH1 0x40 MLOAD PUSH32 0x8C379A000000000000000000000000000000000000000000000000000000000 DUP2 MSTORE PUSH1 0x4 ADD PUSH2 0x1AC SWAP1 PUSH2 0x1117 JUMP JUMPDEST PUSH1 0x40 MLOAD DUP1 SWAP2 SUB SWAP1 REVERT JUMPDEST PUSH0 PUSH2 0x1BF DUP9 PUSH2 0x63D JUMP JUMPDEST PUSH2 0x1C8 DUP11 PUSH2 0x63D JUMP JUMPDEST PUSH2 0x1D2 SWAP2 SWAP1 PUSH2 0x1162 JUMP JUMPDEST SWAP1 POP PUSH0 PUSH2 0x1DE DUP3 PUSH2 0x69E JUMP JUMPDEST SWAP1 POP PUSH0 DUP2 PUSH1 0x40 MLOAD PUSH1 0x20 ADD PUSH2 0x1F2 SWAP2 SWAP1 PUSH2 0x1201 JUMP JUMPDEST PUSH1 0x40 MLOAD PUSH1 0x20 DUP2 DUP4 SUB SUB DUP2 MSTORE SWAP1 PUSH1 0x40 MSTORE DUP1 MLOAD SWAP1 PUSH1 0x20 ADD KECCAK256 SWAP1 POP PUSH0 DUP2 PUSH0 SHR SWAP1 POP PUSH0 JUMPDEST PUSH1 0x2 DUP2 LT ISZERO PUSH2 0x2EC JUMPI PUSH2 0x270 DUP12 DUP3 DUP2 MLOAD DUP2 LT PUSH2 0x231 JUMPI PUSH2 0x230 PUSH2 0x1217 JUMP JUMPDEST JUMPDEST PUSH1 0x20 MUL PUSH1 0x20 ADD ADD MLOAD DUP10 DUP4 PUSH1 0x2 DUP2 LT PUSH2 0x24C JUMPI PUSH2 0x24B PUSH2 0x1217 JUMP JUMPDEST JUMPDEST PUSH1 0x20 MUL ADD MLOAD DUP16 DUP5 PUSH1 0x2 DUP2 LT PUSH2 0x264 JUMPI PUSH2 0x263 PUSH2 0x1217 JUMP JUMPDEST JUMPDEST PUSH1 0x20 MUL ADD MLOAD DUP13 DUP7 PUSH2 0x81C JUMP JUMPDEST PUSH2 0x2DF DUP12 DUP3 DUP2 MLOAD DUP2 LT PUSH2 0x286 JUMPI PUSH2 0x285 PUSH2 0x1217 JUMP JUMPDEST JUMPDEST PUSH1 0x20 MUL PUSH1 0x20 ADD ADD MLOAD DUP12 DUP4 DUP2 MLOAD DUP2 LT PUSH2 0x2A1 JUMPI PUSH2 0x2A0 PUSH2 0x1217 JUMP JUMPDEST JUMPDEST PUSH1 0x20 MUL PUSH1 0x20 ADD ADD MLOAD DUP10 DUP5 PUSH1 0x2 DUP2 LT PUSH2 0x2BC JUMPI PUSH2 0x2BB PUSH2 0x1217 JUMP JUMPDEST JUMPDEST PUSH1 0x20 MUL ADD MLOAD DUP16 DUP6 PUSH1 0x2 DUP2 LT PUSH2 0x2D4 JUMPI PUSH2 0x2D3 PUSH2 0x1217 JUMP JUMPDEST JUMPDEST PUSH1 0x20 MUL ADD MLOAD DUP7 PUSH2 0x848 JUMP JUMPDEST DUP1 DUP1 PUSH1 0x1 ADD SWAP2 POP POP PUSH2 0x212 JUMP JUMPDEST POP PUSH1 0x1 SWAP5 POP POP POP POP POP SWAP8 SWAP7 POP POP POP POP POP POP POP JUMP JUMPDEST PUSH2 0x308 PUSH2 0x9B2 JUMP JUMPDEST PUSH0 DUP4 PUSH0 PUSH1 0x2 DUP2 LT PUSH2 0x31C JUMPI PUSH2 0x31B PUSH2 0x1217 JUMP JUMPDEST JUMPDEST PUSH1 0x20 MUL ADD MLOAD DUP5 PUSH1 0x1 PUSH1 0x2 DUP2 LT PUSH2 0x335 JUMPI PUSH2 0x334 PUSH2 0x1217 JUMP JUMPDEST JUMPDEST PUSH1 0x20 MUL ADD MLOAD DUP5 PUSH1 0x40 MLOAD PUSH1 0x20 ADD PUSH2 0x34D SWAP4 SWAP3 SWAP2 SWAP1 PUSH2 0x1264 JUMP JUMPDEST PUSH1 0x40 MLOAD PUSH1 0x20 DUP2 DUP4 SUB SUB DUP2 MSTORE SWAP1 PUSH1 0x40 MSTORE SWAP1 POP PUSH0 DUP1 PUSH1 0x7 PUSH20 0xFFFFFFFFFFFFFFFFFFFFFFFFFFFFFFFFFFFFFFFF AND DUP4 PUSH1 0x40 MLOAD PUSH2 0x386 SWAP2 SWAP1 PUSH2 0x12E4 JUMP JUMPDEST PUSH0 PUSH1 0x40 MLOAD DUP1 DUP4 SUB DUP2 DUP6 GAS STATICCALL SWAP2 POP POP RETURNDATASIZE DUP1 PUSH0 DUP2 EQ PUSH2 0x3BE JUMPI PUSH1 0x40 MLOAD SWAP2 POP PUSH1 0x1F NOT PUSH1 0x3F RETURNDATASIZE ADD AND DUP3 ADD PUSH1 0x40 MSTORE RETURNDATASIZE DUP3 MSTORE RETURNDATASIZE PUSH0 PUSH1 0x20 DUP5 ADD RETURNDATACOPY PUSH2 0x3C3 JUMP JUMPDEST PUSH1 0x60 SWAP2 POP JUMPDEST POP SWAP2 POP SWAP2 POP DUP2 DUP1 ISZERO PUSH2 0x3D7 JUMPI POP PUSH1 0x40 DUP2 MLOAD LT ISZERO JUMPDEST PUSH2 0x416 JUMPI PUSH1 0x40 MLOAD PUSH32 0x8C379A000000000000000000000000000000000000000000000000000000000 DUP2 MSTORE PUSH1 0x4 ADD PUSH2 0x40D SWAP1 PUSH2 0x1344 JUMP JUMPDEST PUSH1 0x40 MLOAD DUP1 SWAP2 SUB SWAP1 REVERT JUMPDEST PUSH2 0x420 DUP2 PUSH0 PUSH2 0x87D JUMP JUMPDEST DUP5 PUSH0 PUSH1 0x2 DUP2 LT PUSH2 0x433 JUMPI PUSH2 0x432 PUSH2 0x1217 JUMP JUMPDEST JUMPDEST PUSH1 0x20 MUL ADD DUP2 DUP2 MSTORE POP POP PUSH2 0x447 DUP2 PUSH1 0x20 PUSH2 0x87D JUMP JUMPDEST DUP5 PUSH1 0x1 PUSH1 0x2 DUP2 LT PUSH2 0x45B JUMPI PUSH2 0x45A PUSH2 0x1217 JUMP JUMPDEST JUMPDEST PUSH1 0x20 MUL ADD DUP2 DUP2 MSTORE POP POP POP POP POP SWAP3 SWAP2 POP POP JUMP JUMPDEST PUSH0 DUP1 PUSH1 0x40 MLOAD PUSH1 0x20 ADD PUSH2 0x47E SWAP1 PUSH2 0x16DA JUMP JUMPDEST PUSH1 0x40 MLOAD PUSH1 0x20 DUP2 DUP4 SUB SUB DUP2 MSTORE SWAP1 PUSH1 0x40 MSTORE DUP1 MLOAD SWAP1 PUSH1 0x20 ADD KECCAK256 SWAP1 POP DUP1 PUSH0 SHR SWAP2 POP POP SWAP1 JUMP JUMPDEST PUSH2 0x4A7 PUSH2 0x9B2 JUMP JUMPDEST PUSH0 DUP4 PUSH0 PUSH1 0x2 DUP2 LT PUSH2 0x4BB JUMPI PUSH2 0x4BA PUSH2 0x1217 JUMP JUMPDEST JUMPDEST PUSH1 0x20 MUL ADD MLOAD DUP5 PUSH1 0x1 PUSH1 0x2 DUP2 LT PUSH2 0x4D4 JUMPI PUSH2 0x4D3 PUSH2 0x1217 JUMP JUMPDEST JUMPDEST PUSH1 0x20 MUL ADD MLOAD DUP5 PUSH0 PUSH1 0x2 DUP2 LT PUSH2 0x4EC JUMPI PUSH2 0x4EB PUSH2 0x1217 JUMP JUMPDEST JUMPDEST PUSH1 0x20 MUL ADD MLOAD DUP6 PUSH1 0x1 PUSH1 0x2 DUP2 LT PUSH2 0x505 JUMPI PUSH2 0x504 PUSH2 0x1217 JUMP JUMPDEST JUMPDEST PUSH1 0x20 MUL ADD MLOAD PUSH1 0x40 MLOAD PUSH1 0x20 ADD PUSH2 0x51D SWAP5 SWAP4 SWAP3 SWAP2 SWAP1 PUSH2 0x16EE JUMP JUMPDEST PUSH1 0x40 MLOAD PUSH1 0x20 DUP2 DUP4 SUB SUB DUP2 MSTORE SWAP1 PUSH1 0x40 MSTORE SWAP1 POP PUSH0 DUP1 PUSH1 0x6 PUSH20 0xFFFFFFFFFFFFFFFFFFFFFFFFFFFFFFFFFFFFFFFF AND DUP4 PUSH1 0x40 MLOAD PUSH2 0x556 SWAP2 SWAP1 PUSH2 0x12E4 JUMP JUMPDEST PUSH0 PUSH1 0x40 MLOAD DUP1 DUP4 SUB DUP2 DUP6 GAS STATICCALL SWAP2 POP POP RETURNDATASIZE DUP1 PUSH0 DUP2 EQ PUSH2 0x58E JUMPI PUSH1 0x40 MLOAD SWAP2 POP PUSH1 0x1F NOT PUSH1 0x3F RETURNDATASIZE ADD AND DUP3 ADD PUSH1 0x40 MSTORE RETURNDATASIZE DUP3 MSTORE RETURNDATASIZE PUSH0 PUSH1 0x20 DUP5 ADD RETURNDATACOPY PUSH2 0x593 JUMP JUMPDEST PUSH1 0x60 SWAP2 POP JUMPDEST POP SWAP2 POP SWAP2 POP DUP2 DUP1 ISZERO PUSH2 0x5A7 JUMPI POP PUSH1 0x40 DUP2 MLOAD LT ISZERO JUMPDEST PUSH2 0x5E6 JUMPI PUSH1 0x40 MLOAD PUSH32 0x8C379A000000000000000000000000000000000000000000000000000000000 DUP2 MSTORE PUSH1 0x4 ADD PUSH2 0x5DD SWAP1 PUSH2 0x1785 JUMP JUMPDEST PUSH1 0x40 MLOAD DUP1 SWAP2 SUB SWAP1 REVERT JUMPDEST PUSH2 0x5F0 DUP2 PUSH0 PUSH2 0x87D JUMP JUMPDEST DUP5 PUSH0 PUSH1 0x2 DUP2 LT PUSH2 0x603 JUMPI PUSH2 0x602 PUSH2 0x1217 JUMP JUMPDEST JUMPDEST PUSH1 0x20 MUL ADD DUP2 DUP2 MSTORE POP POP PUSH2 0x617 DUP2 PUSH1 0x20 PUSH2 0x87D JUMP JUMPDEST DUP5 PUSH1 0x1 PUSH1 0x2 DUP2 LT PUSH2 0x62B JUMPI PUSH2 0x62A PUSH2 0x1217 JUMP JUMPDEST JUMPDEST PUSH1 0x20 MUL ADD DUP2 DUP2 MSTORE POP POP POP POP POP SWAP3 SWAP2 POP POP JUMP JUMPDEST PUSH0 DUP1 PUSH0 SWAP1 POP JUMPDEST PUSH1 0x2 DUP2 LT ISZERO PUSH2 0x698 JUMPI DUP3 DUP2 PUSH1 0x2 DUP2 LT PUSH2 0x65F JUMPI PUSH2 0x65E PUSH2 0x1217 JUMP JUMPDEST JUMPDEST PUSH1 0x20 MUL ADD MLOAD PUSH0 DUP2 MLOAD DUP2 LT PUSH2 0x676 JUMPI PUSH2 0x675 PUSH2 0x1217 JUMP JUMPDEST JUMPDEST PUSH1 0x20 MUL PUSH1 0x20 ADD ADD MLOAD DUP3 PUSH2 0x689 SWAP2 SWAP1 PUSH2 0x1162 JUMP JUMPDEST SWAP2 POP DUP1 DUP1 PUSH1 0x1 ADD SWAP2 POP POP PUSH2 0x643 JUMP JUMPDEST POP SWAP2 SWAP1 POP JUMP JUMPDEST PUSH1 0x60 PUSH0 DUP3 SUB PUSH2 0x6E4 JUMPI PUSH1 0x40 MLOAD DUP1 PUSH1 0x40 ADD PUSH1 0x40 MSTORE DUP1 PUSH1 0x1 DUP2 MSTORE PUSH1 0x20 ADD PUSH32 0x3000000000000000000000000000000000000000000000000000000000000000 DUP2 MSTORE POP SWAP1 POP PUSH2 0x817 JUMP JUMPDEST PUSH0 DUP3 SWAP1 POP PUSH0 JUMPDEST PUSH0 DUP3 EQ PUSH2 0x713 JUMPI DUP1 DUP1 PUSH2 0x6FC SWAP1 PUSH2 0x17A3 JUMP JUMPDEST SWAP2 POP POP PUSH1 0xA DUP3 PUSH2 0x70C SWAP2 SWAP1 PUSH2 0x1817 JUMP JUMPDEST SWAP2 POP PUSH2 0x6EA JUMP JUMPDEST PUSH0 DUP2 PUSH8 0xFFFFFFFFFFFFFFFF DUP2 GT ISZERO PUSH2 0x72E JUMPI PUSH2 0x72D PUSH2 0x9F9 JUMP JUMPDEST JUMPDEST PUSH1 0x40 MLOAD SWAP1 DUP1 DUP3 MSTORE DUP1 PUSH1 0x1F ADD PUSH1 0x1F NOT AND PUSH1 0x20 ADD DUP3 ADD PUSH1 0x40 MSTORE DUP1 ISZERO PUSH2 0x760 JUMPI DUP2 PUSH1 0x20 ADD PUSH1 0x1 DUP3 MUL DUP1 CALLDATASIZE DUP4 CALLDATACOPY DUP1 DUP3 ADD SWAP2 POP POP SWAP1 POP JUMPDEST POP SWAP1 POP PUSH0 DUP3 SWAP1 POP JUMPDEST PUSH0 DUP7 EQ PUSH2 0x80F JUMPI PUSH1 0x1 DUP2 PUSH2 0x77C SWAP2 SWAP1 PUSH2 0x1847 JUMP JUMPDEST SWAP1 POP PUSH0 PUSH1 0xA DUP1 DUP9 PUSH2 0x78D SWAP2 SWAP1 PUSH2 0x1817 JUMP JUMPDEST PUSH2 0x797 SWAP2 SWAP1 PUSH2 0x187A JUMP JUMPDEST DUP8 PUSH2 0x7A2 SWAP2 SWAP1 PUSH2 0x1847 JUMP JUMPDEST PUSH1 0x30 PUSH2 0x7AE SWAP2 SWAP1 PUSH2 0x18C7 JUMP JUMPDEST SWAP1 POP PUSH0 DUP2 PUSH1 0xF8 SHL SWAP1 POP DUP1 DUP5 DUP5 DUP2 MLOAD DUP2 LT PUSH2 0x7CB JUMPI PUSH2 0x7CA PUSH2 0x1217 JUMP JUMPDEST JUMPDEST PUSH1 0x20 ADD ADD SWAP1 PUSH31 0xFFFFFFFFFFFFFFFFFFFFFFFFFFFFFFFFFFFFFFFFFFFFFFFFFFFFFFFFFFFFFF NOT AND SWAP1 DUP2 PUSH0 BYTE SWAP1 MSTORE8 POP PUSH1 0xA DUP9 PUSH2 0x806 SWAP2 SWAP1 PUSH2 0x1817 JUMP JUMPDEST SWAP8 POP POP POP PUSH2 0x768 JUMP JUMPDEST DUP2 SWAP5 POP POP POP POP POP JUMPDEST SWAP2 SWAP1 POP JUMP JUMPDEST PUSH2 0x824 PUSH2 0x9B2 JUMP JUMPDEST PUSH2 0x82C PUSH2 0x9B2 JUMP JUMPDEST PUSH2 0x834 PUSH2 0x9B2 JUMP JUMPDEST PUSH2 0x83E DUP4 DUP3 PUSH2 0x8E2 JUMP JUMPDEST POP POP POP POP POP POP POP POP JUMP JUMPDEST PUSH2 0x850 PUSH2 0x9B2 JUMP JUMPDEST PUSH2 0x858 PUSH2 0x9B2 JUMP JUMPDEST PUSH2 0x860 PUSH2 0x9B2 JUMP JUMPDEST PUSH2 0x868 PUSH2 0x9B2 JUMP JUMPDEST PUSH2 0x872 DUP3 DUP3 PUSH2 0x8E2 JUMP JUMPDEST POP POP POP POP POP POP POP POP POP JUMP JUMPDEST PUSH0 PUSH1 0x20 DUP3 PUSH2 0x88B SWAP2 SWAP1 PUSH2 0x1162 JUMP JUMPDEST DUP4 MLOAD LT ISZERO PUSH2 0x8CE JUMPI PUSH1 0x40 MLOAD PUSH32 0x8C379A000000000000000000000000000000000000000000000000000000000 DUP2 MSTORE PUSH1 0x4 ADD PUSH2 0x8C5 SWAP1 PUSH2 0x1945 JUMP JUMPDEST PUSH1 0x40 MLOAD DUP1 SWAP2 SUB SWAP1 REVERT JUMPDEST PUSH0 DUP3 PUSH1 0x20 ADD DUP5 ADD MLOAD SWAP1 POP DUP1 SWAP2 POP POP SWAP3 SWAP2 POP POP JUMP JUMPDEST PUSH1 0x2 DUP1 EQ PUSH2 0x925 JUMPI PUSH1 0x40 MLOAD PUSH32 0x8C379A000000000000000000000000000000000000000000000000000000000 DUP2 MSTORE PUSH1 0x4 ADD PUSH2 0x91C SWAP1 PUSH2 0x19D3 JUMP JUMPDEST PUSH1 0x40 MLOAD DUP1 SWAP2 SUB SWAP1 REVERT JUMPDEST PUSH0 JUMPDEST PUSH1 0x2 DUP2 LT ISZERO PUSH2 0x9AD JUMPI DUP2 DUP2 PUSH1 0x2 DUP2 LT PUSH2 0x943 JUMPI PUSH2 0x942 PUSH2 0x1217 JUMP JUMPDEST JUMPDEST PUSH1 0x20 MUL ADD MLOAD DUP4 DUP3 PUSH1 0x2 DUP2 LT PUSH2 0x95B JUMPI PUSH2 0x95A PUSH2 0x1217 JUMP JUMPDEST JUMPDEST PUSH1 0x20 MUL ADD MLOAD EQ PUSH2 0x9A0 JUMPI PUSH1 0x40 MLOAD PUSH32 0x8C379A000000000000000000000000000000000000000000000000000000000 DUP2 MSTORE PUSH1 0x4 ADD PUSH2 0x997 SWAP1 PUSH2 0x1A3B JUMP JUMPDEST PUSH1 0x40 MLOAD DUP1 SWAP2 SUB SWAP1 REVERT JUMPDEST DUP1 DUP1 PUSH1 0x1 ADD SWAP2 POP POP PUSH2 0x927 JUMP JUMPDEST POP POP POP JUMP JUMPDEST PUSH1 0x40 MLOAD DUP1 PUSH1 0x40 ADD PUSH1 0x40 MSTORE DUP1 PUSH1 0x2 SWAP1 PUSH1 0x20 DUP3 MUL DUP1 CALLDATASIZE DUP4 CALLDATACOPY DUP1 DUP3 ADD SWAP2 POP POP SWAP1 POP POP SWAP1 JUMP JUMPDEST PUSH0 PUSH1 0x40 MLOAD SWAP1 POP SWAP1 JUMP JUMPDEST PUSH0 DUP1 REVERT JUMPDEST PUSH0 DUP1 REVERT JUMPDEST PUSH0 DUP1 REVERT JUMPDEST PUSH0 PUSH1 0x1F NOT PUSH1 0x1F DUP4 ADD AND SWAP1 POP SWAP2 SWAP1 POP JUMP JUMPDEST PUSH32 0x4E487B7100000000000000000000000000000000000000000000000000000000 PUSH0 MSTORE PUSH1 0x41 PUSH1 0x4 MSTORE PUSH1 0x24 PUSH0 REVERT JUMPDEST PUSH2 0xA2F DUP3 PUSH2 0x9E9 JUMP JUMPDEST DUP2 ADD DUP2 DUP2 LT PUSH8 0xFFFFFFFFFFFFFFFF DUP3 GT OR ISZERO PUSH2 0xA4E JUMPI PUSH2 0xA4D PUSH2 0x9F9 JUMP JUMPDEST JUMPDEST DUP1 PUSH1 0x40 MSTORE POP POP POP JUMP JUMPDEST PUSH0 PUSH2 0xA60 PUSH2 0x9D4 JUMP JUMPDEST SWAP1 POP PUSH2 0xA6C DUP3 DUP3 PUSH2 0xA26 JUMP JUMPDEST SWAP2 SWAP1 POP JUMP JUMPDEST PUSH0 PUSH8 0xFFFFFFFFFFFFFFFF DUP3 GT ISZERO PUSH2 0xA8B JUMPI PUSH2 0xA8A PUSH2 0x9F9 JUMP JUMPDEST JUMPDEST PUSH1 0x20 DUP3 MUL SWAP1 POP SWAP2 SWAP1 POP JUMP JUMPDEST PUSH0 DUP1 REVERT JUMPDEST PUSH0 PUSH8 0xFFFFFFFFFFFFFFFF DUP3 GT ISZERO PUSH2 0xAB4 JUMPI PUSH2 0xAB3 PUSH2 0x9F9 JUMP JUMPDEST JUMPDEST PUSH1 0x20 DUP3 MUL SWAP1 POP PUSH1 0x20 DUP2 ADD SWAP1 POP SWAP2 SWAP1 POP JUMP JUMPDEST PUSH0 DUP2 SWAP1 POP SWAP2 SWAP1 POP JUMP JUMPDEST PUSH2 0xAD7 DUP2 PUSH2 0xAC5 JUMP JUMPDEST DUP2 EQ PUSH2 0xAE1 JUMPI PUSH0 DUP1 REVERT JUMPDEST POP JUMP JUMPDEST PUSH0 DUP2 CALLDATALOAD SWAP1 POP PUSH2 0xAF2 DUP2 PUSH2 0xACE JUMP JUMPDEST SWAP3 SWAP2 POP POP JUMP JUMPDEST PUSH0 PUSH2 0xB0A PUSH2 0xB05 DUP5 PUSH2 0xA9A JUMP JUMPDEST PUSH2 0xA57 JUMP JUMPDEST SWAP1 POP DUP1 DUP4 DUP3 MSTORE PUSH1 0x20 DUP3 ADD SWAP1 POP PUSH1 0x20 DUP5 MUL DUP4 ADD DUP6 DUP2 GT ISZERO PUSH2 0xB2D JUMPI PUSH2 0xB2C PUSH2 0xA96 JUMP JUMPDEST JUMPDEST DUP4 JUMPDEST DUP2 DUP2 LT ISZERO PUSH2 0xB56 JUMPI DUP1 PUSH2 0xB42 DUP9 DUP3 PUSH2 0xAE4 JUMP JUMPDEST DUP5 MSTORE PUSH1 0x20 DUP5 ADD SWAP4 POP POP PUSH1 0x20 DUP2 ADD SWAP1 POP PUSH2 0xB2F JUMP JUMPDEST POP POP POP SWAP4 SWAP3 POP POP POP JUMP JUMPDEST PUSH0 DUP3 PUSH1 0x1F DUP4 ADD SLT PUSH2 0xB74 JUMPI PUSH2 0xB73 PUSH2 0x9E5 JUMP JUMPDEST JUMPDEST DUP2 CALLDATALOAD PUSH2 0xB84 DUP5 DUP3 PUSH1 0x20 DUP7 ADD PUSH2 0xAF8 JUMP JUMPDEST SWAP2 POP POP SWAP3 SWAP2 POP POP JUMP JUMPDEST PUSH0 PUSH2 0xB9F PUSH2 0xB9A DUP5 PUSH2 0xA71 JUMP JUMPDEST PUSH2 0xA57 JUMP JUMPDEST SWAP1 POP DUP1 PUSH1 0x20 DUP5 MUL DUP4 ADD DUP6 DUP2 GT ISZERO PUSH2 0xBB9 JUMPI PUSH2 0xBB8 PUSH2 0xA96 JUMP JUMPDEST JUMPDEST DUP4 JUMPDEST DUP2 DUP2 LT ISZERO PUSH2 0xC00 JUMPI DUP1 CALLDATALOAD PUSH8 0xFFFFFFFFFFFFFFFF DUP2 GT ISZERO PUSH2 0xBDE JUMPI PUSH2 0xBDD PUSH2 0x9E5 JUMP JUMPDEST JUMPDEST DUP1 DUP7 ADD PUSH2 0xBEB DUP10 DUP3 PUSH2 0xB60 JUMP JUMPDEST DUP6 MSTORE PUSH1 0x20 DUP6 ADD SWAP5 POP POP POP PUSH1 0x20 DUP2 ADD SWAP1 POP PUSH2 0xBBB JUMP JUMPDEST POP POP POP SWAP4 SWAP3 POP POP POP JUMP JUMPDEST PUSH0 DUP3 PUSH1 0x1F DUP4 ADD SLT PUSH2 0xC1E JUMPI PUSH2 0xC1D PUSH2 0x9E5 JUMP JUMPDEST JUMPDEST PUSH1 0x2 PUSH2 0xC2B DUP5 DUP3 DUP6 PUSH2 0xB8D JUMP JUMPDEST SWAP2 POP POP SWAP3 SWAP2 POP POP JUMP JUMPDEST PUSH0 PUSH8 0xFFFFFFFFFFFFFFFF DUP3 GT ISZERO PUSH2 0xC4E JUMPI PUSH2 0xC4D PUSH2 0x9F9 JUMP JUMPDEST JUMPDEST PUSH1 0x20 DUP3 MUL SWAP1 POP SWAP2 SWAP1 POP JUMP JUMPDEST PUSH0 PUSH2 0xC6B PUSH2 0xC66 DUP5 PUSH2 0xC34 JUMP JUMPDEST PUSH2 0xA57 JUMP JUMPDEST SWAP1 POP DUP1 PUSH1 0x20 DUP5 MUL DUP4 ADD DUP6 DUP2 GT ISZERO PUSH2 0xC85 JUMPI PUSH2 0xC84 PUSH2 0xA96 JUMP JUMPDEST JUMPDEST DUP4 JUMPDEST DUP2 DUP2 LT ISZERO PUSH2 0xCAE JUMPI DUP1 PUSH2 0xC9A DUP9 DUP3 PUSH2 0xAE4 JUMP JUMPDEST DUP5 MSTORE PUSH1 0x20 DUP5 ADD SWAP4 POP POP PUSH1 0x20 DUP2 ADD SWAP1 POP PUSH2 0xC87 JUMP JUMPDEST POP POP POP SWAP4 SWAP3 POP POP POP JUMP JUMPDEST PUSH0 DUP3 PUSH1 0x1F DUP4 ADD SLT PUSH2 0xCCC JUMPI PUSH2 0xCCB PUSH2 0x9E5 JUMP JUMPDEST JUMPDEST PUSH1 0x2 PUSH2 0xCD9 DUP5 DUP3 DUP6 PUSH2 0xC59 JUMP JUMPDEST SWAP2 POP POP SWAP3 SWAP2 POP POP JUMP JUMPDEST PUSH0 DUP1 PUSH0 DUP1 PUSH0 DUP1 PUSH0 PUSH2 0x100 DUP9 DUP11 SUB SLT ISZERO PUSH2 0xCFE JUMPI PUSH2 0xCFD PUSH2 0x9DD JUMP JUMPDEST JUMPDEST PUSH0 DUP9 ADD CALLDATALOAD PUSH8 0xFFFFFFFFFFFFFFFF DUP2 GT ISZERO PUSH2 0xD1B JUMPI PUSH2 0xD1A PUSH2 0x9E1 JUMP JUMPDEST JUMPDEST PUSH2 0xD27 DUP11 DUP3 DUP12 ADD PUSH2 0xC0A JUMP JUMPDEST SWAP8 POP POP PUSH1 0x20 DUP9 ADD CALLDATALOAD PUSH8 0xFFFFFFFFFFFFFFFF DUP2 GT ISZERO PUSH2 0xD48 JUMPI PUSH2 0xD47 PUSH2 0x9E1 JUMP JUMPDEST JUMPDEST PUSH2 0xD54 DUP11 DUP3 DUP12 ADD PUSH2 0xC0A JUMP JUMPDEST SWAP7 POP POP PUSH1 0x40 DUP9 ADD CALLDATALOAD PUSH8 0xFFFFFFFFFFFFFFFF DUP2 GT ISZERO PUSH2 0xD75 JUMPI PUSH2 0xD74 PUSH2 0x9E1 JUMP JUMPDEST JUMPDEST PUSH2 0xD81 DUP11 DUP3 DUP12 ADD PUSH2 0xB60 JUMP JUMPDEST SWAP6 POP POP PUSH1 0x60 DUP9 ADD CALLDATALOAD PUSH8 0xFFFFFFFFFFFFFFFF DUP2 GT ISZERO PUSH2 0xDA2 JUMPI PUSH2 0xDA1 PUSH2 0x9E1 JUMP JUMPDEST JUMPDEST PUSH2 0xDAE DUP11 DUP3 DUP12 ADD PUSH2 0xB60 JUMP JUMPDEST SWAP5 POP POP PUSH1 0x80 PUSH2 0xDBF DUP11 DUP3 DUP12 ADD PUSH2 0xCB8 JUMP JUMPDEST SWAP4 POP POP PUSH1 0xC0 DUP9 ADD CALLDATALOAD PUSH8 0xFFFFFFFFFFFFFFFF DUP2 GT ISZERO PUSH2 0xDE0 JUMPI PUSH2 0xDDF PUSH2 0x9E1 JUMP JUMPDEST JUMPDEST PUSH2 0xDEC DUP11 DUP3 DUP12 ADD PUSH2 0xC0A JUMP JUMPDEST SWAP3 POP POP PUSH1 0xE0 DUP9 ADD CALLDATALOAD PUSH8 0xFFFFFFFFFFFFFFFF DUP2 GT ISZERO PUSH2 0xE0D JUMPI PUSH2 0xE0C PUSH2 0x9E1 JUMP JUMPDEST JUMPDEST PUSH2 0xE19 DUP11 DUP3 DUP12 ADD PUSH2 0xC0A JUMP JUMPDEST SWAP2 POP POP SWAP3 SWAP6 SWAP9 SWAP2 SWAP5 SWAP8 POP SWAP3 SWAP6 POP JUMP JUMPDEST PUSH0 DUP2 ISZERO ISZERO SWAP1 POP SWAP2 SWAP1 POP JUMP JUMPDEST PUSH2 0xE3C DUP2 PUSH2 0xE28 JUMP JUMPDEST DUP3 MSTORE POP POP JUMP JUMPDEST PUSH0 PUSH1 0x20 DUP3 ADD SWAP1 POP PUSH2 0xE55 PUSH0 DUP4 ADD DUP5 PUSH2 0xE33 JUMP JUMPDEST SWAP3 SWAP2 POP POP JUMP JUMPDEST PUSH0 DUP1 PUSH1 0x60 DUP4 DUP6 SUB SLT ISZERO PUSH2 0xE71 JUMPI PUSH2 0xE70 PUSH2 0x9DD JUMP JUMPDEST JUMPDEST PUSH0 PUSH2 0xE7E DUP6 DUP3 DUP7 ADD PUSH2 0xCB8 JUMP JUMPDEST SWAP3 POP POP PUSH1 0x40 PUSH2 0xE8F DUP6 DUP3 DUP7 ADD PUSH2 0xAE4 JUMP JUMPDEST SWAP2 POP POP SWAP3 POP SWAP3 SWAP1 POP JUMP JUMPDEST PUSH0 PUSH1 0x2 SWAP1 POP SWAP2 SWAP1 POP JUMP JUMPDEST PUSH0 DUP2 SWAP1 POP SWAP3 SWAP2 POP POP JUMP JUMPDEST PUSH0 DUP2 SWAP1 POP SWAP2 SWAP1 POP JUMP JUMPDEST PUSH2 0xEBF DUP2 PUSH2 0xAC5 JUMP JUMPDEST DUP3 MSTORE POP POP JUMP JUMPDEST PUSH0 PUSH2 0xED0 DUP4 DUP4 PUSH2 0xEB6 JUMP JUMPDEST PUSH1 0x20 DUP4 ADD SWAP1 POP SWAP3 SWAP2 POP POP JUMP JUMPDEST PUSH0 PUSH1 0x20 DUP3 ADD SWAP1 POP SWAP2 SWAP1 POP JUMP JUMPDEST PUSH2 0xEF1 DUP2 PUSH2 0xE99 JUMP JUMPDEST PUSH2 0xEFB DUP2 DUP5 PUSH2 0xEA3 JUMP JUMPDEST SWAP3 POP PUSH2 0xF06 DUP3 PUSH2 0xEAD JUMP JUMPDEST DUP1 PUSH0 JUMPDEST DUP4 DUP2 LT ISZERO PUSH2 0xF36 JUMPI DUP2 MLOAD PUSH2 0xF1D DUP8 DUP3 PUSH2 0xEC5 JUMP JUMPDEST SWAP7 POP PUSH2 0xF28 DUP4 PUSH2 0xEDC JUMP JUMPDEST SWAP3 POP POP PUSH1 0x1 DUP2 ADD SWAP1 POP PUSH2 0xF09 JUMP JUMPDEST POP POP POP POP POP POP JUMP JUMPDEST PUSH0 PUSH1 0x40 DUP3 ADD SWAP1 POP PUSH2 0xF51 PUSH0 DUP4 ADD DUP5 PUSH2 0xEE8 JUMP JUMPDEST SWAP3 SWAP2 POP POP JUMP JUMPDEST PUSH2 0xF60 DUP2 PUSH2 0xAC5 JUMP JUMPDEST DUP3 MSTORE POP POP JUMP JUMPDEST PUSH0 PUSH1 0x20 DUP3 ADD SWAP1 POP PUSH2 0xF79 PUSH0 DUP4 ADD DUP5 PUSH2 0xF57 JUMP JUMPDEST SWAP3 SWAP2 POP POP JUMP JUMPDEST PUSH0 DUP1 PUSH1 0x80 DUP4 DUP6 SUB SLT ISZERO PUSH2 0xF95 JUMPI PUSH2 0xF94 PUSH2 0x9DD JUMP JUMPDEST JUMPDEST PUSH0 PUSH2 0xFA2 DUP6 DUP3 DUP7 ADD PUSH2 0xCB8 JUMP JUMPDEST SWAP3 POP POP PUSH1 0x40 PUSH2 0xFB3 DUP6 DUP3 DUP7 ADD PUSH2 0xCB8 JUMP JUMPDEST SWAP2 POP POP SWAP3 POP SWAP3 SWAP1 POP JUMP JUMPDEST PUSH0 DUP3 DUP3 MSTORE PUSH1 0x20 DUP3 ADD SWAP1 POP SWAP3 SWAP2 POP POP JUMP JUMPDEST PUSH32 0x496E76616C696420696E707574206C656E6774682C20412C20422C207A4C6973 PUSH0 DUP3 ADD MSTORE PUSH32 0x745F312C207A4C6973745F322C20584C6973742C20594C6973742073686F756C PUSH1 0x20 DUP3 ADD MSTORE PUSH32 0x642068617665207468652073616D65206C656E67746800000000000000000000 PUSH1 0x40 DUP3 ADD MSTORE POP JUMP JUMPDEST PUSH0 PUSH2 0x104D PUSH1 0x56 DUP4 PUSH2 0xFBD JUMP JUMPDEST SWAP2 POP PUSH2 0x1058 DUP3 PUSH2 0xFCD JUMP JUMPDEST PUSH1 0x60 DUP3 ADD SWAP1 POP SWAP2 SWAP1 POP JUMP JUMPDEST PUSH0 PUSH1 0x20 DUP3 ADD SWAP1 POP DUP2 DUP2 SUB PUSH0 DUP4 ADD MSTORE PUSH2 0x107A DUP2 PUSH2 0x1041 JUMP JUMPDEST SWAP1 POP SWAP2 SWAP1 POP JUMP JUMPDEST PUSH32 0x496E76616C696420696E707574206C656E6774682C20412C20422C207A4C6973 PUSH0 DUP3 ADD MSTORE PUSH32 0x745F312C207A4C6973745F322C20584C6973742C20594C6973742073686F756C PUSH1 0x20 DUP3 ADD MSTORE PUSH32 0x642068617665206C656E677468203E2030000000000000000000000000000000 PUSH1 0x40 DUP3 ADD MSTORE POP JUMP JUMPDEST PUSH0 PUSH2 0x1101 PUSH1 0x51 DUP4 PUSH2 0xFBD JUMP JUMPDEST SWAP2 POP PUSH2 0x110C DUP3 PUSH2 0x1081 JUMP JUMPDEST PUSH1 0x60 DUP3 ADD SWAP1 POP SWAP2 SWAP1 POP JUMP JUMPDEST PUSH0 PUSH1 0x20 DUP3 ADD SWAP1 POP DUP2 DUP2 SUB PUSH0 DUP4 ADD MSTORE PUSH2 0x112E DUP2 PUSH2 0x10F5 JUMP JUMPDEST SWAP1 POP SWAP2 SWAP1 POP JUMP JUMPDEST PUSH32 0x4E487B7100000000000000000000000000000000000000000000000000000000 PUSH0 MSTORE PUSH1 0x11 PUSH1 0x4 MSTORE PUSH1 0x24 PUSH0 REVERT JUMPDEST PUSH0 PUSH2 0x116C DUP3 PUSH2 0xAC5 JUMP JUMPDEST SWAP2 POP PUSH2 0x1177 DUP4 PUSH2 0xAC5 JUMP JUMPDEST SWAP3 POP DUP3 DUP3 ADD SWAP1 POP DUP1 DUP3 GT ISZERO PUSH2 0x118F JUMPI PUSH2 0x118E PUSH2 0x1135 JUMP JUMPDEST JUMPDEST SWAP3 SWAP2 POP POP JUMP JUMPDEST PUSH0 DUP2 MLOAD SWAP1 POP SWAP2 SWAP1 POP JUMP JUMPDEST PUSH0 DUP2 SWAP1 POP SWAP3 SWAP2 POP POP JUMP JUMPDEST PUSH0 JUMPDEST DUP4 DUP2 LT ISZERO PUSH2 0x11C6 JUMPI DUP1 DUP3 ADD MLOAD DUP2 DUP5 ADD MSTORE PUSH1 0x20 DUP2 ADD SWAP1 POP PUSH2 0x11AB JUMP JUMPDEST PUSH0 DUP5 DUP5 ADD MSTORE POP POP POP POP JUMP JUMPDEST PUSH0 PUSH2 0x11DB DUP3 PUSH2 0x1195 JUMP JUMPDEST PUSH2 0x11E5 DUP2 DUP6 PUSH2 0x119F JUMP JUMPDEST SWAP4 POP PUSH2 0x11F5 DUP2 DUP6 PUSH1 0x20 DUP7 ADD PUSH2 0x11A9 JUMP JUMPDEST DUP1 DUP5 ADD SWAP2 POP POP SWAP3 SWAP2 POP POP JUMP JUMPDEST PUSH0 PUSH2 0x120C DUP3 DUP5 PUSH2 0x11D1 JUMP JUMPDEST SWAP2 POP DUP2 SWAP1 POP SWAP3 SWAP2 POP POP JUMP JUMPDEST PUSH32 0x4E487B7100000000000000000000000000000000000000000000000000000000 PUSH0 MSTORE PUSH1 0x32 PUSH1 0x4 MSTORE PUSH1 0x24 PUSH0 REVERT JUMPDEST PUSH0 DUP2 SWAP1 POP SWAP2 SWAP1 POP JUMP JUMPDEST PUSH2 0x125E PUSH2 0x1259 DUP3 PUSH2 0xAC5 JUMP JUMPDEST PUSH2 0x1244 JUMP JUMPDEST DUP3 MSTORE POP POP JUMP JUMPDEST PUSH0 PUSH2 0x126F DUP3 DUP7 PUSH2 0x124D JUMP JUMPDEST PUSH1 0x20 DUP3 ADD SWAP2 POP PUSH2 0x127F DUP3 DUP6 PUSH2 0x124D JUMP JUMPDEST PUSH1 0x20 DUP3 ADD SWAP2 POP PUSH2 0x128F DUP3 DUP5 PUSH2 0x124D JUMP JUMPDEST PUSH1 0x20 DUP3 ADD SWAP2 POP DUP2 SWAP1 POP SWAP5 SWAP4 POP POP POP POP JUMP JUMPDEST PUSH0 DUP2 MLOAD SWAP1 POP SWAP2 SWAP1 POP JUMP JUMPDEST PUSH0 DUP2 SWAP1 POP SWAP3 SWAP2 POP POP JUMP JUMPDEST PUSH0 PUSH2 0x12BE DUP3 PUSH2 0x12A0 JUMP JUMPDEST PUSH2 0x12C8 DUP2 DUP6 PUSH2 0x12AA JUMP JUMPDEST SWAP4 POP PUSH2 0x12D8 DUP2 DUP6 PUSH1 0x20 DUP7 ADD PUSH2 0x11A9 JUMP JUMPDEST DUP1 DUP5 ADD SWAP2 POP POP SWAP3 SWAP2 POP POP JUMP JUMPDEST PUSH0 PUSH2 0x12EF DUP3 DUP5 PUSH2 0x12B4 JUMP JUMPDEST SWAP2 POP DUP2 SWAP1 POP SWAP3 SWAP2 POP POP JUMP JUMPDEST PUSH32 0x5363616C6172206D756C7469706C69636174696F6E206661696C656400000000 PUSH0 DUP3 ADD MSTORE POP JUMP JUMPDEST PUSH0 PUSH2 0x132E PUSH1 0x1C DUP4 PUSH2 0xFBD JUMP JUMPDEST SWAP2 POP PUSH2 0x1339 DUP3 PUSH2 0x12FA JUMP JUMPDEST PUSH1 0x20 DUP3 ADD SWAP1 POP SWAP2 SWAP1 POP JUMP JUMPDEST PUSH0 PUSH1 0x20 DUP3 ADD SWAP1 POP DUP2 DUP2 SUB PUSH0 DUP4 ADD MSTORE PUSH2 0x135B DUP2 PUSH2 0x1322 JUMP JUMPDEST SWAP1 POP SWAP2 SWAP1 POP JUMP JUMPDEST PUSH32 0x3037353430613031373266636531623762303463356638343164396161646432 PUSH0 DUP3 ADD MSTORE PUSH32 0x6130353231393430333230356566646331643839366165323037326163363234 PUSH1 0x20 DUP3 ADD MSTORE PUSH32 0x3136333137616365613537333466333061633734646338626330613365383861 PUSH1 0x40 DUP3 ADD MSTORE PUSH32 0x3631643534376236653435306462323830303130373733393238656662666635 PUSH1 0x60 DUP3 ADD MSTORE PUSH32 0x3134313565323136663431333462306364323266343262343037316339393864 PUSH1 0x80 DUP3 ADD MSTORE PUSH32 0x3633383530343762653233396333633965326231626636336166636130343430 PUSH1 0xA0 DUP3 ADD MSTORE PUSH32 0x3233373162626336656264393535343535306566613039396664633431303862 PUSH1 0xC0 DUP3 ADD MSTORE PUSH32 0x3766343734346665626461666632626661653532373462353734326237306262 PUSH1 0xE0 DUP3 ADD MSTORE PUSH32 0x3134313565323136663431333462306364323266343262343037316339393864 PUSH2 0x100 DUP3 ADD MSTORE PUSH32 0x3633383530343762653233396333633965326231626636336166636130343430 PUSH2 0x120 DUP3 ADD MSTORE PUSH32 0x3265376336663435613338623234653839643865313239343866613332613564 PUSH2 0x140 DUP3 ADD MSTORE PUSH32 0x3736653464363162353263323130396138333936343538323361356537306265 PUSH2 0x160 DUP3 ADD MSTORE PUSH32 0x3163393166356262623237346332393635393466333862396166646131613937 PUSH2 0x180 DUP3 ADD MSTORE PUSH32 0x6334613735326439306539613066623837643431636336356535303732633235 PUSH2 0x1A0 DUP3 ADD MSTORE PUSH32 0x3230306365386234663536383639626538393965646462613537333361626538 PUSH2 0x1C0 DUP3 ADD MSTORE PUSH32 0x3637346333616130323162626639666434623135343233666331393562626238 PUSH2 0x1E0 DUP3 ADD MSTORE PUSH32 0x3134313565323136663431333462306364323266343262343037316339393864 PUSH2 0x200 DUP3 ADD MSTORE PUSH32 0x3633383530343762653233396333633965326231626636336166636130343430 PUSH2 0x220 DUP3 ADD MSTORE PUSH32 0x3132303530323530373561323139393165393933353961353537316266656138 PUSH2 0x240 DUP3 ADD MSTORE PUSH32 0x3834383935643131353562383666326162393032316664356630633633396134 PUSH2 0x260 DUP3 ADD MSTORE PUSH32 0x3330336332663835386365363436616565653230636565306236373038613666 PUSH2 0x280 DUP3 ADD MSTORE PUSH32 0x3439343033353934623430303637643864353964343864393932623237356139 PUSH2 0x2A0 DUP3 ADD MSTORE POP JUMP JUMPDEST PUSH0 PUSH2 0x16C3 PUSH2 0x2C0 DUP4 PUSH2 0x119F JUMP JUMPDEST SWAP2 POP PUSH2 0x16CE DUP3 PUSH2 0x1362 JUMP JUMPDEST PUSH2 0x2C0 DUP3 ADD SWAP1 POP SWAP2 SWAP1 POP JUMP JUMPDEST PUSH0 PUSH2 0x16E4 DUP3 PUSH2 0x16B6 JUMP JUMPDEST SWAP2 POP DUP2 SWAP1 POP SWAP2 SWAP1 POP JUMP JUMPDEST PUSH0 PUSH2 0x16F9 DUP3 DUP8 PUSH2 0x124D JUMP JUMPDEST PUSH1 0x20 DUP3 ADD SWAP2 POP PUSH2 0x1709 DUP3 DUP7 PUSH2 0x124D JUMP JUMPDEST PUSH1 0x20 DUP3 ADD SWAP2 POP PUSH2 0x1719 DUP3 DUP6 PUSH2 0x124D JUMP JUMPDEST PUSH1 0x20 DUP3 ADD SWAP2 POP PUSH2 0x1729 DUP3 DUP5 PUSH2 0x124D JUMP JUMPDEST PUSH1 0x20 DUP3 ADD SWAP2 POP DUP2 SWAP1 POP SWAP6 SWAP5 POP POP POP POP POP JUMP JUMPDEST PUSH32 0x506F696E74206164646974696F6E206661696C65640000000000000000000000 PUSH0 DUP3 ADD MSTORE POP JUMP JUMPDEST PUSH0 PUSH2 0x176F PUSH1 0x15 DUP4 PUSH2 0xFBD JUMP JUMPDEST SWAP2 POP PUSH2 0x177A DUP3 PUSH2 0x173B JUMP JUMPDEST PUSH1 0x20 DUP3 ADD SWAP1 POP SWAP2 SWAP1 POP JUMP JUMPDEST PUSH0 PUSH1 0x20 DUP3 ADD SWAP1 POP DUP2 DUP2 SUB PUSH0 DUP4 ADD MSTORE PUSH2 0x179C DUP2 PUSH2 0x1763 JUMP JUMPDEST SWAP1 POP SWAP2 SWAP1 POP JUMP JUMPDEST PUSH0 PUSH2 0x17AD DUP3 PUSH2 0xAC5 JUMP JUMPDEST SWAP2 POP PUSH32 0xFFFFFFFFFFFFFFFFFFFFFFFFFFFFFFFFFFFFFFFFFFFFFFFFFFFFFFFFFFFFFFFF DUP3 SUB PUSH2 0x17DF JUMPI PUSH2 0x17DE PUSH2 0x1135 JUMP JUMPDEST JUMPDEST PUSH1 0x1 DUP3 ADD SWAP1 POP SWAP2 SWAP1 POP JUMP JUMPDEST PUSH32 0x4E487B7100000000000000000000000000000000000000000000000000000000 PUSH0 MSTORE PUSH1 0x12 PUSH1 0x4 MSTORE PUSH1 0x24 PUSH0 REVERT JUMPDEST PUSH0 PUSH2 0x1821 DUP3 PUSH2 0xAC5 JUMP JUMPDEST SWAP2 POP PUSH2 0x182C DUP4 PUSH2 0xAC5 JUMP JUMPDEST SWAP3 POP DUP3 PUSH2 0x183C JUMPI PUSH2 0x183B PUSH2 0x17EA JUMP JUMPDEST JUMPDEST DUP3 DUP3 DIV SWAP1 POP SWAP3 SWAP2 POP POP JUMP JUMPDEST PUSH0 PUSH2 0x1851 DUP3 PUSH2 0xAC5 JUMP JUMPDEST SWAP2 POP PUSH2 0x185C DUP4 PUSH2 0xAC5 JUMP JUMPDEST SWAP3 POP DUP3 DUP3 SUB SWAP1 POP DUP2 DUP2 GT ISZERO PUSH2 0x1874 JUMPI PUSH2 0x1873 PUSH2 0x1135 JUMP JUMPDEST JUMPDEST SWAP3 SWAP2 POP POP JUMP JUMPDEST PUSH0 PUSH2 0x1884 DUP3 PUSH2 0xAC5 JUMP JUMPDEST SWAP2 POP PUSH2 0x188F DUP4 PUSH2 0xAC5 JUMP JUMPDEST SWAP3 POP DUP3 DUP3 MUL PUSH2 0x189D DUP2 PUSH2 0xAC5 JUMP JUMPDEST SWAP2 POP DUP3 DUP3 DIV DUP5 EQ DUP4 ISZERO OR PUSH2 0x18B4 JUMPI PUSH2 0x18B3 PUSH2 0x1135 JUMP JUMPDEST JUMPDEST POP SWAP3 SWAP2 POP POP JUMP JUMPDEST PUSH0 PUSH1 0xFF DUP3 AND SWAP1 POP SWAP2 SWAP1 POP JUMP JUMPDEST PUSH0 PUSH2 0x18D1 DUP3 PUSH2 0x18BB JUMP JUMPDEST SWAP2 POP PUSH2 0x18DC DUP4 PUSH2 0x18BB JUMP JUMPDEST SWAP3 POP DUP3 DUP3 ADD SWAP1 POP PUSH1 0xFF DUP2 GT ISZERO PUSH2 0x18F5 JUMPI PUSH2 0x18F4 PUSH2 0x1135 JUMP JUMPDEST JUMPDEST SWAP3 SWAP2 POP POP JUMP JUMPDEST PUSH32 0x496E76616C69642064617461206C656E67746800000000000000000000000000 PUSH0 DUP3 ADD MSTORE POP JUMP JUMPDEST PUSH0 PUSH2 0x192F PUSH1 0x13 DUP4 PUSH2 0xFBD JUMP JUMPDEST SWAP2 POP PUSH2 0x193A DUP3 PUSH2 0x18FB JUMP JUMPDEST PUSH1 0x20 DUP3 ADD SWAP1 POP SWAP2 SWAP1 POP JUMP JUMPDEST PUSH0 PUSH1 0x20 DUP3 ADD SWAP1 POP DUP2 DUP2 SUB PUSH0 DUP4 ADD MSTORE PUSH2 0x195C DUP2 PUSH2 0x1923 JUMP JUMPDEST SWAP1 POP SWAP2 SWAP1 POP JUMP JUMPDEST PUSH32 0x76616C6964206661696C65642C206172726179206C656E677468206E6F742065 PUSH0 DUP3 ADD MSTORE PUSH32 0x7175616C00000000000000000000000000000000000000000000000000000000 PUSH1 0x20 DUP3 ADD MSTORE POP JUMP JUMPDEST PUSH0 PUSH2 0x19BD PUSH1 0x24 DUP4 PUSH2 0xFBD JUMP JUMPDEST SWAP2 POP PUSH2 0x19C8 DUP3 PUSH2 0x1963 JUMP JUMPDEST PUSH1 0x40 DUP3 ADD SWAP1 POP SWAP2 SWAP1 POP JUMP JUMPDEST PUSH0 PUSH1 0x20 DUP3 ADD SWAP1 POP DUP2 DUP2 SUB PUSH0 DUP4 ADD MSTORE PUSH2 0x19EA DUP2 PUSH2 0x19B1 JUMP JUMPDEST SWAP1 POP SWAP2 SWAP1 POP JUMP JUMPDEST PUSH32 0x76616C6964206661696C65642100000000000000000000000000000000000000 PUSH0 DUP3 ADD MSTORE POP JUMP JUMPDEST PUSH0 PUSH2 0x1A25 PUSH1 0xD DUP4 PUSH2 0xFBD JUMP JUMPDEST SWAP2 POP PUSH2 0x1A30 DUP3 PUSH2 0x19F1 JUMP JUMPDEST PUSH1 0x20 DUP3 ADD SWAP1 POP SWAP2 SWAP1 POP JUMP JUMPDEST PUSH0 PUSH1 0x20 DUP3 ADD SWAP1 POP DUP2 DUP2 SUB PUSH0 DUP4 ADD MSTORE PUSH2 0x1A52 DUP2 PUSH2 0x1A19 JUMP JUMPDEST SWAP1 POP SWAP2 SWAP1 POP JUMP INVALID LOG2 PUSH5 0x6970667358 0x22 SLT KECCAK256 POP 0xCD STOP GASPRICE GASLIMIT 0x2B DIV 0x24 CALLVALUE MULMOD 0xD3 GASPRICE 0xAB 0xE2 0xBC DUP4 0x27 0xBC 0xC3 0xCA GAS XOR DUP7 SHL SWAP13 0xBD SWAP11 SWAP7 0xD6 DUP8 CALLDATACOPY 0xE3 PUSH5 0x736F6C6343 STOP ADDMOD AND STOP CALLER "
				},
				"gasEstimates": {
					"creation": {
						"codeDepositCost": "1359800",
						"executionCost": "infinite",
						"totalCost": "infinite"
					},
					"external": {
						"pointAdd(uint256[2],uint256[2])": "infinite",
						"pointMul(uint256[2],uint256)": "infinite",
						"sigmaProofOfValueVerifier(uint256[][2],uint256[][2],uint256[],uint256[],uint256[2],uint256[][2],uint256[][2])": "infinite",
						"test()": "1178"
					},
					"internal": {
						"_toUint256(bytes memory,uint256)": "infinite",
						"compareArray(uint256[2] memory,uint256[2] memory)": "infinite",
						"sumArray(uint256[] memory[2] memory)": "infinite",
						"uint2str(uint256)": "infinite",
						"validResponse1(uint256,uint256[] memory,uint256[] memory,uint256[2] memory,uint256)": "infinite",
						"validResponse2(uint256,uint256,uint256[] memory,uint256[] memory,uint256)": "infinite"
					}
				},
				"methodIdentifiers": {
					"pointAdd(uint256[2],uint256[2])": "fa2bf10b",
					"pointMul(uint256[2],uint256)": "e3ca5699",
					"sigmaProofOfValueVerifier(uint256[][2],uint256[][2],uint256[],uint256[],uint256[2],uint256[][2],uint256[][2])": "c1f349fe",
					"test()": "f8a8fd6d"
				}
			},
			"storageLayout": {
				"storage": [
					{
						"astId": 378,
						"contract": "contracts/VerifySigmaProtocol1-1.sol:VerifySigmaProtocol",
						"label": "g",
						"offset": 0,
						"slot": "0",
						"type": "t_array(t_uint256)2_storage"
					},
					{
						"astId": 385,
						"contract": "contracts/VerifySigmaProtocol1-1.sol:VerifySigmaProtocol",
						"label": "h",
						"offset": 0,
						"slot": "2",
						"type": "t_array(t_uint256)2_storage"
					}
				],
				"types": {
					"t_array(t_uint256)2_storage": {
						"base": "t_uint256",
						"encoding": "inplace",
						"label": "uint256[2]",
						"numberOfBytes": "64"
					},
					"t_uint256": {
						"encoding": "inplace",
						"label": "uint256",
						"numberOfBytes": "32"
					}
				}
			},
			"userdoc": {
				"kind": "user",
				"methods": {},
				"version": 1
			}
		}
	}
}