{
	"contracts/VerifySigmaProtocol.sol": {
		"VerifySigmaProtocol": {
			"abi": [
				{
					"inputs": [
						{
							"internalType": "uint256",
							"name": "_x1",
							"type": "uint256"
						},
						{
							"internalType": "uint256",
							"name": "_y1",
							"type": "uint256"
						},
						{
							"internalType": "uint256",
							"name": "_x2",
							"type": "uint256"
						},
						{
							"internalType": "uint256",
							"name": "_y2",
							"type": "uint256"
						}
					],
					"name": "pointAdd",
					"outputs": [
						{
							"internalType": "uint256",
							"name": "x3",
							"type": "uint256"
						},
						{
							"internalType": "uint256",
							"name": "y3",
							"type": "uint256"
						}
					],
					"stateMutability": "view",
					"type": "function"
				},
				{
					"inputs": [
						{
							"internalType": "uint256",
							"name": "_x1",
							"type": "uint256"
						},
						{
							"internalType": "uint256",
							"name": "_y1",
							"type": "uint256"
						}
					],
					"name": "pointDouble",
					"outputs": [
						{
							"internalType": "uint256",
							"name": "x2",
							"type": "uint256"
						},
						{
							"internalType": "uint256",
							"name": "y2",
							"type": "uint256"
						}
					],
					"stateMutability": "view",
					"type": "function"
				},
				{
					"inputs": [
						{
							"internalType": "uint256",
							"name": "_x1",
							"type": "uint256"
						},
						{
							"internalType": "uint256",
							"name": "_y1",
							"type": "uint256"
						},
						{
							"internalType": "uint256",
							"name": "_d",
							"type": "uint256"
						}
					],
					"name": "pointMul",
					"outputs": [
						{
							"internalType": "uint256",
							"name": "x2",
							"type": "uint256"
						},
						{
							"internalType": "uint256",
							"name": "y2",
							"type": "uint256"
						}
					],
					"stateMutability": "view",
					"type": "function"
				},
				{
					"inputs": [
						{
							"internalType": "uint256[][2]",
							"name": "A",
							"type": "uint256[][2]"
						},
						{
							"internalType": "uint256[][2]",
							"name": "B",
							"type": "uint256[][2]"
						},
						{
							"internalType": "uint256[]",
							"name": "zList_1",
							"type": "uint256[]"
						},
						{
							"internalType": "uint256[]",
							"name": "zList_2",
							"type": "uint256[]"
						},
						{
							"internalType": "uint256[2]",
							"name": "upk",
							"type": "uint256[2]"
						},
						{
							"internalType": "uint256[][2]",
							"name": "XList",
							"type": "uint256[][2]"
						},
						{
							"internalType": "uint256[][2]",
							"name": "YList",
							"type": "uint256[][2]"
						}
					],
					"name": "sigmaProofOfValueVerifier",
					"outputs": [
						{
							"internalType": "bool",
							"name": "result",
							"type": "bool"
						}
					],
					"stateMutability": "view",
					"type": "function"
				}
			],
			"devdoc": {
				"kind": "dev",
				"methods": {},
				"version": 1
			},
			"evm": {
				"assembly": "    /* \"contracts/VerifySigmaProtocol.sol\":96:5036  contract VerifySigmaProtocol {... */\n  mstore(0x40, 0x80)\n    /* \"contracts/VerifySigmaProtocol.sol\":149:313  uint256[2] private g = [0x171e826ad4a870fd925e0bf0e87884e70e080879c2205ef10114f28a3b6f6dd7,... */\n  mload(0x40)\n  dup1\n  0x40\n  add\n  0x40\n  mstore\n  dup1\n    /* \"contracts/VerifySigmaProtocol.sol\":173:239  0x171e826ad4a870fd925e0bf0e87884e70e080879c2205ef10114f28a3b6f6dd7 */\n  0x171e826ad4a870fd925e0bf0e87884e70e080879c2205ef10114f28a3b6f6dd7\n    /* \"contracts/VerifySigmaProtocol.sol\":149:313  uint256[2] private g = [0x171e826ad4a870fd925e0bf0e87884e70e080879c2205ef10114f28a3b6f6dd7,... */\n  dup2\n  mstore\n  0x20\n  add\n    /* \"contracts/VerifySigmaProtocol.sol\":246:312  0x2bd407d897fbbca9f88adfd2d15252e69de8c1564eb4d3d27162e259172f1a1d */\n  0x2bd407d897fbbca9f88adfd2d15252e69de8c1564eb4d3d27162e259172f1a1d\n    /* \"contracts/VerifySigmaProtocol.sol\":149:313  uint256[2] private g = [0x171e826ad4a870fd925e0bf0e87884e70e080879c2205ef10114f28a3b6f6dd7,... */\n  dup2\n  mstore\n  pop\n  0x00\n  swap1\n  0x02\n  tag_1\n  swap3\n  swap2\n  swap1\n  tag_2\n  jump\t// in\ntag_1:\n  pop\n    /* \"contracts/VerifySigmaProtocol.sol\":320:482  uint256[2] private h = [0x5e8290bfaba1ccfad33259a92884cc00644d5fb019ca4dcbdb50123ab32aaf1,... */\n  mload(0x40)\n  dup1\n  0x40\n  add\n  0x40\n  mstore\n  dup1\n    /* \"contracts/VerifySigmaProtocol.sol\":344:409  0x5e8290bfaba1ccfad33259a92884cc00644d5fb019ca4dcbdb50123ab32aaf1 */\n  0x05e8290bfaba1ccfad33259a92884cc00644d5fb019ca4dcbdb50123ab32aaf1\n    /* \"contracts/VerifySigmaProtocol.sol\":320:482  uint256[2] private h = [0x5e8290bfaba1ccfad33259a92884cc00644d5fb019ca4dcbdb50123ab32aaf1,... */\n  dup2\n  mstore\n  0x20\n  add\n    /* \"contracts/VerifySigmaProtocol.sol\":416:481  0x5e352269c07449ea6667d7608c648894125d94e751b1b46a9cf56bbb02f3766 */\n  0x05e352269c07449ea6667d7608c648894125d94e751b1b46a9cf56bbb02f3766\n    /* \"contracts/VerifySigmaProtocol.sol\":320:482  uint256[2] private h = [0x5e8290bfaba1ccfad33259a92884cc00644d5fb019ca4dcbdb50123ab32aaf1,... */\n  dup2\n  mstore\n  pop\n  0x02\n  swap1\n  0x02\n  tag_3\n  swap3\n  swap2\n  swap1\n  tag_2\n  jump\t// in\ntag_3:\n  pop\n    /* \"contracts/VerifySigmaProtocol.sol\":96:5036  contract VerifySigmaProtocol {... */\n  callvalue\n  dup1\n  iszero\n  tag_4\n  jumpi\n  0x00\n  dup1\n  revert\ntag_4:\n  pop\n  jump(tag_5)\ntag_2:\n  dup3\n  0x02\n  dup2\n  add\n  swap3\n  dup3\n  iszero\n  tag_6\n  jumpi\n  swap2\n  0x20\n  mul\n  dup3\n  add\ntag_7:\n  dup3\n  dup2\n  gt\n  iszero\n  tag_8\n  jumpi\n  dup3\n  mload\n  dup3\n  sstore\n  swap2\n  0x20\n  add\n  swap2\n  swap1\n  0x01\n  add\n  swap1\n  jump(tag_7)\ntag_8:\ntag_6:\n  pop\n  swap1\n  pop\n  tag_9\n  swap2\n  swap1\n  tag_10\n  jump\t// in\ntag_9:\n  pop\n  swap1\n  jump\t// out\ntag_10:\ntag_11:\n  dup1\n  dup3\n  gt\n  iszero\n  tag_12\n  jumpi\n  0x00\n  dup2\n  0x00\n  swap1\n  sstore\n  pop\n  0x01\n  add\n  jump(tag_11)\ntag_12:\n  pop\n  swap1\n  jump\t// out\ntag_5:\n  dataSize(sub_0)\n  dup1\n  dataOffset(sub_0)\n  0x00\n  codecopy\n  0x00\n  return\nstop\n\nsub_0: assembly {\n        /* \"contracts/VerifySigmaProtocol.sol\":96:5036  contract VerifySigmaProtocol {... */\n      mstore(0x40, 0x80)\n      callvalue\n      dup1\n      iszero\n      tag_1\n      jumpi\n      0x00\n      dup1\n      revert\n    tag_1:\n      pop\n      jumpi(tag_2, lt(calldatasize, 0x04))\n      shr(0xe0, calldataload(0x00))\n      dup1\n      0x212aba38\n      eq\n      tag_3\n      jumpi\n      dup1\n      0xc1f349fe\n      eq\n      tag_4\n      jumpi\n      dup1\n      0xde92b0e9\n      eq\n      tag_5\n      jumpi\n      dup1\n      0xfd6bbc32\n      eq\n      tag_6\n      jumpi\n    tag_2:\n      0x00\n      dup1\n      revert\n        /* \"contracts/VerifySigmaProtocol.sol\":491:680  function pointAdd(uint256 _x1, uint256 _y1, uint256 _x2, uint256 _y2) public view returns (uint256 x3, uint256 y3) {... */\n    tag_3:\n      tag_7\n      0x04\n      dup1\n      calldatasize\n      sub\n      dup2\n      add\n      swap1\n      tag_8\n      swap2\n      swap1\n      tag_9\n      jump\t// in\n    tag_8:\n      tag_10\n      jump\t// in\n    tag_7:\n      mload(0x40)\n      tag_11\n      swap3\n      swap2\n      swap1\n      tag_12\n      jump\t// in\n    tag_11:\n      mload(0x40)\n      dup1\n      swap2\n      sub\n      swap1\n      return\n        /* \"contracts/VerifySigmaProtocol.sol\":1270:2459  function sigmaProofOfValueVerifier(uint256[][2] memory A, uint256[][2] memory B, ... */\n    tag_4:\n      tag_13\n      0x04\n      dup1\n      calldatasize\n      sub\n      dup2\n      add\n      swap1\n      tag_14\n      swap2\n      swap1\n      tag_15\n      jump\t// in\n    tag_14:\n      tag_16\n      jump\t// in\n    tag_13:\n      mload(0x40)\n      tag_17\n      swap2\n      swap1\n      tag_18\n      jump\t// in\n    tag_17:\n      mload(0x40)\n      dup1\n      swap2\n      sub\n      swap1\n      return\n        /* \"contracts/VerifySigmaProtocol.sol\":865:1024  function pointDouble(uint256 _x1, uint256 _y1) public view returns (uint256 x2, uint256 y2) {... */\n    tag_5:\n      tag_19\n      0x04\n      dup1\n      calldatasize\n      sub\n      dup2\n      add\n      swap1\n      tag_20\n      swap2\n      swap1\n      tag_21\n      jump\t// in\n    tag_20:\n      tag_22\n      jump\t// in\n    tag_19:\n      mload(0x40)\n      tag_23\n      swap3\n      swap2\n      swap1\n      tag_12\n      jump\t// in\n    tag_23:\n      mload(0x40)\n      dup1\n      swap2\n      sub\n      swap1\n      return\n        /* \"contracts/VerifySigmaProtocol.sol\":688:857  function pointMul(uint256 _x1, uint256 _y1, uint256 _d) public view returns (uint256 x2, uint256 y2) {... */\n    tag_6:\n      tag_24\n      0x04\n      dup1\n      calldatasize\n      sub\n      dup2\n      add\n      swap1\n      tag_25\n      swap2\n      swap1\n      tag_26\n      jump\t// in\n    tag_25:\n      tag_27\n      jump\t// in\n    tag_24:\n      mload(0x40)\n      tag_28\n      swap3\n      swap2\n      swap1\n      tag_12\n      jump\t// in\n    tag_28:\n      mload(0x40)\n      dup1\n      swap2\n      sub\n      swap1\n      return\n        /* \"contracts/VerifySigmaProtocol.sol\":491:680  function pointAdd(uint256 _x1, uint256 _y1, uint256 _x2, uint256 _y2) public view returns (uint256 x3, uint256 y3) {... */\n    tag_10:\n        /* \"contracts/VerifySigmaProtocol.sol\":582:592  uint256 x3 */\n      0x00\n        /* \"contracts/VerifySigmaProtocol.sol\":594:604  uint256 y3 */\n      dup1\n        /* \"contracts/VerifySigmaProtocol.sol\":628:672  CurveBabyJubJub.pointAdd(_x1, _y1, _x2, _y2) */\n      tag_30\n        /* \"contracts/VerifySigmaProtocol.sol\":653:656  _x1 */\n      dup7\n        /* \"contracts/VerifySigmaProtocol.sol\":658:661  _y1 */\n      dup7\n        /* \"contracts/VerifySigmaProtocol.sol\":663:666  _x2 */\n      dup7\n        /* \"contracts/VerifySigmaProtocol.sol\":668:671  _y2 */\n      dup7\n        /* \"contracts/VerifySigmaProtocol.sol\":628:652  CurveBabyJubJub.pointAdd */\n      tag_31\n        /* \"contracts/VerifySigmaProtocol.sol\":628:672  CurveBabyJubJub.pointAdd(_x1, _y1, _x2, _y2) */\n      jump\t// in\n    tag_30:\n        /* \"contracts/VerifySigmaProtocol.sol\":617:672  (x3, y3) = CurveBabyJubJub.pointAdd(_x1, _y1, _x2, _y2) */\n      dup1\n      swap3\n      pop\n      dup2\n      swap4\n      pop\n      pop\n      pop\n        /* \"contracts/VerifySigmaProtocol.sol\":491:680  function pointAdd(uint256 _x1, uint256 _y1, uint256 _x2, uint256 _y2) public view returns (uint256 x3, uint256 y3) {... */\n      swap5\n      pop\n      swap5\n      swap3\n      pop\n      pop\n      pop\n      jump\t// out\n        /* \"contracts/VerifySigmaProtocol.sol\":1270:2459  function sigmaProofOfValueVerifier(uint256[][2] memory A, uint256[][2] memory B, ... */\n    tag_16:\n        /* \"contracts/VerifySigmaProtocol.sol\":1518:1529  bool result */\n      0x00\n        /* \"contracts/VerifySigmaProtocol.sol\":1576:1584  B.length */\n      0x02\n        /* \"contracts/VerifySigmaProtocol.sol\":1564:1572  A.length */\n      dup1\n        /* \"contracts/VerifySigmaProtocol.sol\":1564:1584  A.length == B.length */\n      eq\n        /* \"contracts/VerifySigmaProtocol.sol\":1564:1614  A.length == B.length && A.length == zList_1.length */\n      dup1\n      iszero\n      tag_33\n      jumpi\n      pop\n        /* \"contracts/VerifySigmaProtocol.sol\":1600:1607  zList_1 */\n      dup6\n        /* \"contracts/VerifySigmaProtocol.sol\":1600:1614  zList_1.length */\n      mload\n        /* \"contracts/VerifySigmaProtocol.sol\":1588:1596  A.length */\n      0x02\n        /* \"contracts/VerifySigmaProtocol.sol\":1588:1614  A.length == zList_1.length */\n      eq\n        /* \"contracts/VerifySigmaProtocol.sol\":1564:1614  A.length == B.length && A.length == zList_1.length */\n    tag_33:\n        /* \"contracts/VerifySigmaProtocol.sol\":1564:1644  A.length == B.length && A.length == zList_1.length && A.length == zList_2.length */\n      dup1\n      iszero\n      tag_34\n      jumpi\n      pop\n        /* \"contracts/VerifySigmaProtocol.sol\":1630:1637  zList_2 */\n      dup5\n        /* \"contracts/VerifySigmaProtocol.sol\":1630:1644  zList_2.length */\n      mload\n        /* \"contracts/VerifySigmaProtocol.sol\":1618:1626  A.length */\n      0x02\n        /* \"contracts/VerifySigmaProtocol.sol\":1618:1644  A.length == zList_2.length */\n      eq\n        /* \"contracts/VerifySigmaProtocol.sol\":1564:1644  A.length == B.length && A.length == zList_1.length && A.length == zList_2.length */\n    tag_34:\n        /* \"contracts/VerifySigmaProtocol.sol\":1564:1686  A.length == B.length && A.length == zList_1.length && A.length == zList_2.length ... */\n      dup1\n      iszero\n      tag_35\n      jumpi\n      pop\n        /* \"contracts/VerifySigmaProtocol.sol\":1674:1686  XList.length */\n      0x02\n        /* \"contracts/VerifySigmaProtocol.sol\":1662:1670  A.length */\n      dup1\n        /* \"contracts/VerifySigmaProtocol.sol\":1662:1686  A.length == XList.length */\n      eq\n        /* \"contracts/VerifySigmaProtocol.sol\":1564:1686  A.length == B.length && A.length == zList_1.length && A.length == zList_2.length ... */\n    tag_35:\n        /* \"contracts/VerifySigmaProtocol.sol\":1564:1714  A.length == B.length && A.length == zList_1.length && A.length == zList_2.length ... */\n      dup1\n      iszero\n      tag_36\n      jumpi\n      pop\n        /* \"contracts/VerifySigmaProtocol.sol\":1702:1714  YList.length */\n      0x02\n        /* \"contracts/VerifySigmaProtocol.sol\":1690:1698  A.length */\n      dup1\n        /* \"contracts/VerifySigmaProtocol.sol\":1690:1714  A.length == YList.length */\n      eq\n        /* \"contracts/VerifySigmaProtocol.sol\":1564:1714  A.length == B.length && A.length == zList_1.length && A.length == zList_2.length ... */\n    tag_36:\n        /* \"contracts/VerifySigmaProtocol.sol\":1542:1828  require(... */\n      tag_37\n      jumpi\n      mload(0x40)\n      0x08c379a000000000000000000000000000000000000000000000000000000000\n      dup2\n      mstore\n      0x04\n      add\n      tag_38\n      swap1\n      tag_39\n      jump\t// in\n    tag_38:\n      mload(0x40)\n      dup1\n      swap2\n      sub\n      swap1\n      revert\n    tag_37:\n        /* \"contracts/VerifySigmaProtocol.sol\":1874:1875  0 */\n      0x00\n        /* \"contracts/VerifySigmaProtocol.sol\":1863:1871  A.length */\n      0x02\n        /* \"contracts/VerifySigmaProtocol.sol\":1863:1875  A.length > 0 */\n      gt\n        /* \"contracts/VerifySigmaProtocol.sol\":1841:1984  require(... */\n      tag_40\n      jumpi\n      mload(0x40)\n      0x08c379a000000000000000000000000000000000000000000000000000000000\n      dup2\n      mstore\n      0x04\n      add\n      tag_41\n      swap1\n      tag_42\n      jump\t// in\n    tag_41:\n      mload(0x40)\n      dup1\n      swap2\n      sub\n      swap1\n      revert\n    tag_40:\n        /* \"contracts/VerifySigmaProtocol.sol\":1997:2014  uint256 hashInput */\n      0x00\n        /* \"contracts/VerifySigmaProtocol.sol\":2029:2040  sumArray(B) */\n      tag_43\n        /* \"contracts/VerifySigmaProtocol.sol\":2038:2039  B */\n      dup9\n        /* \"contracts/VerifySigmaProtocol.sol\":2029:2037  sumArray */\n      tag_44\n        /* \"contracts/VerifySigmaProtocol.sol\":2029:2040  sumArray(B) */\n      jump\t// in\n    tag_43:\n        /* \"contracts/VerifySigmaProtocol.sol\":2017:2028  sumArray(A) */\n      tag_45\n        /* \"contracts/VerifySigmaProtocol.sol\":2026:2027  A */\n      dup11\n        /* \"contracts/VerifySigmaProtocol.sol\":2017:2025  sumArray */\n      tag_44\n        /* \"contracts/VerifySigmaProtocol.sol\":2017:2028  sumArray(A) */\n      jump\t// in\n    tag_45:\n        /* \"contracts/VerifySigmaProtocol.sol\":2017:2040  sumArray(A)+sumArray(B) */\n      tag_46\n      swap2\n      swap1\n      tag_47\n      jump\t// in\n    tag_46:\n        /* \"contracts/VerifySigmaProtocol.sol\":1997:2040  uint256 hashInput = sumArray(A)+sumArray(B) */\n      swap1\n      pop\n        /* \"contracts/VerifySigmaProtocol.sol\":2051:2077  string memory hashInputStr */\n      0x00\n        /* \"contracts/VerifySigmaProtocol.sol\":2080:2099  uint2str(hashInput) */\n      tag_48\n        /* \"contracts/VerifySigmaProtocol.sol\":2089:2098  hashInput */\n      dup3\n        /* \"contracts/VerifySigmaProtocol.sol\":2080:2088  uint2str */\n      tag_49\n        /* \"contracts/VerifySigmaProtocol.sol\":2080:2099  uint2str(hashInput) */\n      jump\t// in\n    tag_48:\n        /* \"contracts/VerifySigmaProtocol.sol\":2051:2099  string memory hashInputStr = uint2str(hashInput) */\n      swap1\n      pop\n        /* \"contracts/VerifySigmaProtocol.sol\":2110:2122  bytes32 hash */\n      0x00\n        /* \"contracts/VerifySigmaProtocol.sol\":2152:2164  hashInputStr */\n      dup2\n        /* \"contracts/VerifySigmaProtocol.sol\":2135:2165  abi.encodePacked(hashInputStr) */\n      add(0x20, mload(0x40))\n      tag_50\n      swap2\n      swap1\n      tag_51\n      jump\t// in\n    tag_50:\n      mload(0x40)\n      0x20\n      dup2\n      dup4\n      sub\n      sub\n      dup2\n      mstore\n      swap1\n      0x40\n      mstore\n        /* \"contracts/VerifySigmaProtocol.sol\":2125:2166  keccak256(abi.encodePacked(hashInputStr)) */\n      dup1\n      mload\n      swap1\n      0x20\n      add\n      keccak256\n        /* \"contracts/VerifySigmaProtocol.sol\":2110:2166  bytes32 hash = keccak256(abi.encodePacked(hashInputStr)) */\n      swap1\n      pop\n        /* \"contracts/VerifySigmaProtocol.sol\":2177:2186  uint256 e */\n      0x00\n        /* \"contracts/VerifySigmaProtocol.sol\":2197:2201  hash */\n      dup2\n        /* \"contracts/VerifySigmaProtocol.sol\":2189:2202  uint256(hash) */\n      0x00\n      shr\n        /* \"contracts/VerifySigmaProtocol.sol\":2177:2202  uint256 e = uint256(hash) */\n      swap1\n      pop\n        /* \"contracts/VerifySigmaProtocol.sol\":2219:2226  uint8 i */\n      0x00\n        /* \"contracts/VerifySigmaProtocol.sol\":2215:2426  for(uint8 i = 0; i < A.length; i++) {... */\n    tag_52:\n        /* \"contracts/VerifySigmaProtocol.sol\":2236:2244  A.length */\n      0x02\n        /* \"contracts/VerifySigmaProtocol.sol\":2232:2233  i */\n      dup2\n        /* \"contracts/VerifySigmaProtocol.sol\":2232:2244  i < A.length */\n      0xff\n      and\n      lt\n        /* \"contracts/VerifySigmaProtocol.sol\":2215:2426  for(uint8 i = 0; i < A.length; i++) {... */\n      iszero\n      tag_53\n      jumpi\n        /* \"contracts/VerifySigmaProtocol.sol\":2266:2329  validResponse1(zList_1[i],... */\n      tag_55\n        /* \"contracts/VerifySigmaProtocol.sol\":2281:2288  zList_1 */\n      dup12\n        /* \"contracts/VerifySigmaProtocol.sol\":2289:2290  i */\n      dup3\n        /* \"contracts/VerifySigmaProtocol.sol\":2281:2291  zList_1[i] */\n      0xff\n      and\n      dup2\n      mload\n      dup2\n      lt\n      tag_56\n      jumpi\n      tag_57\n      tag_58\n      jump\t// in\n    tag_57:\n    tag_56:\n      0x20\n      mul\n      0x20\n      add\n      add\n      mload\n        /* \"contracts/VerifySigmaProtocol.sol\":2306:2311  XList */\n      dup10\n        /* \"contracts/VerifySigmaProtocol.sol\":2312:2313  i */\n      dup4\n        /* \"contracts/VerifySigmaProtocol.sol\":2306:2314  XList[i] */\n      0xff\n      and\n      0x02\n      dup2\n      lt\n      tag_59\n      jumpi\n      tag_60\n      tag_58\n      jump\t// in\n    tag_60:\n    tag_59:\n      0x20\n      mul\n      add\n      mload\n        /* \"contracts/VerifySigmaProtocol.sol\":2316:2317  A */\n      dup16\n        /* \"contracts/VerifySigmaProtocol.sol\":2318:2319  i */\n      dup5\n        /* \"contracts/VerifySigmaProtocol.sol\":2316:2320  A[i] */\n      0xff\n      and\n      0x02\n      dup2\n      lt\n      tag_61\n      jumpi\n      tag_62\n      tag_58\n      jump\t// in\n    tag_62:\n    tag_61:\n      0x20\n      mul\n      add\n      mload\n        /* \"contracts/VerifySigmaProtocol.sol\":2322:2325  upk */\n      dup13\n        /* \"contracts/VerifySigmaProtocol.sol\":2327:2328  e */\n      dup7\n        /* \"contracts/VerifySigmaProtocol.sol\":2266:2280  validResponse1 */\n      tag_63\n        /* \"contracts/VerifySigmaProtocol.sol\":2266:2329  validResponse1(zList_1[i],... */\n      jump\t// in\n    tag_55:\n        /* \"contracts/VerifySigmaProtocol.sol\":2344:2414  validResponse2(zList_1[i], zList_2[i],... */\n      tag_64\n        /* \"contracts/VerifySigmaProtocol.sol\":2359:2366  zList_1 */\n      dup12\n        /* \"contracts/VerifySigmaProtocol.sol\":2367:2368  i */\n      dup3\n        /* \"contracts/VerifySigmaProtocol.sol\":2359:2369  zList_1[i] */\n      0xff\n      and\n      dup2\n      mload\n      dup2\n      lt\n      tag_65\n      jumpi\n      tag_66\n      tag_58\n      jump\t// in\n    tag_66:\n    tag_65:\n      0x20\n      mul\n      0x20\n      add\n      add\n      mload\n        /* \"contracts/VerifySigmaProtocol.sol\":2371:2378  zList_2 */\n      dup12\n        /* \"contracts/VerifySigmaProtocol.sol\":2379:2380  i */\n      dup4\n        /* \"contracts/VerifySigmaProtocol.sol\":2371:2381  zList_2[i] */\n      0xff\n      and\n      dup2\n      mload\n      dup2\n      lt\n      tag_67\n      jumpi\n      tag_68\n      tag_58\n      jump\t// in\n    tag_68:\n    tag_67:\n      0x20\n      mul\n      0x20\n      add\n      add\n      mload\n        /* \"contracts/VerifySigmaProtocol.sol\":2396:2401  YList */\n      dup10\n        /* \"contracts/VerifySigmaProtocol.sol\":2402:2403  i */\n      dup5\n        /* \"contracts/VerifySigmaProtocol.sol\":2396:2404  YList[i] */\n      0xff\n      and\n      0x02\n      dup2\n      lt\n      tag_69\n      jumpi\n      tag_70\n      tag_58\n      jump\t// in\n    tag_70:\n    tag_69:\n      0x20\n      mul\n      add\n      mload\n        /* \"contracts/VerifySigmaProtocol.sol\":2406:2407  B */\n      dup16\n        /* \"contracts/VerifySigmaProtocol.sol\":2408:2409  i */\n      dup6\n        /* \"contracts/VerifySigmaProtocol.sol\":2406:2410  B[i] */\n      0xff\n      and\n      0x02\n      dup2\n      lt\n      tag_71\n      jumpi\n      tag_72\n      tag_58\n      jump\t// in\n    tag_72:\n    tag_71:\n      0x20\n      mul\n      add\n      mload\n        /* \"contracts/VerifySigmaProtocol.sol\":2412:2413  e */\n      dup7\n        /* \"contracts/VerifySigmaProtocol.sol\":2344:2358  validResponse2 */\n      tag_73\n        /* \"contracts/VerifySigmaProtocol.sol\":2344:2414  validResponse2(zList_1[i], zList_2[i],... */\n      jump\t// in\n    tag_64:\n        /* \"contracts/VerifySigmaProtocol.sol\":2246:2249  i++ */\n      dup1\n      dup1\n      tag_74\n      swap1\n      tag_75\n      jump\t// in\n    tag_74:\n      swap2\n      pop\n      pop\n        /* \"contracts/VerifySigmaProtocol.sol\":2215:2426  for(uint8 i = 0; i < A.length; i++) {... */\n      jump(tag_52)\n    tag_53:\n      pop\n        /* \"contracts/VerifySigmaProtocol.sol\":2447:2451  true */\n      0x01\n        /* \"contracts/VerifySigmaProtocol.sol\":2438:2451  result = true */\n      swap5\n      pop\n        /* \"contracts/VerifySigmaProtocol.sol\":1531:2459  {... */\n      pop\n      pop\n      pop\n      pop\n        /* \"contracts/VerifySigmaProtocol.sol\":1270:2459  function sigmaProofOfValueVerifier(uint256[][2] memory A, uint256[][2] memory B, ... */\n      swap8\n      swap7\n      pop\n      pop\n      pop\n      pop\n      pop\n      pop\n      pop\n      jump\t// out\n        /* \"contracts/VerifySigmaProtocol.sol\":865:1024  function pointDouble(uint256 _x1, uint256 _y1) public view returns (uint256 x2, uint256 y2) {... */\n    tag_22:\n        /* \"contracts/VerifySigmaProtocol.sol\":933:943  uint256 x2 */\n      0x00\n        /* \"contracts/VerifySigmaProtocol.sol\":945:955  uint256 y2 */\n      dup1\n        /* \"contracts/VerifySigmaProtocol.sol\":979:1016  CurveBabyJubJub.pointDouble(_x1, _y1) */\n      tag_77\n        /* \"contracts/VerifySigmaProtocol.sol\":1007:1010  _x1 */\n      dup5\n        /* \"contracts/VerifySigmaProtocol.sol\":1012:1015  _y1 */\n      dup5\n        /* \"contracts/VerifySigmaProtocol.sol\":979:1006  CurveBabyJubJub.pointDouble */\n      tag_78\n        /* \"contracts/VerifySigmaProtocol.sol\":979:1016  CurveBabyJubJub.pointDouble(_x1, _y1) */\n      jump\t// in\n    tag_77:\n        /* \"contracts/VerifySigmaProtocol.sol\":968:1016  (x2, y2) = CurveBabyJubJub.pointDouble(_x1, _y1) */\n      dup1\n      swap3\n      pop\n      dup2\n      swap4\n      pop\n      pop\n      pop\n        /* \"contracts/VerifySigmaProtocol.sol\":865:1024  function pointDouble(uint256 _x1, uint256 _y1) public view returns (uint256 x2, uint256 y2) {... */\n      swap3\n      pop\n      swap3\n      swap1\n      pop\n      jump\t// out\n        /* \"contracts/VerifySigmaProtocol.sol\":688:857  function pointMul(uint256 _x1, uint256 _y1, uint256 _d) public view returns (uint256 x2, uint256 y2) {... */\n    tag_27:\n        /* \"contracts/VerifySigmaProtocol.sol\":765:775  uint256 x2 */\n      0x00\n        /* \"contracts/VerifySigmaProtocol.sol\":777:787  uint256 y2 */\n      dup1\n        /* \"contracts/VerifySigmaProtocol.sol\":811:849  CurveBabyJubJub.pointMul(_x1, _y1, _d) */\n      tag_80\n        /* \"contracts/VerifySigmaProtocol.sol\":836:839  _x1 */\n      dup6\n        /* \"contracts/VerifySigmaProtocol.sol\":841:844  _y1 */\n      dup6\n        /* \"contracts/VerifySigmaProtocol.sol\":846:848  _d */\n      dup6\n        /* \"contracts/VerifySigmaProtocol.sol\":811:835  CurveBabyJubJub.pointMul */\n      tag_81\n        /* \"contracts/VerifySigmaProtocol.sol\":811:849  CurveBabyJubJub.pointMul(_x1, _y1, _d) */\n      jump\t// in\n    tag_80:\n        /* \"contracts/VerifySigmaProtocol.sol\":800:849  (x2, y2) = CurveBabyJubJub.pointMul(_x1, _y1, _d) */\n      dup1\n      swap3\n      pop\n      dup2\n      swap4\n      pop\n      pop\n      pop\n        /* \"contracts/VerifySigmaProtocol.sol\":688:857  function pointMul(uint256 _x1, uint256 _y1, uint256 _d) public view returns (uint256 x2, uint256 y2) {... */\n      swap4\n      pop\n      swap4\n      swap2\n      pop\n      pop\n      jump\t// out\n        /* \"contracts/CurveBabyJubJub.sol\":680:1399  function pointAdd(uint256 _x1, uint256 _y1, uint256 _x2, uint256 _y2) internal view returns (uint256 x3, uint256 y3) {... */\n    tag_31:\n        /* \"contracts/CurveBabyJubJub.sol\":773:783  uint256 x3 */\n      0x00\n        /* \"contracts/CurveBabyJubJub.sol\":785:795  uint256 y3 */\n      dup1\n        /* \"contracts/CurveBabyJubJub.sol\":819:820  0 */\n      0x00\n        /* \"contracts/CurveBabyJubJub.sol\":812:815  _x1 */\n      dup7\n        /* \"contracts/CurveBabyJubJub.sol\":812:820  _x1 == 0 */\n      eq\n        /* \"contracts/CurveBabyJubJub.sol\":812:832  _x1 == 0 && _y1 == 0 */\n      dup1\n      iszero\n      tag_83\n      jumpi\n      pop\n        /* \"contracts/CurveBabyJubJub.sol\":831:832  0 */\n      0x00\n        /* \"contracts/CurveBabyJubJub.sol\":824:827  _y1 */\n      dup6\n        /* \"contracts/CurveBabyJubJub.sol\":824:832  _y1 == 0 */\n      eq\n        /* \"contracts/CurveBabyJubJub.sol\":812:832  _x1 == 0 && _y1 == 0 */\n    tag_83:\n        /* \"contracts/CurveBabyJubJub.sol\":808:878  if (_x1 == 0 && _y1 == 0) {... */\n      iszero\n      tag_84\n      jumpi\n        /* \"contracts/CurveBabyJubJub.sol\":857:860  _x2 */\n      dup4\n        /* \"contracts/CurveBabyJubJub.sol\":862:865  _y2 */\n      dup4\n        /* \"contracts/CurveBabyJubJub.sol\":849:866  return (_x2, _y2) */\n      swap2\n      pop\n      swap2\n      pop\n      jump(tag_82)\n        /* \"contracts/CurveBabyJubJub.sol\":808:878  if (_x1 == 0 && _y1 == 0) {... */\n    tag_84:\n        /* \"contracts/CurveBabyJubJub.sol\":901:902  0 */\n      0x00\n        /* \"contracts/CurveBabyJubJub.sol\":894:897  _x2 */\n      dup5\n        /* \"contracts/CurveBabyJubJub.sol\":894:902  _x2 == 0 */\n      eq\n        /* \"contracts/CurveBabyJubJub.sol\":894:914  _x2 == 0 && _y1 == 0 */\n      dup1\n      iszero\n      tag_85\n      jumpi\n      pop\n        /* \"contracts/CurveBabyJubJub.sol\":913:914  0 */\n      0x00\n        /* \"contracts/CurveBabyJubJub.sol\":906:909  _y1 */\n      dup6\n        /* \"contracts/CurveBabyJubJub.sol\":906:914  _y1 == 0 */\n      eq\n        /* \"contracts/CurveBabyJubJub.sol\":894:914  _x2 == 0 && _y1 == 0 */\n    tag_85:\n        /* \"contracts/CurveBabyJubJub.sol\":890:960  if (_x2 == 0 && _y1 == 0) {... */\n      iszero\n      tag_86\n      jumpi\n        /* \"contracts/CurveBabyJubJub.sol\":939:942  _x1 */\n      dup6\n        /* \"contracts/CurveBabyJubJub.sol\":944:947  _y1 */\n      dup6\n        /* \"contracts/CurveBabyJubJub.sol\":931:948  return (_x1, _y1) */\n      swap2\n      pop\n      swap2\n      pop\n      jump(tag_82)\n        /* \"contracts/CurveBabyJubJub.sol\":890:960  if (_x2 == 0 && _y1 == 0) {... */\n    tag_86:\n        /* \"contracts/CurveBabyJubJub.sol\":972:984  uint256 x1x2 */\n      0x00\n        /* \"contracts/CurveBabyJubJub.sol\":384:450  0x30644E72E131A029B85045B68181585D2833E84879B9709143E1F593F0000001 */\n      0x30644e72e131a029b85045b68181585d2833e84879b9709143e1f593f0000001\n        /* \"contracts/CurveBabyJubJub.sol\":987:1006  mulmod(_x1, _x2, Q) */\n      dup1\n      tag_87\n      jumpi\n      tag_88\n      tag_89\n      jump\t// in\n    tag_88:\n    tag_87:\n        /* \"contracts/CurveBabyJubJub.sol\":999:1002  _x2 */\n      dup6\n        /* \"contracts/CurveBabyJubJub.sol\":994:997  _x1 */\n      dup9\n        /* \"contracts/CurveBabyJubJub.sol\":987:1006  mulmod(_x1, _x2, Q) */\n      mulmod\n        /* \"contracts/CurveBabyJubJub.sol\":972:1006  uint256 x1x2 = mulmod(_x1, _x2, Q) */\n      swap1\n      pop\n        /* \"contracts/CurveBabyJubJub.sol\":1017:1029  uint256 y1y2 */\n      0x00\n        /* \"contracts/CurveBabyJubJub.sol\":384:450  0x30644E72E131A029B85045B68181585D2833E84879B9709143E1F593F0000001 */\n      0x30644e72e131a029b85045b68181585d2833e84879b9709143e1f593f0000001\n        /* \"contracts/CurveBabyJubJub.sol\":1032:1051  mulmod(_y1, _y2, Q) */\n      dup1\n      tag_90\n      jumpi\n      tag_91\n      tag_89\n      jump\t// in\n    tag_91:\n    tag_90:\n        /* \"contracts/CurveBabyJubJub.sol\":1044:1047  _y2 */\n      dup6\n        /* \"contracts/CurveBabyJubJub.sol\":1039:1042  _y1 */\n      dup9\n        /* \"contracts/CurveBabyJubJub.sol\":1032:1051  mulmod(_y1, _y2, Q) */\n      mulmod\n        /* \"contracts/CurveBabyJubJub.sol\":1017:1051  uint256 y1y2 = mulmod(_y1, _y2, Q) */\n      swap1\n      pop\n        /* \"contracts/CurveBabyJubJub.sol\":1062:1079  uint256 dx1x2y1y2 */\n      0x00\n        /* \"contracts/CurveBabyJubJub.sol\":384:450  0x30644E72E131A029B85045B68181585D2833E84879B9709143E1F593F0000001 */\n      0x30644e72e131a029b85045b68181585d2833e84879b9709143e1f593f0000001\n        /* \"contracts/CurveBabyJubJub.sol\":1082:1117  mulmod(D, mulmod(x1x2, y1y2, Q), Q) */\n      dup1\n      tag_92\n      jumpi\n      tag_93\n      tag_89\n      jump\t// in\n    tag_93:\n    tag_92:\n        /* \"contracts/CurveBabyJubJub.sol\":384:450  0x30644E72E131A029B85045B68181585D2833E84879B9709143E1F593F0000001 */\n      0x30644e72e131a029b85045b68181585d2833e84879b9709143e1f593f0000001\n        /* \"contracts/CurveBabyJubJub.sol\":1092:1113  mulmod(x1x2, y1y2, Q) */\n      dup1\n      tag_94\n      jumpi\n      tag_95\n      tag_89\n      jump\t// in\n    tag_95:\n    tag_94:\n        /* \"contracts/CurveBabyJubJub.sol\":1105:1109  y1y2 */\n      dup4\n        /* \"contracts/CurveBabyJubJub.sol\":1099:1103  x1x2 */\n      dup6\n        /* \"contracts/CurveBabyJubJub.sol\":1092:1113  mulmod(x1x2, y1y2, Q) */\n      mulmod\n        /* \"contracts/CurveBabyJubJub.sol\":246:253  0x292F8 */\n      0x0292f8\n        /* \"contracts/CurveBabyJubJub.sol\":1082:1117  mulmod(D, mulmod(x1x2, y1y2, Q), Q) */\n      mulmod\n        /* \"contracts/CurveBabyJubJub.sol\":1062:1117  uint256 dx1x2y1y2 = mulmod(D, mulmod(x1x2, y1y2, Q), Q) */\n      swap1\n      pop\n        /* \"contracts/CurveBabyJubJub.sol\":1128:1141  uint256 x3Num */\n      0x00\n        /* \"contracts/CurveBabyJubJub.sol\":384:450  0x30644E72E131A029B85045B68181585D2833E84879B9709143E1F593F0000001 */\n      0x30644e72e131a029b85045b68181585d2833e84879b9709143e1f593f0000001\n        /* \"contracts/CurveBabyJubJub.sol\":1144:1195  addmod(mulmod(_x1, _y2, Q), mulmod(_y1, _x2, Q), Q) */\n      dup1\n      tag_96\n      jumpi\n      tag_97\n      tag_89\n      jump\t// in\n    tag_97:\n    tag_96:\n        /* \"contracts/CurveBabyJubJub.sol\":384:450  0x30644E72E131A029B85045B68181585D2833E84879B9709143E1F593F0000001 */\n      0x30644e72e131a029b85045b68181585d2833e84879b9709143e1f593f0000001\n        /* \"contracts/CurveBabyJubJub.sol\":1172:1191  mulmod(_y1, _x2, Q) */\n      dup1\n      tag_98\n      jumpi\n      tag_99\n      tag_89\n      jump\t// in\n    tag_99:\n    tag_98:\n        /* \"contracts/CurveBabyJubJub.sol\":1184:1187  _x2 */\n      dup10\n        /* \"contracts/CurveBabyJubJub.sol\":1179:1182  _y1 */\n      dup12\n        /* \"contracts/CurveBabyJubJub.sol\":1172:1191  mulmod(_y1, _x2, Q) */\n      mulmod\n        /* \"contracts/CurveBabyJubJub.sol\":384:450  0x30644E72E131A029B85045B68181585D2833E84879B9709143E1F593F0000001 */\n      0x30644e72e131a029b85045b68181585d2833e84879b9709143e1f593f0000001\n        /* \"contracts/CurveBabyJubJub.sol\":1151:1170  mulmod(_x1, _y2, Q) */\n      dup1\n      tag_100\n      jumpi\n      tag_101\n      tag_89\n      jump\t// in\n    tag_101:\n    tag_100:\n        /* \"contracts/CurveBabyJubJub.sol\":1163:1166  _y2 */\n      dup10\n        /* \"contracts/CurveBabyJubJub.sol\":1158:1161  _x1 */\n      dup14\n        /* \"contracts/CurveBabyJubJub.sol\":1151:1170  mulmod(_x1, _y2, Q) */\n      mulmod\n        /* \"contracts/CurveBabyJubJub.sol\":1144:1195  addmod(mulmod(_x1, _y2, Q), mulmod(_y1, _x2, Q), Q) */\n      addmod\n        /* \"contracts/CurveBabyJubJub.sol\":1128:1195  uint256 x3Num = addmod(mulmod(_x1, _y2, Q), mulmod(_y1, _x2, Q), Q) */\n      swap1\n      pop\n        /* \"contracts/CurveBabyJubJub.sol\":1206:1219  uint256 y3Num */\n      0x00\n        /* \"contracts/CurveBabyJubJub.sol\":1222:1257  submod(y1y2, mulmod(A, x1x2, Q), Q) */\n      tag_102\n        /* \"contracts/CurveBabyJubJub.sol\":1229:1233  y1y2 */\n      dup5\n        /* \"contracts/CurveBabyJubJub.sol\":384:450  0x30644E72E131A029B85045B68181585D2833E84879B9709143E1F593F0000001 */\n      0x30644e72e131a029b85045b68181585d2833e84879b9709143e1f593f0000001\n        /* \"contracts/CurveBabyJubJub.sol\":1235:1253  mulmod(A, x1x2, Q) */\n      dup1\n      tag_103\n      jumpi\n      tag_104\n      tag_89\n      jump\t// in\n    tag_104:\n    tag_103:\n        /* \"contracts/CurveBabyJubJub.sol\":1245:1249  x1x2 */\n      dup8\n        /* \"contracts/CurveBabyJubJub.sol\":184:191  0x292FC */\n      0x0292fc\n        /* \"contracts/CurveBabyJubJub.sol\":1235:1253  mulmod(A, x1x2, Q) */\n      mulmod\n        /* \"contracts/CurveBabyJubJub.sol\":384:450  0x30644E72E131A029B85045B68181585D2833E84879B9709143E1F593F0000001 */\n      0x30644e72e131a029b85045b68181585d2833e84879b9709143e1f593f0000001\n        /* \"contracts/CurveBabyJubJub.sol\":1222:1228  submod */\n      tag_105\n        /* \"contracts/CurveBabyJubJub.sol\":1222:1257  submod(y1y2, mulmod(A, x1x2, Q), Q) */\n      jump\t// in\n    tag_102:\n        /* \"contracts/CurveBabyJubJub.sol\":1206:1257  uint256 y3Num = submod(y1y2, mulmod(A, x1x2, Q), Q) */\n      swap1\n      pop\n        /* \"contracts/CurveBabyJubJub.sol\":384:450  0x30644E72E131A029B85045B68181585D2833E84879B9709143E1F593F0000001 */\n      0x30644e72e131a029b85045b68181585d2833e84879b9709143e1f593f0000001\n        /* \"contracts/CurveBabyJubJub.sol\":1275:1325  mulmod(x3Num, inverse(addmod(1, dx1x2y1y2, Q)), Q) */\n      dup1\n      tag_106\n      jumpi\n      tag_107\n      tag_89\n      jump\t// in\n    tag_107:\n    tag_106:\n        /* \"contracts/CurveBabyJubJub.sol\":1289:1321  inverse(addmod(1, dx1x2y1y2, Q)) */\n      tag_108\n        /* \"contracts/CurveBabyJubJub.sol\":384:450  0x30644E72E131A029B85045B68181585D2833E84879B9709143E1F593F0000001 */\n      0x30644e72e131a029b85045b68181585d2833e84879b9709143e1f593f0000001\n        /* \"contracts/CurveBabyJubJub.sol\":1297:1320  addmod(1, dx1x2y1y2, Q) */\n      dup1\n      tag_109\n      jumpi\n      tag_110\n      tag_89\n      jump\t// in\n    tag_110:\n    tag_109:\n        /* \"contracts/CurveBabyJubJub.sol\":1307:1316  dx1x2y1y2 */\n      dup6\n        /* \"contracts/CurveBabyJubJub.sol\":1304:1305  1 */\n      0x01\n        /* \"contracts/CurveBabyJubJub.sol\":1297:1320  addmod(1, dx1x2y1y2, Q) */\n      addmod\n        /* \"contracts/CurveBabyJubJub.sol\":1289:1296  inverse */\n      tag_111\n        /* \"contracts/CurveBabyJubJub.sol\":1289:1321  inverse(addmod(1, dx1x2y1y2, Q)) */\n      jump\t// in\n    tag_108:\n        /* \"contracts/CurveBabyJubJub.sol\":1282:1287  x3Num */\n      dup4\n        /* \"contracts/CurveBabyJubJub.sol\":1275:1325  mulmod(x3Num, inverse(addmod(1, dx1x2y1y2, Q)), Q) */\n      mulmod\n        /* \"contracts/CurveBabyJubJub.sol\":1270:1325  x3 = mulmod(x3Num, inverse(addmod(1, dx1x2y1y2, Q)), Q) */\n      swap7\n      pop\n        /* \"contracts/CurveBabyJubJub.sol\":384:450  0x30644E72E131A029B85045B68181585D2833E84879B9709143E1F593F0000001 */\n      0x30644e72e131a029b85045b68181585d2833e84879b9709143e1f593f0000001\n        /* \"contracts/CurveBabyJubJub.sol\":1341:1391  mulmod(y3Num, inverse(submod(1, dx1x2y1y2, Q)), Q) */\n      dup1\n      tag_112\n      jumpi\n      tag_113\n      tag_89\n      jump\t// in\n    tag_113:\n    tag_112:\n        /* \"contracts/CurveBabyJubJub.sol\":1355:1387  inverse(submod(1, dx1x2y1y2, Q)) */\n      tag_114\n        /* \"contracts/CurveBabyJubJub.sol\":1363:1386  submod(1, dx1x2y1y2, Q) */\n      tag_115\n        /* \"contracts/CurveBabyJubJub.sol\":1370:1371  1 */\n      0x01\n        /* \"contracts/CurveBabyJubJub.sol\":1373:1382  dx1x2y1y2 */\n      dup7\n        /* \"contracts/CurveBabyJubJub.sol\":384:450  0x30644E72E131A029B85045B68181585D2833E84879B9709143E1F593F0000001 */\n      0x30644e72e131a029b85045b68181585d2833e84879b9709143e1f593f0000001\n        /* \"contracts/CurveBabyJubJub.sol\":1363:1369  submod */\n      tag_105\n        /* \"contracts/CurveBabyJubJub.sol\":1363:1386  submod(1, dx1x2y1y2, Q) */\n      jump\t// in\n    tag_115:\n        /* \"contracts/CurveBabyJubJub.sol\":1355:1362  inverse */\n      tag_111\n        /* \"contracts/CurveBabyJubJub.sol\":1355:1387  inverse(submod(1, dx1x2y1y2, Q)) */\n      jump\t// in\n    tag_114:\n        /* \"contracts/CurveBabyJubJub.sol\":1348:1353  y3Num */\n      dup3\n        /* \"contracts/CurveBabyJubJub.sol\":1341:1391  mulmod(y3Num, inverse(submod(1, dx1x2y1y2, Q)), Q) */\n      mulmod\n        /* \"contracts/CurveBabyJubJub.sol\":1336:1391  y3 = mulmod(y3Num, inverse(submod(1, dx1x2y1y2, Q)), Q) */\n      swap6\n      pop\n        /* \"contracts/CurveBabyJubJub.sol\":797:1399  {... */\n      pop\n      pop\n      pop\n      pop\n      pop\n        /* \"contracts/CurveBabyJubJub.sol\":680:1399  function pointAdd(uint256 _x1, uint256 _y1, uint256 _x2, uint256 _y2) internal view returns (uint256 x3, uint256 y3) {... */\n    tag_82:\n      swap5\n      pop\n      swap5\n      swap3\n      pop\n      pop\n      pop\n      jump\t// out\n        /* \"contracts/VerifySigmaProtocol.sol\":2467:2652  function sumArray(uint256[][2] memory array) internal pure returns (uint256 sum) {... */\n    tag_44:\n        /* \"contracts/VerifySigmaProtocol.sol\":2535:2546  uint256 sum */\n      0x00\n        /* \"contracts/VerifySigmaProtocol.sol\":2564:2571  uint8 i */\n      dup1\n        /* \"contracts/VerifySigmaProtocol.sol\":2574:2575  0 */\n      0x00\n        /* \"contracts/VerifySigmaProtocol.sol\":2564:2575  uint8 i = 0 */\n      swap1\n      pop\n        /* \"contracts/VerifySigmaProtocol.sol\":2559:2645  for (uint8 i = 0; i < array.length; i++) {... */\n    tag_117:\n        /* \"contracts/VerifySigmaProtocol.sol\":2581:2593  array.length */\n      0x02\n        /* \"contracts/VerifySigmaProtocol.sol\":2577:2578  i */\n      dup2\n        /* \"contracts/VerifySigmaProtocol.sol\":2577:2593  i < array.length */\n      0xff\n      and\n      lt\n        /* \"contracts/VerifySigmaProtocol.sol\":2559:2645  for (uint8 i = 0; i < array.length; i++) {... */\n      iszero\n      tag_118\n      jumpi\n        /* \"contracts/VerifySigmaProtocol.sol\":2622:2627  array */\n      dup3\n        /* \"contracts/VerifySigmaProtocol.sol\":2628:2629  i */\n      dup2\n        /* \"contracts/VerifySigmaProtocol.sol\":2622:2630  array[i] */\n      0xff\n      and\n      0x02\n      dup2\n      lt\n      tag_120\n      jumpi\n      tag_121\n      tag_58\n      jump\t// in\n    tag_121:\n    tag_120:\n      0x20\n      mul\n      add\n      mload\n        /* \"contracts/VerifySigmaProtocol.sol\":2631:2632  0 */\n      0x00\n        /* \"contracts/VerifySigmaProtocol.sol\":2622:2633  array[i][0] */\n      dup2\n      mload\n      dup2\n      lt\n      tag_122\n      jumpi\n      tag_123\n      tag_58\n      jump\t// in\n    tag_123:\n    tag_122:\n      0x20\n      mul\n      0x20\n      add\n      add\n      mload\n        /* \"contracts/VerifySigmaProtocol.sol\":2615:2633  sum += array[i][0] */\n      dup3\n      tag_124\n      swap2\n      swap1\n      tag_47\n      jump\t// in\n    tag_124:\n      swap2\n      pop\n        /* \"contracts/VerifySigmaProtocol.sol\":2595:2598  i++ */\n      dup1\n      dup1\n      tag_125\n      swap1\n      tag_75\n      jump\t// in\n    tag_125:\n      swap2\n      pop\n      pop\n        /* \"contracts/VerifySigmaProtocol.sol\":2559:2645  for (uint8 i = 0; i < array.length; i++) {... */\n      jump(tag_117)\n    tag_118:\n      pop\n        /* \"contracts/VerifySigmaProtocol.sol\":2467:2652  function sumArray(uint256[][2] memory array) internal pure returns (uint256 sum) {... */\n      swap2\n      swap1\n      pop\n      jump\t// out\n        /* \"contracts/VerifySigmaProtocol.sol\":4458:5031  function uint2str(uint _i) internal pure returns (string memory _uintAsString) {... */\n    tag_49:\n        /* \"contracts/VerifySigmaProtocol.sol\":4508:4535  string memory _uintAsString */\n      0x60\n        /* \"contracts/VerifySigmaProtocol.sol\":4558:4559  0 */\n      0x00\n        /* \"contracts/VerifySigmaProtocol.sol\":4552:4554  _i */\n      dup3\n        /* \"contracts/VerifySigmaProtocol.sol\":4552:4559  _i == 0 */\n      sub\n        /* \"contracts/VerifySigmaProtocol.sol\":4548:4598  if (_i == 0) {... */\n      tag_127\n      jumpi\n        /* \"contracts/VerifySigmaProtocol.sol\":4576:4586  return \"0\" */\n      mload(0x40)\n      dup1\n      0x40\n      add\n      0x40\n      mstore\n      dup1\n      0x01\n      dup2\n      mstore\n      0x20\n      add\n      0x3000000000000000000000000000000000000000000000000000000000000000\n      dup2\n      mstore\n      pop\n      swap1\n      pop\n      jump(tag_126)\n        /* \"contracts/VerifySigmaProtocol.sol\":4548:4598  if (_i == 0) {... */\n    tag_127:\n        /* \"contracts/VerifySigmaProtocol.sol\":4608:4614  uint j */\n      0x00\n        /* \"contracts/VerifySigmaProtocol.sol\":4617:4619  _i */\n      dup3\n        /* \"contracts/VerifySigmaProtocol.sol\":4608:4619  uint j = _i */\n      swap1\n      pop\n        /* \"contracts/VerifySigmaProtocol.sol\":4630:4638  uint len */\n      0x00\n        /* \"contracts/VerifySigmaProtocol.sol\":4649:4718  while (j != 0) {... */\n    tag_128:\n        /* \"contracts/VerifySigmaProtocol.sol\":4661:4662  0 */\n      0x00\n        /* \"contracts/VerifySigmaProtocol.sol\":4656:4657  j */\n      dup3\n        /* \"contracts/VerifySigmaProtocol.sol\":4656:4662  j != 0 */\n      eq\n        /* \"contracts/VerifySigmaProtocol.sol\":4649:4718  while (j != 0) {... */\n      tag_129\n      jumpi\n        /* \"contracts/VerifySigmaProtocol.sol\":4679:4684  len++ */\n      dup1\n      dup1\n      tag_130\n      swap1\n      tag_131\n      jump\t// in\n    tag_130:\n      swap2\n      pop\n      pop\n        /* \"contracts/VerifySigmaProtocol.sol\":4704:4706  10 */\n      0x0a\n        /* \"contracts/VerifySigmaProtocol.sol\":4699:4706  j /= 10 */\n      dup3\n      tag_132\n      swap2\n      swap1\n      tag_133\n      jump\t// in\n    tag_132:\n      swap2\n      pop\n        /* \"contracts/VerifySigmaProtocol.sol\":4649:4718  while (j != 0) {... */\n      jump(tag_128)\n    tag_129:\n        /* \"contracts/VerifySigmaProtocol.sol\":4728:4745  bytes memory bstr */\n      0x00\n        /* \"contracts/VerifySigmaProtocol.sol\":4758:4761  len */\n      dup2\n        /* \"contracts/VerifySigmaProtocol.sol\":4748:4762  new bytes(len) */\n      0xffffffffffffffff\n      dup2\n      gt\n      iszero\n      tag_134\n      jumpi\n      tag_135\n      tag_136\n      jump\t// in\n    tag_135:\n    tag_134:\n      mload(0x40)\n      swap1\n      dup1\n      dup3\n      mstore\n      dup1\n      0x1f\n      add\n      not(0x1f)\n      and\n      0x20\n      add\n      dup3\n      add\n      0x40\n      mstore\n      dup1\n      iszero\n      tag_137\n      jumpi\n      dup2\n      0x20\n      add\n      0x01\n      dup3\n      mul\n      dup1\n      calldatasize\n      dup4\n      calldatacopy\n      dup1\n      dup3\n      add\n      swap2\n      pop\n      pop\n      swap1\n      pop\n    tag_137:\n      pop\n        /* \"contracts/VerifySigmaProtocol.sol\":4728:4762  bytes memory bstr = new bytes(len) */\n      swap1\n      pop\n        /* \"contracts/VerifySigmaProtocol.sol\":4773:4779  uint k */\n      0x00\n        /* \"contracts/VerifySigmaProtocol.sol\":4782:4785  len */\n      dup3\n        /* \"contracts/VerifySigmaProtocol.sol\":4773:4785  uint k = len */\n      swap1\n      pop\n        /* \"contracts/VerifySigmaProtocol.sol\":4796:4994  while (_i != 0) {... */\n    tag_138:\n        /* \"contracts/VerifySigmaProtocol.sol\":4809:4810  0 */\n      0x00\n        /* \"contracts/VerifySigmaProtocol.sol\":4803:4805  _i */\n      dup7\n        /* \"contracts/VerifySigmaProtocol.sol\":4803:4810  _i != 0 */\n      eq\n        /* \"contracts/VerifySigmaProtocol.sol\":4796:4994  while (_i != 0) {... */\n      tag_139\n      jumpi\n        /* \"contracts/VerifySigmaProtocol.sol\":4833:4834  1 */\n      0x01\n        /* \"contracts/VerifySigmaProtocol.sol\":4831:4832  k */\n      dup2\n        /* \"contracts/VerifySigmaProtocol.sol\":4831:4834  k-1 */\n      tag_140\n      swap2\n      swap1\n      tag_141\n      jump\t// in\n    tag_140:\n        /* \"contracts/VerifySigmaProtocol.sol\":4827:4834  k = k-1 */\n      swap1\n      pop\n        /* \"contracts/VerifySigmaProtocol.sol\":4849:4859  uint8 temp */\n      0x00\n        /* \"contracts/VerifySigmaProtocol.sol\":4889:4891  10 */\n      0x0a\n        /* \"contracts/VerifySigmaProtocol.sol\":4884:4886  10 */\n      dup1\n        /* \"contracts/VerifySigmaProtocol.sol\":4879:4881  _i */\n      dup9\n        /* \"contracts/VerifySigmaProtocol.sol\":4879:4886  _i / 10 */\n      tag_142\n      swap2\n      swap1\n      tag_133\n      jump\t// in\n    tag_142:\n        /* \"contracts/VerifySigmaProtocol.sol\":4879:4891  _i / 10 * 10 */\n      tag_143\n      swap2\n      swap1\n      tag_144\n      jump\t// in\n    tag_143:\n        /* \"contracts/VerifySigmaProtocol.sol\":4874:4876  _i */\n      dup8\n        /* \"contracts/VerifySigmaProtocol.sol\":4874:4891  _i - _i / 10 * 10 */\n      tag_145\n      swap2\n      swap1\n      tag_141\n      jump\t// in\n    tag_145:\n        /* \"contracts/VerifySigmaProtocol.sol\":4863:4865  48 */\n      0x30\n        /* \"contracts/VerifySigmaProtocol.sol\":4863:4892  48 + uint8(_i - _i / 10 * 10) */\n      tag_146\n      swap2\n      swap1\n      tag_147\n      jump\t// in\n    tag_146:\n        /* \"contracts/VerifySigmaProtocol.sol\":4849:4893  uint8 temp = (48 + uint8(_i - _i / 10 * 10)) */\n      swap1\n      pop\n        /* \"contracts/VerifySigmaProtocol.sol\":4908:4917  bytes1 b1 */\n      0x00\n        /* \"contracts/VerifySigmaProtocol.sol\":4927:4931  temp */\n      dup2\n        /* \"contracts/VerifySigmaProtocol.sol\":4920:4932  bytes1(temp) */\n      0xf8\n      shl\n        /* \"contracts/VerifySigmaProtocol.sol\":4908:4932  bytes1 b1 = bytes1(temp) */\n      swap1\n      pop\n        /* \"contracts/VerifySigmaProtocol.sol\":4957:4959  b1 */\n      dup1\n        /* \"contracts/VerifySigmaProtocol.sol\":4947:4951  bstr */\n      dup5\n        /* \"contracts/VerifySigmaProtocol.sol\":4952:4953  k */\n      dup5\n        /* \"contracts/VerifySigmaProtocol.sol\":4947:4954  bstr[k] */\n      dup2\n      mload\n      dup2\n      lt\n      tag_148\n      jumpi\n      tag_149\n      tag_58\n      jump\t// in\n    tag_149:\n    tag_148:\n      0x20\n      add\n      add\n        /* \"contracts/VerifySigmaProtocol.sol\":4947:4959  bstr[k] = b1 */\n      swap1\n      not(0xffffffffffffffffffffffffffffffffffffffffffffffffffffffffffffff)\n      and\n      swap1\n      dup2\n      0x00\n      byte\n      swap1\n      mstore8\n      pop\n        /* \"contracts/VerifySigmaProtocol.sol\":4980:4982  10 */\n      0x0a\n        /* \"contracts/VerifySigmaProtocol.sol\":4974:4982  _i /= 10 */\n      dup9\n      tag_150\n      swap2\n      swap1\n      tag_133\n      jump\t// in\n    tag_150:\n      swap8\n      pop\n        /* \"contracts/VerifySigmaProtocol.sol\":4812:4994  {... */\n      pop\n      pop\n        /* \"contracts/VerifySigmaProtocol.sol\":4796:4994  while (_i != 0) {... */\n      jump(tag_138)\n    tag_139:\n        /* \"contracts/VerifySigmaProtocol.sol\":5018:5022  bstr */\n      dup2\n        /* \"contracts/VerifySigmaProtocol.sol\":5004:5023  return string(bstr) */\n      swap5\n      pop\n      pop\n      pop\n      pop\n      pop\n        /* \"contracts/VerifySigmaProtocol.sol\":4458:5031  function uint2str(uint _i) internal pure returns (string memory _uintAsString) {... */\n    tag_126:\n      swap2\n      swap1\n      pop\n      jump\t// out\n        /* \"contracts/VerifySigmaProtocol.sol\":2660:3208  function validResponse1(uint256 z_1,... */\n    tag_63:\n        /* \"contracts/VerifySigmaProtocol.sol\":2804:2828  uint256[2] memory upkz_1 */\n      tag_152\n      tag_153\n      jump\t// in\n    tag_152:\n        /* \"contracts/VerifySigmaProtocol.sol\":2864:2909  CurveBabyJubJub.pointMul(upk[0], upk[1], z_1) */\n      tag_154\n        /* \"contracts/VerifySigmaProtocol.sol\":2889:2892  upk */\n      dup4\n        /* \"contracts/VerifySigmaProtocol.sol\":2893:2894  0 */\n      0x00\n        /* \"contracts/VerifySigmaProtocol.sol\":2889:2895  upk[0] */\n      0x02\n      dup2\n      lt\n      tag_155\n      jumpi\n      tag_156\n      tag_58\n      jump\t// in\n    tag_156:\n    tag_155:\n      0x20\n      mul\n      add\n      mload\n        /* \"contracts/VerifySigmaProtocol.sol\":2897:2900  upk */\n      dup5\n        /* \"contracts/VerifySigmaProtocol.sol\":2901:2902  1 */\n      0x01\n        /* \"contracts/VerifySigmaProtocol.sol\":2897:2903  upk[1] */\n      0x02\n      dup2\n      lt\n      tag_157\n      jumpi\n      tag_158\n      tag_58\n      jump\t// in\n    tag_158:\n    tag_157:\n      0x20\n      mul\n      add\n      mload\n        /* \"contracts/VerifySigmaProtocol.sol\":2905:2908  z_1 */\n      dup9\n        /* \"contracts/VerifySigmaProtocol.sol\":2864:2888  CurveBabyJubJub.pointMul */\n      tag_81\n        /* \"contracts/VerifySigmaProtocol.sol\":2864:2909  CurveBabyJubJub.pointMul(upk[0], upk[1], z_1) */\n      jump\t// in\n    tag_154:\n        /* \"contracts/VerifySigmaProtocol.sol\":2840:2846  upkz_1 */\n      dup3\n        /* \"contracts/VerifySigmaProtocol.sol\":2847:2848  0 */\n      0x00\n        /* \"contracts/VerifySigmaProtocol.sol\":2840:2849  upkz_1[0] */\n      0x02\n      dup2\n      lt\n      tag_159\n      jumpi\n      tag_160\n      tag_58\n      jump\t// in\n    tag_160:\n    tag_159:\n      0x20\n      mul\n      add\n        /* \"contracts/VerifySigmaProtocol.sol\":2851:2857  upkz_1 */\n      dup4\n        /* \"contracts/VerifySigmaProtocol.sol\":2858:2859  1 */\n      0x01\n        /* \"contracts/VerifySigmaProtocol.sol\":2851:2860  upkz_1[1] */\n      0x02\n      dup2\n      lt\n      tag_161\n      jumpi\n      tag_162\n      tag_58\n      jump\t// in\n    tag_162:\n    tag_161:\n      0x20\n      mul\n      add\n        /* \"contracts/VerifySigmaProtocol.sol\":2839:2909  (upkz_1[0], upkz_1[1]) = CurveBabyJubJub.pointMul(upk[0], upk[1], z_1) */\n      dup3\n      dup2\n      mstore\n      pop\n      dup3\n      dup2\n      mstore\n      pop\n      pop\n      pop\n        /* \"contracts/VerifySigmaProtocol.sol\":2920:2949  uint256[2] memory mediPoint_1 */\n      tag_163\n      tag_153\n      jump\t// in\n    tag_163:\n        /* \"contracts/VerifySigmaProtocol.sol\":2995:3034  CurveBabyJubJub.pointMul(X[0], X[1], e) */\n      tag_164\n        /* \"contracts/VerifySigmaProtocol.sol\":3020:3021  X */\n      dup7\n        /* \"contracts/VerifySigmaProtocol.sol\":3022:3023  0 */\n      0x00\n        /* \"contracts/VerifySigmaProtocol.sol\":3020:3024  X[0] */\n      dup2\n      mload\n      dup2\n      lt\n      tag_165\n      jumpi\n      tag_166\n      tag_58\n      jump\t// in\n    tag_166:\n    tag_165:\n      0x20\n      mul\n      0x20\n      add\n      add\n      mload\n        /* \"contracts/VerifySigmaProtocol.sol\":3026:3027  X */\n      dup8\n        /* \"contracts/VerifySigmaProtocol.sol\":3028:3029  1 */\n      0x01\n        /* \"contracts/VerifySigmaProtocol.sol\":3026:3030  X[1] */\n      dup2\n      mload\n      dup2\n      lt\n      tag_167\n      jumpi\n      tag_168\n      tag_58\n      jump\t// in\n    tag_168:\n    tag_167:\n      0x20\n      mul\n      0x20\n      add\n      add\n      mload\n        /* \"contracts/VerifySigmaProtocol.sol\":3032:3033  e */\n      dup6\n        /* \"contracts/VerifySigmaProtocol.sol\":2995:3019  CurveBabyJubJub.pointMul */\n      tag_81\n        /* \"contracts/VerifySigmaProtocol.sol\":2995:3034  CurveBabyJubJub.pointMul(X[0], X[1], e) */\n      jump\t// in\n    tag_164:\n        /* \"contracts/VerifySigmaProtocol.sol\":2961:2972  mediPoint_1 */\n      dup3\n        /* \"contracts/VerifySigmaProtocol.sol\":2973:2974  0 */\n      0x00\n        /* \"contracts/VerifySigmaProtocol.sol\":2961:2975  mediPoint_1[0] */\n      0x02\n      dup2\n      lt\n      tag_169\n      jumpi\n      tag_170\n      tag_58\n      jump\t// in\n    tag_170:\n    tag_169:\n      0x20\n      mul\n      add\n        /* \"contracts/VerifySigmaProtocol.sol\":2977:2988  mediPoint_1 */\n      dup4\n        /* \"contracts/VerifySigmaProtocol.sol\":2989:2990  1 */\n      0x01\n        /* \"contracts/VerifySigmaProtocol.sol\":2977:2991  mediPoint_1[1] */\n      0x02\n      dup2\n      lt\n      tag_171\n      jumpi\n      tag_172\n      tag_58\n      jump\t// in\n    tag_172:\n    tag_171:\n      0x20\n      mul\n      add\n        /* \"contracts/VerifySigmaProtocol.sol\":2960:3034  (mediPoint_1[0], mediPoint_1[1]) = CurveBabyJubJub.pointMul(X[0], X[1], e) */\n      dup3\n      dup2\n      mstore\n      pop\n      dup3\n      dup2\n      mstore\n      pop\n      pop\n      pop\n        /* \"contracts/VerifySigmaProtocol.sol\":3045:3066  uint256[2] memory AXe */\n      tag_173\n      tag_153\n      jump\t// in\n    tag_173:\n        /* \"contracts/VerifySigmaProtocol.sol\":3096:3164  CurveBabyJubJub.pointAdd(A[0], A[1], mediPoint_1[0], mediPoint_1[1]) */\n      tag_174\n        /* \"contracts/VerifySigmaProtocol.sol\":3121:3122  A */\n      dup7\n        /* \"contracts/VerifySigmaProtocol.sol\":3123:3124  0 */\n      0x00\n        /* \"contracts/VerifySigmaProtocol.sol\":3121:3125  A[0] */\n      dup2\n      mload\n      dup2\n      lt\n      tag_175\n      jumpi\n      tag_176\n      tag_58\n      jump\t// in\n    tag_176:\n    tag_175:\n      0x20\n      mul\n      0x20\n      add\n      add\n      mload\n        /* \"contracts/VerifySigmaProtocol.sol\":3127:3128  A */\n      dup8\n        /* \"contracts/VerifySigmaProtocol.sol\":3129:3130  1 */\n      0x01\n        /* \"contracts/VerifySigmaProtocol.sol\":3127:3131  A[1] */\n      dup2\n      mload\n      dup2\n      lt\n      tag_177\n      jumpi\n      tag_178\n      tag_58\n      jump\t// in\n    tag_178:\n    tag_177:\n      0x20\n      mul\n      0x20\n      add\n      add\n      mload\n        /* \"contracts/VerifySigmaProtocol.sol\":3133:3144  mediPoint_1 */\n      dup5\n        /* \"contracts/VerifySigmaProtocol.sol\":3145:3146  0 */\n      0x00\n        /* \"contracts/VerifySigmaProtocol.sol\":3133:3147  mediPoint_1[0] */\n      0x02\n      dup2\n      lt\n      tag_179\n      jumpi\n      tag_180\n      tag_58\n      jump\t// in\n    tag_180:\n    tag_179:\n      0x20\n      mul\n      add\n      mload\n        /* \"contracts/VerifySigmaProtocol.sol\":3149:3160  mediPoint_1 */\n      dup6\n        /* \"contracts/VerifySigmaProtocol.sol\":3161:3162  1 */\n      0x01\n        /* \"contracts/VerifySigmaProtocol.sol\":3149:3163  mediPoint_1[1] */\n      0x02\n      dup2\n      lt\n      tag_181\n      jumpi\n      tag_182\n      tag_58\n      jump\t// in\n    tag_182:\n    tag_181:\n      0x20\n      mul\n      add\n      mload\n        /* \"contracts/VerifySigmaProtocol.sol\":3096:3120  CurveBabyJubJub.pointAdd */\n      tag_31\n        /* \"contracts/VerifySigmaProtocol.sol\":3096:3164  CurveBabyJubJub.pointAdd(A[0], A[1], mediPoint_1[0], mediPoint_1[1]) */\n      jump\t// in\n    tag_174:\n        /* \"contracts/VerifySigmaProtocol.sol\":3078:3081  AXe */\n      dup3\n        /* \"contracts/VerifySigmaProtocol.sol\":3082:3083  0 */\n      0x00\n        /* \"contracts/VerifySigmaProtocol.sol\":3078:3084  AXe[0] */\n      0x02\n      dup2\n      lt\n      tag_183\n      jumpi\n      tag_184\n      tag_58\n      jump\t// in\n    tag_184:\n    tag_183:\n      0x20\n      mul\n      add\n        /* \"contracts/VerifySigmaProtocol.sol\":3086:3089  AXe */\n      dup4\n        /* \"contracts/VerifySigmaProtocol.sol\":3090:3091  1 */\n      0x01\n        /* \"contracts/VerifySigmaProtocol.sol\":3086:3092  AXe[1] */\n      0x02\n      dup2\n      lt\n      tag_185\n      jumpi\n      tag_186\n      tag_58\n      jump\t// in\n    tag_186:\n    tag_185:\n      0x20\n      mul\n      add\n        /* \"contracts/VerifySigmaProtocol.sol\":3077:3164  (AXe[0], AXe[1]) = CurveBabyJubJub.pointAdd(A[0], A[1], mediPoint_1[0], mediPoint_1[1]) */\n      dup3\n      dup2\n      mstore\n      pop\n      dup3\n      dup2\n      mstore\n      pop\n      pop\n      pop\n        /* \"contracts/VerifySigmaProtocol.sol\":3175:3200  compareArray(upkz_1, AXe) */\n      tag_187\n        /* \"contracts/VerifySigmaProtocol.sol\":3188:3194  upkz_1 */\n      dup4\n        /* \"contracts/VerifySigmaProtocol.sol\":3196:3199  AXe */\n      dup3\n        /* \"contracts/VerifySigmaProtocol.sol\":3175:3187  compareArray */\n      tag_188\n        /* \"contracts/VerifySigmaProtocol.sol\":3175:3200  compareArray(upkz_1, AXe) */\n      jump\t// in\n    tag_187:\n        /* \"contracts/VerifySigmaProtocol.sol\":2793:3208  {... */\n      pop\n      pop\n      pop\n        /* \"contracts/VerifySigmaProtocol.sol\":2660:3208  function validResponse1(uint256 z_1,... */\n      pop\n      pop\n      pop\n      pop\n      pop\n      jump\t// out\n        /* \"contracts/VerifySigmaProtocol.sol\":3216:4021  function validResponse2(uint256 z_1, uint256 z_2, ... */\n    tag_73:\n        /* \"contracts/VerifySigmaProtocol.sol\":3352:3381  uint256[2] memory mediPoint_1 */\n      tag_190\n      tag_153\n      jump\t// in\n    tag_190:\n        /* \"contracts/VerifySigmaProtocol.sol\":3427:3468  CurveBabyJubJub.pointMul(g[0], g[1], z_1) */\n      tag_191\n        /* \"contracts/VerifySigmaProtocol.sol\":3452:3453  g */\n      0x00\n        /* \"contracts/VerifySigmaProtocol.sol\":3454:3455  0 */\n      dup1\n        /* \"contracts/VerifySigmaProtocol.sol\":3452:3456  g[0] */\n      0x02\n      dup2\n      lt\n      tag_192\n      jumpi\n      tag_193\n      tag_58\n      jump\t// in\n    tag_193:\n    tag_192:\n      add\n      sload\n        /* \"contracts/VerifySigmaProtocol.sol\":3458:3459  g */\n      0x00\n        /* \"contracts/VerifySigmaProtocol.sol\":3460:3461  1 */\n      0x01\n        /* \"contracts/VerifySigmaProtocol.sol\":3458:3462  g[1] */\n      0x02\n      dup2\n      lt\n      tag_195\n      jumpi\n      tag_196\n      tag_58\n      jump\t// in\n    tag_196:\n    tag_195:\n      add\n      sload\n        /* \"contracts/VerifySigmaProtocol.sol\":3464:3467  z_1 */\n      dup9\n        /* \"contracts/VerifySigmaProtocol.sol\":3427:3451  CurveBabyJubJub.pointMul */\n      tag_81\n        /* \"contracts/VerifySigmaProtocol.sol\":3427:3468  CurveBabyJubJub.pointMul(g[0], g[1], z_1) */\n      jump\t// in\n    tag_191:\n        /* \"contracts/VerifySigmaProtocol.sol\":3393:3404  mediPoint_1 */\n      dup3\n        /* \"contracts/VerifySigmaProtocol.sol\":3405:3406  0 */\n      0x00\n        /* \"contracts/VerifySigmaProtocol.sol\":3393:3407  mediPoint_1[0] */\n      0x02\n      dup2\n      lt\n      tag_198\n      jumpi\n      tag_199\n      tag_58\n      jump\t// in\n    tag_199:\n    tag_198:\n      0x20\n      mul\n      add\n        /* \"contracts/VerifySigmaProtocol.sol\":3409:3420  mediPoint_1 */\n      dup4\n        /* \"contracts/VerifySigmaProtocol.sol\":3421:3422  1 */\n      0x01\n        /* \"contracts/VerifySigmaProtocol.sol\":3409:3423  mediPoint_1[1] */\n      0x02\n      dup2\n      lt\n      tag_200\n      jumpi\n      tag_201\n      tag_58\n      jump\t// in\n    tag_201:\n    tag_200:\n      0x20\n      mul\n      add\n        /* \"contracts/VerifySigmaProtocol.sol\":3392:3468  (mediPoint_1[0], mediPoint_1[1]) = CurveBabyJubJub.pointMul(g[0], g[1], z_1) */\n      dup3\n      dup2\n      mstore\n      pop\n      dup3\n      dup2\n      mstore\n      pop\n      pop\n      pop\n        /* \"contracts/VerifySigmaProtocol.sol\":3479:3508  uint256[2] memory mediPoint_2 */\n      tag_202\n      tag_153\n      jump\t// in\n    tag_202:\n        /* \"contracts/VerifySigmaProtocol.sol\":3554:3595  CurveBabyJubJub.pointMul(h[0], h[1], z_2) */\n      tag_203\n        /* \"contracts/VerifySigmaProtocol.sol\":3579:3580  h */\n      0x02\n        /* \"contracts/VerifySigmaProtocol.sol\":3581:3582  0 */\n      0x00\n        /* \"contracts/VerifySigmaProtocol.sol\":3579:3583  h[0] */\n      0x02\n      dup2\n      lt\n      tag_204\n      jumpi\n      tag_205\n      tag_58\n      jump\t// in\n    tag_205:\n    tag_204:\n      add\n      sload\n        /* \"contracts/VerifySigmaProtocol.sol\":3585:3586  h */\n      0x02\n        /* \"contracts/VerifySigmaProtocol.sol\":3587:3588  1 */\n      0x01\n        /* \"contracts/VerifySigmaProtocol.sol\":3585:3589  h[1] */\n      0x02\n      dup2\n      lt\n      tag_207\n      jumpi\n      tag_208\n      tag_58\n      jump\t// in\n    tag_208:\n    tag_207:\n      add\n      sload\n        /* \"contracts/VerifySigmaProtocol.sol\":3591:3594  z_2 */\n      dup9\n        /* \"contracts/VerifySigmaProtocol.sol\":3554:3578  CurveBabyJubJub.pointMul */\n      tag_81\n        /* \"contracts/VerifySigmaProtocol.sol\":3554:3595  CurveBabyJubJub.pointMul(h[0], h[1], z_2) */\n      jump\t// in\n    tag_203:\n        /* \"contracts/VerifySigmaProtocol.sol\":3520:3531  mediPoint_2 */\n      dup3\n        /* \"contracts/VerifySigmaProtocol.sol\":3532:3533  0 */\n      0x00\n        /* \"contracts/VerifySigmaProtocol.sol\":3520:3534  mediPoint_2[0] */\n      0x02\n      dup2\n      lt\n      tag_210\n      jumpi\n      tag_211\n      tag_58\n      jump\t// in\n    tag_211:\n    tag_210:\n      0x20\n      mul\n      add\n        /* \"contracts/VerifySigmaProtocol.sol\":3536:3547  mediPoint_2 */\n      dup4\n        /* \"contracts/VerifySigmaProtocol.sol\":3548:3549  1 */\n      0x01\n        /* \"contracts/VerifySigmaProtocol.sol\":3536:3550  mediPoint_2[1] */\n      0x02\n      dup2\n      lt\n      tag_212\n      jumpi\n      tag_213\n      tag_58\n      jump\t// in\n    tag_213:\n    tag_212:\n      0x20\n      mul\n      add\n        /* \"contracts/VerifySigmaProtocol.sol\":3519:3595  (mediPoint_2[0], mediPoint_2[1]) = CurveBabyJubJub.pointMul(h[0], h[1], z_2) */\n      dup3\n      dup2\n      mstore\n      pop\n      dup3\n      dup2\n      mstore\n      pop\n      pop\n      pop\n        /* \"contracts/VerifySigmaProtocol.sol\":3606:3632  uint256[2] memory gz_1hz_2 */\n      tag_214\n      tag_153\n      jump\t// in\n    tag_214:\n        /* \"contracts/VerifySigmaProtocol.sol\":3672:3760  CurveBabyJubJub.pointAdd(mediPoint_1[0], mediPoint_1[1], mediPoint_2[0], mediPoint_2[1]) */\n      tag_215\n        /* \"contracts/VerifySigmaProtocol.sol\":3697:3708  mediPoint_1 */\n      dup4\n        /* \"contracts/VerifySigmaProtocol.sol\":3709:3710  0 */\n      0x00\n        /* \"contracts/VerifySigmaProtocol.sol\":3697:3711  mediPoint_1[0] */\n      0x02\n      dup2\n      lt\n      tag_216\n      jumpi\n      tag_217\n      tag_58\n      jump\t// in\n    tag_217:\n    tag_216:\n      0x20\n      mul\n      add\n      mload\n        /* \"contracts/VerifySigmaProtocol.sol\":3713:3724  mediPoint_1 */\n      dup5\n        /* \"contracts/VerifySigmaProtocol.sol\":3725:3726  1 */\n      0x01\n        /* \"contracts/VerifySigmaProtocol.sol\":3713:3727  mediPoint_1[1] */\n      0x02\n      dup2\n      lt\n      tag_218\n      jumpi\n      tag_219\n      tag_58\n      jump\t// in\n    tag_219:\n    tag_218:\n      0x20\n      mul\n      add\n      mload\n        /* \"contracts/VerifySigmaProtocol.sol\":3729:3740  mediPoint_2 */\n      dup5\n        /* \"contracts/VerifySigmaProtocol.sol\":3741:3742  0 */\n      0x00\n        /* \"contracts/VerifySigmaProtocol.sol\":3729:3743  mediPoint_2[0] */\n      0x02\n      dup2\n      lt\n      tag_220\n      jumpi\n      tag_221\n      tag_58\n      jump\t// in\n    tag_221:\n    tag_220:\n      0x20\n      mul\n      add\n      mload\n        /* \"contracts/VerifySigmaProtocol.sol\":3745:3756  mediPoint_2 */\n      dup6\n        /* \"contracts/VerifySigmaProtocol.sol\":3757:3758  1 */\n      0x01\n        /* \"contracts/VerifySigmaProtocol.sol\":3745:3759  mediPoint_2[1] */\n      0x02\n      dup2\n      lt\n      tag_222\n      jumpi\n      tag_223\n      tag_58\n      jump\t// in\n    tag_223:\n    tag_222:\n      0x20\n      mul\n      add\n      mload\n        /* \"contracts/VerifySigmaProtocol.sol\":3672:3696  CurveBabyJubJub.pointAdd */\n      tag_31\n        /* \"contracts/VerifySigmaProtocol.sol\":3672:3760  CurveBabyJubJub.pointAdd(mediPoint_1[0], mediPoint_1[1], mediPoint_2[0], mediPoint_2[1]) */\n      jump\t// in\n    tag_215:\n        /* \"contracts/VerifySigmaProtocol.sol\":3644:3652  gz_1hz_2 */\n      dup3\n        /* \"contracts/VerifySigmaProtocol.sol\":3653:3654  0 */\n      0x00\n        /* \"contracts/VerifySigmaProtocol.sol\":3644:3655  gz_1hz_2[0] */\n      0x02\n      dup2\n      lt\n      tag_224\n      jumpi\n      tag_225\n      tag_58\n      jump\t// in\n    tag_225:\n    tag_224:\n      0x20\n      mul\n      add\n        /* \"contracts/VerifySigmaProtocol.sol\":3657:3665  gz_1hz_2 */\n      dup4\n        /* \"contracts/VerifySigmaProtocol.sol\":3666:3667  1 */\n      0x01\n        /* \"contracts/VerifySigmaProtocol.sol\":3657:3668  gz_1hz_2[1] */\n      0x02\n      dup2\n      lt\n      tag_226\n      jumpi\n      tag_227\n      tag_58\n      jump\t// in\n    tag_227:\n    tag_226:\n      0x20\n      mul\n      add\n        /* \"contracts/VerifySigmaProtocol.sol\":3643:3760  (gz_1hz_2[0], gz_1hz_2[1]) = CurveBabyJubJub.pointAdd(mediPoint_1[0], mediPoint_1[1], mediPoint_2[0], mediPoint_2[1]) */\n      dup3\n      dup2\n      mstore\n      pop\n      dup3\n      dup2\n      mstore\n      pop\n      pop\n      pop\n        /* \"contracts/VerifySigmaProtocol.sol\":3806:3845  CurveBabyJubJub.pointMul(Y[0], Y[1], e) */\n      tag_228\n        /* \"contracts/VerifySigmaProtocol.sol\":3831:3832  Y */\n      dup7\n        /* \"contracts/VerifySigmaProtocol.sol\":3833:3834  0 */\n      0x00\n        /* \"contracts/VerifySigmaProtocol.sol\":3831:3835  Y[0] */\n      dup2\n      mload\n      dup2\n      lt\n      tag_229\n      jumpi\n      tag_230\n      tag_58\n      jump\t// in\n    tag_230:\n    tag_229:\n      0x20\n      mul\n      0x20\n      add\n      add\n      mload\n        /* \"contracts/VerifySigmaProtocol.sol\":3837:3838  Y */\n      dup8\n        /* \"contracts/VerifySigmaProtocol.sol\":3839:3840  1 */\n      0x01\n        /* \"contracts/VerifySigmaProtocol.sol\":3837:3841  Y[1] */\n      dup2\n      mload\n      dup2\n      lt\n      tag_231\n      jumpi\n      tag_232\n      tag_58\n      jump\t// in\n    tag_232:\n    tag_231:\n      0x20\n      mul\n      0x20\n      add\n      add\n      mload\n        /* \"contracts/VerifySigmaProtocol.sol\":3843:3844  e */\n      dup7\n        /* \"contracts/VerifySigmaProtocol.sol\":3806:3830  CurveBabyJubJub.pointMul */\n      tag_81\n        /* \"contracts/VerifySigmaProtocol.sol\":3806:3845  CurveBabyJubJub.pointMul(Y[0], Y[1], e) */\n      jump\t// in\n    tag_228:\n        /* \"contracts/VerifySigmaProtocol.sol\":3772:3783  mediPoint_1 */\n      dup5\n        /* \"contracts/VerifySigmaProtocol.sol\":3784:3785  0 */\n      0x00\n        /* \"contracts/VerifySigmaProtocol.sol\":3772:3786  mediPoint_1[0] */\n      0x02\n      dup2\n      lt\n      tag_233\n      jumpi\n      tag_234\n      tag_58\n      jump\t// in\n    tag_234:\n    tag_233:\n      0x20\n      mul\n      add\n        /* \"contracts/VerifySigmaProtocol.sol\":3788:3799  mediPoint_1 */\n      dup6\n        /* \"contracts/VerifySigmaProtocol.sol\":3800:3801  1 */\n      0x01\n        /* \"contracts/VerifySigmaProtocol.sol\":3788:3802  mediPoint_1[1] */\n      0x02\n      dup2\n      lt\n      tag_235\n      jumpi\n      tag_236\n      tag_58\n      jump\t// in\n    tag_236:\n    tag_235:\n      0x20\n      mul\n      add\n        /* \"contracts/VerifySigmaProtocol.sol\":3771:3845  (mediPoint_1[0], mediPoint_1[1]) = CurveBabyJubJub.pointMul(Y[0], Y[1], e) */\n      dup3\n      dup2\n      mstore\n      pop\n      dup3\n      dup2\n      mstore\n      pop\n      pop\n      pop\n        /* \"contracts/VerifySigmaProtocol.sol\":3856:3877  uint256[2] memory BYe */\n      tag_237\n      tag_153\n      jump\t// in\n    tag_237:\n        /* \"contracts/VerifySigmaProtocol.sol\":3907:3975  CurveBabyJubJub.pointAdd(B[0], B[1], mediPoint_1[0], mediPoint_1[1]) */\n      tag_238\n        /* \"contracts/VerifySigmaProtocol.sol\":3932:3933  B */\n      dup7\n        /* \"contracts/VerifySigmaProtocol.sol\":3934:3935  0 */\n      0x00\n        /* \"contracts/VerifySigmaProtocol.sol\":3932:3936  B[0] */\n      dup2\n      mload\n      dup2\n      lt\n      tag_239\n      jumpi\n      tag_240\n      tag_58\n      jump\t// in\n    tag_240:\n    tag_239:\n      0x20\n      mul\n      0x20\n      add\n      add\n      mload\n        /* \"contracts/VerifySigmaProtocol.sol\":3938:3939  B */\n      dup8\n        /* \"contracts/VerifySigmaProtocol.sol\":3940:3941  1 */\n      0x01\n        /* \"contracts/VerifySigmaProtocol.sol\":3938:3942  B[1] */\n      dup2\n      mload\n      dup2\n      lt\n      tag_241\n      jumpi\n      tag_242\n      tag_58\n      jump\t// in\n    tag_242:\n    tag_241:\n      0x20\n      mul\n      0x20\n      add\n      add\n      mload\n        /* \"contracts/VerifySigmaProtocol.sol\":3944:3955  mediPoint_1 */\n      dup7\n        /* \"contracts/VerifySigmaProtocol.sol\":3956:3957  0 */\n      0x00\n        /* \"contracts/VerifySigmaProtocol.sol\":3944:3958  mediPoint_1[0] */\n      0x02\n      dup2\n      lt\n      tag_243\n      jumpi\n      tag_244\n      tag_58\n      jump\t// in\n    tag_244:\n    tag_243:\n      0x20\n      mul\n      add\n      mload\n        /* \"contracts/VerifySigmaProtocol.sol\":3960:3971  mediPoint_1 */\n      dup8\n        /* \"contracts/VerifySigmaProtocol.sol\":3972:3973  1 */\n      0x01\n        /* \"contracts/VerifySigmaProtocol.sol\":3960:3974  mediPoint_1[1] */\n      0x02\n      dup2\n      lt\n      tag_245\n      jumpi\n      tag_246\n      tag_58\n      jump\t// in\n    tag_246:\n    tag_245:\n      0x20\n      mul\n      add\n      mload\n        /* \"contracts/VerifySigmaProtocol.sol\":3907:3931  CurveBabyJubJub.pointAdd */\n      tag_31\n        /* \"contracts/VerifySigmaProtocol.sol\":3907:3975  CurveBabyJubJub.pointAdd(B[0], B[1], mediPoint_1[0], mediPoint_1[1]) */\n      jump\t// in\n    tag_238:\n        /* \"contracts/VerifySigmaProtocol.sol\":3889:3892  BYe */\n      dup3\n        /* \"contracts/VerifySigmaProtocol.sol\":3893:3894  0 */\n      0x00\n        /* \"contracts/VerifySigmaProtocol.sol\":3889:3895  BYe[0] */\n      0x02\n      dup2\n      lt\n      tag_247\n      jumpi\n      tag_248\n      tag_58\n      jump\t// in\n    tag_248:\n    tag_247:\n      0x20\n      mul\n      add\n        /* \"contracts/VerifySigmaProtocol.sol\":3897:3900  BYe */\n      dup4\n        /* \"contracts/VerifySigmaProtocol.sol\":3901:3902  1 */\n      0x01\n        /* \"contracts/VerifySigmaProtocol.sol\":3897:3903  BYe[1] */\n      0x02\n      dup2\n      lt\n      tag_249\n      jumpi\n      tag_250\n      tag_58\n      jump\t// in\n    tag_250:\n    tag_249:\n      0x20\n      mul\n      add\n        /* \"contracts/VerifySigmaProtocol.sol\":3888:3975  (BYe[0], BYe[1]) = CurveBabyJubJub.pointAdd(B[0], B[1], mediPoint_1[0], mediPoint_1[1]) */\n      dup3\n      dup2\n      mstore\n      pop\n      dup3\n      dup2\n      mstore\n      pop\n      pop\n      pop\n        /* \"contracts/VerifySigmaProtocol.sol\":3986:4013  compareArray(gz_1hz_2, BYe) */\n      tag_251\n        /* \"contracts/VerifySigmaProtocol.sol\":3999:4007  gz_1hz_2 */\n      dup3\n        /* \"contracts/VerifySigmaProtocol.sol\":4009:4012  BYe */\n      dup3\n        /* \"contracts/VerifySigmaProtocol.sol\":3986:3998  compareArray */\n      tag_188\n        /* \"contracts/VerifySigmaProtocol.sol\":3986:4013  compareArray(gz_1hz_2, BYe) */\n      jump\t// in\n    tag_251:\n        /* \"contracts/VerifySigmaProtocol.sol\":3341:4021  {... */\n      pop\n      pop\n      pop\n      pop\n        /* \"contracts/VerifySigmaProtocol.sol\":3216:4021  function validResponse2(uint256 z_1, uint256 z_2, ... */\n      pop\n      pop\n      pop\n      pop\n      pop\n      jump\t// out\n        /* \"contracts/CurveBabyJubJub.sol\":1542:1690  function pointDouble(uint256 _x1, uint256 _y1) internal view returns (uint256 x2, uint256 y2) {... */\n    tag_78:\n        /* \"contracts/CurveBabyJubJub.sol\":1612:1622  uint256 x2 */\n      0x00\n        /* \"contracts/CurveBabyJubJub.sol\":1624:1634  uint256 y2 */\n      dup1\n        /* \"contracts/CurveBabyJubJub.sol\":1654:1682  pointAdd(_x1, _y1, _x1, _y1) */\n      tag_253\n        /* \"contracts/CurveBabyJubJub.sol\":1663:1666  _x1 */\n      dup5\n        /* \"contracts/CurveBabyJubJub.sol\":1668:1671  _y1 */\n      dup5\n        /* \"contracts/CurveBabyJubJub.sol\":1673:1676  _x1 */\n      dup7\n        /* \"contracts/CurveBabyJubJub.sol\":1678:1681  _y1 */\n      dup7\n        /* \"contracts/CurveBabyJubJub.sol\":1654:1662  pointAdd */\n      tag_31\n        /* \"contracts/CurveBabyJubJub.sol\":1654:1682  pointAdd(_x1, _y1, _x1, _y1) */\n      jump\t// in\n    tag_253:\n        /* \"contracts/CurveBabyJubJub.sol\":1647:1682  return pointAdd(_x1, _y1, _x1, _y1) */\n      swap2\n      pop\n      swap2\n      pop\n        /* \"contracts/CurveBabyJubJub.sol\":1542:1690  function pointDouble(uint256 _x1, uint256 _y1) internal view returns (uint256 x2, uint256 y2) {... */\n      swap3\n      pop\n      swap3\n      swap1\n      pop\n      jump\t// out\n        /* \"contracts/CurveBabyJubJub.sol\":1820:2399  function pointMul(uint256 _x1, uint256 _y1, uint256 _d) internal view returns (uint256 x2, uint256 y2) {... */\n    tag_81:\n        /* \"contracts/CurveBabyJubJub.sol\":1899:1909  uint256 x2 */\n      0x00\n        /* \"contracts/CurveBabyJubJub.sol\":1911:1921  uint256 y2 */\n      dup1\n        /* \"contracts/CurveBabyJubJub.sol\":1934:1951  uint256 remaining */\n      0x00\n        /* \"contracts/CurveBabyJubJub.sol\":1954:1956  _d */\n      dup4\n        /* \"contracts/CurveBabyJubJub.sol\":1934:1956  uint256 remaining = _d */\n      swap1\n      pop\n        /* \"contracts/CurveBabyJubJub.sol\":1969:1979  uint256 px */\n      0x00\n        /* \"contracts/CurveBabyJubJub.sol\":1982:1985  _x1 */\n      dup7\n        /* \"contracts/CurveBabyJubJub.sol\":1969:1985  uint256 px = _x1 */\n      swap1\n      pop\n        /* \"contracts/CurveBabyJubJub.sol\":1996:2006  uint256 py */\n      0x00\n        /* \"contracts/CurveBabyJubJub.sol\":2009:2012  _y1 */\n      dup7\n        /* \"contracts/CurveBabyJubJub.sol\":1996:2012  uint256 py = _y1 */\n      swap1\n      pop\n        /* \"contracts/CurveBabyJubJub.sol\":2023:2033  uint256 ax */\n      0x00\n        /* \"contracts/CurveBabyJubJub.sol\":2048:2058  uint256 ay */\n      dup1\n        /* \"contracts/CurveBabyJubJub.sol\":2075:2354  while (remaining != 0) {... */\n    tag_255:\n        /* \"contracts/CurveBabyJubJub.sol\":2095:2096  0 */\n      0x00\n        /* \"contracts/CurveBabyJubJub.sol\":2082:2091  remaining */\n      dup6\n        /* \"contracts/CurveBabyJubJub.sol\":2082:2096  remaining != 0 */\n      eq\n        /* \"contracts/CurveBabyJubJub.sol\":2075:2354  while (remaining != 0) {... */\n      tag_256\n      jumpi\n        /* \"contracts/CurveBabyJubJub.sol\":2136:2137  0 */\n      0x00\n        /* \"contracts/CurveBabyJubJub.sol\":2130:2131  1 */\n      0x01\n        /* \"contracts/CurveBabyJubJub.sol\":2118:2127  remaining */\n      dup7\n        /* \"contracts/CurveBabyJubJub.sol\":2118:2131  remaining & 1 */\n      and\n        /* \"contracts/CurveBabyJubJub.sol\":2117:2137  (remaining & 1) != 0 */\n      eq\n        /* \"contracts/CurveBabyJubJub.sol\":2113:2254  if ((remaining & 1) != 0) {... */\n      tag_257\n      jumpi\n        /* \"contracts/CurveBabyJubJub.sol\":2214:2238  pointAdd(ax, ay, px, py) */\n      tag_258\n        /* \"contracts/CurveBabyJubJub.sol\":2223:2225  ax */\n      dup3\n        /* \"contracts/CurveBabyJubJub.sol\":2227:2229  ay */\n      dup3\n        /* \"contracts/CurveBabyJubJub.sol\":2231:2233  px */\n      dup7\n        /* \"contracts/CurveBabyJubJub.sol\":2235:2237  py */\n      dup7\n        /* \"contracts/CurveBabyJubJub.sol\":2214:2222  pointAdd */\n      tag_31\n        /* \"contracts/CurveBabyJubJub.sol\":2214:2238  pointAdd(ax, ay, px, py) */\n      jump\t// in\n    tag_258:\n        /* \"contracts/CurveBabyJubJub.sol\":2203:2238  (ax, ay) = pointAdd(ax, ay, px, py) */\n      dup1\n      swap3\n      pop\n      dup2\n      swap4\n      pop\n      pop\n      pop\n        /* \"contracts/CurveBabyJubJub.sol\":2113:2254  if ((remaining & 1) != 0) {... */\n    tag_257:\n        /* \"contracts/CurveBabyJubJub.sol\":2281:2300  pointDouble(px, py) */\n      tag_259\n        /* \"contracts/CurveBabyJubJub.sol\":2293:2295  px */\n      dup5\n        /* \"contracts/CurveBabyJubJub.sol\":2297:2299  py */\n      dup5\n        /* \"contracts/CurveBabyJubJub.sol\":2281:2292  pointDouble */\n      tag_78\n        /* \"contracts/CurveBabyJubJub.sol\":2281:2300  pointDouble(px, py) */\n      jump\t// in\n    tag_259:\n        /* \"contracts/CurveBabyJubJub.sol\":2270:2300  (px, py) = pointDouble(px, py) */\n      dup1\n      swap5\n      pop\n      dup2\n      swap6\n      pop\n      pop\n      pop\n        /* \"contracts/CurveBabyJubJub.sol\":2341:2342  2 */\n      0x02\n        /* \"contracts/CurveBabyJubJub.sol\":2329:2338  remaining */\n      dup6\n        /* \"contracts/CurveBabyJubJub.sol\":2329:2342  remaining / 2 */\n      tag_260\n      swap2\n      swap1\n      tag_133\n      jump\t// in\n    tag_260:\n        /* \"contracts/CurveBabyJubJub.sol\":2317:2342  remaining = remaining / 2 */\n      swap5\n      pop\n        /* \"contracts/CurveBabyJubJub.sol\":2075:2354  while (remaining != 0) {... */\n      jump(tag_255)\n    tag_256:\n        /* \"contracts/CurveBabyJubJub.sol\":2371:2373  ax */\n      dup2\n        /* \"contracts/CurveBabyJubJub.sol\":2366:2373  x2 = ax */\n      swap7\n      pop\n        /* \"contracts/CurveBabyJubJub.sol\":2389:2391  ay */\n      dup1\n        /* \"contracts/CurveBabyJubJub.sol\":2384:2391  y2 = ay */\n      swap6\n      pop\n        /* \"contracts/CurveBabyJubJub.sol\":1923:2399  {... */\n      pop\n      pop\n      pop\n      pop\n      pop\n        /* \"contracts/CurveBabyJubJub.sol\":1820:2399  function pointMul(uint256 _x1, uint256 _y1, uint256 _d) internal view returns (uint256 x2, uint256 y2) {... */\n      swap4\n      pop\n      swap4\n      swap2\n      pop\n      pop\n      jump\t// out\n        /* \"contracts/CurveBabyJubJub.sol\":2932:3162  function submod(uint256 _a, uint256 _b, uint256 _mod) internal pure returns (uint256) {... */\n    tag_105:\n        /* \"contracts/CurveBabyJubJub.sol\":3009:3016  uint256 */\n      0x00\n        /* \"contracts/CurveBabyJubJub.sol\":3029:3040  uint256 aNN */\n      dup1\n        /* \"contracts/CurveBabyJubJub.sol\":3043:3045  _a */\n      dup5\n        /* \"contracts/CurveBabyJubJub.sol\":3029:3045  uint256 aNN = _a */\n      swap1\n      pop\n        /* \"contracts/CurveBabyJubJub.sol\":3068:3070  _b */\n      dup4\n        /* \"contracts/CurveBabyJubJub.sol\":3062:3064  _a */\n      dup6\n        /* \"contracts/CurveBabyJubJub.sol\":3062:3070  _a <= _b */\n      gt\n        /* \"contracts/CurveBabyJubJub.sol\":3058:3110  if (_a <= _b) {... */\n      tag_262\n      jumpi\n        /* \"contracts/CurveBabyJubJub.sol\":3094:3098  _mod */\n      dup3\n        /* \"contracts/CurveBabyJubJub.sol\":3087:3098  aNN += _mod */\n      dup2\n      tag_263\n      swap2\n      swap1\n      tag_47\n      jump\t// in\n    tag_263:\n      swap1\n      pop\n        /* \"contracts/CurveBabyJubJub.sol\":3058:3110  if (_a <= _b) {... */\n    tag_262:\n        /* \"contracts/CurveBabyJubJub.sol\":3149:3153  _mod */\n      dup3\n        /* \"contracts/CurveBabyJubJub.sol\":3129:3154  addmod(aNN - _b, 0, _mod) */\n      dup1\n      tag_264\n      jumpi\n      tag_265\n      tag_89\n      jump\t// in\n    tag_265:\n    tag_264:\n        /* \"contracts/CurveBabyJubJub.sol\":3146:3147  0 */\n      0x00\n        /* \"contracts/CurveBabyJubJub.sol\":3142:3144  _b */\n      dup6\n        /* \"contracts/CurveBabyJubJub.sol\":3136:3139  aNN */\n      dup4\n        /* \"contracts/CurveBabyJubJub.sol\":3136:3144  aNN - _b */\n      tag_266\n      swap2\n      swap1\n      tag_141\n      jump\t// in\n    tag_266:\n        /* \"contracts/CurveBabyJubJub.sol\":3129:3154  addmod(aNN - _b, 0, _mod) */\n      addmod\n        /* \"contracts/CurveBabyJubJub.sol\":3122:3154  return addmod(aNN - _b, 0, _mod) */\n      swap2\n      pop\n      pop\n        /* \"contracts/CurveBabyJubJub.sol\":2932:3162  function submod(uint256 _a, uint256 _b, uint256 _mod) internal pure returns (uint256) {... */\n      swap4\n      swap3\n      pop\n      pop\n      pop\n      jump\t// out\n        /* \"contracts/CurveBabyJubJub.sol\":3237:3500  function inverse(uint256 _a) internal view returns (uint256) {... */\n    tag_111:\n        /* \"contracts/CurveBabyJubJub.sol\":3289:3296  uint256 */\n      0x00\n        /* \"contracts/CurveBabyJubJub.sol\":3472:3492  expmod(_a, Q - 2, Q) */\n      tag_268\n        /* \"contracts/CurveBabyJubJub.sol\":3479:3481  _a */\n      dup3\n        /* \"contracts/CurveBabyJubJub.sol\":3487:3488  2 */\n      0x02\n        /* \"contracts/CurveBabyJubJub.sol\":384:450  0x30644E72E131A029B85045B68181585D2833E84879B9709143E1F593F0000001 */\n      0x30644e72e131a029b85045b68181585d2833e84879b9709143e1f593f0000001\n        /* \"contracts/CurveBabyJubJub.sol\":3483:3488  Q - 2 */\n      tag_269\n      swap2\n      swap1\n      tag_141\n      jump\t// in\n    tag_269:\n        /* \"contracts/CurveBabyJubJub.sol\":384:450  0x30644E72E131A029B85045B68181585D2833E84879B9709143E1F593F0000001 */\n      0x30644e72e131a029b85045b68181585d2833e84879b9709143e1f593f0000001\n        /* \"contracts/CurveBabyJubJub.sol\":3472:3478  expmod */\n      tag_270\n        /* \"contracts/CurveBabyJubJub.sol\":3472:3492  expmod(_a, Q - 2, Q) */\n      jump\t// in\n    tag_268:\n        /* \"contracts/CurveBabyJubJub.sol\":3465:3492  return expmod(_a, Q - 2, Q) */\n      swap1\n      pop\n        /* \"contracts/CurveBabyJubJub.sol\":3237:3500  function inverse(uint256 _a) internal view returns (uint256) {... */\n      swap2\n      swap1\n      pop\n      jump\t// out\n        /* \"contracts/VerifySigmaProtocol.sol\":4029:4450  function compareArray(uint256[2] memory array1, uint256[2] memory array2) internal pure {... */\n    tag_188:\n        /* \"contracts/VerifySigmaProtocol.sol\":4149:4162  array2.length */\n      0x02\n        /* \"contracts/VerifySigmaProtocol.sol\":4132:4145  array1.length */\n      dup1\n        /* \"contracts/VerifySigmaProtocol.sol\":4132:4162  array1.length != array2.length */\n      eq\n        /* \"contracts/VerifySigmaProtocol.sol\":4128:4443  if (array1.length != array2.length) {... */\n      tag_272\n      jumpi\n        /* \"contracts/VerifySigmaProtocol.sol\":4179:4225  revert(\"valid failed, array length not equal\") */\n      mload(0x40)\n      0x08c379a000000000000000000000000000000000000000000000000000000000\n      dup2\n      mstore\n      0x04\n      add\n      tag_273\n      swap1\n      tag_274\n      jump\t// in\n    tag_273:\n      mload(0x40)\n      dup1\n      swap2\n      sub\n      swap1\n      revert\n        /* \"contracts/VerifySigmaProtocol.sol\":4128:4443  if (array1.length != array2.length) {... */\n    tag_272:\n        /* \"contracts/VerifySigmaProtocol.sol\":4263:4270  uint8 i */\n      0x00\n        /* \"contracts/VerifySigmaProtocol.sol\":4258:4432  for (uint8 i = 0; i < array1.length; i++) {... */\n    tag_276:\n        /* \"contracts/VerifySigmaProtocol.sol\":4280:4293  array1.length */\n      0x02\n        /* \"contracts/VerifySigmaProtocol.sol\":4276:4277  i */\n      dup2\n        /* \"contracts/VerifySigmaProtocol.sol\":4276:4293  i < array1.length */\n      0xff\n      and\n      lt\n        /* \"contracts/VerifySigmaProtocol.sol\":4258:4432  for (uint8 i = 0; i < array1.length; i++) {... */\n      iszero\n      tag_277\n      jumpi\n        /* \"contracts/VerifySigmaProtocol.sol\":4336:4342  array2 */\n      dup2\n        /* \"contracts/VerifySigmaProtocol.sol\":4343:4344  i */\n      dup2\n        /* \"contracts/VerifySigmaProtocol.sol\":4336:4345  array2[i] */\n      0xff\n      and\n      0x02\n      dup2\n      lt\n      tag_279\n      jumpi\n      tag_280\n      tag_58\n      jump\t// in\n    tag_280:\n    tag_279:\n      0x20\n      mul\n      add\n      mload\n        /* \"contracts/VerifySigmaProtocol.sol\":4323:4329  array1 */\n      dup4\n        /* \"contracts/VerifySigmaProtocol.sol\":4330:4331  i */\n      dup3\n        /* \"contracts/VerifySigmaProtocol.sol\":4323:4332  array1[i] */\n      0xff\n      and\n      0x02\n      dup2\n      lt\n      tag_281\n      jumpi\n      tag_282\n      tag_58\n      jump\t// in\n    tag_282:\n    tag_281:\n      0x20\n      mul\n      add\n      mload\n        /* \"contracts/VerifySigmaProtocol.sol\":4323:4345  array1[i] != array2[i] */\n      eq\n        /* \"contracts/VerifySigmaProtocol.sol\":4319:4417  if (array1[i] != array2[i]) {... */\n      tag_283\n      jumpi\n        /* \"contracts/VerifySigmaProtocol.sol\":4377:4396  uint2str(array1[i]) */\n      tag_284\n        /* \"contracts/VerifySigmaProtocol.sol\":4386:4392  array1 */\n      dup4\n        /* \"contracts/VerifySigmaProtocol.sol\":4393:4394  i */\n      dup3\n        /* \"contracts/VerifySigmaProtocol.sol\":4386:4395  array1[i] */\n      0xff\n      and\n      0x02\n      dup2\n      lt\n      tag_285\n      jumpi\n      tag_286\n      tag_58\n      jump\t// in\n    tag_286:\n    tag_285:\n      0x20\n      mul\n      add\n      mload\n        /* \"contracts/VerifySigmaProtocol.sol\":4377:4385  uint2str */\n      tag_49\n        /* \"contracts/VerifySigmaProtocol.sol\":4377:4396  uint2str(array1[i]) */\n      jump\t// in\n    tag_284:\n        /* \"contracts/VerifySigmaProtocol.sol\":4370:4397  revert(uint2str(array1[i])) */\n      mload(0x40)\n      0x08c379a000000000000000000000000000000000000000000000000000000000\n      dup2\n      mstore\n      0x04\n      add\n      tag_287\n      swap2\n      swap1\n      tag_288\n      jump\t// in\n    tag_287:\n      mload(0x40)\n      dup1\n      swap2\n      sub\n      swap1\n      revert\n        /* \"contracts/VerifySigmaProtocol.sol\":4319:4417  if (array1[i] != array2[i]) {... */\n    tag_283:\n        /* \"contracts/VerifySigmaProtocol.sol\":4295:4298  i++ */\n      dup1\n      dup1\n      tag_289\n      swap1\n      tag_75\n      jump\t// in\n    tag_289:\n      swap2\n      pop\n      pop\n        /* \"contracts/VerifySigmaProtocol.sol\":4258:4432  for (uint8 i = 0; i < array1.length; i++) {... */\n      jump(tag_276)\n    tag_277:\n      pop\n        /* \"contracts/VerifySigmaProtocol.sol\":4029:4450  function compareArray(uint256[2] memory array1, uint256[2] memory array2) internal pure {... */\n      pop\n      pop\n      jump\t// out\n        /* \"contracts/CurveBabyJubJub.sol\":3588:4410  function expmod(uint256 _b, uint256 _e, uint256 _m) internal view returns (uint256 o) {... */\n    tag_270:\n        /* \"contracts/CurveBabyJubJub.sol\":3663:3672  uint256 o */\n      0x00\n        /* \"contracts/CurveBabyJubJub.sol\":3729:3733  0x40 */\n      0x40\n        /* \"contracts/CurveBabyJubJub.sol\":3723:3734  mload(0x40) */\n      mload\n        /* \"contracts/CurveBabyJubJub.sol\":3763:3767  0x20 */\n      0x20\n        /* \"contracts/CurveBabyJubJub.sol\":3755:3761  memPtr */\n      dup2\n        /* \"contracts/CurveBabyJubJub.sol\":3748:3768  mstore(memPtr, 0x20) */\n      mstore\n        /* \"contracts/CurveBabyJubJub.sol\":3829:3833  0x20 */\n      0x20\n        /* \"contracts/CurveBabyJubJub.sol\":3822:3826  0x20 */\n      dup1\n        /* \"contracts/CurveBabyJubJub.sol\":3814:3820  memPtr */\n      dup3\n        /* \"contracts/CurveBabyJubJub.sol\":3810:3827  add(memPtr, 0x20) */\n      add\n        /* \"contracts/CurveBabyJubJub.sol\":3803:3834  mstore(add(memPtr, 0x20), 0x20) */\n      mstore\n        /* \"contracts/CurveBabyJubJub.sol\":3899:3903  0x20 */\n      0x20\n        /* \"contracts/CurveBabyJubJub.sol\":3892:3896  0x40 */\n      0x40\n        /* \"contracts/CurveBabyJubJub.sol\":3884:3890  memPtr */\n      dup3\n        /* \"contracts/CurveBabyJubJub.sol\":3880:3897  add(memPtr, 0x40) */\n      add\n        /* \"contracts/CurveBabyJubJub.sol\":3873:3904  mstore(add(memPtr, 0x40), 0x20) */\n      mstore\n        /* \"contracts/CurveBabyJubJub.sol\":3968:3970  _b */\n      dup5\n        /* \"contracts/CurveBabyJubJub.sol\":3961:3965  0x60 */\n      0x60\n        /* \"contracts/CurveBabyJubJub.sol\":3953:3959  memPtr */\n      dup3\n        /* \"contracts/CurveBabyJubJub.sol\":3949:3966  add(memPtr, 0x60) */\n      add\n        /* \"contracts/CurveBabyJubJub.sol\":3942:3971  mstore(add(memPtr, 0x60), _b) */\n      mstore\n        /* \"contracts/CurveBabyJubJub.sol\":4022:4024  _e */\n      dup4\n        /* \"contracts/CurveBabyJubJub.sol\":4015:4019  0x80 */\n      0x80\n        /* \"contracts/CurveBabyJubJub.sol\":4007:4013  memPtr */\n      dup3\n        /* \"contracts/CurveBabyJubJub.sol\":4003:4020  add(memPtr, 0x80) */\n      add\n        /* \"contracts/CurveBabyJubJub.sol\":3996:4025  mstore(add(memPtr, 0x80), _e) */\n      mstore\n        /* \"contracts/CurveBabyJubJub.sol\":4080:4082  _m */\n      dup3\n        /* \"contracts/CurveBabyJubJub.sol\":4073:4077  0xa0 */\n      0xa0\n        /* \"contracts/CurveBabyJubJub.sol\":4065:4071  memPtr */\n      dup3\n        /* \"contracts/CurveBabyJubJub.sol\":4061:4078  add(memPtr, 0xa0) */\n      add\n        /* \"contracts/CurveBabyJubJub.sol\":4054:4083  mstore(add(memPtr, 0xa0), _m) */\n      mstore\n        /* \"contracts/CurveBabyJubJub.sol\":4227:4231  0x20 */\n      0x20\n        /* \"contracts/CurveBabyJubJub.sol\":4219:4225  memPtr */\n      dup2\n        /* \"contracts/CurveBabyJubJub.sol\":4213:4217  0xc0 */\n      0xc0\n        /* \"contracts/CurveBabyJubJub.sol\":4205:4211  memPtr */\n      dup4\n        /* \"contracts/CurveBabyJubJub.sol\":4199:4203  0x05 */\n      0x05\n        /* \"contracts/CurveBabyJubJub.sol\":4191:4197  100000 */\n      0x0186a0\n        /* \"contracts/CurveBabyJubJub.sol\":4180:4232  staticcall(100000, 0x05, memPtr, 0xc0, memPtr, 0x20) */\n      staticcall\n        /* \"contracts/CurveBabyJubJub.sol\":4253:4260  success */\n      dup1\n        /* \"contracts/CurveBabyJubJub.sol\":4279:4280  0 */\n      0x00\n        /* \"contracts/CurveBabyJubJub.sol\":4274:4331  case 0 {... */\n      dup2\n      eq\n      tag_292\n      jumpi\n        /* \"contracts/CurveBabyJubJub.sol\":4370:4376  memPtr */\n      dup3\n        /* \"contracts/CurveBabyJubJub.sol\":4364:4377  mload(memPtr) */\n      mload\n        /* \"contracts/CurveBabyJubJub.sol\":4359:4377  o := mload(memPtr) */\n      swap4\n      pop\n        /* \"contracts/CurveBabyJubJub.sol\":4246:4392  switch success... */\n      jump(tag_291)\n        /* \"contracts/CurveBabyJubJub.sol\":4274:4331  case 0 {... */\n    tag_292:\n        /* \"contracts/CurveBabyJubJub.sol\":4312:4315  0x0 */\n      0x00\n        /* \"contracts/CurveBabyJubJub.sol\":4307:4310  0x0 */\n      dup1\n        /* \"contracts/CurveBabyJubJub.sol\":4300:4316  revert(0x0, 0x0) */\n      revert\n        /* \"contracts/CurveBabyJubJub.sol\":4246:4392  switch success... */\n    tag_291:\n      pop\n        /* \"contracts/CurveBabyJubJub.sol\":3694:4403  {... */\n      pop\n      pop\n        /* \"contracts/CurveBabyJubJub.sol\":3588:4410  function expmod(uint256 _b, uint256 _e, uint256 _m) internal view returns (uint256 o) {... */\n      swap4\n      swap3\n      pop\n      pop\n      pop\n      jump\t// out\n    tag_153:\n      mload(0x40)\n      dup1\n      0x40\n      add\n      0x40\n      mstore\n      dup1\n      0x02\n      swap1\n      0x20\n      dup3\n      mul\n      dup1\n      calldatasize\n      dup4\n      calldatacopy\n      dup1\n      dup3\n      add\n      swap2\n      pop\n      pop\n      swap1\n      pop\n      pop\n      swap1\n      jump\t// out\n        /* \"#utility.yul\":7:82   */\n    tag_293:\n        /* \"#utility.yul\":40:46   */\n      0x00\n        /* \"#utility.yul\":73:75   */\n      0x40\n        /* \"#utility.yul\":67:76   */\n      mload\n        /* \"#utility.yul\":57:76   */\n      swap1\n      pop\n        /* \"#utility.yul\":7:82   */\n      swap1\n      jump\t// out\n        /* \"#utility.yul\":88:205   */\n    tag_294:\n        /* \"#utility.yul\":197:198   */\n      0x00\n        /* \"#utility.yul\":194:195   */\n      dup1\n        /* \"#utility.yul\":187:199   */\n      revert\n        /* \"#utility.yul\":211:328   */\n    tag_295:\n        /* \"#utility.yul\":320:321   */\n      0x00\n        /* \"#utility.yul\":317:318   */\n      dup1\n        /* \"#utility.yul\":310:322   */\n      revert\n        /* \"#utility.yul\":334:411   */\n    tag_296:\n        /* \"#utility.yul\":371:378   */\n      0x00\n        /* \"#utility.yul\":400:405   */\n      dup2\n        /* \"#utility.yul\":389:405   */\n      swap1\n      pop\n        /* \"#utility.yul\":334:411   */\n      swap2\n      swap1\n      pop\n      jump\t// out\n        /* \"#utility.yul\":417:539   */\n    tag_297:\n        /* \"#utility.yul\":490:514   */\n      tag_336\n        /* \"#utility.yul\":508:513   */\n      dup2\n        /* \"#utility.yul\":490:514   */\n      tag_296\n      jump\t// in\n    tag_336:\n        /* \"#utility.yul\":483:488   */\n      dup2\n        /* \"#utility.yul\":480:515   */\n      eq\n        /* \"#utility.yul\":470:533   */\n      tag_337\n      jumpi\n        /* \"#utility.yul\":529:530   */\n      0x00\n        /* \"#utility.yul\":526:527   */\n      dup1\n        /* \"#utility.yul\":519:531   */\n      revert\n        /* \"#utility.yul\":470:533   */\n    tag_337:\n        /* \"#utility.yul\":417:539   */\n      pop\n      jump\t// out\n        /* \"#utility.yul\":545:684   */\n    tag_298:\n        /* \"#utility.yul\":591:596   */\n      0x00\n        /* \"#utility.yul\":629:635   */\n      dup2\n        /* \"#utility.yul\":616:636   */\n      calldataload\n        /* \"#utility.yul\":607:636   */\n      swap1\n      pop\n        /* \"#utility.yul\":645:678   */\n      tag_339\n        /* \"#utility.yul\":672:677   */\n      dup2\n        /* \"#utility.yul\":645:678   */\n      tag_297\n      jump\t// in\n    tag_339:\n        /* \"#utility.yul\":545:684   */\n      swap3\n      swap2\n      pop\n      pop\n      jump\t// out\n        /* \"#utility.yul\":690:1455   */\n    tag_9:\n        /* \"#utility.yul\":776:782   */\n      0x00\n        /* \"#utility.yul\":784:790   */\n      dup1\n        /* \"#utility.yul\":792:798   */\n      0x00\n        /* \"#utility.yul\":800:806   */\n      dup1\n        /* \"#utility.yul\":849:852   */\n      0x80\n        /* \"#utility.yul\":837:846   */\n      dup6\n        /* \"#utility.yul\":828:835   */\n      dup8\n        /* \"#utility.yul\":824:847   */\n      sub\n        /* \"#utility.yul\":820:853   */\n      slt\n        /* \"#utility.yul\":817:937   */\n      iszero\n      tag_341\n      jumpi\n        /* \"#utility.yul\":856:935   */\n      tag_342\n      tag_294\n      jump\t// in\n    tag_342:\n        /* \"#utility.yul\":817:937   */\n    tag_341:\n        /* \"#utility.yul\":976:977   */\n      0x00\n        /* \"#utility.yul\":1001:1054   */\n      tag_343\n        /* \"#utility.yul\":1046:1053   */\n      dup8\n        /* \"#utility.yul\":1037:1043   */\n      dup3\n        /* \"#utility.yul\":1026:1035   */\n      dup9\n        /* \"#utility.yul\":1022:1044   */\n      add\n        /* \"#utility.yul\":1001:1054   */\n      tag_298\n      jump\t// in\n    tag_343:\n        /* \"#utility.yul\":991:1054   */\n      swap5\n      pop\n        /* \"#utility.yul\":947:1064   */\n      pop\n        /* \"#utility.yul\":1103:1105   */\n      0x20\n        /* \"#utility.yul\":1129:1182   */\n      tag_344\n        /* \"#utility.yul\":1174:1181   */\n      dup8\n        /* \"#utility.yul\":1165:1171   */\n      dup3\n        /* \"#utility.yul\":1154:1163   */\n      dup9\n        /* \"#utility.yul\":1150:1172   */\n      add\n        /* \"#utility.yul\":1129:1182   */\n      tag_298\n      jump\t// in\n    tag_344:\n        /* \"#utility.yul\":1119:1182   */\n      swap4\n      pop\n        /* \"#utility.yul\":1074:1192   */\n      pop\n        /* \"#utility.yul\":1231:1233   */\n      0x40\n        /* \"#utility.yul\":1257:1310   */\n      tag_345\n        /* \"#utility.yul\":1302:1309   */\n      dup8\n        /* \"#utility.yul\":1293:1299   */\n      dup3\n        /* \"#utility.yul\":1282:1291   */\n      dup9\n        /* \"#utility.yul\":1278:1300   */\n      add\n        /* \"#utility.yul\":1257:1310   */\n      tag_298\n      jump\t// in\n    tag_345:\n        /* \"#utility.yul\":1247:1310   */\n      swap3\n      pop\n        /* \"#utility.yul\":1202:1320   */\n      pop\n        /* \"#utility.yul\":1359:1361   */\n      0x60\n        /* \"#utility.yul\":1385:1438   */\n      tag_346\n        /* \"#utility.yul\":1430:1437   */\n      dup8\n        /* \"#utility.yul\":1421:1427   */\n      dup3\n        /* \"#utility.yul\":1410:1419   */\n      dup9\n        /* \"#utility.yul\":1406:1428   */\n      add\n        /* \"#utility.yul\":1385:1438   */\n      tag_298\n      jump\t// in\n    tag_346:\n        /* \"#utility.yul\":1375:1438   */\n      swap2\n      pop\n        /* \"#utility.yul\":1330:1448   */\n      pop\n        /* \"#utility.yul\":690:1455   */\n      swap3\n      swap6\n      swap2\n      swap5\n      pop\n      swap3\n      pop\n      jump\t// out\n        /* \"#utility.yul\":1461:1579   */\n    tag_299:\n        /* \"#utility.yul\":1548:1572   */\n      tag_348\n        /* \"#utility.yul\":1566:1571   */\n      dup2\n        /* \"#utility.yul\":1548:1572   */\n      tag_296\n      jump\t// in\n    tag_348:\n        /* \"#utility.yul\":1543:1546   */\n      dup3\n        /* \"#utility.yul\":1536:1573   */\n      mstore\n        /* \"#utility.yul\":1461:1579   */\n      pop\n      pop\n      jump\t// out\n        /* \"#utility.yul\":1585:1917   */\n    tag_12:\n        /* \"#utility.yul\":1706:1710   */\n      0x00\n        /* \"#utility.yul\":1744:1746   */\n      0x40\n        /* \"#utility.yul\":1733:1742   */\n      dup3\n        /* \"#utility.yul\":1729:1747   */\n      add\n        /* \"#utility.yul\":1721:1747   */\n      swap1\n      pop\n        /* \"#utility.yul\":1757:1828   */\n      tag_350\n        /* \"#utility.yul\":1825:1826   */\n      0x00\n        /* \"#utility.yul\":1814:1823   */\n      dup4\n        /* \"#utility.yul\":1810:1827   */\n      add\n        /* \"#utility.yul\":1801:1807   */\n      dup6\n        /* \"#utility.yul\":1757:1828   */\n      tag_299\n      jump\t// in\n    tag_350:\n        /* \"#utility.yul\":1838:1910   */\n      tag_351\n        /* \"#utility.yul\":1906:1908   */\n      0x20\n        /* \"#utility.yul\":1895:1904   */\n      dup4\n        /* \"#utility.yul\":1891:1909   */\n      add\n        /* \"#utility.yul\":1882:1888   */\n      dup5\n        /* \"#utility.yul\":1838:1910   */\n      tag_299\n      jump\t// in\n    tag_351:\n        /* \"#utility.yul\":1585:1917   */\n      swap4\n      swap3\n      pop\n      pop\n      pop\n      jump\t// out\n        /* \"#utility.yul\":1923:2040   */\n    tag_300:\n        /* \"#utility.yul\":2032:2033   */\n      0x00\n        /* \"#utility.yul\":2029:2030   */\n      dup1\n        /* \"#utility.yul\":2022:2034   */\n      revert\n        /* \"#utility.yul\":2046:2148   */\n    tag_301:\n        /* \"#utility.yul\":2087:2093   */\n      0x00\n        /* \"#utility.yul\":2138:2140   */\n      0x1f\n        /* \"#utility.yul\":2134:2141   */\n      not\n        /* \"#utility.yul\":2129:2131   */\n      0x1f\n        /* \"#utility.yul\":2122:2127   */\n      dup4\n        /* \"#utility.yul\":2118:2132   */\n      add\n        /* \"#utility.yul\":2114:2142   */\n      and\n        /* \"#utility.yul\":2104:2142   */\n      swap1\n      pop\n        /* \"#utility.yul\":2046:2148   */\n      swap2\n      swap1\n      pop\n      jump\t// out\n        /* \"#utility.yul\":2154:2334   */\n    tag_136:\n        /* \"#utility.yul\":2202:2279   */\n      0x4e487b7100000000000000000000000000000000000000000000000000000000\n        /* \"#utility.yul\":2199:2200   */\n      0x00\n        /* \"#utility.yul\":2192:2280   */\n      mstore\n        /* \"#utility.yul\":2299:2303   */\n      0x41\n        /* \"#utility.yul\":2296:2297   */\n      0x04\n        /* \"#utility.yul\":2289:2304   */\n      mstore\n        /* \"#utility.yul\":2323:2327   */\n      0x24\n        /* \"#utility.yul\":2320:2321   */\n      0x00\n        /* \"#utility.yul\":2313:2328   */\n      revert\n        /* \"#utility.yul\":2340:2621   */\n    tag_302:\n        /* \"#utility.yul\":2423:2450   */\n      tag_356\n        /* \"#utility.yul\":2445:2449   */\n      dup3\n        /* \"#utility.yul\":2423:2450   */\n      tag_301\n      jump\t// in\n    tag_356:\n        /* \"#utility.yul\":2415:2421   */\n      dup2\n        /* \"#utility.yul\":2411:2451   */\n      add\n        /* \"#utility.yul\":2553:2559   */\n      dup2\n        /* \"#utility.yul\":2541:2551   */\n      dup2\n        /* \"#utility.yul\":2538:2560   */\n      lt\n        /* \"#utility.yul\":2517:2535   */\n      0xffffffffffffffff\n        /* \"#utility.yul\":2505:2515   */\n      dup3\n        /* \"#utility.yul\":2502:2536   */\n      gt\n        /* \"#utility.yul\":2499:2561   */\n      or\n        /* \"#utility.yul\":2496:2584   */\n      iszero\n      tag_357\n      jumpi\n        /* \"#utility.yul\":2564:2582   */\n      tag_358\n      tag_136\n      jump\t// in\n    tag_358:\n        /* \"#utility.yul\":2496:2584   */\n    tag_357:\n        /* \"#utility.yul\":2604:2614   */\n      dup1\n        /* \"#utility.yul\":2600:2602   */\n      0x40\n        /* \"#utility.yul\":2593:2615   */\n      mstore\n        /* \"#utility.yul\":2383:2621   */\n      pop\n        /* \"#utility.yul\":2340:2621   */\n      pop\n      pop\n      jump\t// out\n        /* \"#utility.yul\":2627:2756   */\n    tag_303:\n        /* \"#utility.yul\":2661:2667   */\n      0x00\n        /* \"#utility.yul\":2688:2708   */\n      tag_360\n      tag_293\n      jump\t// in\n    tag_360:\n        /* \"#utility.yul\":2678:2708   */\n      swap1\n      pop\n        /* \"#utility.yul\":2717:2750   */\n      tag_361\n        /* \"#utility.yul\":2745:2749   */\n      dup3\n        /* \"#utility.yul\":2737:2743   */\n      dup3\n        /* \"#utility.yul\":2717:2750   */\n      tag_302\n      jump\t// in\n    tag_361:\n        /* \"#utility.yul\":2627:2756   */\n      swap2\n      swap1\n      pop\n      jump\t// out\n        /* \"#utility.yul\":2762:3036   */\n    tag_304:\n        /* \"#utility.yul\":2862:2866   */\n      0x00\n        /* \"#utility.yul\":2952:2970   */\n      0xffffffffffffffff\n        /* \"#utility.yul\":2944:2950   */\n      dup3\n        /* \"#utility.yul\":2941:2971   */\n      gt\n        /* \"#utility.yul\":2938:2994   */\n      iszero\n      tag_363\n      jumpi\n        /* \"#utility.yul\":2974:2992   */\n      tag_364\n      tag_136\n      jump\t// in\n    tag_364:\n        /* \"#utility.yul\":2938:2994   */\n    tag_363:\n        /* \"#utility.yul\":3024:3028   */\n      0x20\n        /* \"#utility.yul\":3016:3022   */\n      dup3\n        /* \"#utility.yul\":3012:3029   */\n      mul\n        /* \"#utility.yul\":3004:3029   */\n      swap1\n      pop\n        /* \"#utility.yul\":2762:3036   */\n      swap2\n      swap1\n      pop\n      jump\t// out\n        /* \"#utility.yul\":3042:3159   */\n    tag_305:\n        /* \"#utility.yul\":3151:3152   */\n      0x00\n        /* \"#utility.yul\":3148:3149   */\n      dup1\n        /* \"#utility.yul\":3141:3153   */\n      revert\n        /* \"#utility.yul\":3165:3476   */\n    tag_306:\n        /* \"#utility.yul\":3242:3246   */\n      0x00\n        /* \"#utility.yul\":3332:3350   */\n      0xffffffffffffffff\n        /* \"#utility.yul\":3324:3330   */\n      dup3\n        /* \"#utility.yul\":3321:3351   */\n      gt\n        /* \"#utility.yul\":3318:3374   */\n      iszero\n      tag_367\n      jumpi\n        /* \"#utility.yul\":3354:3372   */\n      tag_368\n      tag_136\n      jump\t// in\n    tag_368:\n        /* \"#utility.yul\":3318:3374   */\n    tag_367:\n        /* \"#utility.yul\":3404:3408   */\n      0x20\n        /* \"#utility.yul\":3396:3402   */\n      dup3\n        /* \"#utility.yul\":3392:3409   */\n      mul\n        /* \"#utility.yul\":3384:3409   */\n      swap1\n      pop\n        /* \"#utility.yul\":3464:3468   */\n      0x20\n        /* \"#utility.yul\":3458:3462   */\n      dup2\n        /* \"#utility.yul\":3454:3469   */\n      add\n        /* \"#utility.yul\":3446:3469   */\n      swap1\n      pop\n        /* \"#utility.yul\":3165:3476   */\n      swap2\n      swap1\n      pop\n      jump\t// out\n        /* \"#utility.yul\":3499:4209   */\n    tag_307:\n        /* \"#utility.yul\":3595:3600   */\n      0x00\n        /* \"#utility.yul\":3620:3701   */\n      tag_370\n        /* \"#utility.yul\":3636:3700   */\n      tag_371\n        /* \"#utility.yul\":3693:3699   */\n      dup5\n        /* \"#utility.yul\":3636:3700   */\n      tag_306\n      jump\t// in\n    tag_371:\n        /* \"#utility.yul\":3620:3701   */\n      tag_303\n      jump\t// in\n    tag_370:\n        /* \"#utility.yul\":3611:3701   */\n      swap1\n      pop\n        /* \"#utility.yul\":3721:3726   */\n      dup1\n        /* \"#utility.yul\":3750:3756   */\n      dup4\n        /* \"#utility.yul\":3743:3748   */\n      dup3\n        /* \"#utility.yul\":3736:3757   */\n      mstore\n        /* \"#utility.yul\":3784:3788   */\n      0x20\n        /* \"#utility.yul\":3777:3782   */\n      dup3\n        /* \"#utility.yul\":3773:3789   */\n      add\n        /* \"#utility.yul\":3766:3789   */\n      swap1\n      pop\n        /* \"#utility.yul\":3837:3841   */\n      0x20\n        /* \"#utility.yul\":3829:3835   */\n      dup5\n        /* \"#utility.yul\":3825:3842   */\n      mul\n        /* \"#utility.yul\":3817:3823   */\n      dup4\n        /* \"#utility.yul\":3813:3843   */\n      add\n        /* \"#utility.yul\":3866:3869   */\n      dup6\n        /* \"#utility.yul\":3858:3864   */\n      dup2\n        /* \"#utility.yul\":3855:3870   */\n      gt\n        /* \"#utility.yul\":3852:3974   */\n      iszero\n      tag_372\n      jumpi\n        /* \"#utility.yul\":3885:3964   */\n      tag_373\n      tag_305\n      jump\t// in\n    tag_373:\n        /* \"#utility.yul\":3852:3974   */\n    tag_372:\n        /* \"#utility.yul\":4000:4006   */\n      dup4\n        /* \"#utility.yul\":3983:4203   */\n    tag_374:\n        /* \"#utility.yul\":4017:4023   */\n      dup2\n        /* \"#utility.yul\":4012:4015   */\n      dup2\n        /* \"#utility.yul\":4009:4024   */\n      lt\n        /* \"#utility.yul\":3983:4203   */\n      iszero\n      tag_376\n      jumpi\n        /* \"#utility.yul\":4092:4095   */\n      dup1\n        /* \"#utility.yul\":4121:4158   */\n      tag_377\n        /* \"#utility.yul\":4154:4157   */\n      dup9\n        /* \"#utility.yul\":4142:4152   */\n      dup3\n        /* \"#utility.yul\":4121:4158   */\n      tag_298\n      jump\t// in\n    tag_377:\n        /* \"#utility.yul\":4116:4119   */\n      dup5\n        /* \"#utility.yul\":4109:4159   */\n      mstore\n        /* \"#utility.yul\":4188:4192   */\n      0x20\n        /* \"#utility.yul\":4183:4186   */\n      dup5\n        /* \"#utility.yul\":4179:4193   */\n      add\n        /* \"#utility.yul\":4172:4193   */\n      swap4\n      pop\n        /* \"#utility.yul\":4059:4203   */\n      pop\n        /* \"#utility.yul\":4043:4047   */\n      0x20\n        /* \"#utility.yul\":4038:4041   */\n      dup2\n        /* \"#utility.yul\":4034:4048   */\n      add\n        /* \"#utility.yul\":4027:4048   */\n      swap1\n      pop\n        /* \"#utility.yul\":3983:4203   */\n      jump(tag_374)\n    tag_376:\n        /* \"#utility.yul\":3987:4008   */\n      pop\n        /* \"#utility.yul\":3601:4209   */\n      pop\n      pop\n        /* \"#utility.yul\":3499:4209   */\n      swap4\n      swap3\n      pop\n      pop\n      pop\n      jump\t// out\n        /* \"#utility.yul\":4232:4602   */\n    tag_308:\n        /* \"#utility.yul\":4303:4308   */\n      0x00\n        /* \"#utility.yul\":4352:4355   */\n      dup3\n        /* \"#utility.yul\":4345:4349   */\n      0x1f\n        /* \"#utility.yul\":4337:4343   */\n      dup4\n        /* \"#utility.yul\":4333:4350   */\n      add\n        /* \"#utility.yul\":4329:4356   */\n      slt\n        /* \"#utility.yul\":4319:4441   */\n      tag_379\n      jumpi\n        /* \"#utility.yul\":4360:4439   */\n      tag_380\n      tag_300\n      jump\t// in\n    tag_380:\n        /* \"#utility.yul\":4319:4441   */\n    tag_379:\n        /* \"#utility.yul\":4477:4483   */\n      dup2\n        /* \"#utility.yul\":4464:4484   */\n      calldataload\n        /* \"#utility.yul\":4502:4596   */\n      tag_381\n        /* \"#utility.yul\":4592:4595   */\n      dup5\n        /* \"#utility.yul\":4584:4590   */\n      dup3\n        /* \"#utility.yul\":4577:4581   */\n      0x20\n        /* \"#utility.yul\":4569:4575   */\n      dup7\n        /* \"#utility.yul\":4565:4582   */\n      add\n        /* \"#utility.yul\":4502:4596   */\n      tag_307\n      jump\t// in\n    tag_381:\n        /* \"#utility.yul\":4493:4596   */\n      swap2\n      pop\n        /* \"#utility.yul\":4309:4602   */\n      pop\n        /* \"#utility.yul\":4232:4602   */\n      swap3\n      swap2\n      pop\n      pop\n      jump\t// out\n        /* \"#utility.yul\":4628:5551   */\n    tag_309:\n        /* \"#utility.yul\":4747:4752   */\n      0x00\n        /* \"#utility.yul\":4772:4876   */\n      tag_383\n        /* \"#utility.yul\":4788:4875   */\n      tag_384\n        /* \"#utility.yul\":4868:4874   */\n      dup5\n        /* \"#utility.yul\":4788:4875   */\n      tag_304\n      jump\t// in\n    tag_384:\n        /* \"#utility.yul\":4772:4876   */\n      tag_303\n      jump\t// in\n    tag_383:\n        /* \"#utility.yul\":4763:4876   */\n      swap1\n      pop\n        /* \"#utility.yul\":4896:4901   */\n      dup1\n        /* \"#utility.yul\":4949:4953   */\n      0x20\n        /* \"#utility.yul\":4941:4947   */\n      dup5\n        /* \"#utility.yul\":4937:4954   */\n      mul\n        /* \"#utility.yul\":4929:4935   */\n      dup4\n        /* \"#utility.yul\":4925:4955   */\n      add\n        /* \"#utility.yul\":4978:4981   */\n      dup6\n        /* \"#utility.yul\":4970:4976   */\n      dup2\n        /* \"#utility.yul\":4967:4982   */\n      gt\n        /* \"#utility.yul\":4964:5086   */\n      iszero\n      tag_385\n      jumpi\n        /* \"#utility.yul\":4997:5076   */\n      tag_386\n      tag_305\n      jump\t// in\n    tag_386:\n        /* \"#utility.yul\":4964:5086   */\n    tag_385:\n        /* \"#utility.yul\":5112:5118   */\n      dup4\n        /* \"#utility.yul\":5095:5545   */\n    tag_387:\n        /* \"#utility.yul\":5129:5135   */\n      dup2\n        /* \"#utility.yul\":5124:5127   */\n      dup2\n        /* \"#utility.yul\":5121:5136   */\n      lt\n        /* \"#utility.yul\":5095:5545   */\n      iszero\n      tag_389\n      jumpi\n        /* \"#utility.yul\":5218:5221   */\n      dup1\n        /* \"#utility.yul\":5205:5222   */\n      calldataload\n        /* \"#utility.yul\":5254:5272   */\n      0xffffffffffffffff\n        /* \"#utility.yul\":5241:5252   */\n      dup2\n        /* \"#utility.yul\":5238:5273   */\n      gt\n        /* \"#utility.yul\":5235:5357   */\n      iszero\n      tag_390\n      jumpi\n        /* \"#utility.yul\":5276:5355   */\n      tag_391\n      tag_300\n      jump\t// in\n    tag_391:\n        /* \"#utility.yul\":5235:5357   */\n    tag_390:\n        /* \"#utility.yul\":5400:5411   */\n      dup1\n        /* \"#utility.yul\":5392:5398   */\n      dup7\n        /* \"#utility.yul\":5388:5412   */\n      add\n        /* \"#utility.yul\":5438:5500   */\n      tag_392\n        /* \"#utility.yul\":5496:5499   */\n      dup10\n        /* \"#utility.yul\":5484:5494   */\n      dup3\n        /* \"#utility.yul\":5438:5500   */\n      tag_308\n      jump\t// in\n    tag_392:\n        /* \"#utility.yul\":5433:5436   */\n      dup6\n        /* \"#utility.yul\":5426:5501   */\n      mstore\n        /* \"#utility.yul\":5530:5534   */\n      0x20\n        /* \"#utility.yul\":5525:5528   */\n      dup6\n        /* \"#utility.yul\":5521:5535   */\n      add\n        /* \"#utility.yul\":5514:5535   */\n      swap5\n      pop\n        /* \"#utility.yul\":5171:5545   */\n      pop\n      pop\n        /* \"#utility.yul\":5155:5159   */\n      0x20\n        /* \"#utility.yul\":5150:5153   */\n      dup2\n        /* \"#utility.yul\":5146:5160   */\n      add\n        /* \"#utility.yul\":5139:5160   */\n      swap1\n      pop\n        /* \"#utility.yul\":5095:5545   */\n      jump(tag_387)\n    tag_389:\n        /* \"#utility.yul\":5099:5120   */\n      pop\n        /* \"#utility.yul\":4753:5551   */\n      pop\n      pop\n        /* \"#utility.yul\":4628:5551   */\n      swap4\n      swap3\n      pop\n      pop\n      pop\n      jump\t// out\n        /* \"#utility.yul\":5577:5966   */\n    tag_310:\n        /* \"#utility.yul\":5671:5676   */\n      0x00\n        /* \"#utility.yul\":5720:5723   */\n      dup3\n        /* \"#utility.yul\":5713:5717   */\n      0x1f\n        /* \"#utility.yul\":5705:5711   */\n      dup4\n        /* \"#utility.yul\":5701:5718   */\n      add\n        /* \"#utility.yul\":5697:5724   */\n      slt\n        /* \"#utility.yul\":5687:5809   */\n      tag_394\n      jumpi\n        /* \"#utility.yul\":5728:5807   */\n      tag_395\n      tag_300\n      jump\t// in\n    tag_395:\n        /* \"#utility.yul\":5687:5809   */\n    tag_394:\n        /* \"#utility.yul\":5832:5836   */\n      0x02\n        /* \"#utility.yul\":5854:5960   */\n      tag_396\n        /* \"#utility.yul\":5956:5959   */\n      dup5\n        /* \"#utility.yul\":5948:5954   */\n      dup3\n        /* \"#utility.yul\":5940:5946   */\n      dup6\n        /* \"#utility.yul\":5854:5960   */\n      tag_309\n      jump\t// in\n    tag_396:\n        /* \"#utility.yul\":5845:5960   */\n      swap2\n      pop\n        /* \"#utility.yul\":5677:5966   */\n      pop\n        /* \"#utility.yul\":5577:5966   */\n      swap3\n      swap2\n      pop\n      pop\n      jump\t// out\n        /* \"#utility.yul\":5972:6221   */\n    tag_311:\n        /* \"#utility.yul\":6047:6051   */\n      0x00\n        /* \"#utility.yul\":6137:6155   */\n      0xffffffffffffffff\n        /* \"#utility.yul\":6129:6135   */\n      dup3\n        /* \"#utility.yul\":6126:6156   */\n      gt\n        /* \"#utility.yul\":6123:6179   */\n      iszero\n      tag_398\n      jumpi\n        /* \"#utility.yul\":6159:6177   */\n      tag_399\n      tag_136\n      jump\t// in\n    tag_399:\n        /* \"#utility.yul\":6123:6179   */\n    tag_398:\n        /* \"#utility.yul\":6209:6213   */\n      0x20\n        /* \"#utility.yul\":6201:6207   */\n      dup3\n        /* \"#utility.yul\":6197:6214   */\n      mul\n        /* \"#utility.yul\":6189:6214   */\n      swap1\n      pop\n        /* \"#utility.yul\":5972:6221   */\n      swap2\n      swap1\n      pop\n      jump\t// out\n        /* \"#utility.yul\":6245:6888   */\n    tag_312:\n        /* \"#utility.yul\":6339:6344   */\n      0x00\n        /* \"#utility.yul\":6364:6443   */\n      tag_401\n        /* \"#utility.yul\":6380:6442   */\n      tag_402\n        /* \"#utility.yul\":6435:6441   */\n      dup5\n        /* \"#utility.yul\":6380:6442   */\n      tag_311\n      jump\t// in\n    tag_402:\n        /* \"#utility.yul\":6364:6443   */\n      tag_303\n      jump\t// in\n    tag_401:\n        /* \"#utility.yul\":6355:6443   */\n      swap1\n      pop\n        /* \"#utility.yul\":6463:6468   */\n      dup1\n        /* \"#utility.yul\":6516:6520   */\n      0x20\n        /* \"#utility.yul\":6508:6514   */\n      dup5\n        /* \"#utility.yul\":6504:6521   */\n      mul\n        /* \"#utility.yul\":6496:6502   */\n      dup4\n        /* \"#utility.yul\":6492:6522   */\n      add\n        /* \"#utility.yul\":6545:6548   */\n      dup6\n        /* \"#utility.yul\":6537:6543   */\n      dup2\n        /* \"#utility.yul\":6534:6549   */\n      gt\n        /* \"#utility.yul\":6531:6653   */\n      iszero\n      tag_403\n      jumpi\n        /* \"#utility.yul\":6564:6643   */\n      tag_404\n      tag_305\n      jump\t// in\n    tag_404:\n        /* \"#utility.yul\":6531:6653   */\n    tag_403:\n        /* \"#utility.yul\":6679:6685   */\n      dup4\n        /* \"#utility.yul\":6662:6882   */\n    tag_405:\n        /* \"#utility.yul\":6696:6702   */\n      dup2\n        /* \"#utility.yul\":6691:6694   */\n      dup2\n        /* \"#utility.yul\":6688:6703   */\n      lt\n        /* \"#utility.yul\":6662:6882   */\n      iszero\n      tag_407\n      jumpi\n        /* \"#utility.yul\":6771:6774   */\n      dup1\n        /* \"#utility.yul\":6800:6837   */\n      tag_408\n        /* \"#utility.yul\":6833:6836   */\n      dup9\n        /* \"#utility.yul\":6821:6831   */\n      dup3\n        /* \"#utility.yul\":6800:6837   */\n      tag_298\n      jump\t// in\n    tag_408:\n        /* \"#utility.yul\":6795:6798   */\n      dup5\n        /* \"#utility.yul\":6788:6838   */\n      mstore\n        /* \"#utility.yul\":6867:6871   */\n      0x20\n        /* \"#utility.yul\":6862:6865   */\n      dup5\n        /* \"#utility.yul\":6858:6872   */\n      add\n        /* \"#utility.yul\":6851:6872   */\n      swap4\n      pop\n        /* \"#utility.yul\":6738:6882   */\n      pop\n        /* \"#utility.yul\":6722:6726   */\n      0x20\n        /* \"#utility.yul\":6717:6720   */\n      dup2\n        /* \"#utility.yul\":6713:6727   */\n      add\n        /* \"#utility.yul\":6706:6727   */\n      swap1\n      pop\n        /* \"#utility.yul\":6662:6882   */\n      jump(tag_405)\n    tag_407:\n        /* \"#utility.yul\":6666:6687   */\n      pop\n        /* \"#utility.yul\":6345:6888   */\n      pop\n      pop\n        /* \"#utility.yul\":6245:6888   */\n      swap4\n      swap3\n      pop\n      pop\n      pop\n      jump\t// out\n        /* \"#utility.yul\":6912:7251   */\n    tag_313:\n        /* \"#utility.yul\":6981:6986   */\n      0x00\n        /* \"#utility.yul\":7030:7033   */\n      dup3\n        /* \"#utility.yul\":7023:7027   */\n      0x1f\n        /* \"#utility.yul\":7015:7021   */\n      dup4\n        /* \"#utility.yul\":7011:7028   */\n      add\n        /* \"#utility.yul\":7007:7034   */\n      slt\n        /* \"#utility.yul\":6997:7119   */\n      tag_410\n      jumpi\n        /* \"#utility.yul\":7038:7117   */\n      tag_411\n      tag_300\n      jump\t// in\n    tag_411:\n        /* \"#utility.yul\":6997:7119   */\n    tag_410:\n        /* \"#utility.yul\":7142:7146   */\n      0x02\n        /* \"#utility.yul\":7164:7245   */\n      tag_412\n        /* \"#utility.yul\":7241:7244   */\n      dup5\n        /* \"#utility.yul\":7233:7239   */\n      dup3\n        /* \"#utility.yul\":7225:7231   */\n      dup6\n        /* \"#utility.yul\":7164:7245   */\n      tag_312\n      jump\t// in\n    tag_412:\n        /* \"#utility.yul\":7155:7245   */\n      swap2\n      pop\n        /* \"#utility.yul\":6987:7251   */\n      pop\n        /* \"#utility.yul\":6912:7251   */\n      swap3\n      swap2\n      pop\n      pop\n      jump\t// out\n        /* \"#utility.yul\":7257:9950   */\n    tag_15:\n        /* \"#utility.yul\":7635:7641   */\n      0x00\n        /* \"#utility.yul\":7643:7649   */\n      dup1\n        /* \"#utility.yul\":7651:7657   */\n      0x00\n        /* \"#utility.yul\":7659:7665   */\n      dup1\n        /* \"#utility.yul\":7667:7673   */\n      0x00\n        /* \"#utility.yul\":7675:7681   */\n      dup1\n        /* \"#utility.yul\":7683:7689   */\n      0x00\n        /* \"#utility.yul\":7732:7735   */\n      0x0100\n        /* \"#utility.yul\":7720:7729   */\n      dup9\n        /* \"#utility.yul\":7711:7718   */\n      dup11\n        /* \"#utility.yul\":7707:7730   */\n      sub\n        /* \"#utility.yul\":7703:7736   */\n      slt\n        /* \"#utility.yul\":7700:7820   */\n      iszero\n      tag_414\n      jumpi\n        /* \"#utility.yul\":7739:7818   */\n      tag_415\n      tag_294\n      jump\t// in\n    tag_415:\n        /* \"#utility.yul\":7700:7820   */\n    tag_414:\n        /* \"#utility.yul\":7887:7888   */\n      0x00\n        /* \"#utility.yul\":7876:7885   */\n      dup9\n        /* \"#utility.yul\":7872:7889   */\n      add\n        /* \"#utility.yul\":7859:7890   */\n      calldataload\n        /* \"#utility.yul\":7917:7935   */\n      0xffffffffffffffff\n        /* \"#utility.yul\":7909:7915   */\n      dup2\n        /* \"#utility.yul\":7906:7936   */\n      gt\n        /* \"#utility.yul\":7903:8020   */\n      iszero\n      tag_416\n      jumpi\n        /* \"#utility.yul\":7939:8018   */\n      tag_417\n      tag_295\n      jump\t// in\n    tag_417:\n        /* \"#utility.yul\":7903:8020   */\n    tag_416:\n        /* \"#utility.yul\":8044:8145   */\n      tag_418\n        /* \"#utility.yul\":8137:8144   */\n      dup11\n        /* \"#utility.yul\":8128:8134   */\n      dup3\n        /* \"#utility.yul\":8117:8126   */\n      dup12\n        /* \"#utility.yul\":8113:8135   */\n      add\n        /* \"#utility.yul\":8044:8145   */\n      tag_310\n      jump\t// in\n    tag_418:\n        /* \"#utility.yul\":8034:8145   */\n      swap8\n      pop\n        /* \"#utility.yul\":7830:8155   */\n      pop\n        /* \"#utility.yul\":8222:8224   */\n      0x20\n        /* \"#utility.yul\":8211:8220   */\n      dup9\n        /* \"#utility.yul\":8207:8225   */\n      add\n        /* \"#utility.yul\":8194:8226   */\n      calldataload\n        /* \"#utility.yul\":8253:8271   */\n      0xffffffffffffffff\n        /* \"#utility.yul\":8245:8251   */\n      dup2\n        /* \"#utility.yul\":8242:8272   */\n      gt\n        /* \"#utility.yul\":8239:8356   */\n      iszero\n      tag_419\n      jumpi\n        /* \"#utility.yul\":8275:8354   */\n      tag_420\n      tag_295\n      jump\t// in\n    tag_420:\n        /* \"#utility.yul\":8239:8356   */\n    tag_419:\n        /* \"#utility.yul\":8380:8481   */\n      tag_421\n        /* \"#utility.yul\":8473:8480   */\n      dup11\n        /* \"#utility.yul\":8464:8470   */\n      dup3\n        /* \"#utility.yul\":8453:8462   */\n      dup12\n        /* \"#utility.yul\":8449:8471   */\n      add\n        /* \"#utility.yul\":8380:8481   */\n      tag_310\n      jump\t// in\n    tag_421:\n        /* \"#utility.yul\":8370:8481   */\n      swap7\n      pop\n        /* \"#utility.yul\":8165:8491   */\n      pop\n        /* \"#utility.yul\":8558:8560   */\n      0x40\n        /* \"#utility.yul\":8547:8556   */\n      dup9\n        /* \"#utility.yul\":8543:8561   */\n      add\n        /* \"#utility.yul\":8530:8562   */\n      calldataload\n        /* \"#utility.yul\":8589:8607   */\n      0xffffffffffffffff\n        /* \"#utility.yul\":8581:8587   */\n      dup2\n        /* \"#utility.yul\":8578:8608   */\n      gt\n        /* \"#utility.yul\":8575:8692   */\n      iszero\n      tag_422\n      jumpi\n        /* \"#utility.yul\":8611:8690   */\n      tag_423\n      tag_295\n      jump\t// in\n    tag_423:\n        /* \"#utility.yul\":8575:8692   */\n    tag_422:\n        /* \"#utility.yul\":8716:8794   */\n      tag_424\n        /* \"#utility.yul\":8786:8793   */\n      dup11\n        /* \"#utility.yul\":8777:8783   */\n      dup3\n        /* \"#utility.yul\":8766:8775   */\n      dup12\n        /* \"#utility.yul\":8762:8784   */\n      add\n        /* \"#utility.yul\":8716:8794   */\n      tag_308\n      jump\t// in\n    tag_424:\n        /* \"#utility.yul\":8706:8794   */\n      swap6\n      pop\n        /* \"#utility.yul\":8501:8804   */\n      pop\n        /* \"#utility.yul\":8871:8873   */\n      0x60\n        /* \"#utility.yul\":8860:8869   */\n      dup9\n        /* \"#utility.yul\":8856:8874   */\n      add\n        /* \"#utility.yul\":8843:8875   */\n      calldataload\n        /* \"#utility.yul\":8902:8920   */\n      0xffffffffffffffff\n        /* \"#utility.yul\":8894:8900   */\n      dup2\n        /* \"#utility.yul\":8891:8921   */\n      gt\n        /* \"#utility.yul\":8888:9005   */\n      iszero\n      tag_425\n      jumpi\n        /* \"#utility.yul\":8924:9003   */\n      tag_426\n      tag_295\n      jump\t// in\n    tag_426:\n        /* \"#utility.yul\":8888:9005   */\n    tag_425:\n        /* \"#utility.yul\":9029:9107   */\n      tag_427\n        /* \"#utility.yul\":9099:9106   */\n      dup11\n        /* \"#utility.yul\":9090:9096   */\n      dup3\n        /* \"#utility.yul\":9079:9088   */\n      dup12\n        /* \"#utility.yul\":9075:9097   */\n      add\n        /* \"#utility.yul\":9029:9107   */\n      tag_308\n      jump\t// in\n    tag_427:\n        /* \"#utility.yul\":9019:9107   */\n      swap5\n      pop\n        /* \"#utility.yul\":8814:9117   */\n      pop\n        /* \"#utility.yul\":9156:9159   */\n      0x80\n        /* \"#utility.yul\":9183:9259   */\n      tag_428\n        /* \"#utility.yul\":9251:9258   */\n      dup11\n        /* \"#utility.yul\":9242:9248   */\n      dup3\n        /* \"#utility.yul\":9231:9240   */\n      dup12\n        /* \"#utility.yul\":9227:9249   */\n      add\n        /* \"#utility.yul\":9183:9259   */\n      tag_313\n      jump\t// in\n    tag_428:\n        /* \"#utility.yul\":9173:9259   */\n      swap4\n      pop\n        /* \"#utility.yul\":9127:9269   */\n      pop\n        /* \"#utility.yul\":9336:9339   */\n      0xc0\n        /* \"#utility.yul\":9325:9334   */\n      dup9\n        /* \"#utility.yul\":9321:9340   */\n      add\n        /* \"#utility.yul\":9308:9341   */\n      calldataload\n        /* \"#utility.yul\":9368:9386   */\n      0xffffffffffffffff\n        /* \"#utility.yul\":9360:9366   */\n      dup2\n        /* \"#utility.yul\":9357:9387   */\n      gt\n        /* \"#utility.yul\":9354:9471   */\n      iszero\n      tag_429\n      jumpi\n        /* \"#utility.yul\":9390:9469   */\n      tag_430\n      tag_295\n      jump\t// in\n    tag_430:\n        /* \"#utility.yul\":9354:9471   */\n    tag_429:\n        /* \"#utility.yul\":9495:9596   */\n      tag_431\n        /* \"#utility.yul\":9588:9595   */\n      dup11\n        /* \"#utility.yul\":9579:9585   */\n      dup3\n        /* \"#utility.yul\":9568:9577   */\n      dup12\n        /* \"#utility.yul\":9564:9586   */\n      add\n        /* \"#utility.yul\":9495:9596   */\n      tag_310\n      jump\t// in\n    tag_431:\n        /* \"#utility.yul\":9485:9596   */\n      swap3\n      pop\n        /* \"#utility.yul\":9279:9606   */\n      pop\n        /* \"#utility.yul\":9673:9676   */\n      0xe0\n        /* \"#utility.yul\":9662:9671   */\n      dup9\n        /* \"#utility.yul\":9658:9677   */\n      add\n        /* \"#utility.yul\":9645:9678   */\n      calldataload\n        /* \"#utility.yul\":9705:9723   */\n      0xffffffffffffffff\n        /* \"#utility.yul\":9697:9703   */\n      dup2\n        /* \"#utility.yul\":9694:9724   */\n      gt\n        /* \"#utility.yul\":9691:9808   */\n      iszero\n      tag_432\n      jumpi\n        /* \"#utility.yul\":9727:9806   */\n      tag_433\n      tag_295\n      jump\t// in\n    tag_433:\n        /* \"#utility.yul\":9691:9808   */\n    tag_432:\n        /* \"#utility.yul\":9832:9933   */\n      tag_434\n        /* \"#utility.yul\":9925:9932   */\n      dup11\n        /* \"#utility.yul\":9916:9922   */\n      dup3\n        /* \"#utility.yul\":9905:9914   */\n      dup12\n        /* \"#utility.yul\":9901:9923   */\n      add\n        /* \"#utility.yul\":9832:9933   */\n      tag_310\n      jump\t// in\n    tag_434:\n        /* \"#utility.yul\":9822:9933   */\n      swap2\n      pop\n        /* \"#utility.yul\":9616:9943   */\n      pop\n        /* \"#utility.yul\":7257:9950   */\n      swap3\n      swap6\n      swap9\n      swap2\n      swap5\n      swap8\n      pop\n      swap3\n      swap6\n      pop\n      jump\t// out\n        /* \"#utility.yul\":9956:10046   */\n    tag_314:\n        /* \"#utility.yul\":9990:9997   */\n      0x00\n        /* \"#utility.yul\":10033:10038   */\n      dup2\n        /* \"#utility.yul\":10026:10039   */\n      iszero\n        /* \"#utility.yul\":10019:10040   */\n      iszero\n        /* \"#utility.yul\":10008:10040   */\n      swap1\n      pop\n        /* \"#utility.yul\":9956:10046   */\n      swap2\n      swap1\n      pop\n      jump\t// out\n        /* \"#utility.yul\":10052:10161   */\n    tag_315:\n        /* \"#utility.yul\":10133:10154   */\n      tag_437\n        /* \"#utility.yul\":10148:10153   */\n      dup2\n        /* \"#utility.yul\":10133:10154   */\n      tag_314\n      jump\t// in\n    tag_437:\n        /* \"#utility.yul\":10128:10131   */\n      dup3\n        /* \"#utility.yul\":10121:10155   */\n      mstore\n        /* \"#utility.yul\":10052:10161   */\n      pop\n      pop\n      jump\t// out\n        /* \"#utility.yul\":10167:10377   */\n    tag_18:\n        /* \"#utility.yul\":10254:10258   */\n      0x00\n        /* \"#utility.yul\":10292:10294   */\n      0x20\n        /* \"#utility.yul\":10281:10290   */\n      dup3\n        /* \"#utility.yul\":10277:10295   */\n      add\n        /* \"#utility.yul\":10269:10295   */\n      swap1\n      pop\n        /* \"#utility.yul\":10305:10370   */\n      tag_439\n        /* \"#utility.yul\":10367:10368   */\n      0x00\n        /* \"#utility.yul\":10356:10365   */\n      dup4\n        /* \"#utility.yul\":10352:10369   */\n      add\n        /* \"#utility.yul\":10343:10349   */\n      dup5\n        /* \"#utility.yul\":10305:10370   */\n      tag_315\n      jump\t// in\n    tag_439:\n        /* \"#utility.yul\":10167:10377   */\n      swap3\n      swap2\n      pop\n      pop\n      jump\t// out\n        /* \"#utility.yul\":10383:10857   */\n    tag_21:\n        /* \"#utility.yul\":10451:10457   */\n      0x00\n        /* \"#utility.yul\":10459:10465   */\n      dup1\n        /* \"#utility.yul\":10508:10510   */\n      0x40\n        /* \"#utility.yul\":10496:10505   */\n      dup4\n        /* \"#utility.yul\":10487:10494   */\n      dup6\n        /* \"#utility.yul\":10483:10506   */\n      sub\n        /* \"#utility.yul\":10479:10511   */\n      slt\n        /* \"#utility.yul\":10476:10595   */\n      iszero\n      tag_441\n      jumpi\n        /* \"#utility.yul\":10514:10593   */\n      tag_442\n      tag_294\n      jump\t// in\n    tag_442:\n        /* \"#utility.yul\":10476:10595   */\n    tag_441:\n        /* \"#utility.yul\":10634:10635   */\n      0x00\n        /* \"#utility.yul\":10659:10712   */\n      tag_443\n        /* \"#utility.yul\":10704:10711   */\n      dup6\n        /* \"#utility.yul\":10695:10701   */\n      dup3\n        /* \"#utility.yul\":10684:10693   */\n      dup7\n        /* \"#utility.yul\":10680:10702   */\n      add\n        /* \"#utility.yul\":10659:10712   */\n      tag_298\n      jump\t// in\n    tag_443:\n        /* \"#utility.yul\":10649:10712   */\n      swap3\n      pop\n        /* \"#utility.yul\":10605:10722   */\n      pop\n        /* \"#utility.yul\":10761:10763   */\n      0x20\n        /* \"#utility.yul\":10787:10840   */\n      tag_444\n        /* \"#utility.yul\":10832:10839   */\n      dup6\n        /* \"#utility.yul\":10823:10829   */\n      dup3\n        /* \"#utility.yul\":10812:10821   */\n      dup7\n        /* \"#utility.yul\":10808:10830   */\n      add\n        /* \"#utility.yul\":10787:10840   */\n      tag_298\n      jump\t// in\n    tag_444:\n        /* \"#utility.yul\":10777:10840   */\n      swap2\n      pop\n        /* \"#utility.yul\":10732:10850   */\n      pop\n        /* \"#utility.yul\":10383:10857   */\n      swap3\n      pop\n      swap3\n      swap1\n      pop\n      jump\t// out\n        /* \"#utility.yul\":10863:11482   */\n    tag_26:\n        /* \"#utility.yul\":10940:10946   */\n      0x00\n        /* \"#utility.yul\":10948:10954   */\n      dup1\n        /* \"#utility.yul\":10956:10962   */\n      0x00\n        /* \"#utility.yul\":11005:11007   */\n      0x60\n        /* \"#utility.yul\":10993:11002   */\n      dup5\n        /* \"#utility.yul\":10984:10991   */\n      dup7\n        /* \"#utility.yul\":10980:11003   */\n      sub\n        /* \"#utility.yul\":10976:11008   */\n      slt\n        /* \"#utility.yul\":10973:11092   */\n      iszero\n      tag_446\n      jumpi\n        /* \"#utility.yul\":11011:11090   */\n      tag_447\n      tag_294\n      jump\t// in\n    tag_447:\n        /* \"#utility.yul\":10973:11092   */\n    tag_446:\n        /* \"#utility.yul\":11131:11132   */\n      0x00\n        /* \"#utility.yul\":11156:11209   */\n      tag_448\n        /* \"#utility.yul\":11201:11208   */\n      dup7\n        /* \"#utility.yul\":11192:11198   */\n      dup3\n        /* \"#utility.yul\":11181:11190   */\n      dup8\n        /* \"#utility.yul\":11177:11199   */\n      add\n        /* \"#utility.yul\":11156:11209   */\n      tag_298\n      jump\t// in\n    tag_448:\n        /* \"#utility.yul\":11146:11209   */\n      swap4\n      pop\n        /* \"#utility.yul\":11102:11219   */\n      pop\n        /* \"#utility.yul\":11258:11260   */\n      0x20\n        /* \"#utility.yul\":11284:11337   */\n      tag_449\n        /* \"#utility.yul\":11329:11336   */\n      dup7\n        /* \"#utility.yul\":11320:11326   */\n      dup3\n        /* \"#utility.yul\":11309:11318   */\n      dup8\n        /* \"#utility.yul\":11305:11327   */\n      add\n        /* \"#utility.yul\":11284:11337   */\n      tag_298\n      jump\t// in\n    tag_449:\n        /* \"#utility.yul\":11274:11337   */\n      swap3\n      pop\n        /* \"#utility.yul\":11229:11347   */\n      pop\n        /* \"#utility.yul\":11386:11388   */\n      0x40\n        /* \"#utility.yul\":11412:11465   */\n      tag_450\n        /* \"#utility.yul\":11457:11464   */\n      dup7\n        /* \"#utility.yul\":11448:11454   */\n      dup3\n        /* \"#utility.yul\":11437:11446   */\n      dup8\n        /* \"#utility.yul\":11433:11455   */\n      add\n        /* \"#utility.yul\":11412:11465   */\n      tag_298\n      jump\t// in\n    tag_450:\n        /* \"#utility.yul\":11402:11465   */\n      swap2\n      pop\n        /* \"#utility.yul\":11357:11475   */\n      pop\n        /* \"#utility.yul\":10863:11482   */\n      swap3\n      pop\n      swap3\n      pop\n      swap3\n      jump\t// out\n        /* \"#utility.yul\":11488:11657   */\n    tag_316:\n        /* \"#utility.yul\":11572:11583   */\n      0x00\n        /* \"#utility.yul\":11606:11612   */\n      dup3\n        /* \"#utility.yul\":11601:11604   */\n      dup3\n        /* \"#utility.yul\":11594:11613   */\n      mstore\n        /* \"#utility.yul\":11646:11650   */\n      0x20\n        /* \"#utility.yul\":11641:11644   */\n      dup3\n        /* \"#utility.yul\":11637:11651   */\n      add\n        /* \"#utility.yul\":11622:11651   */\n      swap1\n      pop\n        /* \"#utility.yul\":11488:11657   */\n      swap3\n      swap2\n      pop\n      pop\n      jump\t// out\n        /* \"#utility.yul\":11663:11973   */\n    tag_317:\n        /* \"#utility.yul\":11803:11837   */\n      0x496e76616c696420696e707574206c656e6774682c20412c20422c207a4c6973\n        /* \"#utility.yul\":11799:11800   */\n      0x00\n        /* \"#utility.yul\":11791:11797   */\n      dup3\n        /* \"#utility.yul\":11787:11801   */\n      add\n        /* \"#utility.yul\":11780:11838   */\n      mstore\n        /* \"#utility.yul\":11872:11906   */\n      0x745f312c207a4c6973745f322c20584c6973742c20594c6973742073686f756c\n        /* \"#utility.yul\":11867:11869   */\n      0x20\n        /* \"#utility.yul\":11859:11865   */\n      dup3\n        /* \"#utility.yul\":11855:11870   */\n      add\n        /* \"#utility.yul\":11848:11907   */\n      mstore\n        /* \"#utility.yul\":11941:11965   */\n      0x642068617665207468652073616d65206c656e67746800000000000000000000\n        /* \"#utility.yul\":11936:11938   */\n      0x40\n        /* \"#utility.yul\":11928:11934   */\n      dup3\n        /* \"#utility.yul\":11924:11939   */\n      add\n        /* \"#utility.yul\":11917:11966   */\n      mstore\n        /* \"#utility.yul\":11663:11973   */\n      pop\n      jump\t// out\n        /* \"#utility.yul\":11979:12345   */\n    tag_318:\n        /* \"#utility.yul\":12121:12124   */\n      0x00\n        /* \"#utility.yul\":12142:12209   */\n      tag_454\n        /* \"#utility.yul\":12206:12208   */\n      0x56\n        /* \"#utility.yul\":12201:12204   */\n      dup4\n        /* \"#utility.yul\":12142:12209   */\n      tag_316\n      jump\t// in\n    tag_454:\n        /* \"#utility.yul\":12135:12209   */\n      swap2\n      pop\n        /* \"#utility.yul\":12218:12311   */\n      tag_455\n        /* \"#utility.yul\":12307:12310   */\n      dup3\n        /* \"#utility.yul\":12218:12311   */\n      tag_317\n      jump\t// in\n    tag_455:\n        /* \"#utility.yul\":12336:12338   */\n      0x60\n        /* \"#utility.yul\":12331:12334   */\n      dup3\n        /* \"#utility.yul\":12327:12339   */\n      add\n        /* \"#utility.yul\":12320:12339   */\n      swap1\n      pop\n        /* \"#utility.yul\":11979:12345   */\n      swap2\n      swap1\n      pop\n      jump\t// out\n        /* \"#utility.yul\":12351:12770   */\n    tag_39:\n        /* \"#utility.yul\":12517:12521   */\n      0x00\n        /* \"#utility.yul\":12555:12557   */\n      0x20\n        /* \"#utility.yul\":12544:12553   */\n      dup3\n        /* \"#utility.yul\":12540:12558   */\n      add\n        /* \"#utility.yul\":12532:12558   */\n      swap1\n      pop\n        /* \"#utility.yul\":12604:12613   */\n      dup2\n        /* \"#utility.yul\":12598:12602   */\n      dup2\n        /* \"#utility.yul\":12594:12614   */\n      sub\n        /* \"#utility.yul\":12590:12591   */\n      0x00\n        /* \"#utility.yul\":12579:12588   */\n      dup4\n        /* \"#utility.yul\":12575:12592   */\n      add\n        /* \"#utility.yul\":12568:12615   */\n      mstore\n        /* \"#utility.yul\":12632:12763   */\n      tag_457\n        /* \"#utility.yul\":12758:12762   */\n      dup2\n        /* \"#utility.yul\":12632:12763   */\n      tag_318\n      jump\t// in\n    tag_457:\n        /* \"#utility.yul\":12624:12763   */\n      swap1\n      pop\n        /* \"#utility.yul\":12351:12770   */\n      swap2\n      swap1\n      pop\n      jump\t// out\n        /* \"#utility.yul\":12776:13081   */\n    tag_319:\n        /* \"#utility.yul\":12916:12950   */\n      0x496e76616c696420696e707574206c656e6774682c20412c20422c207a4c6973\n        /* \"#utility.yul\":12912:12913   */\n      0x00\n        /* \"#utility.yul\":12904:12910   */\n      dup3\n        /* \"#utility.yul\":12900:12914   */\n      add\n        /* \"#utility.yul\":12893:12951   */\n      mstore\n        /* \"#utility.yul\":12985:13019   */\n      0x745f312c207a4c6973745f322c20584c6973742c20594c6973742073686f756c\n        /* \"#utility.yul\":12980:12982   */\n      0x20\n        /* \"#utility.yul\":12972:12978   */\n      dup3\n        /* \"#utility.yul\":12968:12983   */\n      add\n        /* \"#utility.yul\":12961:13020   */\n      mstore\n        /* \"#utility.yul\":13054:13073   */\n      0x642068617665206c656e677468203e2030000000000000000000000000000000\n        /* \"#utility.yul\":13049:13051   */\n      0x40\n        /* \"#utility.yul\":13041:13047   */\n      dup3\n        /* \"#utility.yul\":13037:13052   */\n      add\n        /* \"#utility.yul\":13030:13074   */\n      mstore\n        /* \"#utility.yul\":12776:13081   */\n      pop\n      jump\t// out\n        /* \"#utility.yul\":13087:13453   */\n    tag_320:\n        /* \"#utility.yul\":13229:13232   */\n      0x00\n        /* \"#utility.yul\":13250:13317   */\n      tag_460\n        /* \"#utility.yul\":13314:13316   */\n      0x51\n        /* \"#utility.yul\":13309:13312   */\n      dup4\n        /* \"#utility.yul\":13250:13317   */\n      tag_316\n      jump\t// in\n    tag_460:\n        /* \"#utility.yul\":13243:13317   */\n      swap2\n      pop\n        /* \"#utility.yul\":13326:13419   */\n      tag_461\n        /* \"#utility.yul\":13415:13418   */\n      dup3\n        /* \"#utility.yul\":13326:13419   */\n      tag_319\n      jump\t// in\n    tag_461:\n        /* \"#utility.yul\":13444:13446   */\n      0x60\n        /* \"#utility.yul\":13439:13442   */\n      dup3\n        /* \"#utility.yul\":13435:13447   */\n      add\n        /* \"#utility.yul\":13428:13447   */\n      swap1\n      pop\n        /* \"#utility.yul\":13087:13453   */\n      swap2\n      swap1\n      pop\n      jump\t// out\n        /* \"#utility.yul\":13459:13878   */\n    tag_42:\n        /* \"#utility.yul\":13625:13629   */\n      0x00\n        /* \"#utility.yul\":13663:13665   */\n      0x20\n        /* \"#utility.yul\":13652:13661   */\n      dup3\n        /* \"#utility.yul\":13648:13666   */\n      add\n        /* \"#utility.yul\":13640:13666   */\n      swap1\n      pop\n        /* \"#utility.yul\":13712:13721   */\n      dup2\n        /* \"#utility.yul\":13706:13710   */\n      dup2\n        /* \"#utility.yul\":13702:13722   */\n      sub\n        /* \"#utility.yul\":13698:13699   */\n      0x00\n        /* \"#utility.yul\":13687:13696   */\n      dup4\n        /* \"#utility.yul\":13683:13700   */\n      add\n        /* \"#utility.yul\":13676:13723   */\n      mstore\n        /* \"#utility.yul\":13740:13871   */\n      tag_463\n        /* \"#utility.yul\":13866:13870   */\n      dup2\n        /* \"#utility.yul\":13740:13871   */\n      tag_320\n      jump\t// in\n    tag_463:\n        /* \"#utility.yul\":13732:13871   */\n      swap1\n      pop\n        /* \"#utility.yul\":13459:13878   */\n      swap2\n      swap1\n      pop\n      jump\t// out\n        /* \"#utility.yul\":13884:14064   */\n    tag_321:\n        /* \"#utility.yul\":13932:14009   */\n      0x4e487b7100000000000000000000000000000000000000000000000000000000\n        /* \"#utility.yul\":13929:13930   */\n      0x00\n        /* \"#utility.yul\":13922:14010   */\n      mstore\n        /* \"#utility.yul\":14029:14033   */\n      0x11\n        /* \"#utility.yul\":14026:14027   */\n      0x04\n        /* \"#utility.yul\":14019:14034   */\n      mstore\n        /* \"#utility.yul\":14053:14057   */\n      0x24\n        /* \"#utility.yul\":14050:14051   */\n      0x00\n        /* \"#utility.yul\":14043:14058   */\n      revert\n        /* \"#utility.yul\":14070:14261   */\n    tag_47:\n        /* \"#utility.yul\":14110:14113   */\n      0x00\n        /* \"#utility.yul\":14129:14149   */\n      tag_466\n        /* \"#utility.yul\":14147:14148   */\n      dup3\n        /* \"#utility.yul\":14129:14149   */\n      tag_296\n      jump\t// in\n    tag_466:\n        /* \"#utility.yul\":14124:14149   */\n      swap2\n      pop\n        /* \"#utility.yul\":14163:14183   */\n      tag_467\n        /* \"#utility.yul\":14181:14182   */\n      dup4\n        /* \"#utility.yul\":14163:14183   */\n      tag_296\n      jump\t// in\n    tag_467:\n        /* \"#utility.yul\":14158:14183   */\n      swap3\n      pop\n        /* \"#utility.yul\":14206:14207   */\n      dup3\n        /* \"#utility.yul\":14203:14204   */\n      dup3\n        /* \"#utility.yul\":14199:14208   */\n      add\n        /* \"#utility.yul\":14192:14208   */\n      swap1\n      pop\n        /* \"#utility.yul\":14227:14230   */\n      dup1\n        /* \"#utility.yul\":14224:14225   */\n      dup3\n        /* \"#utility.yul\":14221:14231   */\n      gt\n        /* \"#utility.yul\":14218:14254   */\n      iszero\n      tag_468\n      jumpi\n        /* \"#utility.yul\":14234:14252   */\n      tag_469\n      tag_321\n      jump\t// in\n    tag_469:\n        /* \"#utility.yul\":14218:14254   */\n    tag_468:\n        /* \"#utility.yul\":14070:14261   */\n      swap3\n      swap2\n      pop\n      pop\n      jump\t// out\n        /* \"#utility.yul\":14267:14366   */\n    tag_322:\n        /* \"#utility.yul\":14319:14325   */\n      0x00\n        /* \"#utility.yul\":14353:14358   */\n      dup2\n        /* \"#utility.yul\":14347:14359   */\n      mload\n        /* \"#utility.yul\":14337:14359   */\n      swap1\n      pop\n        /* \"#utility.yul\":14267:14366   */\n      swap2\n      swap1\n      pop\n      jump\t// out\n        /* \"#utility.yul\":14372:14520   */\n    tag_323:\n        /* \"#utility.yul\":14474:14485   */\n      0x00\n        /* \"#utility.yul\":14511:14514   */\n      dup2\n        /* \"#utility.yul\":14496:14514   */\n      swap1\n      pop\n        /* \"#utility.yul\":14372:14520   */\n      swap3\n      swap2\n      pop\n      pop\n      jump\t// out\n        /* \"#utility.yul\":14526:14772   */\n    tag_324:\n        /* \"#utility.yul\":14607:14608   */\n      0x00\n        /* \"#utility.yul\":14617:14730   */\n    tag_473:\n        /* \"#utility.yul\":14631:14637   */\n      dup4\n        /* \"#utility.yul\":14628:14629   */\n      dup2\n        /* \"#utility.yul\":14625:14638   */\n      lt\n        /* \"#utility.yul\":14617:14730   */\n      iszero\n      tag_475\n      jumpi\n        /* \"#utility.yul\":14716:14717   */\n      dup1\n        /* \"#utility.yul\":14711:14714   */\n      dup3\n        /* \"#utility.yul\":14707:14718   */\n      add\n        /* \"#utility.yul\":14701:14719   */\n      mload\n        /* \"#utility.yul\":14697:14698   */\n      dup2\n        /* \"#utility.yul\":14692:14695   */\n      dup5\n        /* \"#utility.yul\":14688:14699   */\n      add\n        /* \"#utility.yul\":14681:14720   */\n      mstore\n        /* \"#utility.yul\":14653:14655   */\n      0x20\n        /* \"#utility.yul\":14650:14651   */\n      dup2\n        /* \"#utility.yul\":14646:14656   */\n      add\n        /* \"#utility.yul\":14641:14656   */\n      swap1\n      pop\n        /* \"#utility.yul\":14617:14730   */\n      jump(tag_473)\n    tag_475:\n        /* \"#utility.yul\":14764:14765   */\n      0x00\n        /* \"#utility.yul\":14755:14761   */\n      dup5\n        /* \"#utility.yul\":14750:14753   */\n      dup5\n        /* \"#utility.yul\":14746:14762   */\n      add\n        /* \"#utility.yul\":14739:14766   */\n      mstore\n        /* \"#utility.yul\":14588:14772   */\n      pop\n        /* \"#utility.yul\":14526:14772   */\n      pop\n      pop\n      pop\n      jump\t// out\n        /* \"#utility.yul\":14778:15168   */\n    tag_325:\n        /* \"#utility.yul\":14884:14887   */\n      0x00\n        /* \"#utility.yul\":14912:14951   */\n      tag_477\n        /* \"#utility.yul\":14945:14950   */\n      dup3\n        /* \"#utility.yul\":14912:14951   */\n      tag_322\n      jump\t// in\n    tag_477:\n        /* \"#utility.yul\":14967:15056   */\n      tag_478\n        /* \"#utility.yul\":15049:15055   */\n      dup2\n        /* \"#utility.yul\":15044:15047   */\n      dup6\n        /* \"#utility.yul\":14967:15056   */\n      tag_323\n      jump\t// in\n    tag_478:\n        /* \"#utility.yul\":14960:15056   */\n      swap4\n      pop\n        /* \"#utility.yul\":15065:15130   */\n      tag_479\n        /* \"#utility.yul\":15123:15129   */\n      dup2\n        /* \"#utility.yul\":15118:15121   */\n      dup6\n        /* \"#utility.yul\":15111:15115   */\n      0x20\n        /* \"#utility.yul\":15104:15109   */\n      dup7\n        /* \"#utility.yul\":15100:15116   */\n      add\n        /* \"#utility.yul\":15065:15130   */\n      tag_324\n      jump\t// in\n    tag_479:\n        /* \"#utility.yul\":15155:15161   */\n      dup1\n        /* \"#utility.yul\":15150:15153   */\n      dup5\n        /* \"#utility.yul\":15146:15162   */\n      add\n        /* \"#utility.yul\":15139:15162   */\n      swap2\n      pop\n        /* \"#utility.yul\":14888:15168   */\n      pop\n        /* \"#utility.yul\":14778:15168   */\n      swap3\n      swap2\n      pop\n      pop\n      jump\t// out\n        /* \"#utility.yul\":15174:15449   */\n    tag_51:\n        /* \"#utility.yul\":15306:15309   */\n      0x00\n        /* \"#utility.yul\":15328:15423   */\n      tag_481\n        /* \"#utility.yul\":15419:15422   */\n      dup3\n        /* \"#utility.yul\":15410:15416   */\n      dup5\n        /* \"#utility.yul\":15328:15423   */\n      tag_325\n      jump\t// in\n    tag_481:\n        /* \"#utility.yul\":15321:15423   */\n      swap2\n      pop\n        /* \"#utility.yul\":15440:15443   */\n      dup2\n        /* \"#utility.yul\":15433:15443   */\n      swap1\n      pop\n        /* \"#utility.yul\":15174:15449   */\n      swap3\n      swap2\n      pop\n      pop\n      jump\t// out\n        /* \"#utility.yul\":15455:15635   */\n    tag_58:\n        /* \"#utility.yul\":15503:15580   */\n      0x4e487b7100000000000000000000000000000000000000000000000000000000\n        /* \"#utility.yul\":15500:15501   */\n      0x00\n        /* \"#utility.yul\":15493:15581   */\n      mstore\n        /* \"#utility.yul\":15600:15604   */\n      0x32\n        /* \"#utility.yul\":15597:15598   */\n      0x04\n        /* \"#utility.yul\":15590:15605   */\n      mstore\n        /* \"#utility.yul\":15624:15628   */\n      0x24\n        /* \"#utility.yul\":15621:15622   */\n      0x00\n        /* \"#utility.yul\":15614:15629   */\n      revert\n        /* \"#utility.yul\":15641:15727   */\n    tag_326:\n        /* \"#utility.yul\":15676:15683   */\n      0x00\n        /* \"#utility.yul\":15716:15720   */\n      0xff\n        /* \"#utility.yul\":15709:15714   */\n      dup3\n        /* \"#utility.yul\":15705:15721   */\n      and\n        /* \"#utility.yul\":15694:15721   */\n      swap1\n      pop\n        /* \"#utility.yul\":15641:15727   */\n      swap2\n      swap1\n      pop\n      jump\t// out\n        /* \"#utility.yul\":15733:15900   */\n    tag_75:\n        /* \"#utility.yul\":15770:15773   */\n      0x00\n        /* \"#utility.yul\":15793:15815   */\n      tag_485\n        /* \"#utility.yul\":15809:15814   */\n      dup3\n        /* \"#utility.yul\":15793:15815   */\n      tag_326\n      jump\t// in\n    tag_485:\n        /* \"#utility.yul\":15784:15815   */\n      swap2\n      pop\n        /* \"#utility.yul\":15837:15841   */\n      0xff\n        /* \"#utility.yul\":15830:15835   */\n      dup3\n        /* \"#utility.yul\":15827:15842   */\n      sub\n        /* \"#utility.yul\":15824:15865   */\n      tag_486\n      jumpi\n        /* \"#utility.yul\":15845:15863   */\n      tag_487\n      tag_321\n      jump\t// in\n    tag_487:\n        /* \"#utility.yul\":15824:15865   */\n    tag_486:\n        /* \"#utility.yul\":15892:15893   */\n      0x01\n        /* \"#utility.yul\":15885:15890   */\n      dup3\n        /* \"#utility.yul\":15881:15894   */\n      add\n        /* \"#utility.yul\":15874:15894   */\n      swap1\n      pop\n        /* \"#utility.yul\":15733:15900   */\n      swap2\n      swap1\n      pop\n      jump\t// out\n        /* \"#utility.yul\":15906:16086   */\n    tag_89:\n        /* \"#utility.yul\":15954:16031   */\n      0x4e487b7100000000000000000000000000000000000000000000000000000000\n        /* \"#utility.yul\":15951:15952   */\n      0x00\n        /* \"#utility.yul\":15944:16032   */\n      mstore\n        /* \"#utility.yul\":16051:16055   */\n      0x12\n        /* \"#utility.yul\":16048:16049   */\n      0x04\n        /* \"#utility.yul\":16041:16056   */\n      mstore\n        /* \"#utility.yul\":16075:16079   */\n      0x24\n        /* \"#utility.yul\":16072:16073   */\n      0x00\n        /* \"#utility.yul\":16065:16080   */\n      revert\n        /* \"#utility.yul\":16092:16325   */\n    tag_131:\n        /* \"#utility.yul\":16131:16134   */\n      0x00\n        /* \"#utility.yul\":16154:16178   */\n      tag_490\n        /* \"#utility.yul\":16172:16177   */\n      dup3\n        /* \"#utility.yul\":16154:16178   */\n      tag_296\n      jump\t// in\n    tag_490:\n        /* \"#utility.yul\":16145:16178   */\n      swap2\n      pop\n        /* \"#utility.yul\":16200:16266   */\n      0xffffffffffffffffffffffffffffffffffffffffffffffffffffffffffffffff\n        /* \"#utility.yul\":16193:16198   */\n      dup3\n        /* \"#utility.yul\":16190:16267   */\n      sub\n        /* \"#utility.yul\":16187:16290   */\n      tag_491\n      jumpi\n        /* \"#utility.yul\":16270:16288   */\n      tag_492\n      tag_321\n      jump\t// in\n    tag_492:\n        /* \"#utility.yul\":16187:16290   */\n    tag_491:\n        /* \"#utility.yul\":16317:16318   */\n      0x01\n        /* \"#utility.yul\":16310:16315   */\n      dup3\n        /* \"#utility.yul\":16306:16319   */\n      add\n        /* \"#utility.yul\":16299:16319   */\n      swap1\n      pop\n        /* \"#utility.yul\":16092:16325   */\n      swap2\n      swap1\n      pop\n      jump\t// out\n        /* \"#utility.yul\":16331:16516   */\n    tag_133:\n        /* \"#utility.yul\":16371:16372   */\n      0x00\n        /* \"#utility.yul\":16388:16408   */\n      tag_494\n        /* \"#utility.yul\":16406:16407   */\n      dup3\n        /* \"#utility.yul\":16388:16408   */\n      tag_296\n      jump\t// in\n    tag_494:\n        /* \"#utility.yul\":16383:16408   */\n      swap2\n      pop\n        /* \"#utility.yul\":16422:16442   */\n      tag_495\n        /* \"#utility.yul\":16440:16441   */\n      dup4\n        /* \"#utility.yul\":16422:16442   */\n      tag_296\n      jump\t// in\n    tag_495:\n        /* \"#utility.yul\":16417:16442   */\n      swap3\n      pop\n        /* \"#utility.yul\":16461:16462   */\n      dup3\n        /* \"#utility.yul\":16451:16486   */\n      tag_496\n      jumpi\n        /* \"#utility.yul\":16466:16484   */\n      tag_497\n      tag_89\n      jump\t// in\n    tag_497:\n        /* \"#utility.yul\":16451:16486   */\n    tag_496:\n        /* \"#utility.yul\":16508:16509   */\n      dup3\n        /* \"#utility.yul\":16505:16506   */\n      dup3\n        /* \"#utility.yul\":16501:16510   */\n      div\n        /* \"#utility.yul\":16496:16510   */\n      swap1\n      pop\n        /* \"#utility.yul\":16331:16516   */\n      swap3\n      swap2\n      pop\n      pop\n      jump\t// out\n        /* \"#utility.yul\":16522:16716   */\n    tag_141:\n        /* \"#utility.yul\":16562:16566   */\n      0x00\n        /* \"#utility.yul\":16582:16602   */\n      tag_499\n        /* \"#utility.yul\":16600:16601   */\n      dup3\n        /* \"#utility.yul\":16582:16602   */\n      tag_296\n      jump\t// in\n    tag_499:\n        /* \"#utility.yul\":16577:16602   */\n      swap2\n      pop\n        /* \"#utility.yul\":16616:16636   */\n      tag_500\n        /* \"#utility.yul\":16634:16635   */\n      dup4\n        /* \"#utility.yul\":16616:16636   */\n      tag_296\n      jump\t// in\n    tag_500:\n        /* \"#utility.yul\":16611:16636   */\n      swap3\n      pop\n        /* \"#utility.yul\":16660:16661   */\n      dup3\n        /* \"#utility.yul\":16657:16658   */\n      dup3\n        /* \"#utility.yul\":16653:16662   */\n      sub\n        /* \"#utility.yul\":16645:16662   */\n      swap1\n      pop\n        /* \"#utility.yul\":16684:16685   */\n      dup2\n        /* \"#utility.yul\":16678:16682   */\n      dup2\n        /* \"#utility.yul\":16675:16686   */\n      gt\n        /* \"#utility.yul\":16672:16709   */\n      iszero\n      tag_501\n      jumpi\n        /* \"#utility.yul\":16689:16707   */\n      tag_502\n      tag_321\n      jump\t// in\n    tag_502:\n        /* \"#utility.yul\":16672:16709   */\n    tag_501:\n        /* \"#utility.yul\":16522:16716   */\n      swap3\n      swap2\n      pop\n      pop\n      jump\t// out\n        /* \"#utility.yul\":16722:17132   */\n    tag_144:\n        /* \"#utility.yul\":16762:16769   */\n      0x00\n        /* \"#utility.yul\":16785:16805   */\n      tag_504\n        /* \"#utility.yul\":16803:16804   */\n      dup3\n        /* \"#utility.yul\":16785:16805   */\n      tag_296\n      jump\t// in\n    tag_504:\n        /* \"#utility.yul\":16780:16805   */\n      swap2\n      pop\n        /* \"#utility.yul\":16819:16839   */\n      tag_505\n        /* \"#utility.yul\":16837:16838   */\n      dup4\n        /* \"#utility.yul\":16819:16839   */\n      tag_296\n      jump\t// in\n    tag_505:\n        /* \"#utility.yul\":16814:16839   */\n      swap3\n      pop\n        /* \"#utility.yul\":16874:16875   */\n      dup3\n        /* \"#utility.yul\":16871:16872   */\n      dup3\n        /* \"#utility.yul\":16867:16876   */\n      mul\n        /* \"#utility.yul\":16896:16926   */\n      tag_506\n        /* \"#utility.yul\":16914:16925   */\n      dup2\n        /* \"#utility.yul\":16896:16926   */\n      tag_296\n      jump\t// in\n    tag_506:\n        /* \"#utility.yul\":16885:16926   */\n      swap2\n      pop\n        /* \"#utility.yul\":17075:17076   */\n      dup3\n        /* \"#utility.yul\":17066:17073   */\n      dup3\n        /* \"#utility.yul\":17062:17077   */\n      div\n        /* \"#utility.yul\":17059:17060   */\n      dup5\n        /* \"#utility.yul\":17056:17078   */\n      eq\n        /* \"#utility.yul\":17036:17037   */\n      dup4\n        /* \"#utility.yul\":17029:17038   */\n      iszero\n        /* \"#utility.yul\":17009:17092   */\n      or\n        /* \"#utility.yul\":16986:17125   */\n      tag_507\n      jumpi\n        /* \"#utility.yul\":17105:17123   */\n      tag_508\n      tag_321\n      jump\t// in\n    tag_508:\n        /* \"#utility.yul\":16986:17125   */\n    tag_507:\n        /* \"#utility.yul\":16770:17132   */\n      pop\n        /* \"#utility.yul\":16722:17132   */\n      swap3\n      swap2\n      pop\n      pop\n      jump\t// out\n        /* \"#utility.yul\":17138:17326   */\n    tag_147:\n        /* \"#utility.yul\":17176:17179   */\n      0x00\n        /* \"#utility.yul\":17195:17213   */\n      tag_510\n        /* \"#utility.yul\":17211:17212   */\n      dup3\n        /* \"#utility.yul\":17195:17213   */\n      tag_326\n      jump\t// in\n    tag_510:\n        /* \"#utility.yul\":17190:17213   */\n      swap2\n      pop\n        /* \"#utility.yul\":17227:17245   */\n      tag_511\n        /* \"#utility.yul\":17243:17244   */\n      dup4\n        /* \"#utility.yul\":17227:17245   */\n      tag_326\n      jump\t// in\n    tag_511:\n        /* \"#utility.yul\":17222:17245   */\n      swap3\n      pop\n        /* \"#utility.yul\":17268:17269   */\n      dup3\n        /* \"#utility.yul\":17265:17266   */\n      dup3\n        /* \"#utility.yul\":17261:17270   */\n      add\n        /* \"#utility.yul\":17254:17270   */\n      swap1\n      pop\n        /* \"#utility.yul\":17291:17295   */\n      0xff\n        /* \"#utility.yul\":17286:17289   */\n      dup2\n        /* \"#utility.yul\":17283:17296   */\n      gt\n        /* \"#utility.yul\":17280:17319   */\n      iszero\n      tag_512\n      jumpi\n        /* \"#utility.yul\":17299:17317   */\n      tag_513\n      tag_321\n      jump\t// in\n    tag_513:\n        /* \"#utility.yul\":17280:17319   */\n    tag_512:\n        /* \"#utility.yul\":17138:17326   */\n      swap3\n      swap2\n      pop\n      pop\n      jump\t// out\n        /* \"#utility.yul\":17332:17555   */\n    tag_327:\n        /* \"#utility.yul\":17472:17506   */\n      0x76616c6964206661696c65642c206172726179206c656e677468206e6f742065\n        /* \"#utility.yul\":17468:17469   */\n      0x00\n        /* \"#utility.yul\":17460:17466   */\n      dup3\n        /* \"#utility.yul\":17456:17470   */\n      add\n        /* \"#utility.yul\":17449:17507   */\n      mstore\n        /* \"#utility.yul\":17541:17547   */\n      0x7175616c00000000000000000000000000000000000000000000000000000000\n        /* \"#utility.yul\":17536:17538   */\n      0x20\n        /* \"#utility.yul\":17528:17534   */\n      dup3\n        /* \"#utility.yul\":17524:17539   */\n      add\n        /* \"#utility.yul\":17517:17548   */\n      mstore\n        /* \"#utility.yul\":17332:17555   */\n      pop\n      jump\t// out\n        /* \"#utility.yul\":17561:17927   */\n    tag_328:\n        /* \"#utility.yul\":17703:17706   */\n      0x00\n        /* \"#utility.yul\":17724:17791   */\n      tag_516\n        /* \"#utility.yul\":17788:17790   */\n      0x24\n        /* \"#utility.yul\":17783:17786   */\n      dup4\n        /* \"#utility.yul\":17724:17791   */\n      tag_316\n      jump\t// in\n    tag_516:\n        /* \"#utility.yul\":17717:17791   */\n      swap2\n      pop\n        /* \"#utility.yul\":17800:17893   */\n      tag_517\n        /* \"#utility.yul\":17889:17892   */\n      dup3\n        /* \"#utility.yul\":17800:17893   */\n      tag_327\n      jump\t// in\n    tag_517:\n        /* \"#utility.yul\":17918:17920   */\n      0x40\n        /* \"#utility.yul\":17913:17916   */\n      dup3\n        /* \"#utility.yul\":17909:17921   */\n      add\n        /* \"#utility.yul\":17902:17921   */\n      swap1\n      pop\n        /* \"#utility.yul\":17561:17927   */\n      swap2\n      swap1\n      pop\n      jump\t// out\n        /* \"#utility.yul\":17933:18352   */\n    tag_274:\n        /* \"#utility.yul\":18099:18103   */\n      0x00\n        /* \"#utility.yul\":18137:18139   */\n      0x20\n        /* \"#utility.yul\":18126:18135   */\n      dup3\n        /* \"#utility.yul\":18122:18140   */\n      add\n        /* \"#utility.yul\":18114:18140   */\n      swap1\n      pop\n        /* \"#utility.yul\":18186:18195   */\n      dup2\n        /* \"#utility.yul\":18180:18184   */\n      dup2\n        /* \"#utility.yul\":18176:18196   */\n      sub\n        /* \"#utility.yul\":18172:18173   */\n      0x00\n        /* \"#utility.yul\":18161:18170   */\n      dup4\n        /* \"#utility.yul\":18157:18174   */\n      add\n        /* \"#utility.yul\":18150:18197   */\n      mstore\n        /* \"#utility.yul\":18214:18345   */\n      tag_519\n        /* \"#utility.yul\":18340:18344   */\n      dup2\n        /* \"#utility.yul\":18214:18345   */\n      tag_328\n      jump\t// in\n    tag_519:\n        /* \"#utility.yul\":18206:18345   */\n      swap1\n      pop\n        /* \"#utility.yul\":17933:18352   */\n      swap2\n      swap1\n      pop\n      jump\t// out\n        /* \"#utility.yul\":18358:18735   */\n    tag_329:\n        /* \"#utility.yul\":18446:18449   */\n      0x00\n        /* \"#utility.yul\":18474:18513   */\n      tag_521\n        /* \"#utility.yul\":18507:18512   */\n      dup3\n        /* \"#utility.yul\":18474:18513   */\n      tag_322\n      jump\t// in\n    tag_521:\n        /* \"#utility.yul\":18529:18600   */\n      tag_522\n        /* \"#utility.yul\":18593:18599   */\n      dup2\n        /* \"#utility.yul\":18588:18591   */\n      dup6\n        /* \"#utility.yul\":18529:18600   */\n      tag_316\n      jump\t// in\n    tag_522:\n        /* \"#utility.yul\":18522:18600   */\n      swap4\n      pop\n        /* \"#utility.yul\":18609:18674   */\n      tag_523\n        /* \"#utility.yul\":18667:18673   */\n      dup2\n        /* \"#utility.yul\":18662:18665   */\n      dup6\n        /* \"#utility.yul\":18655:18659   */\n      0x20\n        /* \"#utility.yul\":18648:18653   */\n      dup7\n        /* \"#utility.yul\":18644:18660   */\n      add\n        /* \"#utility.yul\":18609:18674   */\n      tag_324\n      jump\t// in\n    tag_523:\n        /* \"#utility.yul\":18699:18728   */\n      tag_524\n        /* \"#utility.yul\":18721:18727   */\n      dup2\n        /* \"#utility.yul\":18699:18728   */\n      tag_301\n      jump\t// in\n    tag_524:\n        /* \"#utility.yul\":18694:18697   */\n      dup5\n        /* \"#utility.yul\":18690:18729   */\n      add\n        /* \"#utility.yul\":18683:18729   */\n      swap2\n      pop\n        /* \"#utility.yul\":18450:18735   */\n      pop\n        /* \"#utility.yul\":18358:18735   */\n      swap3\n      swap2\n      pop\n      pop\n      jump\t// out\n        /* \"#utility.yul\":18741:19054   */\n    tag_288:\n        /* \"#utility.yul\":18854:18858   */\n      0x00\n        /* \"#utility.yul\":18892:18894   */\n      0x20\n        /* \"#utility.yul\":18881:18890   */\n      dup3\n        /* \"#utility.yul\":18877:18895   */\n      add\n        /* \"#utility.yul\":18869:18895   */\n      swap1\n      pop\n        /* \"#utility.yul\":18941:18950   */\n      dup2\n        /* \"#utility.yul\":18935:18939   */\n      dup2\n        /* \"#utility.yul\":18931:18951   */\n      sub\n        /* \"#utility.yul\":18927:18928   */\n      0x00\n        /* \"#utility.yul\":18916:18925   */\n      dup4\n        /* \"#utility.yul\":18912:18929   */\n      add\n        /* \"#utility.yul\":18905:18952   */\n      mstore\n        /* \"#utility.yul\":18969:19047   */\n      tag_526\n        /* \"#utility.yul\":19042:19046   */\n      dup2\n        /* \"#utility.yul\":19033:19039   */\n      dup5\n        /* \"#utility.yul\":18969:19047   */\n      tag_329\n      jump\t// in\n    tag_526:\n        /* \"#utility.yul\":18961:19047   */\n      swap1\n      pop\n        /* \"#utility.yul\":18741:19054   */\n      swap3\n      swap2\n      pop\n      pop\n      jump\t// out\n\n    auxdata: 0xa26469706673582212204de74333395536ded053ab2f7a5bfdb966234e04a07b6fa059e56eafc36fd3e364736f6c63430008170033\n}\n",
				"bytecode": {
					"linkReferences": {},
					"object": "608060405260405180604001604052807f171e826ad4a870fd925e0bf0e87884e70e080879c2205ef10114f28a3b6f6dd781526020017f2bd407d897fbbca9f88adfd2d15252e69de8c1564eb4d3d27162e259172f1a1d8152505f9060026200006a929190620000e6565b5060405180604001604052807f05e8290bfaba1ccfad33259a92884cc00644d5fb019ca4dcbdb50123ab32aaf181526020017f05e352269c07449ea6667d7608c648894125d94e751b1b46a9cf56bbb02f37668152506002906002620000d2929190620000e6565b50348015620000df575f80fd5b5062000148565b826002810192821562000118579160200282015b8281111562000117578251825591602001919060010190620000fa565b5b5090506200012791906200012b565b5090565b5b8082111562000144575f815f9055506001016200012c565b5090565b611a6e80620001565f395ff3fe608060405234801561000f575f80fd5b506004361061004a575f3560e01c8063212aba381461004e578063c1f349fe1461007f578063de92b0e9146100af578063fd6bbc32146100e0575b5f80fd5b61006860048036038101906100639190610fe0565b610111565b604051610076929190611053565b60405180910390f35b61009960048036038101906100949190611344565b610130565b6040516100a691906114a4565b60405180910390f35b6100c960048036038101906100c491906114bd565b610352565b6040516100d7929190611053565b60405180910390f35b6100fa60048036038101906100f591906114fb565b61036d565b604051610108929190611053565b60405180910390f35b5f8061011f8686868661038a565b809250819350505094509492505050565b5f600280148015610142575085516002145b801561014f575084516002145b801561015b5750600280145b80156101675750600280145b6101a6576040517f08c379a000000000000000000000000000000000000000000000000000000000815260040161019d906115f1565b60405180910390fd5b5f6002116101e9576040517f08c379a00000000000000000000000000000000000000000000000000000000081526004016101e0906116a5565b60405180910390fd5b5f6101f388610678565b6101fc8a610678565b61020691906116f0565b90505f610212826106e5565b90505f81604051602001610226919061178f565b6040516020818303038152906040528051906020012090505f815f1c90505f5b60028160ff16101561033e576102b08b8260ff168151811061026b5761026a6117a5565b5b6020026020010151898360ff1660028110610289576102886117a5565b5b60200201518f8460ff16600281106102a4576102a36117a5565b5b60200201518c86610863565b61032b8b8260ff16815181106102c9576102c86117a5565b5b60200260200101518b8360ff16815181106102e7576102e66117a5565b5b6020026020010151898460ff1660028110610305576103046117a5565b5b60200201518f8560ff16600281106103205761031f6117a5565b5b602002015186610a24565b8080610336906117de565b915050610246565b506001945050505050979650505050505050565b5f8061035e8484610cfa565b80925081935050509250929050565b5f8061037a858585610d13565b8092508193505050935093915050565b5f805f8614801561039a57505f85145b156103aa5783839150915061066f565b5f841480156103b857505f85145b156103c85785859150915061066f565b5f7f30644e72e131a029b85045b68181585d2833e84879b9709143e1f593f0000001806103f8576103f7611806565b5b85880990505f7f30644e72e131a029b85045b68181585d2833e84879b9709143e1f593f00000018061042d5761042c611806565b5b85880990505f7f30644e72e131a029b85045b68181585d2833e84879b9709143e1f593f00000018061046257610461611806565b5b7f30644e72e131a029b85045b68181585d2833e84879b9709143e1f593f00000018061049157610490611806565b5b838509620292f80990505f7f30644e72e131a029b85045b68181585d2833e84879b9709143e1f593f0000001806104cb576104ca611806565b5b7f30644e72e131a029b85045b68181585d2833e84879b9709143e1f593f0000001806104fa576104f9611806565b5b898b097f30644e72e131a029b85045b68181585d2833e84879b9709143e1f593f00000018061052c5761052b611806565b5b898d090890505f610592847f30644e72e131a029b85045b68181585d2833e84879b9709143e1f593f00000018061056657610565611806565b5b87620292fc097f30644e72e131a029b85045b68181585d2833e84879b9709143e1f593f0000001610d83565b90507f30644e72e131a029b85045b68181585d2833e84879b9709143e1f593f0000001806105c3576105c2611806565b5b6105fe7f30644e72e131a029b85045b68181585d2833e84879b9709143e1f593f0000001806105f5576105f4611806565b5b85600108610dc5565b830996507f30644e72e131a029b85045b68181585d2833e84879b9709143e1f593f00000018061063157610630611806565b5b6106656106606001867f30644e72e131a029b85045b68181585d2833e84879b9709143e1f593f0000001610d83565b610dc5565b8209955050505050505b94509492505050565b5f805f90505b60028160ff1610156106df57828160ff16600281106106a05761069f6117a5565b5b60200201515f815181106106b7576106b66117a5565b5b6020026020010151826106ca91906116f0565b915080806106d7906117de565b91505061067e565b50919050565b60605f820361072b576040518060400160405280600181526020017f3000000000000000000000000000000000000000000000000000000000000000815250905061085e565b5f8290505f5b5f821461075a57808061074390611833565b915050600a82610753919061187a565b9150610731565b5f8167ffffffffffffffff8111156107755761077461108e565b5b6040519080825280601f01601f1916602001820160405280156107a75781602001600182028036833780820191505090505b5090505f8290505b5f8614610856576001816107c391906118aa565b90505f600a80886107d4919061187a565b6107de91906118dd565b876107e991906118aa565b60306107f5919061191e565b90505f8160f81b905080848481518110610812576108116117a5565b5b60200101907effffffffffffffffffffffffffffffffffffffffffffffffffffffffffffff191690815f1a905350600a8861084d919061187a565b975050506107af565b819450505050505b919050565b61086b610f7a565b6108a5835f60028110610881576108806117a5565b5b60200201518460016002811061089a576108996117a5565b5b602002015188610d13565b825f600281106108b8576108b76117a5565b5b60200201836001600281106108d0576108cf6117a5565b5b60200201828152508281525050506108e6610f7a565b610926865f815181106108fc576108fb6117a5565b5b602002602001015187600181518110610918576109176117a5565b5b602002602001015185610d13565b825f60028110610939576109386117a5565b5b6020020183600160028110610951576109506117a5565b5b6020020182815250828152505050610967610f7a565b6109d7865f8151811061097d5761097c6117a5565b5b602002602001015187600181518110610999576109986117a5565b5b6020026020010151845f600281106109b4576109b36117a5565b5b6020020151856001600281106109cd576109cc6117a5565b5b602002015161038a565b825f600281106109ea576109e96117a5565b5b6020020183600160028110610a0257610a016117a5565b5b6020020182815250828152505050610a1a8382610e24565b5050505050505050565b610a2c610f7a565b610a605f8060028110610a4257610a416117a5565b5b01545f600160028110610a5857610a576117a5565b5b015488610d13565b825f60028110610a7357610a726117a5565b5b6020020183600160028110610a8b57610a8a6117a5565b5b6020020182815250828152505050610aa1610f7a565b610ad760025f60028110610ab857610ab76117a5565b5b01546002600160028110610acf57610ace6117a5565b5b015488610d13565b825f60028110610aea57610ae96117a5565b5b6020020183600160028110610b0257610b016117a5565b5b6020020182815250828152505050610b18610f7a565b610b82835f60028110610b2e57610b2d6117a5565b5b602002015184600160028110610b4757610b466117a5565b5b6020020151845f60028110610b5f57610b5e6117a5565b5b602002015185600160028110610b7857610b776117a5565b5b602002015161038a565b825f60028110610b9557610b946117a5565b5b6020020183600160028110610bad57610bac6117a5565b5b6020020182815250828152505050610bfb865f81518110610bd157610bd06117a5565b5b602002602001015187600181518110610bed57610bec6117a5565b5b602002602001015186610d13565b845f60028110610c0e57610c0d6117a5565b5b6020020185600160028110610c2657610c256117a5565b5b6020020182815250828152505050610c3c610f7a565b610cac865f81518110610c5257610c516117a5565b5b602002602001015187600181518110610c6e57610c6d6117a5565b5b6020026020010151865f60028110610c8957610c886117a5565b5b602002015187600160028110610ca257610ca16117a5565b5b602002015161038a565b825f60028110610cbf57610cbe6117a5565b5b6020020183600160028110610cd757610cd66117a5565b5b6020020182815250828152505050610cef8282610e24565b505050505050505050565b5f80610d088484868661038a565b915091509250929050565b5f805f8390505f8690505f8690505f805b5f8514610d70575f6001861614610d4a57610d418282868661038a565b80925081935050505b610d548484610cfa565b8094508195505050600285610d69919061187a565b9450610d24565b8196508095505050505050935093915050565b5f80849050838511610d9e578281610d9b91906116f0565b90505b8280610dad57610dac611806565b5b5f8583610dba91906118aa565b089150509392505050565b5f610e1d8260027f30644e72e131a029b85045b68181585d2833e84879b9709143e1f593f0000001610df791906118aa565b7f30644e72e131a029b85045b68181585d2833e84879b9709143e1f593f0000001610f27565b9050919050565b60028014610e67576040517f08c379a0000000000000000000000000000000000000000000000000000000008152600401610e5e906119c2565b60405180910390fd5b5f5b60028160ff161015610f2257818160ff1660028110610e8b57610e8a6117a5565b5b6020020151838260ff1660028110610ea657610ea56117a5565b5b602002015114610f0f57610ed3838260ff1660028110610ec957610ec86117a5565b5b60200201516106e5565b6040517f08c379a0000000000000000000000000000000000000000000000000000000008152600401610f069190611a18565b60405180910390fd5b8080610f1a906117de565b915050610e69565b505050565b5f60405160208152602080820152602060408201528460608201528360808201528260a082015260208160c0836005620186a0fa805f8114610f6c5782519350610f70565b5f80fd5b5050509392505050565b6040518060400160405280600290602082028036833780820191505090505090565b5f604051905090565b5f80fd5b5f80fd5b5f819050919050565b610fbf81610fad565b8114610fc9575f80fd5b50565b5f81359050610fda81610fb6565b92915050565b5f805f8060808587031215610ff857610ff7610fa5565b5b5f61100587828801610fcc565b945050602061101687828801610fcc565b935050604061102787828801610fcc565b925050606061103887828801610fcc565b91505092959194509250565b61104d81610fad565b82525050565b5f6040820190506110665f830185611044565b6110736020830184611044565b9392505050565b5f80fd5b5f601f19601f8301169050919050565b7f4e487b71000000000000000000000000000000000000000000000000000000005f52604160045260245ffd5b6110c48261107e565b810181811067ffffffffffffffff821117156110e3576110e261108e565b5b80604052505050565b5f6110f5610f9c565b905061110182826110bb565b919050565b5f67ffffffffffffffff8211156111205761111f61108e565b5b602082029050919050565b5f80fd5b5f67ffffffffffffffff8211156111495761114861108e565b5b602082029050602081019050919050565b5f61116c6111678461112f565b6110ec565b9050808382526020820190506020840283018581111561118f5761118e61112b565b5b835b818110156111b857806111a48882610fcc565b845260208401935050602081019050611191565b5050509392505050565b5f82601f8301126111d6576111d561107a565b5b81356111e684826020860161115a565b91505092915050565b5f6112016111fc84611106565b6110ec565b9050806020840283018581111561121b5761121a61112b565b5b835b8181101561126257803567ffffffffffffffff8111156112405761123f61107a565b5b80860161124d89826111c2565b8552602085019450505060208101905061121d565b5050509392505050565b5f82601f8301126112805761127f61107a565b5b600261128d8482856111ef565b91505092915050565b5f67ffffffffffffffff8211156112b0576112af61108e565b5b602082029050919050565b5f6112cd6112c884611296565b6110ec565b905080602084028301858111156112e7576112e661112b565b5b835b8181101561131057806112fc8882610fcc565b8452602084019350506020810190506112e9565b5050509392505050565b5f82601f83011261132e5761132d61107a565b5b600261133b8482856112bb565b91505092915050565b5f805f805f805f610100888a0312156113605761135f610fa5565b5b5f88013567ffffffffffffffff81111561137d5761137c610fa9565b5b6113898a828b0161126c565b975050602088013567ffffffffffffffff8111156113aa576113a9610fa9565b5b6113b68a828b0161126c565b965050604088013567ffffffffffffffff8111156113d7576113d6610fa9565b5b6113e38a828b016111c2565b955050606088013567ffffffffffffffff81111561140457611403610fa9565b5b6114108a828b016111c2565b94505060806114218a828b0161131a565b93505060c088013567ffffffffffffffff81111561144257611441610fa9565b5b61144e8a828b0161126c565b92505060e088013567ffffffffffffffff81111561146f5761146e610fa9565b5b61147b8a828b0161126c565b91505092959891949750929550565b5f8115159050919050565b61149e8161148a565b82525050565b5f6020820190506114b75f830184611495565b92915050565b5f80604083850312156114d3576114d2610fa5565b5b5f6114e085828601610fcc565b92505060206114f185828601610fcc565b9150509250929050565b5f805f6060848603121561151257611511610fa5565b5b5f61151f86828701610fcc565b935050602061153086828701610fcc565b925050604061154186828701610fcc565b9150509250925092565b5f82825260208201905092915050565b7f496e76616c696420696e707574206c656e6774682c20412c20422c207a4c69735f8201527f745f312c207a4c6973745f322c20584c6973742c20594c6973742073686f756c60208201527f642068617665207468652073616d65206c656e67746800000000000000000000604082015250565b5f6115db60568361154b565b91506115e68261155b565b606082019050919050565b5f6020820190508181035f830152611608816115cf565b9050919050565b7f496e76616c696420696e707574206c656e6774682c20412c20422c207a4c69735f8201527f745f312c207a4c6973745f322c20584c6973742c20594c6973742073686f756c60208201527f642068617665206c656e677468203e2030000000000000000000000000000000604082015250565b5f61168f60518361154b565b915061169a8261160f565b606082019050919050565b5f6020820190508181035f8301526116bc81611683565b9050919050565b7f4e487b71000000000000000000000000000000000000000000000000000000005f52601160045260245ffd5b5f6116fa82610fad565b915061170583610fad565b925082820190508082111561171d5761171c6116c3565b5b92915050565b5f81519050919050565b5f81905092915050565b5f5b83811015611754578082015181840152602081019050611739565b5f8484015250505050565b5f61176982611723565b611773818561172d565b9350611783818560208601611737565b80840191505092915050565b5f61179a828461175f565b915081905092915050565b7f4e487b71000000000000000000000000000000000000000000000000000000005f52603260045260245ffd5b5f60ff82169050919050565b5f6117e8826117d2565b915060ff82036117fb576117fa6116c3565b5b600182019050919050565b7f4e487b71000000000000000000000000000000000000000000000000000000005f52601260045260245ffd5b5f61183d82610fad565b91507fffffffffffffffffffffffffffffffffffffffffffffffffffffffffffffffff820361186f5761186e6116c3565b5b600182019050919050565b5f61188482610fad565b915061188f83610fad565b92508261189f5761189e611806565b5b828204905092915050565b5f6118b482610fad565b91506118bf83610fad565b92508282039050818111156118d7576118d66116c3565b5b92915050565b5f6118e782610fad565b91506118f283610fad565b925082820261190081610fad565b91508282048414831517611917576119166116c3565b5b5092915050565b5f611928826117d2565b9150611933836117d2565b9250828201905060ff81111561194c5761194b6116c3565b5b92915050565b7f76616c6964206661696c65642c206172726179206c656e677468206e6f7420655f8201527f7175616c00000000000000000000000000000000000000000000000000000000602082015250565b5f6119ac60248361154b565b91506119b782611952565b604082019050919050565b5f6020820190508181035f8301526119d9816119a0565b9050919050565b5f6119ea82611723565b6119f4818561154b565b9350611a04818560208601611737565b611a0d8161107e565b840191505092915050565b5f6020820190508181035f830152611a3081846119e0565b90509291505056fea26469706673582212204de74333395536ded053ab2f7a5bfdb966234e04a07b6fa059e56eafc36fd3e364736f6c63430008170033",
					"opcodes": "PUSH1 0x80 PUSH1 0x40 MSTORE PUSH1 0x40 MLOAD DUP1 PUSH1 0x40 ADD PUSH1 0x40 MSTORE DUP1 PUSH32 0x171E826AD4A870FD925E0BF0E87884E70E080879C2205EF10114F28A3B6F6DD7 DUP2 MSTORE PUSH1 0x20 ADD PUSH32 0x2BD407D897FBBCA9F88ADFD2D15252E69DE8C1564EB4D3D27162E259172F1A1D DUP2 MSTORE POP PUSH0 SWAP1 PUSH1 0x2 PUSH3 0x6A SWAP3 SWAP2 SWAP1 PUSH3 0xE6 JUMP JUMPDEST POP PUSH1 0x40 MLOAD DUP1 PUSH1 0x40 ADD PUSH1 0x40 MSTORE DUP1 PUSH32 0x5E8290BFABA1CCFAD33259A92884CC00644D5FB019CA4DCBDB50123AB32AAF1 DUP2 MSTORE PUSH1 0x20 ADD PUSH32 0x5E352269C07449EA6667D7608C648894125D94E751B1B46A9CF56BBB02F3766 DUP2 MSTORE POP PUSH1 0x2 SWAP1 PUSH1 0x2 PUSH3 0xD2 SWAP3 SWAP2 SWAP1 PUSH3 0xE6 JUMP JUMPDEST POP CALLVALUE DUP1 ISZERO PUSH3 0xDF JUMPI PUSH0 DUP1 REVERT JUMPDEST POP PUSH3 0x148 JUMP JUMPDEST DUP3 PUSH1 0x2 DUP2 ADD SWAP3 DUP3 ISZERO PUSH3 0x118 JUMPI SWAP2 PUSH1 0x20 MUL DUP3 ADD JUMPDEST DUP3 DUP2 GT ISZERO PUSH3 0x117 JUMPI DUP3 MLOAD DUP3 SSTORE SWAP2 PUSH1 0x20 ADD SWAP2 SWAP1 PUSH1 0x1 ADD SWAP1 PUSH3 0xFA JUMP JUMPDEST JUMPDEST POP SWAP1 POP PUSH3 0x127 SWAP2 SWAP1 PUSH3 0x12B JUMP JUMPDEST POP SWAP1 JUMP JUMPDEST JUMPDEST DUP1 DUP3 GT ISZERO PUSH3 0x144 JUMPI PUSH0 DUP2 PUSH0 SWAP1 SSTORE POP PUSH1 0x1 ADD PUSH3 0x12C JUMP JUMPDEST POP SWAP1 JUMP JUMPDEST PUSH2 0x1A6E DUP1 PUSH3 0x156 PUSH0 CODECOPY PUSH0 RETURN INVALID PUSH1 0x80 PUSH1 0x40 MSTORE CALLVALUE DUP1 ISZERO PUSH2 0xF JUMPI PUSH0 DUP1 REVERT JUMPDEST POP PUSH1 0x4 CALLDATASIZE LT PUSH2 0x4A JUMPI PUSH0 CALLDATALOAD PUSH1 0xE0 SHR DUP1 PUSH4 0x212ABA38 EQ PUSH2 0x4E JUMPI DUP1 PUSH4 0xC1F349FE EQ PUSH2 0x7F JUMPI DUP1 PUSH4 0xDE92B0E9 EQ PUSH2 0xAF JUMPI DUP1 PUSH4 0xFD6BBC32 EQ PUSH2 0xE0 JUMPI JUMPDEST PUSH0 DUP1 REVERT JUMPDEST PUSH2 0x68 PUSH1 0x4 DUP1 CALLDATASIZE SUB DUP2 ADD SWAP1 PUSH2 0x63 SWAP2 SWAP1 PUSH2 0xFE0 JUMP JUMPDEST PUSH2 0x111 JUMP JUMPDEST PUSH1 0x40 MLOAD PUSH2 0x76 SWAP3 SWAP2 SWAP1 PUSH2 0x1053 JUMP JUMPDEST PUSH1 0x40 MLOAD DUP1 SWAP2 SUB SWAP1 RETURN JUMPDEST PUSH2 0x99 PUSH1 0x4 DUP1 CALLDATASIZE SUB DUP2 ADD SWAP1 PUSH2 0x94 SWAP2 SWAP1 PUSH2 0x1344 JUMP JUMPDEST PUSH2 0x130 JUMP JUMPDEST PUSH1 0x40 MLOAD PUSH2 0xA6 SWAP2 SWAP1 PUSH2 0x14A4 JUMP JUMPDEST PUSH1 0x40 MLOAD DUP1 SWAP2 SUB SWAP1 RETURN JUMPDEST PUSH2 0xC9 PUSH1 0x4 DUP1 CALLDATASIZE SUB DUP2 ADD SWAP1 PUSH2 0xC4 SWAP2 SWAP1 PUSH2 0x14BD JUMP JUMPDEST PUSH2 0x352 JUMP JUMPDEST PUSH1 0x40 MLOAD PUSH2 0xD7 SWAP3 SWAP2 SWAP1 PUSH2 0x1053 JUMP JUMPDEST PUSH1 0x40 MLOAD DUP1 SWAP2 SUB SWAP1 RETURN JUMPDEST PUSH2 0xFA PUSH1 0x4 DUP1 CALLDATASIZE SUB DUP2 ADD SWAP1 PUSH2 0xF5 SWAP2 SWAP1 PUSH2 0x14FB JUMP JUMPDEST PUSH2 0x36D JUMP JUMPDEST PUSH1 0x40 MLOAD PUSH2 0x108 SWAP3 SWAP2 SWAP1 PUSH2 0x1053 JUMP JUMPDEST PUSH1 0x40 MLOAD DUP1 SWAP2 SUB SWAP1 RETURN JUMPDEST PUSH0 DUP1 PUSH2 0x11F DUP7 DUP7 DUP7 DUP7 PUSH2 0x38A JUMP JUMPDEST DUP1 SWAP3 POP DUP2 SWAP4 POP POP POP SWAP5 POP SWAP5 SWAP3 POP POP POP JUMP JUMPDEST PUSH0 PUSH1 0x2 DUP1 EQ DUP1 ISZERO PUSH2 0x142 JUMPI POP DUP6 MLOAD PUSH1 0x2 EQ JUMPDEST DUP1 ISZERO PUSH2 0x14F JUMPI POP DUP5 MLOAD PUSH1 0x2 EQ JUMPDEST DUP1 ISZERO PUSH2 0x15B JUMPI POP PUSH1 0x2 DUP1 EQ JUMPDEST DUP1 ISZERO PUSH2 0x167 JUMPI POP PUSH1 0x2 DUP1 EQ JUMPDEST PUSH2 0x1A6 JUMPI PUSH1 0x40 MLOAD PUSH32 0x8C379A000000000000000000000000000000000000000000000000000000000 DUP2 MSTORE PUSH1 0x4 ADD PUSH2 0x19D SWAP1 PUSH2 0x15F1 JUMP JUMPDEST PUSH1 0x40 MLOAD DUP1 SWAP2 SUB SWAP1 REVERT JUMPDEST PUSH0 PUSH1 0x2 GT PUSH2 0x1E9 JUMPI PUSH1 0x40 MLOAD PUSH32 0x8C379A000000000000000000000000000000000000000000000000000000000 DUP2 MSTORE PUSH1 0x4 ADD PUSH2 0x1E0 SWAP1 PUSH2 0x16A5 JUMP JUMPDEST PUSH1 0x40 MLOAD DUP1 SWAP2 SUB SWAP1 REVERT JUMPDEST PUSH0 PUSH2 0x1F3 DUP9 PUSH2 0x678 JUMP JUMPDEST PUSH2 0x1FC DUP11 PUSH2 0x678 JUMP JUMPDEST PUSH2 0x206 SWAP2 SWAP1 PUSH2 0x16F0 JUMP JUMPDEST SWAP1 POP PUSH0 PUSH2 0x212 DUP3 PUSH2 0x6E5 JUMP JUMPDEST SWAP1 POP PUSH0 DUP2 PUSH1 0x40 MLOAD PUSH1 0x20 ADD PUSH2 0x226 SWAP2 SWAP1 PUSH2 0x178F JUMP JUMPDEST PUSH1 0x40 MLOAD PUSH1 0x20 DUP2 DUP4 SUB SUB DUP2 MSTORE SWAP1 PUSH1 0x40 MSTORE DUP1 MLOAD SWAP1 PUSH1 0x20 ADD KECCAK256 SWAP1 POP PUSH0 DUP2 PUSH0 SHR SWAP1 POP PUSH0 JUMPDEST PUSH1 0x2 DUP2 PUSH1 0xFF AND LT ISZERO PUSH2 0x33E JUMPI PUSH2 0x2B0 DUP12 DUP3 PUSH1 0xFF AND DUP2 MLOAD DUP2 LT PUSH2 0x26B JUMPI PUSH2 0x26A PUSH2 0x17A5 JUMP JUMPDEST JUMPDEST PUSH1 0x20 MUL PUSH1 0x20 ADD ADD MLOAD DUP10 DUP4 PUSH1 0xFF AND PUSH1 0x2 DUP2 LT PUSH2 0x289 JUMPI PUSH2 0x288 PUSH2 0x17A5 JUMP JUMPDEST JUMPDEST PUSH1 0x20 MUL ADD MLOAD DUP16 DUP5 PUSH1 0xFF AND PUSH1 0x2 DUP2 LT PUSH2 0x2A4 JUMPI PUSH2 0x2A3 PUSH2 0x17A5 JUMP JUMPDEST JUMPDEST PUSH1 0x20 MUL ADD MLOAD DUP13 DUP7 PUSH2 0x863 JUMP JUMPDEST PUSH2 0x32B DUP12 DUP3 PUSH1 0xFF AND DUP2 MLOAD DUP2 LT PUSH2 0x2C9 JUMPI PUSH2 0x2C8 PUSH2 0x17A5 JUMP JUMPDEST JUMPDEST PUSH1 0x20 MUL PUSH1 0x20 ADD ADD MLOAD DUP12 DUP4 PUSH1 0xFF AND DUP2 MLOAD DUP2 LT PUSH2 0x2E7 JUMPI PUSH2 0x2E6 PUSH2 0x17A5 JUMP JUMPDEST JUMPDEST PUSH1 0x20 MUL PUSH1 0x20 ADD ADD MLOAD DUP10 DUP5 PUSH1 0xFF AND PUSH1 0x2 DUP2 LT PUSH2 0x305 JUMPI PUSH2 0x304 PUSH2 0x17A5 JUMP JUMPDEST JUMPDEST PUSH1 0x20 MUL ADD MLOAD DUP16 DUP6 PUSH1 0xFF AND PUSH1 0x2 DUP2 LT PUSH2 0x320 JUMPI PUSH2 0x31F PUSH2 0x17A5 JUMP JUMPDEST JUMPDEST PUSH1 0x20 MUL ADD MLOAD DUP7 PUSH2 0xA24 JUMP JUMPDEST DUP1 DUP1 PUSH2 0x336 SWAP1 PUSH2 0x17DE JUMP JUMPDEST SWAP2 POP POP PUSH2 0x246 JUMP JUMPDEST POP PUSH1 0x1 SWAP5 POP POP POP POP POP SWAP8 SWAP7 POP POP POP POP POP POP POP JUMP JUMPDEST PUSH0 DUP1 PUSH2 0x35E DUP5 DUP5 PUSH2 0xCFA JUMP JUMPDEST DUP1 SWAP3 POP DUP2 SWAP4 POP POP POP SWAP3 POP SWAP3 SWAP1 POP JUMP JUMPDEST PUSH0 DUP1 PUSH2 0x37A DUP6 DUP6 DUP6 PUSH2 0xD13 JUMP JUMPDEST DUP1 SWAP3 POP DUP2 SWAP4 POP POP POP SWAP4 POP SWAP4 SWAP2 POP POP JUMP JUMPDEST PUSH0 DUP1 PUSH0 DUP7 EQ DUP1 ISZERO PUSH2 0x39A JUMPI POP PUSH0 DUP6 EQ JUMPDEST ISZERO PUSH2 0x3AA JUMPI DUP4 DUP4 SWAP2 POP SWAP2 POP PUSH2 0x66F JUMP JUMPDEST PUSH0 DUP5 EQ DUP1 ISZERO PUSH2 0x3B8 JUMPI POP PUSH0 DUP6 EQ JUMPDEST ISZERO PUSH2 0x3C8 JUMPI DUP6 DUP6 SWAP2 POP SWAP2 POP PUSH2 0x66F JUMP JUMPDEST PUSH0 PUSH32 0x30644E72E131A029B85045B68181585D2833E84879B9709143E1F593F0000001 DUP1 PUSH2 0x3F8 JUMPI PUSH2 0x3F7 PUSH2 0x1806 JUMP JUMPDEST JUMPDEST DUP6 DUP9 MULMOD SWAP1 POP PUSH0 PUSH32 0x30644E72E131A029B85045B68181585D2833E84879B9709143E1F593F0000001 DUP1 PUSH2 0x42D JUMPI PUSH2 0x42C PUSH2 0x1806 JUMP JUMPDEST JUMPDEST DUP6 DUP9 MULMOD SWAP1 POP PUSH0 PUSH32 0x30644E72E131A029B85045B68181585D2833E84879B9709143E1F593F0000001 DUP1 PUSH2 0x462 JUMPI PUSH2 0x461 PUSH2 0x1806 JUMP JUMPDEST JUMPDEST PUSH32 0x30644E72E131A029B85045B68181585D2833E84879B9709143E1F593F0000001 DUP1 PUSH2 0x491 JUMPI PUSH2 0x490 PUSH2 0x1806 JUMP JUMPDEST JUMPDEST DUP4 DUP6 MULMOD PUSH3 0x292F8 MULMOD SWAP1 POP PUSH0 PUSH32 0x30644E72E131A029B85045B68181585D2833E84879B9709143E1F593F0000001 DUP1 PUSH2 0x4CB JUMPI PUSH2 0x4CA PUSH2 0x1806 JUMP JUMPDEST JUMPDEST PUSH32 0x30644E72E131A029B85045B68181585D2833E84879B9709143E1F593F0000001 DUP1 PUSH2 0x4FA JUMPI PUSH2 0x4F9 PUSH2 0x1806 JUMP JUMPDEST JUMPDEST DUP10 DUP12 MULMOD PUSH32 0x30644E72E131A029B85045B68181585D2833E84879B9709143E1F593F0000001 DUP1 PUSH2 0x52C JUMPI PUSH2 0x52B PUSH2 0x1806 JUMP JUMPDEST JUMPDEST DUP10 DUP14 MULMOD ADDMOD SWAP1 POP PUSH0 PUSH2 0x592 DUP5 PUSH32 0x30644E72E131A029B85045B68181585D2833E84879B9709143E1F593F0000001 DUP1 PUSH2 0x566 JUMPI PUSH2 0x565 PUSH2 0x1806 JUMP JUMPDEST JUMPDEST DUP8 PUSH3 0x292FC MULMOD PUSH32 0x30644E72E131A029B85045B68181585D2833E84879B9709143E1F593F0000001 PUSH2 0xD83 JUMP JUMPDEST SWAP1 POP PUSH32 0x30644E72E131A029B85045B68181585D2833E84879B9709143E1F593F0000001 DUP1 PUSH2 0x5C3 JUMPI PUSH2 0x5C2 PUSH2 0x1806 JUMP JUMPDEST JUMPDEST PUSH2 0x5FE PUSH32 0x30644E72E131A029B85045B68181585D2833E84879B9709143E1F593F0000001 DUP1 PUSH2 0x5F5 JUMPI PUSH2 0x5F4 PUSH2 0x1806 JUMP JUMPDEST JUMPDEST DUP6 PUSH1 0x1 ADDMOD PUSH2 0xDC5 JUMP JUMPDEST DUP4 MULMOD SWAP7 POP PUSH32 0x30644E72E131A029B85045B68181585D2833E84879B9709143E1F593F0000001 DUP1 PUSH2 0x631 JUMPI PUSH2 0x630 PUSH2 0x1806 JUMP JUMPDEST JUMPDEST PUSH2 0x665 PUSH2 0x660 PUSH1 0x1 DUP7 PUSH32 0x30644E72E131A029B85045B68181585D2833E84879B9709143E1F593F0000001 PUSH2 0xD83 JUMP JUMPDEST PUSH2 0xDC5 JUMP JUMPDEST DUP3 MULMOD SWAP6 POP POP POP POP POP POP JUMPDEST SWAP5 POP SWAP5 SWAP3 POP POP POP JUMP JUMPDEST PUSH0 DUP1 PUSH0 SWAP1 POP JUMPDEST PUSH1 0x2 DUP2 PUSH1 0xFF AND LT ISZERO PUSH2 0x6DF JUMPI DUP3 DUP2 PUSH1 0xFF AND PUSH1 0x2 DUP2 LT PUSH2 0x6A0 JUMPI PUSH2 0x69F PUSH2 0x17A5 JUMP JUMPDEST JUMPDEST PUSH1 0x20 MUL ADD MLOAD PUSH0 DUP2 MLOAD DUP2 LT PUSH2 0x6B7 JUMPI PUSH2 0x6B6 PUSH2 0x17A5 JUMP JUMPDEST JUMPDEST PUSH1 0x20 MUL PUSH1 0x20 ADD ADD MLOAD DUP3 PUSH2 0x6CA SWAP2 SWAP1 PUSH2 0x16F0 JUMP JUMPDEST SWAP2 POP DUP1 DUP1 PUSH2 0x6D7 SWAP1 PUSH2 0x17DE JUMP JUMPDEST SWAP2 POP POP PUSH2 0x67E JUMP JUMPDEST POP SWAP2 SWAP1 POP JUMP JUMPDEST PUSH1 0x60 PUSH0 DUP3 SUB PUSH2 0x72B JUMPI PUSH1 0x40 MLOAD DUP1 PUSH1 0x40 ADD PUSH1 0x40 MSTORE DUP1 PUSH1 0x1 DUP2 MSTORE PUSH1 0x20 ADD PUSH32 0x3000000000000000000000000000000000000000000000000000000000000000 DUP2 MSTORE POP SWAP1 POP PUSH2 0x85E JUMP JUMPDEST PUSH0 DUP3 SWAP1 POP PUSH0 JUMPDEST PUSH0 DUP3 EQ PUSH2 0x75A JUMPI DUP1 DUP1 PUSH2 0x743 SWAP1 PUSH2 0x1833 JUMP JUMPDEST SWAP2 POP POP PUSH1 0xA DUP3 PUSH2 0x753 SWAP2 SWAP1 PUSH2 0x187A JUMP JUMPDEST SWAP2 POP PUSH2 0x731 JUMP JUMPDEST PUSH0 DUP2 PUSH8 0xFFFFFFFFFFFFFFFF DUP2 GT ISZERO PUSH2 0x775 JUMPI PUSH2 0x774 PUSH2 0x108E JUMP JUMPDEST JUMPDEST PUSH1 0x40 MLOAD SWAP1 DUP1 DUP3 MSTORE DUP1 PUSH1 0x1F ADD PUSH1 0x1F NOT AND PUSH1 0x20 ADD DUP3 ADD PUSH1 0x40 MSTORE DUP1 ISZERO PUSH2 0x7A7 JUMPI DUP2 PUSH1 0x20 ADD PUSH1 0x1 DUP3 MUL DUP1 CALLDATASIZE DUP4 CALLDATACOPY DUP1 DUP3 ADD SWAP2 POP POP SWAP1 POP JUMPDEST POP SWAP1 POP PUSH0 DUP3 SWAP1 POP JUMPDEST PUSH0 DUP7 EQ PUSH2 0x856 JUMPI PUSH1 0x1 DUP2 PUSH2 0x7C3 SWAP2 SWAP1 PUSH2 0x18AA JUMP JUMPDEST SWAP1 POP PUSH0 PUSH1 0xA DUP1 DUP9 PUSH2 0x7D4 SWAP2 SWAP1 PUSH2 0x187A JUMP JUMPDEST PUSH2 0x7DE SWAP2 SWAP1 PUSH2 0x18DD JUMP JUMPDEST DUP8 PUSH2 0x7E9 SWAP2 SWAP1 PUSH2 0x18AA JUMP JUMPDEST PUSH1 0x30 PUSH2 0x7F5 SWAP2 SWAP1 PUSH2 0x191E JUMP JUMPDEST SWAP1 POP PUSH0 DUP2 PUSH1 0xF8 SHL SWAP1 POP DUP1 DUP5 DUP5 DUP2 MLOAD DUP2 LT PUSH2 0x812 JUMPI PUSH2 0x811 PUSH2 0x17A5 JUMP JUMPDEST JUMPDEST PUSH1 0x20 ADD ADD SWAP1 PUSH31 0xFFFFFFFFFFFFFFFFFFFFFFFFFFFFFFFFFFFFFFFFFFFFFFFFFFFFFFFFFFFFFF NOT AND SWAP1 DUP2 PUSH0 BYTE SWAP1 MSTORE8 POP PUSH1 0xA DUP9 PUSH2 0x84D SWAP2 SWAP1 PUSH2 0x187A JUMP JUMPDEST SWAP8 POP POP POP PUSH2 0x7AF JUMP JUMPDEST DUP2 SWAP5 POP POP POP POP POP JUMPDEST SWAP2 SWAP1 POP JUMP JUMPDEST PUSH2 0x86B PUSH2 0xF7A JUMP JUMPDEST PUSH2 0x8A5 DUP4 PUSH0 PUSH1 0x2 DUP2 LT PUSH2 0x881 JUMPI PUSH2 0x880 PUSH2 0x17A5 JUMP JUMPDEST JUMPDEST PUSH1 0x20 MUL ADD MLOAD DUP5 PUSH1 0x1 PUSH1 0x2 DUP2 LT PUSH2 0x89A JUMPI PUSH2 0x899 PUSH2 0x17A5 JUMP JUMPDEST JUMPDEST PUSH1 0x20 MUL ADD MLOAD DUP9 PUSH2 0xD13 JUMP JUMPDEST DUP3 PUSH0 PUSH1 0x2 DUP2 LT PUSH2 0x8B8 JUMPI PUSH2 0x8B7 PUSH2 0x17A5 JUMP JUMPDEST JUMPDEST PUSH1 0x20 MUL ADD DUP4 PUSH1 0x1 PUSH1 0x2 DUP2 LT PUSH2 0x8D0 JUMPI PUSH2 0x8CF PUSH2 0x17A5 JUMP JUMPDEST JUMPDEST PUSH1 0x20 MUL ADD DUP3 DUP2 MSTORE POP DUP3 DUP2 MSTORE POP POP POP PUSH2 0x8E6 PUSH2 0xF7A JUMP JUMPDEST PUSH2 0x926 DUP7 PUSH0 DUP2 MLOAD DUP2 LT PUSH2 0x8FC JUMPI PUSH2 0x8FB PUSH2 0x17A5 JUMP JUMPDEST JUMPDEST PUSH1 0x20 MUL PUSH1 0x20 ADD ADD MLOAD DUP8 PUSH1 0x1 DUP2 MLOAD DUP2 LT PUSH2 0x918 JUMPI PUSH2 0x917 PUSH2 0x17A5 JUMP JUMPDEST JUMPDEST PUSH1 0x20 MUL PUSH1 0x20 ADD ADD MLOAD DUP6 PUSH2 0xD13 JUMP JUMPDEST DUP3 PUSH0 PUSH1 0x2 DUP2 LT PUSH2 0x939 JUMPI PUSH2 0x938 PUSH2 0x17A5 JUMP JUMPDEST JUMPDEST PUSH1 0x20 MUL ADD DUP4 PUSH1 0x1 PUSH1 0x2 DUP2 LT PUSH2 0x951 JUMPI PUSH2 0x950 PUSH2 0x17A5 JUMP JUMPDEST JUMPDEST PUSH1 0x20 MUL ADD DUP3 DUP2 MSTORE POP DUP3 DUP2 MSTORE POP POP POP PUSH2 0x967 PUSH2 0xF7A JUMP JUMPDEST PUSH2 0x9D7 DUP7 PUSH0 DUP2 MLOAD DUP2 LT PUSH2 0x97D JUMPI PUSH2 0x97C PUSH2 0x17A5 JUMP JUMPDEST JUMPDEST PUSH1 0x20 MUL PUSH1 0x20 ADD ADD MLOAD DUP8 PUSH1 0x1 DUP2 MLOAD DUP2 LT PUSH2 0x999 JUMPI PUSH2 0x998 PUSH2 0x17A5 JUMP JUMPDEST JUMPDEST PUSH1 0x20 MUL PUSH1 0x20 ADD ADD MLOAD DUP5 PUSH0 PUSH1 0x2 DUP2 LT PUSH2 0x9B4 JUMPI PUSH2 0x9B3 PUSH2 0x17A5 JUMP JUMPDEST JUMPDEST PUSH1 0x20 MUL ADD MLOAD DUP6 PUSH1 0x1 PUSH1 0x2 DUP2 LT PUSH2 0x9CD JUMPI PUSH2 0x9CC PUSH2 0x17A5 JUMP JUMPDEST JUMPDEST PUSH1 0x20 MUL ADD MLOAD PUSH2 0x38A JUMP JUMPDEST DUP3 PUSH0 PUSH1 0x2 DUP2 LT PUSH2 0x9EA JUMPI PUSH2 0x9E9 PUSH2 0x17A5 JUMP JUMPDEST JUMPDEST PUSH1 0x20 MUL ADD DUP4 PUSH1 0x1 PUSH1 0x2 DUP2 LT PUSH2 0xA02 JUMPI PUSH2 0xA01 PUSH2 0x17A5 JUMP JUMPDEST JUMPDEST PUSH1 0x20 MUL ADD DUP3 DUP2 MSTORE POP DUP3 DUP2 MSTORE POP POP POP PUSH2 0xA1A DUP4 DUP3 PUSH2 0xE24 JUMP JUMPDEST POP POP POP POP POP POP POP POP JUMP JUMPDEST PUSH2 0xA2C PUSH2 0xF7A JUMP JUMPDEST PUSH2 0xA60 PUSH0 DUP1 PUSH1 0x2 DUP2 LT PUSH2 0xA42 JUMPI PUSH2 0xA41 PUSH2 0x17A5 JUMP JUMPDEST JUMPDEST ADD SLOAD PUSH0 PUSH1 0x1 PUSH1 0x2 DUP2 LT PUSH2 0xA58 JUMPI PUSH2 0xA57 PUSH2 0x17A5 JUMP JUMPDEST JUMPDEST ADD SLOAD DUP9 PUSH2 0xD13 JUMP JUMPDEST DUP3 PUSH0 PUSH1 0x2 DUP2 LT PUSH2 0xA73 JUMPI PUSH2 0xA72 PUSH2 0x17A5 JUMP JUMPDEST JUMPDEST PUSH1 0x20 MUL ADD DUP4 PUSH1 0x1 PUSH1 0x2 DUP2 LT PUSH2 0xA8B JUMPI PUSH2 0xA8A PUSH2 0x17A5 JUMP JUMPDEST JUMPDEST PUSH1 0x20 MUL ADD DUP3 DUP2 MSTORE POP DUP3 DUP2 MSTORE POP POP POP PUSH2 0xAA1 PUSH2 0xF7A JUMP JUMPDEST PUSH2 0xAD7 PUSH1 0x2 PUSH0 PUSH1 0x2 DUP2 LT PUSH2 0xAB8 JUMPI PUSH2 0xAB7 PUSH2 0x17A5 JUMP JUMPDEST JUMPDEST ADD SLOAD PUSH1 0x2 PUSH1 0x1 PUSH1 0x2 DUP2 LT PUSH2 0xACF JUMPI PUSH2 0xACE PUSH2 0x17A5 JUMP JUMPDEST JUMPDEST ADD SLOAD DUP9 PUSH2 0xD13 JUMP JUMPDEST DUP3 PUSH0 PUSH1 0x2 DUP2 LT PUSH2 0xAEA JUMPI PUSH2 0xAE9 PUSH2 0x17A5 JUMP JUMPDEST JUMPDEST PUSH1 0x20 MUL ADD DUP4 PUSH1 0x1 PUSH1 0x2 DUP2 LT PUSH2 0xB02 JUMPI PUSH2 0xB01 PUSH2 0x17A5 JUMP JUMPDEST JUMPDEST PUSH1 0x20 MUL ADD DUP3 DUP2 MSTORE POP DUP3 DUP2 MSTORE POP POP POP PUSH2 0xB18 PUSH2 0xF7A JUMP JUMPDEST PUSH2 0xB82 DUP4 PUSH0 PUSH1 0x2 DUP2 LT PUSH2 0xB2E JUMPI PUSH2 0xB2D PUSH2 0x17A5 JUMP JUMPDEST JUMPDEST PUSH1 0x20 MUL ADD MLOAD DUP5 PUSH1 0x1 PUSH1 0x2 DUP2 LT PUSH2 0xB47 JUMPI PUSH2 0xB46 PUSH2 0x17A5 JUMP JUMPDEST JUMPDEST PUSH1 0x20 MUL ADD MLOAD DUP5 PUSH0 PUSH1 0x2 DUP2 LT PUSH2 0xB5F JUMPI PUSH2 0xB5E PUSH2 0x17A5 JUMP JUMPDEST JUMPDEST PUSH1 0x20 MUL ADD MLOAD DUP6 PUSH1 0x1 PUSH1 0x2 DUP2 LT PUSH2 0xB78 JUMPI PUSH2 0xB77 PUSH2 0x17A5 JUMP JUMPDEST JUMPDEST PUSH1 0x20 MUL ADD MLOAD PUSH2 0x38A JUMP JUMPDEST DUP3 PUSH0 PUSH1 0x2 DUP2 LT PUSH2 0xB95 JUMPI PUSH2 0xB94 PUSH2 0x17A5 JUMP JUMPDEST JUMPDEST PUSH1 0x20 MUL ADD DUP4 PUSH1 0x1 PUSH1 0x2 DUP2 LT PUSH2 0xBAD JUMPI PUSH2 0xBAC PUSH2 0x17A5 JUMP JUMPDEST JUMPDEST PUSH1 0x20 MUL ADD DUP3 DUP2 MSTORE POP DUP3 DUP2 MSTORE POP POP POP PUSH2 0xBFB DUP7 PUSH0 DUP2 MLOAD DUP2 LT PUSH2 0xBD1 JUMPI PUSH2 0xBD0 PUSH2 0x17A5 JUMP JUMPDEST JUMPDEST PUSH1 0x20 MUL PUSH1 0x20 ADD ADD MLOAD DUP8 PUSH1 0x1 DUP2 MLOAD DUP2 LT PUSH2 0xBED JUMPI PUSH2 0xBEC PUSH2 0x17A5 JUMP JUMPDEST JUMPDEST PUSH1 0x20 MUL PUSH1 0x20 ADD ADD MLOAD DUP7 PUSH2 0xD13 JUMP JUMPDEST DUP5 PUSH0 PUSH1 0x2 DUP2 LT PUSH2 0xC0E JUMPI PUSH2 0xC0D PUSH2 0x17A5 JUMP JUMPDEST JUMPDEST PUSH1 0x20 MUL ADD DUP6 PUSH1 0x1 PUSH1 0x2 DUP2 LT PUSH2 0xC26 JUMPI PUSH2 0xC25 PUSH2 0x17A5 JUMP JUMPDEST JUMPDEST PUSH1 0x20 MUL ADD DUP3 DUP2 MSTORE POP DUP3 DUP2 MSTORE POP POP POP PUSH2 0xC3C PUSH2 0xF7A JUMP JUMPDEST PUSH2 0xCAC DUP7 PUSH0 DUP2 MLOAD DUP2 LT PUSH2 0xC52 JUMPI PUSH2 0xC51 PUSH2 0x17A5 JUMP JUMPDEST JUMPDEST PUSH1 0x20 MUL PUSH1 0x20 ADD ADD MLOAD DUP8 PUSH1 0x1 DUP2 MLOAD DUP2 LT PUSH2 0xC6E JUMPI PUSH2 0xC6D PUSH2 0x17A5 JUMP JUMPDEST JUMPDEST PUSH1 0x20 MUL PUSH1 0x20 ADD ADD MLOAD DUP7 PUSH0 PUSH1 0x2 DUP2 LT PUSH2 0xC89 JUMPI PUSH2 0xC88 PUSH2 0x17A5 JUMP JUMPDEST JUMPDEST PUSH1 0x20 MUL ADD MLOAD DUP8 PUSH1 0x1 PUSH1 0x2 DUP2 LT PUSH2 0xCA2 JUMPI PUSH2 0xCA1 PUSH2 0x17A5 JUMP JUMPDEST JUMPDEST PUSH1 0x20 MUL ADD MLOAD PUSH2 0x38A JUMP JUMPDEST DUP3 PUSH0 PUSH1 0x2 DUP2 LT PUSH2 0xCBF JUMPI PUSH2 0xCBE PUSH2 0x17A5 JUMP JUMPDEST JUMPDEST PUSH1 0x20 MUL ADD DUP4 PUSH1 0x1 PUSH1 0x2 DUP2 LT PUSH2 0xCD7 JUMPI PUSH2 0xCD6 PUSH2 0x17A5 JUMP JUMPDEST JUMPDEST PUSH1 0x20 MUL ADD DUP3 DUP2 MSTORE POP DUP3 DUP2 MSTORE POP POP POP PUSH2 0xCEF DUP3 DUP3 PUSH2 0xE24 JUMP JUMPDEST POP POP POP POP POP POP POP POP POP JUMP JUMPDEST PUSH0 DUP1 PUSH2 0xD08 DUP5 DUP5 DUP7 DUP7 PUSH2 0x38A JUMP JUMPDEST SWAP2 POP SWAP2 POP SWAP3 POP SWAP3 SWAP1 POP JUMP JUMPDEST PUSH0 DUP1 PUSH0 DUP4 SWAP1 POP PUSH0 DUP7 SWAP1 POP PUSH0 DUP7 SWAP1 POP PUSH0 DUP1 JUMPDEST PUSH0 DUP6 EQ PUSH2 0xD70 JUMPI PUSH0 PUSH1 0x1 DUP7 AND EQ PUSH2 0xD4A JUMPI PUSH2 0xD41 DUP3 DUP3 DUP7 DUP7 PUSH2 0x38A JUMP JUMPDEST DUP1 SWAP3 POP DUP2 SWAP4 POP POP POP JUMPDEST PUSH2 0xD54 DUP5 DUP5 PUSH2 0xCFA JUMP JUMPDEST DUP1 SWAP5 POP DUP2 SWAP6 POP POP POP PUSH1 0x2 DUP6 PUSH2 0xD69 SWAP2 SWAP1 PUSH2 0x187A JUMP JUMPDEST SWAP5 POP PUSH2 0xD24 JUMP JUMPDEST DUP2 SWAP7 POP DUP1 SWAP6 POP POP POP POP POP POP SWAP4 POP SWAP4 SWAP2 POP POP JUMP JUMPDEST PUSH0 DUP1 DUP5 SWAP1 POP DUP4 DUP6 GT PUSH2 0xD9E JUMPI DUP3 DUP2 PUSH2 0xD9B SWAP2 SWAP1 PUSH2 0x16F0 JUMP JUMPDEST SWAP1 POP JUMPDEST DUP3 DUP1 PUSH2 0xDAD JUMPI PUSH2 0xDAC PUSH2 0x1806 JUMP JUMPDEST JUMPDEST PUSH0 DUP6 DUP4 PUSH2 0xDBA SWAP2 SWAP1 PUSH2 0x18AA JUMP JUMPDEST ADDMOD SWAP2 POP POP SWAP4 SWAP3 POP POP POP JUMP JUMPDEST PUSH0 PUSH2 0xE1D DUP3 PUSH1 0x2 PUSH32 0x30644E72E131A029B85045B68181585D2833E84879B9709143E1F593F0000001 PUSH2 0xDF7 SWAP2 SWAP1 PUSH2 0x18AA JUMP JUMPDEST PUSH32 0x30644E72E131A029B85045B68181585D2833E84879B9709143E1F593F0000001 PUSH2 0xF27 JUMP JUMPDEST SWAP1 POP SWAP2 SWAP1 POP JUMP JUMPDEST PUSH1 0x2 DUP1 EQ PUSH2 0xE67 JUMPI PUSH1 0x40 MLOAD PUSH32 0x8C379A000000000000000000000000000000000000000000000000000000000 DUP2 MSTORE PUSH1 0x4 ADD PUSH2 0xE5E SWAP1 PUSH2 0x19C2 JUMP JUMPDEST PUSH1 0x40 MLOAD DUP1 SWAP2 SUB SWAP1 REVERT JUMPDEST PUSH0 JUMPDEST PUSH1 0x2 DUP2 PUSH1 0xFF AND LT ISZERO PUSH2 0xF22 JUMPI DUP2 DUP2 PUSH1 0xFF AND PUSH1 0x2 DUP2 LT PUSH2 0xE8B JUMPI PUSH2 0xE8A PUSH2 0x17A5 JUMP JUMPDEST JUMPDEST PUSH1 0x20 MUL ADD MLOAD DUP4 DUP3 PUSH1 0xFF AND PUSH1 0x2 DUP2 LT PUSH2 0xEA6 JUMPI PUSH2 0xEA5 PUSH2 0x17A5 JUMP JUMPDEST JUMPDEST PUSH1 0x20 MUL ADD MLOAD EQ PUSH2 0xF0F JUMPI PUSH2 0xED3 DUP4 DUP3 PUSH1 0xFF AND PUSH1 0x2 DUP2 LT PUSH2 0xEC9 JUMPI PUSH2 0xEC8 PUSH2 0x17A5 JUMP JUMPDEST JUMPDEST PUSH1 0x20 MUL ADD MLOAD PUSH2 0x6E5 JUMP JUMPDEST PUSH1 0x40 MLOAD PUSH32 0x8C379A000000000000000000000000000000000000000000000000000000000 DUP2 MSTORE PUSH1 0x4 ADD PUSH2 0xF06 SWAP2 SWAP1 PUSH2 0x1A18 JUMP JUMPDEST PUSH1 0x40 MLOAD DUP1 SWAP2 SUB SWAP1 REVERT JUMPDEST DUP1 DUP1 PUSH2 0xF1A SWAP1 PUSH2 0x17DE JUMP JUMPDEST SWAP2 POP POP PUSH2 0xE69 JUMP JUMPDEST POP POP POP JUMP JUMPDEST PUSH0 PUSH1 0x40 MLOAD PUSH1 0x20 DUP2 MSTORE PUSH1 0x20 DUP1 DUP3 ADD MSTORE PUSH1 0x20 PUSH1 0x40 DUP3 ADD MSTORE DUP5 PUSH1 0x60 DUP3 ADD MSTORE DUP4 PUSH1 0x80 DUP3 ADD MSTORE DUP3 PUSH1 0xA0 DUP3 ADD MSTORE PUSH1 0x20 DUP2 PUSH1 0xC0 DUP4 PUSH1 0x5 PUSH3 0x186A0 STATICCALL DUP1 PUSH0 DUP2 EQ PUSH2 0xF6C JUMPI DUP3 MLOAD SWAP4 POP PUSH2 0xF70 JUMP JUMPDEST PUSH0 DUP1 REVERT JUMPDEST POP POP POP SWAP4 SWAP3 POP POP POP JUMP JUMPDEST PUSH1 0x40 MLOAD DUP1 PUSH1 0x40 ADD PUSH1 0x40 MSTORE DUP1 PUSH1 0x2 SWAP1 PUSH1 0x20 DUP3 MUL DUP1 CALLDATASIZE DUP4 CALLDATACOPY DUP1 DUP3 ADD SWAP2 POP POP SWAP1 POP POP SWAP1 JUMP JUMPDEST PUSH0 PUSH1 0x40 MLOAD SWAP1 POP SWAP1 JUMP JUMPDEST PUSH0 DUP1 REVERT JUMPDEST PUSH0 DUP1 REVERT JUMPDEST PUSH0 DUP2 SWAP1 POP SWAP2 SWAP1 POP JUMP JUMPDEST PUSH2 0xFBF DUP2 PUSH2 0xFAD JUMP JUMPDEST DUP2 EQ PUSH2 0xFC9 JUMPI PUSH0 DUP1 REVERT JUMPDEST POP JUMP JUMPDEST PUSH0 DUP2 CALLDATALOAD SWAP1 POP PUSH2 0xFDA DUP2 PUSH2 0xFB6 JUMP JUMPDEST SWAP3 SWAP2 POP POP JUMP JUMPDEST PUSH0 DUP1 PUSH0 DUP1 PUSH1 0x80 DUP6 DUP8 SUB SLT ISZERO PUSH2 0xFF8 JUMPI PUSH2 0xFF7 PUSH2 0xFA5 JUMP JUMPDEST JUMPDEST PUSH0 PUSH2 0x1005 DUP8 DUP3 DUP9 ADD PUSH2 0xFCC JUMP JUMPDEST SWAP5 POP POP PUSH1 0x20 PUSH2 0x1016 DUP8 DUP3 DUP9 ADD PUSH2 0xFCC JUMP JUMPDEST SWAP4 POP POP PUSH1 0x40 PUSH2 0x1027 DUP8 DUP3 DUP9 ADD PUSH2 0xFCC JUMP JUMPDEST SWAP3 POP POP PUSH1 0x60 PUSH2 0x1038 DUP8 DUP3 DUP9 ADD PUSH2 0xFCC JUMP JUMPDEST SWAP2 POP POP SWAP3 SWAP6 SWAP2 SWAP5 POP SWAP3 POP JUMP JUMPDEST PUSH2 0x104D DUP2 PUSH2 0xFAD JUMP JUMPDEST DUP3 MSTORE POP POP JUMP JUMPDEST PUSH0 PUSH1 0x40 DUP3 ADD SWAP1 POP PUSH2 0x1066 PUSH0 DUP4 ADD DUP6 PUSH2 0x1044 JUMP JUMPDEST PUSH2 0x1073 PUSH1 0x20 DUP4 ADD DUP5 PUSH2 0x1044 JUMP JUMPDEST SWAP4 SWAP3 POP POP POP JUMP JUMPDEST PUSH0 DUP1 REVERT JUMPDEST PUSH0 PUSH1 0x1F NOT PUSH1 0x1F DUP4 ADD AND SWAP1 POP SWAP2 SWAP1 POP JUMP JUMPDEST PUSH32 0x4E487B7100000000000000000000000000000000000000000000000000000000 PUSH0 MSTORE PUSH1 0x41 PUSH1 0x4 MSTORE PUSH1 0x24 PUSH0 REVERT JUMPDEST PUSH2 0x10C4 DUP3 PUSH2 0x107E JUMP JUMPDEST DUP2 ADD DUP2 DUP2 LT PUSH8 0xFFFFFFFFFFFFFFFF DUP3 GT OR ISZERO PUSH2 0x10E3 JUMPI PUSH2 0x10E2 PUSH2 0x108E JUMP JUMPDEST JUMPDEST DUP1 PUSH1 0x40 MSTORE POP POP POP JUMP JUMPDEST PUSH0 PUSH2 0x10F5 PUSH2 0xF9C JUMP JUMPDEST SWAP1 POP PUSH2 0x1101 DUP3 DUP3 PUSH2 0x10BB JUMP JUMPDEST SWAP2 SWAP1 POP JUMP JUMPDEST PUSH0 PUSH8 0xFFFFFFFFFFFFFFFF DUP3 GT ISZERO PUSH2 0x1120 JUMPI PUSH2 0x111F PUSH2 0x108E JUMP JUMPDEST JUMPDEST PUSH1 0x20 DUP3 MUL SWAP1 POP SWAP2 SWAP1 POP JUMP JUMPDEST PUSH0 DUP1 REVERT JUMPDEST PUSH0 PUSH8 0xFFFFFFFFFFFFFFFF DUP3 GT ISZERO PUSH2 0x1149 JUMPI PUSH2 0x1148 PUSH2 0x108E JUMP JUMPDEST JUMPDEST PUSH1 0x20 DUP3 MUL SWAP1 POP PUSH1 0x20 DUP2 ADD SWAP1 POP SWAP2 SWAP1 POP JUMP JUMPDEST PUSH0 PUSH2 0x116C PUSH2 0x1167 DUP5 PUSH2 0x112F JUMP JUMPDEST PUSH2 0x10EC JUMP JUMPDEST SWAP1 POP DUP1 DUP4 DUP3 MSTORE PUSH1 0x20 DUP3 ADD SWAP1 POP PUSH1 0x20 DUP5 MUL DUP4 ADD DUP6 DUP2 GT ISZERO PUSH2 0x118F JUMPI PUSH2 0x118E PUSH2 0x112B JUMP JUMPDEST JUMPDEST DUP4 JUMPDEST DUP2 DUP2 LT ISZERO PUSH2 0x11B8 JUMPI DUP1 PUSH2 0x11A4 DUP9 DUP3 PUSH2 0xFCC JUMP JUMPDEST DUP5 MSTORE PUSH1 0x20 DUP5 ADD SWAP4 POP POP PUSH1 0x20 DUP2 ADD SWAP1 POP PUSH2 0x1191 JUMP JUMPDEST POP POP POP SWAP4 SWAP3 POP POP POP JUMP JUMPDEST PUSH0 DUP3 PUSH1 0x1F DUP4 ADD SLT PUSH2 0x11D6 JUMPI PUSH2 0x11D5 PUSH2 0x107A JUMP JUMPDEST JUMPDEST DUP2 CALLDATALOAD PUSH2 0x11E6 DUP5 DUP3 PUSH1 0x20 DUP7 ADD PUSH2 0x115A JUMP JUMPDEST SWAP2 POP POP SWAP3 SWAP2 POP POP JUMP JUMPDEST PUSH0 PUSH2 0x1201 PUSH2 0x11FC DUP5 PUSH2 0x1106 JUMP JUMPDEST PUSH2 0x10EC JUMP JUMPDEST SWAP1 POP DUP1 PUSH1 0x20 DUP5 MUL DUP4 ADD DUP6 DUP2 GT ISZERO PUSH2 0x121B JUMPI PUSH2 0x121A PUSH2 0x112B JUMP JUMPDEST JUMPDEST DUP4 JUMPDEST DUP2 DUP2 LT ISZERO PUSH2 0x1262 JUMPI DUP1 CALLDATALOAD PUSH8 0xFFFFFFFFFFFFFFFF DUP2 GT ISZERO PUSH2 0x1240 JUMPI PUSH2 0x123F PUSH2 0x107A JUMP JUMPDEST JUMPDEST DUP1 DUP7 ADD PUSH2 0x124D DUP10 DUP3 PUSH2 0x11C2 JUMP JUMPDEST DUP6 MSTORE PUSH1 0x20 DUP6 ADD SWAP5 POP POP POP PUSH1 0x20 DUP2 ADD SWAP1 POP PUSH2 0x121D JUMP JUMPDEST POP POP POP SWAP4 SWAP3 POP POP POP JUMP JUMPDEST PUSH0 DUP3 PUSH1 0x1F DUP4 ADD SLT PUSH2 0x1280 JUMPI PUSH2 0x127F PUSH2 0x107A JUMP JUMPDEST JUMPDEST PUSH1 0x2 PUSH2 0x128D DUP5 DUP3 DUP6 PUSH2 0x11EF JUMP JUMPDEST SWAP2 POP POP SWAP3 SWAP2 POP POP JUMP JUMPDEST PUSH0 PUSH8 0xFFFFFFFFFFFFFFFF DUP3 GT ISZERO PUSH2 0x12B0 JUMPI PUSH2 0x12AF PUSH2 0x108E JUMP JUMPDEST JUMPDEST PUSH1 0x20 DUP3 MUL SWAP1 POP SWAP2 SWAP1 POP JUMP JUMPDEST PUSH0 PUSH2 0x12CD PUSH2 0x12C8 DUP5 PUSH2 0x1296 JUMP JUMPDEST PUSH2 0x10EC JUMP JUMPDEST SWAP1 POP DUP1 PUSH1 0x20 DUP5 MUL DUP4 ADD DUP6 DUP2 GT ISZERO PUSH2 0x12E7 JUMPI PUSH2 0x12E6 PUSH2 0x112B JUMP JUMPDEST JUMPDEST DUP4 JUMPDEST DUP2 DUP2 LT ISZERO PUSH2 0x1310 JUMPI DUP1 PUSH2 0x12FC DUP9 DUP3 PUSH2 0xFCC JUMP JUMPDEST DUP5 MSTORE PUSH1 0x20 DUP5 ADD SWAP4 POP POP PUSH1 0x20 DUP2 ADD SWAP1 POP PUSH2 0x12E9 JUMP JUMPDEST POP POP POP SWAP4 SWAP3 POP POP POP JUMP JUMPDEST PUSH0 DUP3 PUSH1 0x1F DUP4 ADD SLT PUSH2 0x132E JUMPI PUSH2 0x132D PUSH2 0x107A JUMP JUMPDEST JUMPDEST PUSH1 0x2 PUSH2 0x133B DUP5 DUP3 DUP6 PUSH2 0x12BB JUMP JUMPDEST SWAP2 POP POP SWAP3 SWAP2 POP POP JUMP JUMPDEST PUSH0 DUP1 PUSH0 DUP1 PUSH0 DUP1 PUSH0 PUSH2 0x100 DUP9 DUP11 SUB SLT ISZERO PUSH2 0x1360 JUMPI PUSH2 0x135F PUSH2 0xFA5 JUMP JUMPDEST JUMPDEST PUSH0 DUP9 ADD CALLDATALOAD PUSH8 0xFFFFFFFFFFFFFFFF DUP2 GT ISZERO PUSH2 0x137D JUMPI PUSH2 0x137C PUSH2 0xFA9 JUMP JUMPDEST JUMPDEST PUSH2 0x1389 DUP11 DUP3 DUP12 ADD PUSH2 0x126C JUMP JUMPDEST SWAP8 POP POP PUSH1 0x20 DUP9 ADD CALLDATALOAD PUSH8 0xFFFFFFFFFFFFFFFF DUP2 GT ISZERO PUSH2 0x13AA JUMPI PUSH2 0x13A9 PUSH2 0xFA9 JUMP JUMPDEST JUMPDEST PUSH2 0x13B6 DUP11 DUP3 DUP12 ADD PUSH2 0x126C JUMP JUMPDEST SWAP7 POP POP PUSH1 0x40 DUP9 ADD CALLDATALOAD PUSH8 0xFFFFFFFFFFFFFFFF DUP2 GT ISZERO PUSH2 0x13D7 JUMPI PUSH2 0x13D6 PUSH2 0xFA9 JUMP JUMPDEST JUMPDEST PUSH2 0x13E3 DUP11 DUP3 DUP12 ADD PUSH2 0x11C2 JUMP JUMPDEST SWAP6 POP POP PUSH1 0x60 DUP9 ADD CALLDATALOAD PUSH8 0xFFFFFFFFFFFFFFFF DUP2 GT ISZERO PUSH2 0x1404 JUMPI PUSH2 0x1403 PUSH2 0xFA9 JUMP JUMPDEST JUMPDEST PUSH2 0x1410 DUP11 DUP3 DUP12 ADD PUSH2 0x11C2 JUMP JUMPDEST SWAP5 POP POP PUSH1 0x80 PUSH2 0x1421 DUP11 DUP3 DUP12 ADD PUSH2 0x131A JUMP JUMPDEST SWAP4 POP POP PUSH1 0xC0 DUP9 ADD CALLDATALOAD PUSH8 0xFFFFFFFFFFFFFFFF DUP2 GT ISZERO PUSH2 0x1442 JUMPI PUSH2 0x1441 PUSH2 0xFA9 JUMP JUMPDEST JUMPDEST PUSH2 0x144E DUP11 DUP3 DUP12 ADD PUSH2 0x126C JUMP JUMPDEST SWAP3 POP POP PUSH1 0xE0 DUP9 ADD CALLDATALOAD PUSH8 0xFFFFFFFFFFFFFFFF DUP2 GT ISZERO PUSH2 0x146F JUMPI PUSH2 0x146E PUSH2 0xFA9 JUMP JUMPDEST JUMPDEST PUSH2 0x147B DUP11 DUP3 DUP12 ADD PUSH2 0x126C JUMP JUMPDEST SWAP2 POP POP SWAP3 SWAP6 SWAP9 SWAP2 SWAP5 SWAP8 POP SWAP3 SWAP6 POP JUMP JUMPDEST PUSH0 DUP2 ISZERO ISZERO SWAP1 POP SWAP2 SWAP1 POP JUMP JUMPDEST PUSH2 0x149E DUP2 PUSH2 0x148A JUMP JUMPDEST DUP3 MSTORE POP POP JUMP JUMPDEST PUSH0 PUSH1 0x20 DUP3 ADD SWAP1 POP PUSH2 0x14B7 PUSH0 DUP4 ADD DUP5 PUSH2 0x1495 JUMP JUMPDEST SWAP3 SWAP2 POP POP JUMP JUMPDEST PUSH0 DUP1 PUSH1 0x40 DUP4 DUP6 SUB SLT ISZERO PUSH2 0x14D3 JUMPI PUSH2 0x14D2 PUSH2 0xFA5 JUMP JUMPDEST JUMPDEST PUSH0 PUSH2 0x14E0 DUP6 DUP3 DUP7 ADD PUSH2 0xFCC JUMP JUMPDEST SWAP3 POP POP PUSH1 0x20 PUSH2 0x14F1 DUP6 DUP3 DUP7 ADD PUSH2 0xFCC JUMP JUMPDEST SWAP2 POP POP SWAP3 POP SWAP3 SWAP1 POP JUMP JUMPDEST PUSH0 DUP1 PUSH0 PUSH1 0x60 DUP5 DUP7 SUB SLT ISZERO PUSH2 0x1512 JUMPI PUSH2 0x1511 PUSH2 0xFA5 JUMP JUMPDEST JUMPDEST PUSH0 PUSH2 0x151F DUP7 DUP3 DUP8 ADD PUSH2 0xFCC JUMP JUMPDEST SWAP4 POP POP PUSH1 0x20 PUSH2 0x1530 DUP7 DUP3 DUP8 ADD PUSH2 0xFCC JUMP JUMPDEST SWAP3 POP POP PUSH1 0x40 PUSH2 0x1541 DUP7 DUP3 DUP8 ADD PUSH2 0xFCC JUMP JUMPDEST SWAP2 POP POP SWAP3 POP SWAP3 POP SWAP3 JUMP JUMPDEST PUSH0 DUP3 DUP3 MSTORE PUSH1 0x20 DUP3 ADD SWAP1 POP SWAP3 SWAP2 POP POP JUMP JUMPDEST PUSH32 0x496E76616C696420696E707574206C656E6774682C20412C20422C207A4C6973 PUSH0 DUP3 ADD MSTORE PUSH32 0x745F312C207A4C6973745F322C20584C6973742C20594C6973742073686F756C PUSH1 0x20 DUP3 ADD MSTORE PUSH32 0x642068617665207468652073616D65206C656E67746800000000000000000000 PUSH1 0x40 DUP3 ADD MSTORE POP JUMP JUMPDEST PUSH0 PUSH2 0x15DB PUSH1 0x56 DUP4 PUSH2 0x154B JUMP JUMPDEST SWAP2 POP PUSH2 0x15E6 DUP3 PUSH2 0x155B JUMP JUMPDEST PUSH1 0x60 DUP3 ADD SWAP1 POP SWAP2 SWAP1 POP JUMP JUMPDEST PUSH0 PUSH1 0x20 DUP3 ADD SWAP1 POP DUP2 DUP2 SUB PUSH0 DUP4 ADD MSTORE PUSH2 0x1608 DUP2 PUSH2 0x15CF JUMP JUMPDEST SWAP1 POP SWAP2 SWAP1 POP JUMP JUMPDEST PUSH32 0x496E76616C696420696E707574206C656E6774682C20412C20422C207A4C6973 PUSH0 DUP3 ADD MSTORE PUSH32 0x745F312C207A4C6973745F322C20584C6973742C20594C6973742073686F756C PUSH1 0x20 DUP3 ADD MSTORE PUSH32 0x642068617665206C656E677468203E2030000000000000000000000000000000 PUSH1 0x40 DUP3 ADD MSTORE POP JUMP JUMPDEST PUSH0 PUSH2 0x168F PUSH1 0x51 DUP4 PUSH2 0x154B JUMP JUMPDEST SWAP2 POP PUSH2 0x169A DUP3 PUSH2 0x160F JUMP JUMPDEST PUSH1 0x60 DUP3 ADD SWAP1 POP SWAP2 SWAP1 POP JUMP JUMPDEST PUSH0 PUSH1 0x20 DUP3 ADD SWAP1 POP DUP2 DUP2 SUB PUSH0 DUP4 ADD MSTORE PUSH2 0x16BC DUP2 PUSH2 0x1683 JUMP JUMPDEST SWAP1 POP SWAP2 SWAP1 POP JUMP JUMPDEST PUSH32 0x4E487B7100000000000000000000000000000000000000000000000000000000 PUSH0 MSTORE PUSH1 0x11 PUSH1 0x4 MSTORE PUSH1 0x24 PUSH0 REVERT JUMPDEST PUSH0 PUSH2 0x16FA DUP3 PUSH2 0xFAD JUMP JUMPDEST SWAP2 POP PUSH2 0x1705 DUP4 PUSH2 0xFAD JUMP JUMPDEST SWAP3 POP DUP3 DUP3 ADD SWAP1 POP DUP1 DUP3 GT ISZERO PUSH2 0x171D JUMPI PUSH2 0x171C PUSH2 0x16C3 JUMP JUMPDEST JUMPDEST SWAP3 SWAP2 POP POP JUMP JUMPDEST PUSH0 DUP2 MLOAD SWAP1 POP SWAP2 SWAP1 POP JUMP JUMPDEST PUSH0 DUP2 SWAP1 POP SWAP3 SWAP2 POP POP JUMP JUMPDEST PUSH0 JUMPDEST DUP4 DUP2 LT ISZERO PUSH2 0x1754 JUMPI DUP1 DUP3 ADD MLOAD DUP2 DUP5 ADD MSTORE PUSH1 0x20 DUP2 ADD SWAP1 POP PUSH2 0x1739 JUMP JUMPDEST PUSH0 DUP5 DUP5 ADD MSTORE POP POP POP POP JUMP JUMPDEST PUSH0 PUSH2 0x1769 DUP3 PUSH2 0x1723 JUMP JUMPDEST PUSH2 0x1773 DUP2 DUP6 PUSH2 0x172D JUMP JUMPDEST SWAP4 POP PUSH2 0x1783 DUP2 DUP6 PUSH1 0x20 DUP7 ADD PUSH2 0x1737 JUMP JUMPDEST DUP1 DUP5 ADD SWAP2 POP POP SWAP3 SWAP2 POP POP JUMP JUMPDEST PUSH0 PUSH2 0x179A DUP3 DUP5 PUSH2 0x175F JUMP JUMPDEST SWAP2 POP DUP2 SWAP1 POP SWAP3 SWAP2 POP POP JUMP JUMPDEST PUSH32 0x4E487B7100000000000000000000000000000000000000000000000000000000 PUSH0 MSTORE PUSH1 0x32 PUSH1 0x4 MSTORE PUSH1 0x24 PUSH0 REVERT JUMPDEST PUSH0 PUSH1 0xFF DUP3 AND SWAP1 POP SWAP2 SWAP1 POP JUMP JUMPDEST PUSH0 PUSH2 0x17E8 DUP3 PUSH2 0x17D2 JUMP JUMPDEST SWAP2 POP PUSH1 0xFF DUP3 SUB PUSH2 0x17FB JUMPI PUSH2 0x17FA PUSH2 0x16C3 JUMP JUMPDEST JUMPDEST PUSH1 0x1 DUP3 ADD SWAP1 POP SWAP2 SWAP1 POP JUMP JUMPDEST PUSH32 0x4E487B7100000000000000000000000000000000000000000000000000000000 PUSH0 MSTORE PUSH1 0x12 PUSH1 0x4 MSTORE PUSH1 0x24 PUSH0 REVERT JUMPDEST PUSH0 PUSH2 0x183D DUP3 PUSH2 0xFAD JUMP JUMPDEST SWAP2 POP PUSH32 0xFFFFFFFFFFFFFFFFFFFFFFFFFFFFFFFFFFFFFFFFFFFFFFFFFFFFFFFFFFFFFFFF DUP3 SUB PUSH2 0x186F JUMPI PUSH2 0x186E PUSH2 0x16C3 JUMP JUMPDEST JUMPDEST PUSH1 0x1 DUP3 ADD SWAP1 POP SWAP2 SWAP1 POP JUMP JUMPDEST PUSH0 PUSH2 0x1884 DUP3 PUSH2 0xFAD JUMP JUMPDEST SWAP2 POP PUSH2 0x188F DUP4 PUSH2 0xFAD JUMP JUMPDEST SWAP3 POP DUP3 PUSH2 0x189F JUMPI PUSH2 0x189E PUSH2 0x1806 JUMP JUMPDEST JUMPDEST DUP3 DUP3 DIV SWAP1 POP SWAP3 SWAP2 POP POP JUMP JUMPDEST PUSH0 PUSH2 0x18B4 DUP3 PUSH2 0xFAD JUMP JUMPDEST SWAP2 POP PUSH2 0x18BF DUP4 PUSH2 0xFAD JUMP JUMPDEST SWAP3 POP DUP3 DUP3 SUB SWAP1 POP DUP2 DUP2 GT ISZERO PUSH2 0x18D7 JUMPI PUSH2 0x18D6 PUSH2 0x16C3 JUMP JUMPDEST JUMPDEST SWAP3 SWAP2 POP POP JUMP JUMPDEST PUSH0 PUSH2 0x18E7 DUP3 PUSH2 0xFAD JUMP JUMPDEST SWAP2 POP PUSH2 0x18F2 DUP4 PUSH2 0xFAD JUMP JUMPDEST SWAP3 POP DUP3 DUP3 MUL PUSH2 0x1900 DUP2 PUSH2 0xFAD JUMP JUMPDEST SWAP2 POP DUP3 DUP3 DIV DUP5 EQ DUP4 ISZERO OR PUSH2 0x1917 JUMPI PUSH2 0x1916 PUSH2 0x16C3 JUMP JUMPDEST JUMPDEST POP SWAP3 SWAP2 POP POP JUMP JUMPDEST PUSH0 PUSH2 0x1928 DUP3 PUSH2 0x17D2 JUMP JUMPDEST SWAP2 POP PUSH2 0x1933 DUP4 PUSH2 0x17D2 JUMP JUMPDEST SWAP3 POP DUP3 DUP3 ADD SWAP1 POP PUSH1 0xFF DUP2 GT ISZERO PUSH2 0x194C JUMPI PUSH2 0x194B PUSH2 0x16C3 JUMP JUMPDEST JUMPDEST SWAP3 SWAP2 POP POP JUMP JUMPDEST PUSH32 0x76616C6964206661696C65642C206172726179206C656E677468206E6F742065 PUSH0 DUP3 ADD MSTORE PUSH32 0x7175616C00000000000000000000000000000000000000000000000000000000 PUSH1 0x20 DUP3 ADD MSTORE POP JUMP JUMPDEST PUSH0 PUSH2 0x19AC PUSH1 0x24 DUP4 PUSH2 0x154B JUMP JUMPDEST SWAP2 POP PUSH2 0x19B7 DUP3 PUSH2 0x1952 JUMP JUMPDEST PUSH1 0x40 DUP3 ADD SWAP1 POP SWAP2 SWAP1 POP JUMP JUMPDEST PUSH0 PUSH1 0x20 DUP3 ADD SWAP1 POP DUP2 DUP2 SUB PUSH0 DUP4 ADD MSTORE PUSH2 0x19D9 DUP2 PUSH2 0x19A0 JUMP JUMPDEST SWAP1 POP SWAP2 SWAP1 POP JUMP JUMPDEST PUSH0 PUSH2 0x19EA DUP3 PUSH2 0x1723 JUMP JUMPDEST PUSH2 0x19F4 DUP2 DUP6 PUSH2 0x154B JUMP JUMPDEST SWAP4 POP PUSH2 0x1A04 DUP2 DUP6 PUSH1 0x20 DUP7 ADD PUSH2 0x1737 JUMP JUMPDEST PUSH2 0x1A0D DUP2 PUSH2 0x107E JUMP JUMPDEST DUP5 ADD SWAP2 POP POP SWAP3 SWAP2 POP POP JUMP JUMPDEST PUSH0 PUSH1 0x20 DUP3 ADD SWAP1 POP DUP2 DUP2 SUB PUSH0 DUP4 ADD MSTORE PUSH2 0x1A30 DUP2 DUP5 PUSH2 0x19E0 JUMP JUMPDEST SWAP1 POP SWAP3 SWAP2 POP POP JUMP INVALID LOG2 PUSH5 0x6970667358 0x22 SLT KECCAK256 0x4D 0xE7 NUMBER CALLER CODECOPY SSTORE CALLDATASIZE 0xDE 0xD0 MSTORE8 0xAB 0x2F PUSH27 0x5BFDB966234E04A07B6FA059E56EAFC36FD3E364736F6C63430008 OR STOP CALLER "
				},
				"gasEstimates": {
					"creation": {
						"codeDepositCost": "1353200",
						"executionCost": "infinite",
						"totalCost": "infinite"
					},
					"external": {
						"pointAdd(uint256,uint256,uint256,uint256)": "infinite",
						"pointDouble(uint256,uint256)": "infinite",
						"pointMul(uint256,uint256,uint256)": "infinite",
						"sigmaProofOfValueVerifier(uint256[][2],uint256[][2],uint256[],uint256[],uint256[2],uint256[][2],uint256[][2])": "infinite"
					},
					"internal": {
						"compareArray(uint256[2] memory,uint256[2] memory)": "infinite",
						"sumArray(uint256[] memory[2] memory)": "infinite",
						"uint2str(uint256)": "infinite",
						"validResponse1(uint256,uint256[] memory,uint256[] memory,uint256[2] memory,uint256)": "infinite",
						"validResponse2(uint256,uint256,uint256[] memory,uint256[] memory,uint256)": "infinite"
					}
				},
				"methodIdentifiers": {
					"pointAdd(uint256,uint256,uint256,uint256)": "212aba38",
					"pointDouble(uint256,uint256)": "de92b0e9",
					"pointMul(uint256,uint256,uint256)": "fd6bbc32",
					"sigmaProofOfValueVerifier(uint256[][2],uint256[][2],uint256[],uint256[],uint256[2],uint256[][2],uint256[][2])": "c1f349fe"
				}
			},
			"storageLayout": {
				"storage": [
					{
						"astId": 378,
						"contract": "contracts/VerifySigmaProtocol.sol:VerifySigmaProtocol",
						"label": "g",
						"offset": 0,
						"slot": "0",
						"type": "t_array(t_uint256)2_storage"
					},
					{
						"astId": 385,
						"contract": "contracts/VerifySigmaProtocol.sol:VerifySigmaProtocol",
						"label": "h",
						"offset": 0,
						"slot": "2",
						"type": "t_array(t_uint256)2_storage"
					}
				],
				"types": {
					"t_array(t_uint256)2_storage": {
						"base": "t_uint256",
						"encoding": "inplace",
						"label": "uint256[2]",
						"numberOfBytes": "64"
					},
					"t_uint256": {
						"encoding": "inplace",
						"label": "uint256",
						"numberOfBytes": "32"
					}
				}
			},
			"userdoc": {
				"kind": "user",
				"methods": {},
				"version": 1
			}
		}
	}
}