{
	"contracts/CurveBabyJubJub.sol": {
		"CurveBabyJubJub": {
			"abi": [
				{
					"inputs": [],
					"name": "A",
					"outputs": [
						{
							"internalType": "uint256",
							"name": "",
							"type": "uint256"
						}
					],
					"stateMutability": "view",
					"type": "function"
				},
				{
					"inputs": [],
					"name": "D",
					"outputs": [
						{
							"internalType": "uint256",
							"name": "",
							"type": "uint256"
						}
					],
					"stateMutability": "view",
					"type": "function"
				},
				{
					"inputs": [],
					"name": "Q",
					"outputs": [
						{
							"internalType": "uint256",
							"name": "",
							"type": "uint256"
						}
					],
					"stateMutability": "view",
					"type": "function"
				}
			],
			"devdoc": {
				"kind": "dev",
				"methods": {},
				"version": 1
			},
			"evm": {
				"assembly": "    /* \"contracts/CurveBabyJubJub.sol\":35:4413  library CurveBabyJubJub {... */\n  dataSize(sub_0)\n  dataOffset(sub_0)\n  0x0b\n  dup3\n  dup3\n  dup3\n  codecopy\n  dup1\n  mload\n  0x00\n  byte\n  0x73\n  eq\n  tag_1\n  jumpi\n  mstore(0x00, 0x4e487b7100000000000000000000000000000000000000000000000000000000)\n  mstore(0x04, 0x00)\n  revert(0x00, 0x24)\ntag_1:\n  mstore(0x00, address)\n  0x73\n  dup2\n  mstore8\n  dup3\n  dup2\n  return\nstop\n\nsub_0: assembly {\n        /* \"contracts/CurveBabyJubJub.sol\":35:4413  library CurveBabyJubJub {... */\n      eq(address, deployTimeAddress())\n      mstore(0x40, 0x80)\n      jumpi(tag_1, lt(calldatasize, 0x04))\n      shr(0xe0, calldataload(0x00))\n      dup1\n      0x0f529ba2\n      eq\n      tag_2\n      jumpi\n      dup1\n      0xe493ef8c\n      eq\n      tag_3\n      jumpi\n      dup1\n      0xf446c1d0\n      eq\n      tag_4\n      jumpi\n    tag_1:\n      0x00\n      dup1\n      revert\n        /* \"contracts/CurveBabyJubJub.sol\":218:253  uint256 public constant D = 0x292F8 */\n    tag_2:\n      tag_5\n      tag_6\n      jump\t// in\n    tag_5:\n      mload(0x40)\n      tag_7\n      swap2\n      swap1\n      tag_8\n      jump\t// in\n    tag_7:\n      mload(0x40)\n      dup1\n      swap2\n      sub\n      swap1\n      return\n        /* \"contracts/CurveBabyJubJub.sol\":356:450  uint256 public constant Q = 0x30644E72E131A029B85045B68181585D2833E84879B9709143E1F593F0000001 */\n    tag_3:\n      tag_9\n      tag_10\n      jump\t// in\n    tag_9:\n      mload(0x40)\n      tag_11\n      swap2\n      swap1\n      tag_8\n      jump\t// in\n    tag_11:\n      mload(0x40)\n      dup1\n      swap2\n      sub\n      swap1\n      return\n        /* \"contracts/CurveBabyJubJub.sol\":156:191  uint256 public constant A = 0x292FC */\n    tag_4:\n      tag_12\n      tag_13\n      jump\t// in\n    tag_12:\n      mload(0x40)\n      tag_14\n      swap2\n      swap1\n      tag_8\n      jump\t// in\n    tag_14:\n      mload(0x40)\n      dup1\n      swap2\n      sub\n      swap1\n      return\n        /* \"contracts/CurveBabyJubJub.sol\":218:253  uint256 public constant D = 0x292F8 */\n    tag_6:\n        /* \"contracts/CurveBabyJubJub.sol\":246:253  0x292F8 */\n      0x0292f8\n        /* \"contracts/CurveBabyJubJub.sol\":218:253  uint256 public constant D = 0x292F8 */\n      dup2\n      jump\t// out\n        /* \"contracts/CurveBabyJubJub.sol\":356:450  uint256 public constant Q = 0x30644E72E131A029B85045B68181585D2833E84879B9709143E1F593F0000001 */\n    tag_10:\n        /* \"contracts/CurveBabyJubJub.sol\":384:450  0x30644E72E131A029B85045B68181585D2833E84879B9709143E1F593F0000001 */\n      0x30644e72e131a029b85045b68181585d2833e84879b9709143e1f593f0000001\n        /* \"contracts/CurveBabyJubJub.sol\":356:450  uint256 public constant Q = 0x30644E72E131A029B85045B68181585D2833E84879B9709143E1F593F0000001 */\n      dup2\n      jump\t// out\n        /* \"contracts/CurveBabyJubJub.sol\":156:191  uint256 public constant A = 0x292FC */\n    tag_13:\n        /* \"contracts/CurveBabyJubJub.sol\":184:191  0x292FC */\n      0x0292fc\n        /* \"contracts/CurveBabyJubJub.sol\":156:191  uint256 public constant A = 0x292FC */\n      dup2\n      jump\t// out\n        /* \"#utility.yul\":7:84   */\n    tag_15:\n        /* \"#utility.yul\":44:51   */\n      0x00\n        /* \"#utility.yul\":73:78   */\n      dup2\n        /* \"#utility.yul\":62:78   */\n      swap1\n      pop\n        /* \"#utility.yul\":7:84   */\n      swap2\n      swap1\n      pop\n      jump\t// out\n        /* \"#utility.yul\":90:216   */\n    tag_16:\n        /* \"#utility.yul\":185:209   */\n      tag_20\n        /* \"#utility.yul\":203:208   */\n      dup2\n        /* \"#utility.yul\":185:209   */\n      tag_15\n      jump\t// in\n    tag_20:\n        /* \"#utility.yul\":180:183   */\n      dup3\n        /* \"#utility.yul\":173:210   */\n      mstore\n        /* \"#utility.yul\":90:216   */\n      pop\n      pop\n      jump\t// out\n        /* \"#utility.yul\":222:460   */\n    tag_8:\n        /* \"#utility.yul\":323:327   */\n      0x00\n        /* \"#utility.yul\":361:363   */\n      0x20\n        /* \"#utility.yul\":350:359   */\n      dup3\n        /* \"#utility.yul\":346:364   */\n      add\n        /* \"#utility.yul\":338:364   */\n      swap1\n      pop\n        /* \"#utility.yul\":374:453   */\n      tag_22\n        /* \"#utility.yul\":450:451   */\n      0x00\n        /* \"#utility.yul\":439:448   */\n      dup4\n        /* \"#utility.yul\":435:452   */\n      add\n        /* \"#utility.yul\":426:432   */\n      dup5\n        /* \"#utility.yul\":374:453   */\n      tag_16\n      jump\t// in\n    tag_22:\n        /* \"#utility.yul\":222:460   */\n      swap3\n      swap2\n      pop\n      pop\n      jump\t// out\n\n    auxdata: 0xa26469706673582212201398e96af3a360e6544f503a673751d549833082c4c605a054e64250ad3da5b864736f6c63430008170033\n}\n",
				"bytecode": {
					"linkReferences": {},
					"object": "61012d61004e600b8282823980515f1a607314610042577f4e487b71000000000000000000000000000000000000000000000000000000005f525f60045260245ffd5b305f52607381538281f3fe73000000000000000000000000000000000000000030146080604052600436106046575f3560e01c80630f529ba214604a578063e493ef8c146064578063f446c1d014607e575b5f80fd5b60506098565b604051605b919060e0565b60405180910390f35b606a609f565b6040516075919060e0565b60405180910390f35b608460c3565b604051608f919060e0565b60405180910390f35b620292f881565b7f30644e72e131a029b85045b68181585d2833e84879b9709143e1f593f000000181565b620292fc81565b5f819050919050565b60da8160ca565b82525050565b5f60208201905060f15f83018460d3565b9291505056fea26469706673582212201398e96af3a360e6544f503a673751d549833082c4c605a054e64250ad3da5b864736f6c63430008170033",
					"opcodes": "PUSH2 0x12D PUSH2 0x4E PUSH1 0xB DUP3 DUP3 DUP3 CODECOPY DUP1 MLOAD PUSH0 BYTE PUSH1 0x73 EQ PUSH2 0x42 JUMPI PUSH32 0x4E487B7100000000000000000000000000000000000000000000000000000000 PUSH0 MSTORE PUSH0 PUSH1 0x4 MSTORE PUSH1 0x24 PUSH0 REVERT JUMPDEST ADDRESS PUSH0 MSTORE PUSH1 0x73 DUP2 MSTORE8 DUP3 DUP2 RETURN INVALID PUSH20 0x0 ADDRESS EQ PUSH1 0x80 PUSH1 0x40 MSTORE PUSH1 0x4 CALLDATASIZE LT PUSH1 0x46 JUMPI PUSH0 CALLDATALOAD PUSH1 0xE0 SHR DUP1 PUSH4 0xF529BA2 EQ PUSH1 0x4A JUMPI DUP1 PUSH4 0xE493EF8C EQ PUSH1 0x64 JUMPI DUP1 PUSH4 0xF446C1D0 EQ PUSH1 0x7E JUMPI JUMPDEST PUSH0 DUP1 REVERT JUMPDEST PUSH1 0x50 PUSH1 0x98 JUMP JUMPDEST PUSH1 0x40 MLOAD PUSH1 0x5B SWAP2 SWAP1 PUSH1 0xE0 JUMP JUMPDEST PUSH1 0x40 MLOAD DUP1 SWAP2 SUB SWAP1 RETURN JUMPDEST PUSH1 0x6A PUSH1 0x9F JUMP JUMPDEST PUSH1 0x40 MLOAD PUSH1 0x75 SWAP2 SWAP1 PUSH1 0xE0 JUMP JUMPDEST PUSH1 0x40 MLOAD DUP1 SWAP2 SUB SWAP1 RETURN JUMPDEST PUSH1 0x84 PUSH1 0xC3 JUMP JUMPDEST PUSH1 0x40 MLOAD PUSH1 0x8F SWAP2 SWAP1 PUSH1 0xE0 JUMP JUMPDEST PUSH1 0x40 MLOAD DUP1 SWAP2 SUB SWAP1 RETURN JUMPDEST PUSH3 0x292F8 DUP2 JUMP JUMPDEST PUSH32 0x30644E72E131A029B85045B68181585D2833E84879B9709143E1F593F0000001 DUP2 JUMP JUMPDEST PUSH3 0x292FC DUP2 JUMP JUMPDEST PUSH0 DUP2 SWAP1 POP SWAP2 SWAP1 POP JUMP JUMPDEST PUSH1 0xDA DUP2 PUSH1 0xCA JUMP JUMPDEST DUP3 MSTORE POP POP JUMP JUMPDEST PUSH0 PUSH1 0x20 DUP3 ADD SWAP1 POP PUSH1 0xF1 PUSH0 DUP4 ADD DUP5 PUSH1 0xD3 JUMP JUMPDEST SWAP3 SWAP2 POP POP JUMP INVALID LOG2 PUSH5 0x6970667358 0x22 SLT KECCAK256 SGT SWAP9 0xE9 PUSH11 0xF3A360E6544F503A673751 0xD5 0x49 DUP4 ADDRESS DUP3 0xC4 0xC6 SDIV LOG0 SLOAD 0xE6 TIMESTAMP POP 0xAD RETURNDATASIZE 0xA5 0xB8 PUSH5 0x736F6C6343 STOP ADDMOD OR STOP CALLER "
				},
				"gasEstimates": {
					"creation": {
						"codeDepositCost": "60200",
						"executionCost": "134",
						"totalCost": "60334"
					},
					"external": {
						"A()": "331",
						"D()": "287",
						"Q()": "309"
					},
					"internal": {
						"expmod(uint256,uint256,uint256)": "infinite",
						"inverse(uint256)": "infinite",
						"isOnCurve(uint256,uint256)": "infinite",
						"pointAdd(uint256,uint256,uint256,uint256)": "infinite",
						"pointDouble(uint256,uint256)": "infinite",
						"pointMul(uint256,uint256,uint256)": "infinite",
						"submod(uint256,uint256,uint256)": "infinite"
					}
				},
				"methodIdentifiers": {
					"A()": "f446c1d0",
					"D()": "0f529ba2",
					"Q()": "e493ef8c"
				}
			},
			"storageLayout": {
				"storage": [],
				"types": null
			},
			"userdoc": {
				"kind": "user",
				"methods": {},
				"version": 1
			}
		}
	}
}