{
	"contracts/testECMulAdd.sol": {
		"BN128Operations": {
			"abi": [
				{
					"inputs": [
						{
							"internalType": "uint256[2]",
							"name": "point1",
							"type": "uint256[2]"
						},
						{
							"internalType": "uint256[2]",
							"name": "point2",
							"type": "uint256[2]"
						}
					],
					"name": "pointAdditionWithGasCost",
					"outputs": [
						{
							"internalType": "string",
							"name": "result",
							"type": "string"
						},
						{
							"internalType": "uint256",
							"name": "gasCost",
							"type": "uint256"
						}
					],
					"stateMutability": "view",
					"type": "function"
				},
				{
					"inputs": [
						{
							"internalType": "uint256[2]",
							"name": "point",
							"type": "uint256[2]"
						},
						{
							"internalType": "uint256",
							"name": "scalar",
							"type": "uint256"
						}
					],
					"name": "scalarMultiplicationWithGasCost",
					"outputs": [
						{
							"internalType": "string",
							"name": "result",
							"type": "string"
						},
						{
							"internalType": "uint256",
							"name": "gasCost",
							"type": "uint256"
						}
					],
					"stateMutability": "view",
					"type": "function"
				}
			],
			"devdoc": {
				"kind": "dev",
				"methods": {},
				"version": 1
			},
			"evm": {
				"assembly": "    /* \"contracts/testECMulAdd.sol\":35:1945  contract BN128Operations {... */\n  mstore(0x40, 0x80)\n  callvalue\n  dup1\n  iszero\n  tag_1\n  jumpi\n  0x00\n  dup1\n  revert\ntag_1:\n  pop\n  dataSize(sub_0)\n  dup1\n  dataOffset(sub_0)\n  0x00\n  codecopy\n  0x00\n  return\nstop\n\nsub_0: assembly {\n        /* \"contracts/testECMulAdd.sol\":35:1945  contract BN128Operations {... */\n      mstore(0x40, 0x80)\n      callvalue\n      dup1\n      iszero\n      tag_1\n      jumpi\n      0x00\n      dup1\n      revert\n    tag_1:\n      pop\n      jumpi(tag_2, lt(calldatasize, 0x04))\n      shr(0xe0, calldataload(0x00))\n      dup1\n      0xcdb9f45d\n      eq\n      tag_3\n      jumpi\n      dup1\n      0xd7cc7074\n      eq\n      tag_4\n      jumpi\n    tag_2:\n      0x00\n      dup1\n      revert\n        /* \"contracts/testECMulAdd.sol\":150:731  function pointAdditionWithGasCost(uint256[2] memory point1, uint256[2] memory point2)... */\n    tag_3:\n      tag_5\n      0x04\n      dup1\n      calldatasize\n      sub\n      dup2\n      add\n      swap1\n      tag_6\n      swap2\n      swap1\n      tag_7\n      jump\t// in\n    tag_6:\n      tag_8\n      jump\t// in\n    tag_5:\n      mload(0x40)\n      tag_9\n      swap3\n      swap2\n      swap1\n      tag_10\n      jump\t// in\n    tag_9:\n      mload(0x40)\n      dup1\n      swap2\n      sub\n      swap1\n      return\n        /* \"contracts/testECMulAdd.sol\":829:1397  function scalarMultiplicationWithGasCost(uint256[2] memory point, uint256 scalar)... */\n    tag_4:\n      tag_11\n      0x04\n      dup1\n      calldatasize\n      sub\n      dup2\n      add\n      swap1\n      tag_12\n      swap2\n      swap1\n      tag_13\n      jump\t// in\n    tag_12:\n      tag_14\n      jump\t// in\n    tag_11:\n      mload(0x40)\n      tag_15\n      swap3\n      swap2\n      swap1\n      tag_10\n      jump\t// in\n    tag_15:\n      mload(0x40)\n      dup1\n      swap2\n      sub\n      swap1\n      return\n        /* \"contracts/testECMulAdd.sol\":150:731  function pointAdditionWithGasCost(uint256[2] memory point1, uint256[2] memory point2)... */\n    tag_8:\n        /* \"contracts/testECMulAdd.sol\":266:286  string memory result */\n      0x60\n        /* \"contracts/testECMulAdd.sol\":288:303  uint256 gasCost */\n      0x00\n        /* \"contracts/testECMulAdd.sol\":318:334  uint256 gasStart */\n      dup1\n        /* \"contracts/testECMulAdd.sol\":337:346  gasleft() */\n      gas\n        /* \"contracts/testECMulAdd.sol\":318:346  uint256 gasStart = gasleft() */\n      swap1\n      pop\n        /* \"contracts/testECMulAdd.sol\":357:374  bytes memory data */\n      0x00\n        /* \"contracts/testECMulAdd.sol\":394:400  point1 */\n      dup6\n        /* \"contracts/testECMulAdd.sol\":401:402  0 */\n      0x00\n        /* \"contracts/testECMulAdd.sol\":394:403  point1[0] */\n      0x02\n      dup2\n      lt\n      tag_17\n      jumpi\n      tag_18\n      tag_19\n      jump\t// in\n    tag_18:\n    tag_17:\n      0x20\n      mul\n      add\n      mload\n        /* \"contracts/testECMulAdd.sol\":405:411  point1 */\n      dup7\n        /* \"contracts/testECMulAdd.sol\":412:413  1 */\n      0x01\n        /* \"contracts/testECMulAdd.sol\":405:414  point1[1] */\n      0x02\n      dup2\n      lt\n      tag_20\n      jumpi\n      tag_21\n      tag_19\n      jump\t// in\n    tag_21:\n    tag_20:\n      0x20\n      mul\n      add\n      mload\n        /* \"contracts/testECMulAdd.sol\":416:422  point2 */\n      dup7\n        /* \"contracts/testECMulAdd.sol\":423:424  0 */\n      0x00\n        /* \"contracts/testECMulAdd.sol\":416:425  point2[0] */\n      0x02\n      dup2\n      lt\n      tag_22\n      jumpi\n      tag_23\n      tag_19\n      jump\t// in\n    tag_23:\n    tag_22:\n      0x20\n      mul\n      add\n      mload\n        /* \"contracts/testECMulAdd.sol\":427:433  point2 */\n      dup8\n        /* \"contracts/testECMulAdd.sol\":434:435  1 */\n      0x01\n        /* \"contracts/testECMulAdd.sol\":427:436  point2[1] */\n      0x02\n      dup2\n      lt\n      tag_24\n      jumpi\n      tag_25\n      tag_19\n      jump\t// in\n    tag_25:\n    tag_24:\n      0x20\n      mul\n      add\n      mload\n        /* \"contracts/testECMulAdd.sol\":377:437  abi.encodePacked(point1[0], point1[1], point2[0], point2[1]) */\n      add(0x20, mload(0x40))\n      tag_26\n      swap5\n      swap4\n      swap3\n      swap2\n      swap1\n      tag_27\n      jump\t// in\n    tag_26:\n      mload(0x40)\n      0x20\n      dup2\n      dup4\n      sub\n      sub\n      dup2\n      mstore\n      swap1\n      0x40\n      mstore\n        /* \"contracts/testECMulAdd.sol\":357:437  bytes memory data = abi.encodePacked(point1[0], point1[1], point2[0], point2[1]) */\n      swap1\n      pop\n        /* \"contracts/testECMulAdd.sol\":451:463  bool success */\n      0x00\n        /* \"contracts/testECMulAdd.sol\":465:488  bytes memory returnData */\n      dup1\n        /* \"contracts/testECMulAdd.sol\":500:504  0x06 */\n      0x06\n        /* \"contracts/testECMulAdd.sol\":492:516  address(0x06).staticcall */\n      0xffffffffffffffffffffffffffffffffffffffff\n      and\n        /* \"contracts/testECMulAdd.sol\":517:521  data */\n      dup4\n        /* \"contracts/testECMulAdd.sol\":492:522  address(0x06).staticcall(data) */\n      mload(0x40)\n      tag_28\n      swap2\n      swap1\n      tag_29\n      jump\t// in\n    tag_28:\n      0x00\n      mload(0x40)\n      dup1\n      dup4\n      sub\n      dup2\n      dup6\n      gas\n      staticcall\n      swap2\n      pop\n      pop\n      returndatasize\n      dup1\n      0x00\n      dup2\n      eq\n      tag_32\n      jumpi\n      mload(0x40)\n      swap2\n      pop\n      and(add(returndatasize, 0x3f), not(0x1f))\n      dup3\n      add\n      0x40\n      mstore\n      returndatasize\n      dup3\n      mstore\n      returndatasize\n      0x00\n      0x20\n      dup5\n      add\n      returndatacopy\n      jump(tag_31)\n    tag_32:\n      0x60\n      swap2\n      pop\n    tag_31:\n      pop\n        /* \"contracts/testECMulAdd.sol\":450:522  (bool success, bytes memory returnData) = address(0x06).staticcall(data) */\n      swap2\n      pop\n      swap2\n      pop\n        /* \"contracts/testECMulAdd.sol\":533:547  uint256 gasEnd */\n      0x00\n        /* \"contracts/testECMulAdd.sol\":550:559  gasleft() */\n      gas\n        /* \"contracts/testECMulAdd.sol\":533:559  uint256 gasEnd = gasleft() */\n      swap1\n      pop\n        /* \"contracts/testECMulAdd.sol\":580:587  success */\n      dup3\n        /* \"contracts/testECMulAdd.sol\":572:613  require(success, \"Point addition failed\") */\n      tag_33\n      jumpi\n      mload(0x40)\n      0x08c379a000000000000000000000000000000000000000000000000000000000\n      dup2\n      mstore\n      0x04\n      add\n      tag_34\n      swap1\n      tag_35\n      jump\t// in\n    tag_34:\n      mload(0x40)\n      dup1\n      swap2\n      sub\n      swap1\n      revert\n    tag_33:\n        /* \"contracts/testECMulAdd.sol\":635:659  _toHexString(returnData) */\n      tag_36\n        /* \"contracts/testECMulAdd.sol\":648:658  returnData */\n      dup3\n        /* \"contracts/testECMulAdd.sol\":635:647  _toHexString */\n      tag_37\n        /* \"contracts/testECMulAdd.sol\":635:659  _toHexString(returnData) */\n      jump\t// in\n    tag_36:\n        /* \"contracts/testECMulAdd.sol\":626:659  result = _toHexString(returnData) */\n      swap7\n      pop\n        /* \"contracts/testECMulAdd.sol\":691:697  gasEnd */\n      dup1\n        /* \"contracts/testECMulAdd.sol\":680:688  gasStart */\n      dup6\n        /* \"contracts/testECMulAdd.sol\":680:697  gasStart - gasEnd */\n      tag_38\n      swap2\n      swap1\n      tag_39\n      jump\t// in\n    tag_38:\n        /* \"contracts/testECMulAdd.sol\":670:697  gasCost = gasStart - gasEnd */\n      swap6\n      pop\n        /* \"contracts/testECMulAdd.sol\":305:731  {... */\n      pop\n      pop\n      pop\n      pop\n      pop\n        /* \"contracts/testECMulAdd.sol\":150:731  function pointAdditionWithGasCost(uint256[2] memory point1, uint256[2] memory point2)... */\n      swap3\n      pop\n      swap3\n      swap1\n      pop\n      jump\t// out\n        /* \"contracts/testECMulAdd.sol\":829:1397  function scalarMultiplicationWithGasCost(uint256[2] memory point, uint256 scalar)... */\n    tag_14:\n        /* \"contracts/testECMulAdd.sol\":941:961  string memory result */\n      0x60\n        /* \"contracts/testECMulAdd.sol\":963:978  uint256 gasCost */\n      0x00\n        /* \"contracts/testECMulAdd.sol\":993:1009  uint256 gasStart */\n      dup1\n        /* \"contracts/testECMulAdd.sol\":1012:1021  gasleft() */\n      gas\n        /* \"contracts/testECMulAdd.sol\":993:1021  uint256 gasStart = gasleft() */\n      swap1\n      pop\n        /* \"contracts/testECMulAdd.sol\":1032:1049  bytes memory data */\n      0x00\n        /* \"contracts/testECMulAdd.sol\":1069:1074  point */\n      dup6\n        /* \"contracts/testECMulAdd.sol\":1075:1076  0 */\n      0x00\n        /* \"contracts/testECMulAdd.sol\":1069:1077  point[0] */\n      0x02\n      dup2\n      lt\n      tag_41\n      jumpi\n      tag_42\n      tag_19\n      jump\t// in\n    tag_42:\n    tag_41:\n      0x20\n      mul\n      add\n      mload\n        /* \"contracts/testECMulAdd.sol\":1079:1084  point */\n      dup7\n        /* \"contracts/testECMulAdd.sol\":1085:1086  1 */\n      0x01\n        /* \"contracts/testECMulAdd.sol\":1079:1087  point[1] */\n      0x02\n      dup2\n      lt\n      tag_43\n      jumpi\n      tag_44\n      tag_19\n      jump\t// in\n    tag_44:\n    tag_43:\n      0x20\n      mul\n      add\n      mload\n        /* \"contracts/testECMulAdd.sol\":1089:1095  scalar */\n      dup7\n        /* \"contracts/testECMulAdd.sol\":1052:1096  abi.encodePacked(point[0], point[1], scalar) */\n      add(0x20, mload(0x40))\n      tag_45\n      swap4\n      swap3\n      swap2\n      swap1\n      tag_46\n      jump\t// in\n    tag_45:\n      mload(0x40)\n      0x20\n      dup2\n      dup4\n      sub\n      sub\n      dup2\n      mstore\n      swap1\n      0x40\n      mstore\n        /* \"contracts/testECMulAdd.sol\":1032:1096  bytes memory data = abi.encodePacked(point[0], point[1], scalar) */\n      swap1\n      pop\n        /* \"contracts/testECMulAdd.sol\":1110:1122  bool success */\n      0x00\n        /* \"contracts/testECMulAdd.sol\":1124:1147  bytes memory returnData */\n      dup1\n        /* \"contracts/testECMulAdd.sol\":1159:1163  0x07 */\n      0x07\n        /* \"contracts/testECMulAdd.sol\":1151:1175  address(0x07).staticcall */\n      0xffffffffffffffffffffffffffffffffffffffff\n      and\n        /* \"contracts/testECMulAdd.sol\":1176:1180  data */\n      dup4\n        /* \"contracts/testECMulAdd.sol\":1151:1181  address(0x07).staticcall(data) */\n      mload(0x40)\n      tag_47\n      swap2\n      swap1\n      tag_29\n      jump\t// in\n    tag_47:\n      0x00\n      mload(0x40)\n      dup1\n      dup4\n      sub\n      dup2\n      dup6\n      gas\n      staticcall\n      swap2\n      pop\n      pop\n      returndatasize\n      dup1\n      0x00\n      dup2\n      eq\n      tag_50\n      jumpi\n      mload(0x40)\n      swap2\n      pop\n      and(add(returndatasize, 0x3f), not(0x1f))\n      dup3\n      add\n      0x40\n      mstore\n      returndatasize\n      dup3\n      mstore\n      returndatasize\n      0x00\n      0x20\n      dup5\n      add\n      returndatacopy\n      jump(tag_49)\n    tag_50:\n      0x60\n      swap2\n      pop\n    tag_49:\n      pop\n        /* \"contracts/testECMulAdd.sol\":1109:1181  (bool success, bytes memory returnData) = address(0x07).staticcall(data) */\n      swap2\n      pop\n      swap2\n      pop\n        /* \"contracts/testECMulAdd.sol\":1192:1206  uint256 gasEnd */\n      0x00\n        /* \"contracts/testECMulAdd.sol\":1209:1218  gasleft() */\n      gas\n        /* \"contracts/testECMulAdd.sol\":1192:1218  uint256 gasEnd = gasleft() */\n      swap1\n      pop\n        /* \"contracts/testECMulAdd.sol\":1239:1246  success */\n      dup3\n        /* \"contracts/testECMulAdd.sol\":1231:1279  require(success, \"Scalar multiplication failed\") */\n      tag_51\n      jumpi\n      mload(0x40)\n      0x08c379a000000000000000000000000000000000000000000000000000000000\n      dup2\n      mstore\n      0x04\n      add\n      tag_52\n      swap1\n      tag_53\n      jump\t// in\n    tag_52:\n      mload(0x40)\n      dup1\n      swap2\n      sub\n      swap1\n      revert\n    tag_51:\n        /* \"contracts/testECMulAdd.sol\":1301:1325  _toHexString(returnData) */\n      tag_54\n        /* \"contracts/testECMulAdd.sol\":1314:1324  returnData */\n      dup3\n        /* \"contracts/testECMulAdd.sol\":1301:1313  _toHexString */\n      tag_37\n        /* \"contracts/testECMulAdd.sol\":1301:1325  _toHexString(returnData) */\n      jump\t// in\n    tag_54:\n        /* \"contracts/testECMulAdd.sol\":1292:1325  result = _toHexString(returnData) */\n      swap7\n      pop\n        /* \"contracts/testECMulAdd.sol\":1357:1363  gasEnd */\n      dup1\n        /* \"contracts/testECMulAdd.sol\":1346:1354  gasStart */\n      dup6\n        /* \"contracts/testECMulAdd.sol\":1346:1363  gasStart - gasEnd */\n      tag_55\n      swap2\n      swap1\n      tag_39\n      jump\t// in\n    tag_55:\n        /* \"contracts/testECMulAdd.sol\":1336:1363  gasCost = gasStart - gasEnd */\n      swap6\n      pop\n        /* \"contracts/testECMulAdd.sol\":980:1397  {... */\n      pop\n      pop\n      pop\n      pop\n      pop\n        /* \"contracts/testECMulAdd.sol\":829:1397  function scalarMultiplicationWithGasCost(uint256[2] memory point, uint256 scalar)... */\n      swap3\n      pop\n      swap3\n      swap1\n      pop\n      jump\t// out\n        /* \"contracts/testECMulAdd.sol\":1470:1942  function _toHexString(bytes memory data) private pure returns (string memory) {... */\n    tag_37:\n        /* \"contracts/testECMulAdd.sol\":1533:1546  string memory */\n      0x60\n        /* \"contracts/testECMulAdd.sol\":1559:1580  bytes memory alphabet */\n      0x00\n        /* \"contracts/testECMulAdd.sol\":1559:1601  bytes memory alphabet = \"0123456789abcdef\" */\n      mload(0x40)\n      dup1\n      0x40\n      add\n      0x40\n      mstore\n      dup1\n      0x10\n      dup2\n      mstore\n      0x20\n      add\n      0x3031323334353637383961626364656600000000000000000000000000000000\n      dup2\n      mstore\n      pop\n      swap1\n      pop\n        /* \"contracts/testECMulAdd.sol\":1612:1628  bytes memory str */\n      0x00\n        /* \"contracts/testECMulAdd.sol\":1659:1660  2 */\n      0x02\n        /* \"contracts/testECMulAdd.sol\":1645:1649  data */\n      dup5\n        /* \"contracts/testECMulAdd.sol\":1645:1656  data.length */\n      mload\n        /* \"contracts/testECMulAdd.sol\":1645:1660  data.length * 2 */\n      tag_57\n      swap2\n      swap1\n      tag_58\n      jump\t// in\n    tag_57:\n        /* \"contracts/testECMulAdd.sol\":1641:1642  2 */\n      0x02\n        /* \"contracts/testECMulAdd.sol\":1641:1660  2 + data.length * 2 */\n      tag_59\n      swap2\n      swap1\n      tag_60\n      jump\t// in\n    tag_59:\n        /* \"contracts/testECMulAdd.sol\":1631:1661  new bytes(2 + data.length * 2) */\n      0xffffffffffffffff\n      dup2\n      gt\n      iszero\n      tag_61\n      jumpi\n      tag_62\n      tag_63\n      jump\t// in\n    tag_62:\n    tag_61:\n      mload(0x40)\n      swap1\n      dup1\n      dup3\n      mstore\n      dup1\n      0x1f\n      add\n      not(0x1f)\n      and\n      0x20\n      add\n      dup3\n      add\n      0x40\n      mstore\n      dup1\n      iszero\n      tag_64\n      jumpi\n      dup2\n      0x20\n      add\n      0x01\n      dup3\n      mul\n      dup1\n      calldatasize\n      dup4\n      calldatacopy\n      dup1\n      dup3\n      add\n      swap2\n      pop\n      pop\n      swap1\n      pop\n    tag_64:\n      pop\n        /* \"contracts/testECMulAdd.sol\":1612:1661  bytes memory str = new bytes(2 + data.length * 2) */\n      swap1\n      pop\n        /* \"contracts/testECMulAdd.sol\":1672:1684  str[0] = \"0\" */\n      0x3000000000000000000000000000000000000000000000000000000000000000\n        /* \"contracts/testECMulAdd.sol\":1672:1675  str */\n      dup2\n        /* \"contracts/testECMulAdd.sol\":1676:1677  0 */\n      0x00\n        /* \"contracts/testECMulAdd.sol\":1672:1678  str[0] */\n      dup2\n      mload\n      dup2\n      lt\n      tag_65\n      jumpi\n      tag_66\n      tag_19\n      jump\t// in\n    tag_66:\n    tag_65:\n      0x20\n      add\n      add\n        /* \"contracts/testECMulAdd.sol\":1672:1684  str[0] = \"0\" */\n      swap1\n      not(0xffffffffffffffffffffffffffffffffffffffffffffffffffffffffffffff)\n      and\n      swap1\n      dup2\n      0x00\n      byte\n      swap1\n      mstore8\n      pop\n        /* \"contracts/testECMulAdd.sol\":1695:1707  str[1] = \"x\" */\n      0x7800000000000000000000000000000000000000000000000000000000000000\n        /* \"contracts/testECMulAdd.sol\":1695:1698  str */\n      dup2\n        /* \"contracts/testECMulAdd.sol\":1699:1700  1 */\n      0x01\n        /* \"contracts/testECMulAdd.sol\":1695:1701  str[1] */\n      dup2\n      mload\n      dup2\n      lt\n      tag_67\n      jumpi\n      tag_68\n      tag_19\n      jump\t// in\n    tag_68:\n    tag_67:\n      0x20\n      add\n      add\n        /* \"contracts/testECMulAdd.sol\":1695:1707  str[1] = \"x\" */\n      swap1\n      not(0xffffffffffffffffffffffffffffffffffffffffffffffffffffffffffffff)\n      and\n      swap1\n      dup2\n      0x00\n      byte\n      swap1\n      mstore8\n      pop\n        /* \"contracts/testECMulAdd.sol\":1723:1732  uint256 i */\n      0x00\n        /* \"contracts/testECMulAdd.sol\":1718:1906  for (uint256 i = 0; i < data.length; i++) {... */\n    tag_69:\n        /* \"contracts/testECMulAdd.sol\":1742:1746  data */\n      dup5\n        /* \"contracts/testECMulAdd.sol\":1742:1753  data.length */\n      mload\n        /* \"contracts/testECMulAdd.sol\":1738:1739  i */\n      dup2\n        /* \"contracts/testECMulAdd.sol\":1738:1753  i < data.length */\n      lt\n        /* \"contracts/testECMulAdd.sol\":1718:1906  for (uint256 i = 0; i < data.length; i++) {... */\n      iszero\n      tag_70\n      jumpi\n        /* \"contracts/testECMulAdd.sol\":1788:1796  alphabet */\n      dup3\n        /* \"contracts/testECMulAdd.sol\":1822:1823  4 */\n      0x04\n        /* \"contracts/testECMulAdd.sol\":1811:1815  data */\n      dup7\n        /* \"contracts/testECMulAdd.sol\":1816:1817  i */\n      dup4\n        /* \"contracts/testECMulAdd.sol\":1811:1818  data[i] */\n      dup2\n      mload\n      dup2\n      lt\n      tag_72\n      jumpi\n      tag_73\n      tag_19\n      jump\t// in\n    tag_73:\n    tag_72:\n      0x20\n      add\n      add\n      mload\n      0xf8\n      shr\n      0xf8\n      shl\n        /* \"contracts/testECMulAdd.sol\":1811:1823  data[i] >> 4 */\n      not(0xffffffffffffffffffffffffffffffffffffffffffffffffffffffffffffff)\n      and\n      swap1\n      shr\n        /* \"contracts/testECMulAdd.sol\":1805:1824  uint8(data[i] >> 4) */\n      0xf8\n      shr\n        /* \"contracts/testECMulAdd.sol\":1797:1825  uint256(uint8(data[i] >> 4)) */\n      0xff\n      and\n        /* \"contracts/testECMulAdd.sol\":1788:1826  alphabet[uint256(uint8(data[i] >> 4))] */\n      dup2\n      mload\n      dup2\n      lt\n      tag_74\n      jumpi\n      tag_75\n      tag_19\n      jump\t// in\n    tag_75:\n    tag_74:\n      0x20\n      add\n      add\n      mload\n      0xf8\n      shr\n      0xf8\n      shl\n        /* \"contracts/testECMulAdd.sol\":1775:1778  str */\n      dup3\n        /* \"contracts/testECMulAdd.sol\":1783:1784  2 */\n      0x02\n        /* \"contracts/testECMulAdd.sol\":1781:1782  i */\n      dup4\n        /* \"contracts/testECMulAdd.sol\":1781:1784  i*2 */\n      tag_76\n      swap2\n      swap1\n      tag_58\n      jump\t// in\n    tag_76:\n        /* \"contracts/testECMulAdd.sol\":1779:1780  2 */\n      0x02\n        /* \"contracts/testECMulAdd.sol\":1779:1784  2+i*2 */\n      tag_77\n      swap2\n      swap1\n      tag_60\n      jump\t// in\n    tag_77:\n        /* \"contracts/testECMulAdd.sol\":1775:1785  str[2+i*2] */\n      dup2\n      mload\n      dup2\n      lt\n      tag_78\n      jumpi\n      tag_79\n      tag_19\n      jump\t// in\n    tag_79:\n    tag_78:\n      0x20\n      add\n      add\n        /* \"contracts/testECMulAdd.sol\":1775:1826  str[2+i*2] = alphabet[uint256(uint8(data[i] >> 4))] */\n      swap1\n      not(0xffffffffffffffffffffffffffffffffffffffffffffffffffffffffffffff)\n      and\n      swap1\n      dup2\n      0x00\n      byte\n      swap1\n      mstore8\n      pop\n        /* \"contracts/testECMulAdd.sol\":1854:1862  alphabet */\n      dup3\n        /* \"contracts/testECMulAdd.sol\":1887:1891  0x0f */\n      0x0f\n        /* \"contracts/testECMulAdd.sol\":1877:1891  data[i] & 0x0f */\n      0xf8\n      shl\n        /* \"contracts/testECMulAdd.sol\":1877:1881  data */\n      dup7\n        /* \"contracts/testECMulAdd.sol\":1882:1883  i */\n      dup4\n        /* \"contracts/testECMulAdd.sol\":1877:1884  data[i] */\n      dup2\n      mload\n      dup2\n      lt\n      tag_80\n      jumpi\n      tag_81\n      tag_19\n      jump\t// in\n    tag_81:\n    tag_80:\n      0x20\n      add\n      add\n      mload\n      0xf8\n      shr\n      0xf8\n      shl\n        /* \"contracts/testECMulAdd.sol\":1877:1891  data[i] & 0x0f */\n      and\n        /* \"contracts/testECMulAdd.sol\":1871:1892  uint8(data[i] & 0x0f) */\n      0xf8\n      shr\n        /* \"contracts/testECMulAdd.sol\":1863:1893  uint256(uint8(data[i] & 0x0f)) */\n      0xff\n      and\n        /* \"contracts/testECMulAdd.sol\":1854:1894  alphabet[uint256(uint8(data[i] & 0x0f))] */\n      dup2\n      mload\n      dup2\n      lt\n      tag_82\n      jumpi\n      tag_83\n      tag_19\n      jump\t// in\n    tag_83:\n    tag_82:\n      0x20\n      add\n      add\n      mload\n      0xf8\n      shr\n      0xf8\n      shl\n        /* \"contracts/testECMulAdd.sol\":1841:1844  str */\n      dup3\n        /* \"contracts/testECMulAdd.sol\":1849:1850  2 */\n      0x02\n        /* \"contracts/testECMulAdd.sol\":1847:1848  i */\n      dup4\n        /* \"contracts/testECMulAdd.sol\":1847:1850  i*2 */\n      tag_84\n      swap2\n      swap1\n      tag_58\n      jump\t// in\n    tag_84:\n        /* \"contracts/testECMulAdd.sol\":1845:1846  3 */\n      0x03\n        /* \"contracts/testECMulAdd.sol\":1845:1850  3+i*2 */\n      tag_85\n      swap2\n      swap1\n      tag_60\n      jump\t// in\n    tag_85:\n        /* \"contracts/testECMulAdd.sol\":1841:1851  str[3+i*2] */\n      dup2\n      mload\n      dup2\n      lt\n      tag_86\n      jumpi\n      tag_87\n      tag_19\n      jump\t// in\n    tag_87:\n    tag_86:\n      0x20\n      add\n      add\n        /* \"contracts/testECMulAdd.sol\":1841:1894  str[3+i*2] = alphabet[uint256(uint8(data[i] & 0x0f))] */\n      swap1\n      not(0xffffffffffffffffffffffffffffffffffffffffffffffffffffffffffffff)\n      and\n      swap1\n      dup2\n      0x00\n      byte\n      swap1\n      mstore8\n      pop\n        /* \"contracts/testECMulAdd.sol\":1755:1758  i++ */\n      dup1\n      dup1\n      0x01\n      add\n      swap2\n      pop\n      pop\n        /* \"contracts/testECMulAdd.sol\":1718:1906  for (uint256 i = 0; i < data.length; i++) {... */\n      jump(tag_69)\n    tag_70:\n      pop\n        /* \"contracts/testECMulAdd.sol\":1930:1933  str */\n      dup1\n        /* \"contracts/testECMulAdd.sol\":1916:1934  return string(str) */\n      swap3\n      pop\n      pop\n      pop\n        /* \"contracts/testECMulAdd.sol\":1470:1942  function _toHexString(bytes memory data) private pure returns (string memory) {... */\n      swap2\n      swap1\n      pop\n      jump\t// out\n        /* \"#utility.yul\":7:82   */\n    tag_88:\n        /* \"#utility.yul\":40:46   */\n      0x00\n        /* \"#utility.yul\":73:75   */\n      0x40\n        /* \"#utility.yul\":67:76   */\n      mload\n        /* \"#utility.yul\":57:76   */\n      swap1\n      pop\n        /* \"#utility.yul\":7:82   */\n      swap1\n      jump\t// out\n        /* \"#utility.yul\":88:205   */\n    tag_89:\n        /* \"#utility.yul\":197:198   */\n      0x00\n        /* \"#utility.yul\":194:195   */\n      dup1\n        /* \"#utility.yul\":187:199   */\n      revert\n        /* \"#utility.yul\":334:451   */\n    tag_91:\n        /* \"#utility.yul\":443:444   */\n      0x00\n        /* \"#utility.yul\":440:441   */\n      dup1\n        /* \"#utility.yul\":433:445   */\n      revert\n        /* \"#utility.yul\":457:559   */\n    tag_92:\n        /* \"#utility.yul\":498:504   */\n      0x00\n        /* \"#utility.yul\":549:551   */\n      0x1f\n        /* \"#utility.yul\":545:552   */\n      not\n        /* \"#utility.yul\":540:542   */\n      0x1f\n        /* \"#utility.yul\":533:538   */\n      dup4\n        /* \"#utility.yul\":529:543   */\n      add\n        /* \"#utility.yul\":525:553   */\n      and\n        /* \"#utility.yul\":515:553   */\n      swap1\n      pop\n        /* \"#utility.yul\":457:559   */\n      swap2\n      swap1\n      pop\n      jump\t// out\n        /* \"#utility.yul\":565:745   */\n    tag_63:\n        /* \"#utility.yul\":613:690   */\n      0x4e487b7100000000000000000000000000000000000000000000000000000000\n        /* \"#utility.yul\":610:611   */\n      0x00\n        /* \"#utility.yul\":603:691   */\n      mstore\n        /* \"#utility.yul\":710:714   */\n      0x41\n        /* \"#utility.yul\":707:708   */\n      0x04\n        /* \"#utility.yul\":700:715   */\n      mstore\n        /* \"#utility.yul\":734:738   */\n      0x24\n        /* \"#utility.yul\":731:732   */\n      0x00\n        /* \"#utility.yul\":724:739   */\n      revert\n        /* \"#utility.yul\":751:1032   */\n    tag_93:\n        /* \"#utility.yul\":834:861   */\n      tag_125\n        /* \"#utility.yul\":856:860   */\n      dup3\n        /* \"#utility.yul\":834:861   */\n      tag_92\n      jump\t// in\n    tag_125:\n        /* \"#utility.yul\":826:832   */\n      dup2\n        /* \"#utility.yul\":822:862   */\n      add\n        /* \"#utility.yul\":964:970   */\n      dup2\n        /* \"#utility.yul\":952:962   */\n      dup2\n        /* \"#utility.yul\":949:971   */\n      lt\n        /* \"#utility.yul\":928:946   */\n      0xffffffffffffffff\n        /* \"#utility.yul\":916:926   */\n      dup3\n        /* \"#utility.yul\":913:947   */\n      gt\n        /* \"#utility.yul\":910:972   */\n      or\n        /* \"#utility.yul\":907:995   */\n      iszero\n      tag_126\n      jumpi\n        /* \"#utility.yul\":975:993   */\n      tag_127\n      tag_63\n      jump\t// in\n    tag_127:\n        /* \"#utility.yul\":907:995   */\n    tag_126:\n        /* \"#utility.yul\":1015:1025   */\n      dup1\n        /* \"#utility.yul\":1011:1013   */\n      0x40\n        /* \"#utility.yul\":1004:1026   */\n      mstore\n        /* \"#utility.yul\":794:1032   */\n      pop\n        /* \"#utility.yul\":751:1032   */\n      pop\n      pop\n      jump\t// out\n        /* \"#utility.yul\":1038:1167   */\n    tag_94:\n        /* \"#utility.yul\":1072:1078   */\n      0x00\n        /* \"#utility.yul\":1099:1119   */\n      tag_129\n      tag_88\n      jump\t// in\n    tag_129:\n        /* \"#utility.yul\":1089:1119   */\n      swap1\n      pop\n        /* \"#utility.yul\":1128:1161   */\n      tag_130\n        /* \"#utility.yul\":1156:1160   */\n      dup3\n        /* \"#utility.yul\":1148:1154   */\n      dup3\n        /* \"#utility.yul\":1128:1161   */\n      tag_93\n      jump\t// in\n    tag_130:\n        /* \"#utility.yul\":1038:1167   */\n      swap2\n      swap1\n      pop\n      jump\t// out\n        /* \"#utility.yul\":1173:1422   */\n    tag_95:\n        /* \"#utility.yul\":1248:1252   */\n      0x00\n        /* \"#utility.yul\":1338:1356   */\n      0xffffffffffffffff\n        /* \"#utility.yul\":1330:1336   */\n      dup3\n        /* \"#utility.yul\":1327:1357   */\n      gt\n        /* \"#utility.yul\":1324:1380   */\n      iszero\n      tag_132\n      jumpi\n        /* \"#utility.yul\":1360:1378   */\n      tag_133\n      tag_63\n      jump\t// in\n    tag_133:\n        /* \"#utility.yul\":1324:1380   */\n    tag_132:\n        /* \"#utility.yul\":1410:1414   */\n      0x20\n        /* \"#utility.yul\":1402:1408   */\n      dup3\n        /* \"#utility.yul\":1398:1415   */\n      mul\n        /* \"#utility.yul\":1390:1415   */\n      swap1\n      pop\n        /* \"#utility.yul\":1173:1422   */\n      swap2\n      swap1\n      pop\n      jump\t// out\n        /* \"#utility.yul\":1428:1545   */\n    tag_96:\n        /* \"#utility.yul\":1537:1538   */\n      0x00\n        /* \"#utility.yul\":1534:1535   */\n      dup1\n        /* \"#utility.yul\":1527:1539   */\n      revert\n        /* \"#utility.yul\":1551:1628   */\n    tag_97:\n        /* \"#utility.yul\":1588:1595   */\n      0x00\n        /* \"#utility.yul\":1617:1622   */\n      dup2\n        /* \"#utility.yul\":1606:1622   */\n      swap1\n      pop\n        /* \"#utility.yul\":1551:1628   */\n      swap2\n      swap1\n      pop\n      jump\t// out\n        /* \"#utility.yul\":1634:1756   */\n    tag_98:\n        /* \"#utility.yul\":1707:1731   */\n      tag_137\n        /* \"#utility.yul\":1725:1730   */\n      dup2\n        /* \"#utility.yul\":1707:1731   */\n      tag_97\n      jump\t// in\n    tag_137:\n        /* \"#utility.yul\":1700:1705   */\n      dup2\n        /* \"#utility.yul\":1697:1732   */\n      eq\n        /* \"#utility.yul\":1687:1750   */\n      tag_138\n      jumpi\n        /* \"#utility.yul\":1746:1747   */\n      0x00\n        /* \"#utility.yul\":1743:1744   */\n      dup1\n        /* \"#utility.yul\":1736:1748   */\n      revert\n        /* \"#utility.yul\":1687:1750   */\n    tag_138:\n        /* \"#utility.yul\":1634:1756   */\n      pop\n      jump\t// out\n        /* \"#utility.yul\":1762:1901   */\n    tag_99:\n        /* \"#utility.yul\":1808:1813   */\n      0x00\n        /* \"#utility.yul\":1846:1852   */\n      dup2\n        /* \"#utility.yul\":1833:1853   */\n      calldataload\n        /* \"#utility.yul\":1824:1853   */\n      swap1\n      pop\n        /* \"#utility.yul\":1862:1895   */\n      tag_140\n        /* \"#utility.yul\":1889:1894   */\n      dup2\n        /* \"#utility.yul\":1862:1895   */\n      tag_98\n      jump\t// in\n    tag_140:\n        /* \"#utility.yul\":1762:1901   */\n      swap3\n      swap2\n      pop\n      pop\n      jump\t// out\n        /* \"#utility.yul\":1925:2568   */\n    tag_100:\n        /* \"#utility.yul\":2019:2024   */\n      0x00\n        /* \"#utility.yul\":2044:2123   */\n      tag_142\n        /* \"#utility.yul\":2060:2122   */\n      tag_143\n        /* \"#utility.yul\":2115:2121   */\n      dup5\n        /* \"#utility.yul\":2060:2122   */\n      tag_95\n      jump\t// in\n    tag_143:\n        /* \"#utility.yul\":2044:2123   */\n      tag_94\n      jump\t// in\n    tag_142:\n        /* \"#utility.yul\":2035:2123   */\n      swap1\n      pop\n        /* \"#utility.yul\":2143:2148   */\n      dup1\n        /* \"#utility.yul\":2196:2200   */\n      0x20\n        /* \"#utility.yul\":2188:2194   */\n      dup5\n        /* \"#utility.yul\":2184:2201   */\n      mul\n        /* \"#utility.yul\":2176:2182   */\n      dup4\n        /* \"#utility.yul\":2172:2202   */\n      add\n        /* \"#utility.yul\":2225:2228   */\n      dup6\n        /* \"#utility.yul\":2217:2223   */\n      dup2\n        /* \"#utility.yul\":2214:2229   */\n      gt\n        /* \"#utility.yul\":2211:2333   */\n      iszero\n      tag_144\n      jumpi\n        /* \"#utility.yul\":2244:2323   */\n      tag_145\n      tag_96\n      jump\t// in\n    tag_145:\n        /* \"#utility.yul\":2211:2333   */\n    tag_144:\n        /* \"#utility.yul\":2359:2365   */\n      dup4\n        /* \"#utility.yul\":2342:2562   */\n    tag_146:\n        /* \"#utility.yul\":2376:2382   */\n      dup2\n        /* \"#utility.yul\":2371:2374   */\n      dup2\n        /* \"#utility.yul\":2368:2383   */\n      lt\n        /* \"#utility.yul\":2342:2562   */\n      iszero\n      tag_148\n      jumpi\n        /* \"#utility.yul\":2451:2454   */\n      dup1\n        /* \"#utility.yul\":2480:2517   */\n      tag_149\n        /* \"#utility.yul\":2513:2516   */\n      dup9\n        /* \"#utility.yul\":2501:2511   */\n      dup3\n        /* \"#utility.yul\":2480:2517   */\n      tag_99\n      jump\t// in\n    tag_149:\n        /* \"#utility.yul\":2475:2478   */\n      dup5\n        /* \"#utility.yul\":2468:2518   */\n      mstore\n        /* \"#utility.yul\":2547:2551   */\n      0x20\n        /* \"#utility.yul\":2542:2545   */\n      dup5\n        /* \"#utility.yul\":2538:2552   */\n      add\n        /* \"#utility.yul\":2531:2552   */\n      swap4\n      pop\n        /* \"#utility.yul\":2418:2562   */\n      pop\n        /* \"#utility.yul\":2402:2406   */\n      0x20\n        /* \"#utility.yul\":2397:2400   */\n      dup2\n        /* \"#utility.yul\":2393:2407   */\n      add\n        /* \"#utility.yul\":2386:2407   */\n      swap1\n      pop\n        /* \"#utility.yul\":2342:2562   */\n      jump(tag_146)\n    tag_148:\n        /* \"#utility.yul\":2346:2367   */\n      pop\n        /* \"#utility.yul\":2025:2568   */\n      pop\n      pop\n        /* \"#utility.yul\":1925:2568   */\n      swap4\n      swap3\n      pop\n      pop\n      pop\n      jump\t// out\n        /* \"#utility.yul\":2592:2931   */\n    tag_101:\n        /* \"#utility.yul\":2661:2666   */\n      0x00\n        /* \"#utility.yul\":2710:2713   */\n      dup3\n        /* \"#utility.yul\":2703:2707   */\n      0x1f\n        /* \"#utility.yul\":2695:2701   */\n      dup4\n        /* \"#utility.yul\":2691:2708   */\n      add\n        /* \"#utility.yul\":2687:2714   */\n      slt\n        /* \"#utility.yul\":2677:2799   */\n      tag_151\n      jumpi\n        /* \"#utility.yul\":2718:2797   */\n      tag_152\n      tag_91\n      jump\t// in\n    tag_152:\n        /* \"#utility.yul\":2677:2799   */\n    tag_151:\n        /* \"#utility.yul\":2822:2826   */\n      0x02\n        /* \"#utility.yul\":2844:2925   */\n      tag_153\n        /* \"#utility.yul\":2921:2924   */\n      dup5\n        /* \"#utility.yul\":2913:2919   */\n      dup3\n        /* \"#utility.yul\":2905:2911   */\n      dup6\n        /* \"#utility.yul\":2844:2925   */\n      tag_100\n      jump\t// in\n    tag_153:\n        /* \"#utility.yul\":2835:2925   */\n      swap2\n      pop\n        /* \"#utility.yul\":2667:2931   */\n      pop\n        /* \"#utility.yul\":2592:2931   */\n      swap3\n      swap2\n      pop\n      pop\n      jump\t// out\n        /* \"#utility.yul\":2937:3504   */\n    tag_7:\n        /* \"#utility.yul\":3051:3057   */\n      0x00\n        /* \"#utility.yul\":3059:3065   */\n      dup1\n        /* \"#utility.yul\":3108:3111   */\n      0x80\n        /* \"#utility.yul\":3096:3105   */\n      dup4\n        /* \"#utility.yul\":3087:3094   */\n      dup6\n        /* \"#utility.yul\":3083:3106   */\n      sub\n        /* \"#utility.yul\":3079:3112   */\n      slt\n        /* \"#utility.yul\":3076:3196   */\n      iszero\n      tag_155\n      jumpi\n        /* \"#utility.yul\":3115:3194   */\n      tag_156\n      tag_89\n      jump\t// in\n    tag_156:\n        /* \"#utility.yul\":3076:3196   */\n    tag_155:\n        /* \"#utility.yul\":3235:3236   */\n      0x00\n        /* \"#utility.yul\":3260:3336   */\n      tag_157\n        /* \"#utility.yul\":3328:3335   */\n      dup6\n        /* \"#utility.yul\":3319:3325   */\n      dup3\n        /* \"#utility.yul\":3308:3317   */\n      dup7\n        /* \"#utility.yul\":3304:3326   */\n      add\n        /* \"#utility.yul\":3260:3336   */\n      tag_101\n      jump\t// in\n    tag_157:\n        /* \"#utility.yul\":3250:3336   */\n      swap3\n      pop\n        /* \"#utility.yul\":3206:3346   */\n      pop\n        /* \"#utility.yul\":3385:3387   */\n      0x40\n        /* \"#utility.yul\":3411:3487   */\n      tag_158\n        /* \"#utility.yul\":3479:3486   */\n      dup6\n        /* \"#utility.yul\":3470:3476   */\n      dup3\n        /* \"#utility.yul\":3459:3468   */\n      dup7\n        /* \"#utility.yul\":3455:3477   */\n      add\n        /* \"#utility.yul\":3411:3487   */\n      tag_101\n      jump\t// in\n    tag_158:\n        /* \"#utility.yul\":3401:3487   */\n      swap2\n      pop\n        /* \"#utility.yul\":3356:3497   */\n      pop\n        /* \"#utility.yul\":2937:3504   */\n      swap3\n      pop\n      swap3\n      swap1\n      pop\n      jump\t// out\n        /* \"#utility.yul\":3510:3609   */\n    tag_102:\n        /* \"#utility.yul\":3562:3568   */\n      0x00\n        /* \"#utility.yul\":3596:3601   */\n      dup2\n        /* \"#utility.yul\":3590:3602   */\n      mload\n        /* \"#utility.yul\":3580:3602   */\n      swap1\n      pop\n        /* \"#utility.yul\":3510:3609   */\n      swap2\n      swap1\n      pop\n      jump\t// out\n        /* \"#utility.yul\":3615:3784   */\n    tag_103:\n        /* \"#utility.yul\":3699:3710   */\n      0x00\n        /* \"#utility.yul\":3733:3739   */\n      dup3\n        /* \"#utility.yul\":3728:3731   */\n      dup3\n        /* \"#utility.yul\":3721:3740   */\n      mstore\n        /* \"#utility.yul\":3773:3777   */\n      0x20\n        /* \"#utility.yul\":3768:3771   */\n      dup3\n        /* \"#utility.yul\":3764:3778   */\n      add\n        /* \"#utility.yul\":3749:3778   */\n      swap1\n      pop\n        /* \"#utility.yul\":3615:3784   */\n      swap3\n      swap2\n      pop\n      pop\n      jump\t// out\n        /* \"#utility.yul\":3790:4036   */\n    tag_104:\n        /* \"#utility.yul\":3871:3872   */\n      0x00\n        /* \"#utility.yul\":3881:3994   */\n    tag_162:\n        /* \"#utility.yul\":3895:3901   */\n      dup4\n        /* \"#utility.yul\":3892:3893   */\n      dup2\n        /* \"#utility.yul\":3889:3902   */\n      lt\n        /* \"#utility.yul\":3881:3994   */\n      iszero\n      tag_164\n      jumpi\n        /* \"#utility.yul\":3980:3981   */\n      dup1\n        /* \"#utility.yul\":3975:3978   */\n      dup3\n        /* \"#utility.yul\":3971:3982   */\n      add\n        /* \"#utility.yul\":3965:3983   */\n      mload\n        /* \"#utility.yul\":3961:3962   */\n      dup2\n        /* \"#utility.yul\":3956:3959   */\n      dup5\n        /* \"#utility.yul\":3952:3963   */\n      add\n        /* \"#utility.yul\":3945:3984   */\n      mstore\n        /* \"#utility.yul\":3917:3919   */\n      0x20\n        /* \"#utility.yul\":3914:3915   */\n      dup2\n        /* \"#utility.yul\":3910:3920   */\n      add\n        /* \"#utility.yul\":3905:3920   */\n      swap1\n      pop\n        /* \"#utility.yul\":3881:3994   */\n      jump(tag_162)\n    tag_164:\n        /* \"#utility.yul\":4028:4029   */\n      0x00\n        /* \"#utility.yul\":4019:4025   */\n      dup5\n        /* \"#utility.yul\":4014:4017   */\n      dup5\n        /* \"#utility.yul\":4010:4026   */\n      add\n        /* \"#utility.yul\":4003:4030   */\n      mstore\n        /* \"#utility.yul\":3852:4036   */\n      pop\n        /* \"#utility.yul\":3790:4036   */\n      pop\n      pop\n      pop\n      jump\t// out\n        /* \"#utility.yul\":4042:4419   */\n    tag_105:\n        /* \"#utility.yul\":4130:4133   */\n      0x00\n        /* \"#utility.yul\":4158:4197   */\n      tag_166\n        /* \"#utility.yul\":4191:4196   */\n      dup3\n        /* \"#utility.yul\":4158:4197   */\n      tag_102\n      jump\t// in\n    tag_166:\n        /* \"#utility.yul\":4213:4284   */\n      tag_167\n        /* \"#utility.yul\":4277:4283   */\n      dup2\n        /* \"#utility.yul\":4272:4275   */\n      dup6\n        /* \"#utility.yul\":4213:4284   */\n      tag_103\n      jump\t// in\n    tag_167:\n        /* \"#utility.yul\":4206:4284   */\n      swap4\n      pop\n        /* \"#utility.yul\":4293:4358   */\n      tag_168\n        /* \"#utility.yul\":4351:4357   */\n      dup2\n        /* \"#utility.yul\":4346:4349   */\n      dup6\n        /* \"#utility.yul\":4339:4343   */\n      0x20\n        /* \"#utility.yul\":4332:4337   */\n      dup7\n        /* \"#utility.yul\":4328:4344   */\n      add\n        /* \"#utility.yul\":4293:4358   */\n      tag_104\n      jump\t// in\n    tag_168:\n        /* \"#utility.yul\":4383:4412   */\n      tag_169\n        /* \"#utility.yul\":4405:4411   */\n      dup2\n        /* \"#utility.yul\":4383:4412   */\n      tag_92\n      jump\t// in\n    tag_169:\n        /* \"#utility.yul\":4378:4381   */\n      dup5\n        /* \"#utility.yul\":4374:4413   */\n      add\n        /* \"#utility.yul\":4367:4413   */\n      swap2\n      pop\n        /* \"#utility.yul\":4134:4419   */\n      pop\n        /* \"#utility.yul\":4042:4419   */\n      swap3\n      swap2\n      pop\n      pop\n      jump\t// out\n        /* \"#utility.yul\":4425:4543   */\n    tag_106:\n        /* \"#utility.yul\":4512:4536   */\n      tag_171\n        /* \"#utility.yul\":4530:4535   */\n      dup2\n        /* \"#utility.yul\":4512:4536   */\n      tag_97\n      jump\t// in\n    tag_171:\n        /* \"#utility.yul\":4507:4510   */\n      dup3\n        /* \"#utility.yul\":4500:4537   */\n      mstore\n        /* \"#utility.yul\":4425:4543   */\n      pop\n      pop\n      jump\t// out\n        /* \"#utility.yul\":4549:4972   */\n    tag_10:\n        /* \"#utility.yul\":4690:4694   */\n      0x00\n        /* \"#utility.yul\":4728:4730   */\n      0x40\n        /* \"#utility.yul\":4717:4726   */\n      dup3\n        /* \"#utility.yul\":4713:4731   */\n      add\n        /* \"#utility.yul\":4705:4731   */\n      swap1\n      pop\n        /* \"#utility.yul\":4777:4786   */\n      dup2\n        /* \"#utility.yul\":4771:4775   */\n      dup2\n        /* \"#utility.yul\":4767:4787   */\n      sub\n        /* \"#utility.yul\":4763:4764   */\n      0x00\n        /* \"#utility.yul\":4752:4761   */\n      dup4\n        /* \"#utility.yul\":4748:4765   */\n      add\n        /* \"#utility.yul\":4741:4788   */\n      mstore\n        /* \"#utility.yul\":4805:4883   */\n      tag_173\n        /* \"#utility.yul\":4878:4882   */\n      dup2\n        /* \"#utility.yul\":4869:4875   */\n      dup6\n        /* \"#utility.yul\":4805:4883   */\n      tag_105\n      jump\t// in\n    tag_173:\n        /* \"#utility.yul\":4797:4883   */\n      swap1\n      pop\n        /* \"#utility.yul\":4893:4965   */\n      tag_174\n        /* \"#utility.yul\":4961:4963   */\n      0x20\n        /* \"#utility.yul\":4950:4959   */\n      dup4\n        /* \"#utility.yul\":4946:4964   */\n      add\n        /* \"#utility.yul\":4937:4943   */\n      dup5\n        /* \"#utility.yul\":4893:4965   */\n      tag_106\n      jump\t// in\n    tag_174:\n        /* \"#utility.yul\":4549:4972   */\n      swap4\n      swap3\n      pop\n      pop\n      pop\n      jump\t// out\n        /* \"#utility.yul\":4978:5498   */\n    tag_13:\n        /* \"#utility.yul\":5069:5075   */\n      0x00\n        /* \"#utility.yul\":5077:5083   */\n      dup1\n        /* \"#utility.yul\":5126:5128   */\n      0x60\n        /* \"#utility.yul\":5114:5123   */\n      dup4\n        /* \"#utility.yul\":5105:5112   */\n      dup6\n        /* \"#utility.yul\":5101:5124   */\n      sub\n        /* \"#utility.yul\":5097:5129   */\n      slt\n        /* \"#utility.yul\":5094:5213   */\n      iszero\n      tag_176\n      jumpi\n        /* \"#utility.yul\":5132:5211   */\n      tag_177\n      tag_89\n      jump\t// in\n    tag_177:\n        /* \"#utility.yul\":5094:5213   */\n    tag_176:\n        /* \"#utility.yul\":5252:5253   */\n      0x00\n        /* \"#utility.yul\":5277:5353   */\n      tag_178\n        /* \"#utility.yul\":5345:5352   */\n      dup6\n        /* \"#utility.yul\":5336:5342   */\n      dup3\n        /* \"#utility.yul\":5325:5334   */\n      dup7\n        /* \"#utility.yul\":5321:5343   */\n      add\n        /* \"#utility.yul\":5277:5353   */\n      tag_101\n      jump\t// in\n    tag_178:\n        /* \"#utility.yul\":5267:5353   */\n      swap3\n      pop\n        /* \"#utility.yul\":5223:5363   */\n      pop\n        /* \"#utility.yul\":5402:5404   */\n      0x40\n        /* \"#utility.yul\":5428:5481   */\n      tag_179\n        /* \"#utility.yul\":5473:5480   */\n      dup6\n        /* \"#utility.yul\":5464:5470   */\n      dup3\n        /* \"#utility.yul\":5453:5462   */\n      dup7\n        /* \"#utility.yul\":5449:5471   */\n      add\n        /* \"#utility.yul\":5428:5481   */\n      tag_99\n      jump\t// in\n    tag_179:\n        /* \"#utility.yul\":5418:5481   */\n      swap2\n      pop\n        /* \"#utility.yul\":5373:5491   */\n      pop\n        /* \"#utility.yul\":4978:5498   */\n      swap3\n      pop\n      swap3\n      swap1\n      pop\n      jump\t// out\n        /* \"#utility.yul\":5504:5684   */\n    tag_19:\n        /* \"#utility.yul\":5552:5629   */\n      0x4e487b7100000000000000000000000000000000000000000000000000000000\n        /* \"#utility.yul\":5549:5550   */\n      0x00\n        /* \"#utility.yul\":5542:5630   */\n      mstore\n        /* \"#utility.yul\":5649:5653   */\n      0x32\n        /* \"#utility.yul\":5646:5647   */\n      0x04\n        /* \"#utility.yul\":5639:5654   */\n      mstore\n        /* \"#utility.yul\":5673:5677   */\n      0x24\n        /* \"#utility.yul\":5670:5671   */\n      0x00\n        /* \"#utility.yul\":5663:5678   */\n      revert\n        /* \"#utility.yul\":5690:5769   */\n    tag_107:\n        /* \"#utility.yul\":5729:5736   */\n      0x00\n        /* \"#utility.yul\":5758:5763   */\n      dup2\n        /* \"#utility.yul\":5747:5763   */\n      swap1\n      pop\n        /* \"#utility.yul\":5690:5769   */\n      swap2\n      swap1\n      pop\n      jump\t// out\n        /* \"#utility.yul\":5775:5932   */\n    tag_108:\n        /* \"#utility.yul\":5880:5925   */\n      tag_183\n        /* \"#utility.yul\":5900:5924   */\n      tag_184\n        /* \"#utility.yul\":5918:5923   */\n      dup3\n        /* \"#utility.yul\":5900:5924   */\n      tag_97\n      jump\t// in\n    tag_184:\n        /* \"#utility.yul\":5880:5925   */\n      tag_107\n      jump\t// in\n    tag_183:\n        /* \"#utility.yul\":5875:5878   */\n      dup3\n        /* \"#utility.yul\":5868:5926   */\n      mstore\n        /* \"#utility.yul\":5775:5932   */\n      pop\n      pop\n      jump\t// out\n        /* \"#utility.yul\":5938:6617   */\n    tag_27:\n        /* \"#utility.yul\":6134:6137   */\n      0x00\n        /* \"#utility.yul\":6149:6224   */\n      tag_186\n        /* \"#utility.yul\":6220:6223   */\n      dup3\n        /* \"#utility.yul\":6211:6217   */\n      dup8\n        /* \"#utility.yul\":6149:6224   */\n      tag_108\n      jump\t// in\n    tag_186:\n        /* \"#utility.yul\":6249:6251   */\n      0x20\n        /* \"#utility.yul\":6244:6247   */\n      dup3\n        /* \"#utility.yul\":6240:6252   */\n      add\n        /* \"#utility.yul\":6233:6252   */\n      swap2\n      pop\n        /* \"#utility.yul\":6262:6337   */\n      tag_187\n        /* \"#utility.yul\":6333:6336   */\n      dup3\n        /* \"#utility.yul\":6324:6330   */\n      dup7\n        /* \"#utility.yul\":6262:6337   */\n      tag_108\n      jump\t// in\n    tag_187:\n        /* \"#utility.yul\":6362:6364   */\n      0x20\n        /* \"#utility.yul\":6357:6360   */\n      dup3\n        /* \"#utility.yul\":6353:6365   */\n      add\n        /* \"#utility.yul\":6346:6365   */\n      swap2\n      pop\n        /* \"#utility.yul\":6375:6450   */\n      tag_188\n        /* \"#utility.yul\":6446:6449   */\n      dup3\n        /* \"#utility.yul\":6437:6443   */\n      dup6\n        /* \"#utility.yul\":6375:6450   */\n      tag_108\n      jump\t// in\n    tag_188:\n        /* \"#utility.yul\":6475:6477   */\n      0x20\n        /* \"#utility.yul\":6470:6473   */\n      dup3\n        /* \"#utility.yul\":6466:6478   */\n      add\n        /* \"#utility.yul\":6459:6478   */\n      swap2\n      pop\n        /* \"#utility.yul\":6488:6563   */\n      tag_189\n        /* \"#utility.yul\":6559:6562   */\n      dup3\n        /* \"#utility.yul\":6550:6556   */\n      dup5\n        /* \"#utility.yul\":6488:6563   */\n      tag_108\n      jump\t// in\n    tag_189:\n        /* \"#utility.yul\":6588:6590   */\n      0x20\n        /* \"#utility.yul\":6583:6586   */\n      dup3\n        /* \"#utility.yul\":6579:6591   */\n      add\n        /* \"#utility.yul\":6572:6591   */\n      swap2\n      pop\n        /* \"#utility.yul\":6608:6611   */\n      dup2\n        /* \"#utility.yul\":6601:6611   */\n      swap1\n      pop\n        /* \"#utility.yul\":5938:6617   */\n      swap6\n      swap5\n      pop\n      pop\n      pop\n      pop\n      pop\n      jump\t// out\n        /* \"#utility.yul\":6623:6721   */\n    tag_109:\n        /* \"#utility.yul\":6674:6680   */\n      0x00\n        /* \"#utility.yul\":6708:6713   */\n      dup2\n        /* \"#utility.yul\":6702:6714   */\n      mload\n        /* \"#utility.yul\":6692:6714   */\n      swap1\n      pop\n        /* \"#utility.yul\":6623:6721   */\n      swap2\n      swap1\n      pop\n      jump\t// out\n        /* \"#utility.yul\":6727:6874   */\n    tag_110:\n        /* \"#utility.yul\":6828:6839   */\n      0x00\n        /* \"#utility.yul\":6865:6868   */\n      dup2\n        /* \"#utility.yul\":6850:6868   */\n      swap1\n      pop\n        /* \"#utility.yul\":6727:6874   */\n      swap3\n      swap2\n      pop\n      pop\n      jump\t// out\n        /* \"#utility.yul\":6880:7266   */\n    tag_111:\n        /* \"#utility.yul\":6984:6987   */\n      0x00\n        /* \"#utility.yul\":7012:7050   */\n      tag_193\n        /* \"#utility.yul\":7044:7049   */\n      dup3\n        /* \"#utility.yul\":7012:7050   */\n      tag_109\n      jump\t// in\n    tag_193:\n        /* \"#utility.yul\":7066:7154   */\n      tag_194\n        /* \"#utility.yul\":7147:7153   */\n      dup2\n        /* \"#utility.yul\":7142:7145   */\n      dup6\n        /* \"#utility.yul\":7066:7154   */\n      tag_110\n      jump\t// in\n    tag_194:\n        /* \"#utility.yul\":7059:7154   */\n      swap4\n      pop\n        /* \"#utility.yul\":7163:7228   */\n      tag_195\n        /* \"#utility.yul\":7221:7227   */\n      dup2\n        /* \"#utility.yul\":7216:7219   */\n      dup6\n        /* \"#utility.yul\":7209:7213   */\n      0x20\n        /* \"#utility.yul\":7202:7207   */\n      dup7\n        /* \"#utility.yul\":7198:7214   */\n      add\n        /* \"#utility.yul\":7163:7228   */\n      tag_104\n      jump\t// in\n    tag_195:\n        /* \"#utility.yul\":7253:7259   */\n      dup1\n        /* \"#utility.yul\":7248:7251   */\n      dup5\n        /* \"#utility.yul\":7244:7260   */\n      add\n        /* \"#utility.yul\":7237:7260   */\n      swap2\n      pop\n        /* \"#utility.yul\":6988:7266   */\n      pop\n        /* \"#utility.yul\":6880:7266   */\n      swap3\n      swap2\n      pop\n      pop\n      jump\t// out\n        /* \"#utility.yul\":7272:7543   */\n    tag_29:\n        /* \"#utility.yul\":7402:7405   */\n      0x00\n        /* \"#utility.yul\":7424:7517   */\n      tag_197\n        /* \"#utility.yul\":7513:7516   */\n      dup3\n        /* \"#utility.yul\":7504:7510   */\n      dup5\n        /* \"#utility.yul\":7424:7517   */\n      tag_111\n      jump\t// in\n    tag_197:\n        /* \"#utility.yul\":7417:7517   */\n      swap2\n      pop\n        /* \"#utility.yul\":7534:7537   */\n      dup2\n        /* \"#utility.yul\":7527:7537   */\n      swap1\n      pop\n        /* \"#utility.yul\":7272:7543   */\n      swap3\n      swap2\n      pop\n      pop\n      jump\t// out\n        /* \"#utility.yul\":7549:7720   */\n    tag_112:\n        /* \"#utility.yul\":7689:7712   */\n      0x506f696e74206164646974696f6e206661696c65640000000000000000000000\n        /* \"#utility.yul\":7685:7686   */\n      0x00\n        /* \"#utility.yul\":7677:7683   */\n      dup3\n        /* \"#utility.yul\":7673:7687   */\n      add\n        /* \"#utility.yul\":7666:7713   */\n      mstore\n        /* \"#utility.yul\":7549:7720   */\n      pop\n      jump\t// out\n        /* \"#utility.yul\":7726:8092   */\n    tag_113:\n        /* \"#utility.yul\":7868:7871   */\n      0x00\n        /* \"#utility.yul\":7889:7956   */\n      tag_200\n        /* \"#utility.yul\":7953:7955   */\n      0x15\n        /* \"#utility.yul\":7948:7951   */\n      dup4\n        /* \"#utility.yul\":7889:7956   */\n      tag_103\n      jump\t// in\n    tag_200:\n        /* \"#utility.yul\":7882:7956   */\n      swap2\n      pop\n        /* \"#utility.yul\":7965:8058   */\n      tag_201\n        /* \"#utility.yul\":8054:8057   */\n      dup3\n        /* \"#utility.yul\":7965:8058   */\n      tag_112\n      jump\t// in\n    tag_201:\n        /* \"#utility.yul\":8083:8085   */\n      0x20\n        /* \"#utility.yul\":8078:8081   */\n      dup3\n        /* \"#utility.yul\":8074:8086   */\n      add\n        /* \"#utility.yul\":8067:8086   */\n      swap1\n      pop\n        /* \"#utility.yul\":7726:8092   */\n      swap2\n      swap1\n      pop\n      jump\t// out\n        /* \"#utility.yul\":8098:8517   */\n    tag_35:\n        /* \"#utility.yul\":8264:8268   */\n      0x00\n        /* \"#utility.yul\":8302:8304   */\n      0x20\n        /* \"#utility.yul\":8291:8300   */\n      dup3\n        /* \"#utility.yul\":8287:8305   */\n      add\n        /* \"#utility.yul\":8279:8305   */\n      swap1\n      pop\n        /* \"#utility.yul\":8351:8360   */\n      dup2\n        /* \"#utility.yul\":8345:8349   */\n      dup2\n        /* \"#utility.yul\":8341:8361   */\n      sub\n        /* \"#utility.yul\":8337:8338   */\n      0x00\n        /* \"#utility.yul\":8326:8335   */\n      dup4\n        /* \"#utility.yul\":8322:8339   */\n      add\n        /* \"#utility.yul\":8315:8362   */\n      mstore\n        /* \"#utility.yul\":8379:8510   */\n      tag_203\n        /* \"#utility.yul\":8505:8509   */\n      dup2\n        /* \"#utility.yul\":8379:8510   */\n      tag_113\n      jump\t// in\n    tag_203:\n        /* \"#utility.yul\":8371:8510   */\n      swap1\n      pop\n        /* \"#utility.yul\":8098:8517   */\n      swap2\n      swap1\n      pop\n      jump\t// out\n        /* \"#utility.yul\":8523:8703   */\n    tag_114:\n        /* \"#utility.yul\":8571:8648   */\n      0x4e487b7100000000000000000000000000000000000000000000000000000000\n        /* \"#utility.yul\":8568:8569   */\n      0x00\n        /* \"#utility.yul\":8561:8649   */\n      mstore\n        /* \"#utility.yul\":8668:8672   */\n      0x11\n        /* \"#utility.yul\":8665:8666   */\n      0x04\n        /* \"#utility.yul\":8658:8673   */\n      mstore\n        /* \"#utility.yul\":8692:8696   */\n      0x24\n        /* \"#utility.yul\":8689:8690   */\n      0x00\n        /* \"#utility.yul\":8682:8697   */\n      revert\n        /* \"#utility.yul\":8709:8903   */\n    tag_39:\n        /* \"#utility.yul\":8749:8753   */\n      0x00\n        /* \"#utility.yul\":8769:8789   */\n      tag_206\n        /* \"#utility.yul\":8787:8788   */\n      dup3\n        /* \"#utility.yul\":8769:8789   */\n      tag_97\n      jump\t// in\n    tag_206:\n        /* \"#utility.yul\":8764:8789   */\n      swap2\n      pop\n        /* \"#utility.yul\":8803:8823   */\n      tag_207\n        /* \"#utility.yul\":8821:8822   */\n      dup4\n        /* \"#utility.yul\":8803:8823   */\n      tag_97\n      jump\t// in\n    tag_207:\n        /* \"#utility.yul\":8798:8823   */\n      swap3\n      pop\n        /* \"#utility.yul\":8847:8848   */\n      dup3\n        /* \"#utility.yul\":8844:8845   */\n      dup3\n        /* \"#utility.yul\":8840:8849   */\n      sub\n        /* \"#utility.yul\":8832:8849   */\n      swap1\n      pop\n        /* \"#utility.yul\":8871:8872   */\n      dup2\n        /* \"#utility.yul\":8865:8869   */\n      dup2\n        /* \"#utility.yul\":8862:8873   */\n      gt\n        /* \"#utility.yul\":8859:8896   */\n      iszero\n      tag_208\n      jumpi\n        /* \"#utility.yul\":8876:8894   */\n      tag_209\n      tag_114\n      jump\t// in\n    tag_209:\n        /* \"#utility.yul\":8859:8896   */\n    tag_208:\n        /* \"#utility.yul\":8709:8903   */\n      swap3\n      swap2\n      pop\n      pop\n      jump\t// out\n        /* \"#utility.yul\":8909:9447   */\n    tag_46:\n        /* \"#utility.yul\":9077:9080   */\n      0x00\n        /* \"#utility.yul\":9092:9167   */\n      tag_211\n        /* \"#utility.yul\":9163:9166   */\n      dup3\n        /* \"#utility.yul\":9154:9160   */\n      dup7\n        /* \"#utility.yul\":9092:9167   */\n      tag_108\n      jump\t// in\n    tag_211:\n        /* \"#utility.yul\":9192:9194   */\n      0x20\n        /* \"#utility.yul\":9187:9190   */\n      dup3\n        /* \"#utility.yul\":9183:9195   */\n      add\n        /* \"#utility.yul\":9176:9195   */\n      swap2\n      pop\n        /* \"#utility.yul\":9205:9280   */\n      tag_212\n        /* \"#utility.yul\":9276:9279   */\n      dup3\n        /* \"#utility.yul\":9267:9273   */\n      dup6\n        /* \"#utility.yul\":9205:9280   */\n      tag_108\n      jump\t// in\n    tag_212:\n        /* \"#utility.yul\":9305:9307   */\n      0x20\n        /* \"#utility.yul\":9300:9303   */\n      dup3\n        /* \"#utility.yul\":9296:9308   */\n      add\n        /* \"#utility.yul\":9289:9308   */\n      swap2\n      pop\n        /* \"#utility.yul\":9318:9393   */\n      tag_213\n        /* \"#utility.yul\":9389:9392   */\n      dup3\n        /* \"#utility.yul\":9380:9386   */\n      dup5\n        /* \"#utility.yul\":9318:9393   */\n      tag_108\n      jump\t// in\n    tag_213:\n        /* \"#utility.yul\":9418:9420   */\n      0x20\n        /* \"#utility.yul\":9413:9416   */\n      dup3\n        /* \"#utility.yul\":9409:9421   */\n      add\n        /* \"#utility.yul\":9402:9421   */\n      swap2\n      pop\n        /* \"#utility.yul\":9438:9441   */\n      dup2\n        /* \"#utility.yul\":9431:9441   */\n      swap1\n      pop\n        /* \"#utility.yul\":8909:9447   */\n      swap5\n      swap4\n      pop\n      pop\n      pop\n      pop\n      jump\t// out\n        /* \"#utility.yul\":9453:9631   */\n    tag_115:\n        /* \"#utility.yul\":9593:9623   */\n      0x5363616c6172206d756c7469706c69636174696f6e206661696c656400000000\n        /* \"#utility.yul\":9589:9590   */\n      0x00\n        /* \"#utility.yul\":9581:9587   */\n      dup3\n        /* \"#utility.yul\":9577:9591   */\n      add\n        /* \"#utility.yul\":9570:9624   */\n      mstore\n        /* \"#utility.yul\":9453:9631   */\n      pop\n      jump\t// out\n        /* \"#utility.yul\":9637:10003   */\n    tag_116:\n        /* \"#utility.yul\":9779:9782   */\n      0x00\n        /* \"#utility.yul\":9800:9867   */\n      tag_216\n        /* \"#utility.yul\":9864:9866   */\n      0x1c\n        /* \"#utility.yul\":9859:9862   */\n      dup4\n        /* \"#utility.yul\":9800:9867   */\n      tag_103\n      jump\t// in\n    tag_216:\n        /* \"#utility.yul\":9793:9867   */\n      swap2\n      pop\n        /* \"#utility.yul\":9876:9969   */\n      tag_217\n        /* \"#utility.yul\":9965:9968   */\n      dup3\n        /* \"#utility.yul\":9876:9969   */\n      tag_115\n      jump\t// in\n    tag_217:\n        /* \"#utility.yul\":9994:9996   */\n      0x20\n        /* \"#utility.yul\":9989:9992   */\n      dup3\n        /* \"#utility.yul\":9985:9997   */\n      add\n        /* \"#utility.yul\":9978:9997   */\n      swap1\n      pop\n        /* \"#utility.yul\":9637:10003   */\n      swap2\n      swap1\n      pop\n      jump\t// out\n        /* \"#utility.yul\":10009:10428   */\n    tag_53:\n        /* \"#utility.yul\":10175:10179   */\n      0x00\n        /* \"#utility.yul\":10213:10215   */\n      0x20\n        /* \"#utility.yul\":10202:10211   */\n      dup3\n        /* \"#utility.yul\":10198:10216   */\n      add\n        /* \"#utility.yul\":10190:10216   */\n      swap1\n      pop\n        /* \"#utility.yul\":10262:10271   */\n      dup2\n        /* \"#utility.yul\":10256:10260   */\n      dup2\n        /* \"#utility.yul\":10252:10272   */\n      sub\n        /* \"#utility.yul\":10248:10249   */\n      0x00\n        /* \"#utility.yul\":10237:10246   */\n      dup4\n        /* \"#utility.yul\":10233:10250   */\n      add\n        /* \"#utility.yul\":10226:10273   */\n      mstore\n        /* \"#utility.yul\":10290:10421   */\n      tag_219\n        /* \"#utility.yul\":10416:10420   */\n      dup2\n        /* \"#utility.yul\":10290:10421   */\n      tag_116\n      jump\t// in\n    tag_219:\n        /* \"#utility.yul\":10282:10421   */\n      swap1\n      pop\n        /* \"#utility.yul\":10009:10428   */\n      swap2\n      swap1\n      pop\n      jump\t// out\n        /* \"#utility.yul\":10434:10844   */\n    tag_58:\n        /* \"#utility.yul\":10474:10481   */\n      0x00\n        /* \"#utility.yul\":10497:10517   */\n      tag_221\n        /* \"#utility.yul\":10515:10516   */\n      dup3\n        /* \"#utility.yul\":10497:10517   */\n      tag_97\n      jump\t// in\n    tag_221:\n        /* \"#utility.yul\":10492:10517   */\n      swap2\n      pop\n        /* \"#utility.yul\":10531:10551   */\n      tag_222\n        /* \"#utility.yul\":10549:10550   */\n      dup4\n        /* \"#utility.yul\":10531:10551   */\n      tag_97\n      jump\t// in\n    tag_222:\n        /* \"#utility.yul\":10526:10551   */\n      swap3\n      pop\n        /* \"#utility.yul\":10586:10587   */\n      dup3\n        /* \"#utility.yul\":10583:10584   */\n      dup3\n        /* \"#utility.yul\":10579:10588   */\n      mul\n        /* \"#utility.yul\":10608:10638   */\n      tag_223\n        /* \"#utility.yul\":10626:10637   */\n      dup2\n        /* \"#utility.yul\":10608:10638   */\n      tag_97\n      jump\t// in\n    tag_223:\n        /* \"#utility.yul\":10597:10638   */\n      swap2\n      pop\n        /* \"#utility.yul\":10787:10788   */\n      dup3\n        /* \"#utility.yul\":10778:10785   */\n      dup3\n        /* \"#utility.yul\":10774:10789   */\n      div\n        /* \"#utility.yul\":10771:10772   */\n      dup5\n        /* \"#utility.yul\":10768:10790   */\n      eq\n        /* \"#utility.yul\":10748:10749   */\n      dup4\n        /* \"#utility.yul\":10741:10750   */\n      iszero\n        /* \"#utility.yul\":10721:10804   */\n      or\n        /* \"#utility.yul\":10698:10837   */\n      tag_224\n      jumpi\n        /* \"#utility.yul\":10817:10835   */\n      tag_225\n      tag_114\n      jump\t// in\n    tag_225:\n        /* \"#utility.yul\":10698:10837   */\n    tag_224:\n        /* \"#utility.yul\":10482:10844   */\n      pop\n        /* \"#utility.yul\":10434:10844   */\n      swap3\n      swap2\n      pop\n      pop\n      jump\t// out\n        /* \"#utility.yul\":10850:11041   */\n    tag_60:\n        /* \"#utility.yul\":10890:10893   */\n      0x00\n        /* \"#utility.yul\":10909:10929   */\n      tag_227\n        /* \"#utility.yul\":10927:10928   */\n      dup3\n        /* \"#utility.yul\":10909:10929   */\n      tag_97\n      jump\t// in\n    tag_227:\n        /* \"#utility.yul\":10904:10929   */\n      swap2\n      pop\n        /* \"#utility.yul\":10943:10963   */\n      tag_228\n        /* \"#utility.yul\":10961:10962   */\n      dup4\n        /* \"#utility.yul\":10943:10963   */\n      tag_97\n      jump\t// in\n    tag_228:\n        /* \"#utility.yul\":10938:10963   */\n      swap3\n      pop\n        /* \"#utility.yul\":10986:10987   */\n      dup3\n        /* \"#utility.yul\":10983:10984   */\n      dup3\n        /* \"#utility.yul\":10979:10988   */\n      add\n        /* \"#utility.yul\":10972:10988   */\n      swap1\n      pop\n        /* \"#utility.yul\":11007:11010   */\n      dup1\n        /* \"#utility.yul\":11004:11005   */\n      dup3\n        /* \"#utility.yul\":11001:11011   */\n      gt\n        /* \"#utility.yul\":10998:11034   */\n      iszero\n      tag_229\n      jumpi\n        /* \"#utility.yul\":11014:11032   */\n      tag_230\n      tag_114\n      jump\t// in\n    tag_230:\n        /* \"#utility.yul\":10998:11034   */\n    tag_229:\n        /* \"#utility.yul\":10850:11041   */\n      swap3\n      swap2\n      pop\n      pop\n      jump\t// out\n\n    auxdata: 0xa2646970667358221220f9317f9eac2921f8b3468a072259f8a61d41f53eaf6be1ea99c8ee19a9c26e3164736f6c63430008160033\n}\n",
				"bytecode": {
					"linkReferences": {},
					"object": "608060405234801561000f575f80fd5b50610bd28061001d5f395ff3fe608060405234801561000f575f80fd5b5060043610610034575f3560e01c8063cdb9f45d14610038578063d7cc707414610069575b5f80fd5b610052600480360381019061004d9190610795565b61009a565b60405161006092919061085c565b60405180910390f35b610083600480360381019061007e919061088a565b6101fb565b60405161009192919061085c565b60405180910390f35b60605f805a90505f855f600281106100b5576100b46108c8565b5b6020020151866001600281106100ce576100cd6108c8565b5b6020020151865f600281106100e6576100e56108c8565b5b6020020151876001600281106100ff576100fe6108c8565b5b60200201516040516020016101179493929190610915565b60405160208183030381529060405290505f80600673ffffffffffffffffffffffffffffffffffffffff168360405161015091906109a6565b5f60405180830381855afa9150503d805f8114610188576040519150601f19603f3d011682016040523d82523d5f602084013e61018d565b606091505b50915091505f5a9050826101d6576040517f08c379a00000000000000000000000000000000000000000000000000000000081526004016101cd90610a06565b60405180910390fd5b6101df8261032b565b965080856101ed9190610a51565b955050505050509250929050565b60605f805a90505f855f60028110610216576102156108c8565b5b60200201518660016002811061022f5761022e6108c8565b5b60200201518660405160200161024793929190610a84565b60405160208183030381529060405290505f80600773ffffffffffffffffffffffffffffffffffffffff168360405161028091906109a6565b5f60405180830381855afa9150503d805f81146102b8576040519150601f19603f3d011682016040523d82523d5f602084013e6102bd565b606091505b50915091505f5a905082610306576040517f08c379a00000000000000000000000000000000000000000000000000000000081526004016102fd90610b0a565b60405180910390fd5b61030f8261032b565b9650808561031d9190610a51565b955050505050509250929050565b60605f6040518060400160405280601081526020017f303132333435363738396162636465660000000000000000000000000000000081525090505f600284516103759190610b28565b60026103819190610b69565b67ffffffffffffffff81111561039a57610399610638565b5b6040519080825280601f01601f1916602001820160405280156103cc5781602001600182028036833780820191505090505b5090507f3000000000000000000000000000000000000000000000000000000000000000815f81518110610403576104026108c8565b5b60200101907effffffffffffffffffffffffffffffffffffffffffffffffffffffffffffff191690815f1a9053507f780000000000000000000000000000000000000000000000000000000000000081600181518110610466576104656108c8565b5b60200101907effffffffffffffffffffffffffffffffffffffffffffffffffffffffffffff191690815f1a9053505f5b845181101561060c578260048683815181106104b5576104b46108c8565b5b602001015160f81c60f81b7effffffffffffffffffffffffffffffffffffffffffffffffffffffffffffff1916901c60f81c60ff16815181106104fb576104fa6108c8565b5b602001015160f81c60f81b826002836105149190610b28565b60026105209190610b69565b81518110610531576105306108c8565b5b60200101907effffffffffffffffffffffffffffffffffffffffffffffffffffffffffffff191690815f1a90535082600f60f81b868381518110610578576105776108c8565b5b602001015160f81c60f81b1660f81c60ff168151811061059b5761059a6108c8565b5b602001015160f81c60f81b826002836105b49190610b28565b60036105c09190610b69565b815181106105d1576105d06108c8565b5b60200101907effffffffffffffffffffffffffffffffffffffffffffffffffffffffffffff191690815f1a9053508080600101915050610496565b508092505050919050565b5f604051905090565b5f80fd5b5f80fd5b5f601f19601f8301169050919050565b7f4e487b71000000000000000000000000000000000000000000000000000000005f52604160045260245ffd5b61066e82610628565b810181811067ffffffffffffffff8211171561068d5761068c610638565b5b80604052505050565b5f61069f610617565b90506106ab8282610665565b919050565b5f67ffffffffffffffff8211156106ca576106c9610638565b5b602082029050919050565b5f80fd5b5f819050919050565b6106eb816106d9565b81146106f5575f80fd5b50565b5f81359050610706816106e2565b92915050565b5f61071e610719846106b0565b610696565b90508060208402830185811115610738576107376106d5565b5b835b81811015610761578061074d88826106f8565b84526020840193505060208101905061073a565b5050509392505050565b5f82601f83011261077f5761077e610624565b5b600261078c84828561070c565b91505092915050565b5f80608083850312156107ab576107aa610620565b5b5f6107b88582860161076b565b92505060406107c98582860161076b565b9150509250929050565b5f81519050919050565b5f82825260208201905092915050565b5f5b8381101561080a5780820151818401526020810190506107ef565b5f8484015250505050565b5f61081f826107d3565b61082981856107dd565b93506108398185602086016107ed565b61084281610628565b840191505092915050565b610856816106d9565b82525050565b5f6040820190508181035f8301526108748185610815565b9050610883602083018461084d565b9392505050565b5f80606083850312156108a05761089f610620565b5b5f6108ad8582860161076b565b92505060406108be858286016106f8565b9150509250929050565b7f4e487b71000000000000000000000000000000000000000000000000000000005f52603260045260245ffd5b5f819050919050565b61090f61090a826106d9565b6108f5565b82525050565b5f61092082876108fe565b60208201915061093082866108fe565b60208201915061094082856108fe565b60208201915061095082846108fe565b60208201915081905095945050505050565b5f81519050919050565b5f81905092915050565b5f61098082610962565b61098a818561096c565b935061099a8185602086016107ed565b80840191505092915050565b5f6109b18284610976565b915081905092915050565b7f506f696e74206164646974696f6e206661696c656400000000000000000000005f82015250565b5f6109f06015836107dd565b91506109fb826109bc565b602082019050919050565b5f6020820190508181035f830152610a1d816109e4565b9050919050565b7f4e487b71000000000000000000000000000000000000000000000000000000005f52601160045260245ffd5b5f610a5b826106d9565b9150610a66836106d9565b9250828203905081811115610a7e57610a7d610a24565b5b92915050565b5f610a8f82866108fe565b602082019150610a9f82856108fe565b602082019150610aaf82846108fe565b602082019150819050949350505050565b7f5363616c6172206d756c7469706c69636174696f6e206661696c6564000000005f82015250565b5f610af4601c836107dd565b9150610aff82610ac0565b602082019050919050565b5f6020820190508181035f830152610b2181610ae8565b9050919050565b5f610b32826106d9565b9150610b3d836106d9565b9250828202610b4b816106d9565b91508282048414831517610b6257610b61610a24565b5b5092915050565b5f610b73826106d9565b9150610b7e836106d9565b9250828201905080821115610b9657610b95610a24565b5b9291505056fea2646970667358221220f9317f9eac2921f8b3468a072259f8a61d41f53eaf6be1ea99c8ee19a9c26e3164736f6c63430008160033",
					"opcodes": "PUSH1 0x80 PUSH1 0x40 MSTORE CALLVALUE DUP1 ISZERO PUSH2 0xF JUMPI PUSH0 DUP1 REVERT JUMPDEST POP PUSH2 0xBD2 DUP1 PUSH2 0x1D PUSH0 CODECOPY PUSH0 RETURN INVALID PUSH1 0x80 PUSH1 0x40 MSTORE CALLVALUE DUP1 ISZERO PUSH2 0xF JUMPI PUSH0 DUP1 REVERT JUMPDEST POP PUSH1 0x4 CALLDATASIZE LT PUSH2 0x34 JUMPI PUSH0 CALLDATALOAD PUSH1 0xE0 SHR DUP1 PUSH4 0xCDB9F45D EQ PUSH2 0x38 JUMPI DUP1 PUSH4 0xD7CC7074 EQ PUSH2 0x69 JUMPI JUMPDEST PUSH0 DUP1 REVERT JUMPDEST PUSH2 0x52 PUSH1 0x4 DUP1 CALLDATASIZE SUB DUP2 ADD SWAP1 PUSH2 0x4D SWAP2 SWAP1 PUSH2 0x795 JUMP JUMPDEST PUSH2 0x9A JUMP JUMPDEST PUSH1 0x40 MLOAD PUSH2 0x60 SWAP3 SWAP2 SWAP1 PUSH2 0x85C JUMP JUMPDEST PUSH1 0x40 MLOAD DUP1 SWAP2 SUB SWAP1 RETURN JUMPDEST PUSH2 0x83 PUSH1 0x4 DUP1 CALLDATASIZE SUB DUP2 ADD SWAP1 PUSH2 0x7E SWAP2 SWAP1 PUSH2 0x88A JUMP JUMPDEST PUSH2 0x1FB JUMP JUMPDEST PUSH1 0x40 MLOAD PUSH2 0x91 SWAP3 SWAP2 SWAP1 PUSH2 0x85C JUMP JUMPDEST PUSH1 0x40 MLOAD DUP1 SWAP2 SUB SWAP1 RETURN JUMPDEST PUSH1 0x60 PUSH0 DUP1 GAS SWAP1 POP PUSH0 DUP6 PUSH0 PUSH1 0x2 DUP2 LT PUSH2 0xB5 JUMPI PUSH2 0xB4 PUSH2 0x8C8 JUMP JUMPDEST JUMPDEST PUSH1 0x20 MUL ADD MLOAD DUP7 PUSH1 0x1 PUSH1 0x2 DUP2 LT PUSH2 0xCE JUMPI PUSH2 0xCD PUSH2 0x8C8 JUMP JUMPDEST JUMPDEST PUSH1 0x20 MUL ADD MLOAD DUP7 PUSH0 PUSH1 0x2 DUP2 LT PUSH2 0xE6 JUMPI PUSH2 0xE5 PUSH2 0x8C8 JUMP JUMPDEST JUMPDEST PUSH1 0x20 MUL ADD MLOAD DUP8 PUSH1 0x1 PUSH1 0x2 DUP2 LT PUSH2 0xFF JUMPI PUSH2 0xFE PUSH2 0x8C8 JUMP JUMPDEST JUMPDEST PUSH1 0x20 MUL ADD MLOAD PUSH1 0x40 MLOAD PUSH1 0x20 ADD PUSH2 0x117 SWAP5 SWAP4 SWAP3 SWAP2 SWAP1 PUSH2 0x915 JUMP JUMPDEST PUSH1 0x40 MLOAD PUSH1 0x20 DUP2 DUP4 SUB SUB DUP2 MSTORE SWAP1 PUSH1 0x40 MSTORE SWAP1 POP PUSH0 DUP1 PUSH1 0x6 PUSH20 0xFFFFFFFFFFFFFFFFFFFFFFFFFFFFFFFFFFFFFFFF AND DUP4 PUSH1 0x40 MLOAD PUSH2 0x150 SWAP2 SWAP1 PUSH2 0x9A6 JUMP JUMPDEST PUSH0 PUSH1 0x40 MLOAD DUP1 DUP4 SUB DUP2 DUP6 GAS STATICCALL SWAP2 POP POP RETURNDATASIZE DUP1 PUSH0 DUP2 EQ PUSH2 0x188 JUMPI PUSH1 0x40 MLOAD SWAP2 POP PUSH1 0x1F NOT PUSH1 0x3F RETURNDATASIZE ADD AND DUP3 ADD PUSH1 0x40 MSTORE RETURNDATASIZE DUP3 MSTORE RETURNDATASIZE PUSH0 PUSH1 0x20 DUP5 ADD RETURNDATACOPY PUSH2 0x18D JUMP JUMPDEST PUSH1 0x60 SWAP2 POP JUMPDEST POP SWAP2 POP SWAP2 POP PUSH0 GAS SWAP1 POP DUP3 PUSH2 0x1D6 JUMPI PUSH1 0x40 MLOAD PUSH32 0x8C379A000000000000000000000000000000000000000000000000000000000 DUP2 MSTORE PUSH1 0x4 ADD PUSH2 0x1CD SWAP1 PUSH2 0xA06 JUMP JUMPDEST PUSH1 0x40 MLOAD DUP1 SWAP2 SUB SWAP1 REVERT JUMPDEST PUSH2 0x1DF DUP3 PUSH2 0x32B JUMP JUMPDEST SWAP7 POP DUP1 DUP6 PUSH2 0x1ED SWAP2 SWAP1 PUSH2 0xA51 JUMP JUMPDEST SWAP6 POP POP POP POP POP POP SWAP3 POP SWAP3 SWAP1 POP JUMP JUMPDEST PUSH1 0x60 PUSH0 DUP1 GAS SWAP1 POP PUSH0 DUP6 PUSH0 PUSH1 0x2 DUP2 LT PUSH2 0x216 JUMPI PUSH2 0x215 PUSH2 0x8C8 JUMP JUMPDEST JUMPDEST PUSH1 0x20 MUL ADD MLOAD DUP7 PUSH1 0x1 PUSH1 0x2 DUP2 LT PUSH2 0x22F JUMPI PUSH2 0x22E PUSH2 0x8C8 JUMP JUMPDEST JUMPDEST PUSH1 0x20 MUL ADD MLOAD DUP7 PUSH1 0x40 MLOAD PUSH1 0x20 ADD PUSH2 0x247 SWAP4 SWAP3 SWAP2 SWAP1 PUSH2 0xA84 JUMP JUMPDEST PUSH1 0x40 MLOAD PUSH1 0x20 DUP2 DUP4 SUB SUB DUP2 MSTORE SWAP1 PUSH1 0x40 MSTORE SWAP1 POP PUSH0 DUP1 PUSH1 0x7 PUSH20 0xFFFFFFFFFFFFFFFFFFFFFFFFFFFFFFFFFFFFFFFF AND DUP4 PUSH1 0x40 MLOAD PUSH2 0x280 SWAP2 SWAP1 PUSH2 0x9A6 JUMP JUMPDEST PUSH0 PUSH1 0x40 MLOAD DUP1 DUP4 SUB DUP2 DUP6 GAS STATICCALL SWAP2 POP POP RETURNDATASIZE DUP1 PUSH0 DUP2 EQ PUSH2 0x2B8 JUMPI PUSH1 0x40 MLOAD SWAP2 POP PUSH1 0x1F NOT PUSH1 0x3F RETURNDATASIZE ADD AND DUP3 ADD PUSH1 0x40 MSTORE RETURNDATASIZE DUP3 MSTORE RETURNDATASIZE PUSH0 PUSH1 0x20 DUP5 ADD RETURNDATACOPY PUSH2 0x2BD JUMP JUMPDEST PUSH1 0x60 SWAP2 POP JUMPDEST POP SWAP2 POP SWAP2 POP PUSH0 GAS SWAP1 POP DUP3 PUSH2 0x306 JUMPI PUSH1 0x40 MLOAD PUSH32 0x8C379A000000000000000000000000000000000000000000000000000000000 DUP2 MSTORE PUSH1 0x4 ADD PUSH2 0x2FD SWAP1 PUSH2 0xB0A JUMP JUMPDEST PUSH1 0x40 MLOAD DUP1 SWAP2 SUB SWAP1 REVERT JUMPDEST PUSH2 0x30F DUP3 PUSH2 0x32B JUMP JUMPDEST SWAP7 POP DUP1 DUP6 PUSH2 0x31D SWAP2 SWAP1 PUSH2 0xA51 JUMP JUMPDEST SWAP6 POP POP POP POP POP POP SWAP3 POP SWAP3 SWAP1 POP JUMP JUMPDEST PUSH1 0x60 PUSH0 PUSH1 0x40 MLOAD DUP1 PUSH1 0x40 ADD PUSH1 0x40 MSTORE DUP1 PUSH1 0x10 DUP2 MSTORE PUSH1 0x20 ADD PUSH32 0x3031323334353637383961626364656600000000000000000000000000000000 DUP2 MSTORE POP SWAP1 POP PUSH0 PUSH1 0x2 DUP5 MLOAD PUSH2 0x375 SWAP2 SWAP1 PUSH2 0xB28 JUMP JUMPDEST PUSH1 0x2 PUSH2 0x381 SWAP2 SWAP1 PUSH2 0xB69 JUMP JUMPDEST PUSH8 0xFFFFFFFFFFFFFFFF DUP2 GT ISZERO PUSH2 0x39A JUMPI PUSH2 0x399 PUSH2 0x638 JUMP JUMPDEST JUMPDEST PUSH1 0x40 MLOAD SWAP1 DUP1 DUP3 MSTORE DUP1 PUSH1 0x1F ADD PUSH1 0x1F NOT AND PUSH1 0x20 ADD DUP3 ADD PUSH1 0x40 MSTORE DUP1 ISZERO PUSH2 0x3CC JUMPI DUP2 PUSH1 0x20 ADD PUSH1 0x1 DUP3 MUL DUP1 CALLDATASIZE DUP4 CALLDATACOPY DUP1 DUP3 ADD SWAP2 POP POP SWAP1 POP JUMPDEST POP SWAP1 POP PUSH32 0x3000000000000000000000000000000000000000000000000000000000000000 DUP2 PUSH0 DUP2 MLOAD DUP2 LT PUSH2 0x403 JUMPI PUSH2 0x402 PUSH2 0x8C8 JUMP JUMPDEST JUMPDEST PUSH1 0x20 ADD ADD SWAP1 PUSH31 0xFFFFFFFFFFFFFFFFFFFFFFFFFFFFFFFFFFFFFFFFFFFFFFFFFFFFFFFFFFFFFF NOT AND SWAP1 DUP2 PUSH0 BYTE SWAP1 MSTORE8 POP PUSH32 0x7800000000000000000000000000000000000000000000000000000000000000 DUP2 PUSH1 0x1 DUP2 MLOAD DUP2 LT PUSH2 0x466 JUMPI PUSH2 0x465 PUSH2 0x8C8 JUMP JUMPDEST JUMPDEST PUSH1 0x20 ADD ADD SWAP1 PUSH31 0xFFFFFFFFFFFFFFFFFFFFFFFFFFFFFFFFFFFFFFFFFFFFFFFFFFFFFFFFFFFFFF NOT AND SWAP1 DUP2 PUSH0 BYTE SWAP1 MSTORE8 POP PUSH0 JUMPDEST DUP5 MLOAD DUP2 LT ISZERO PUSH2 0x60C JUMPI DUP3 PUSH1 0x4 DUP7 DUP4 DUP2 MLOAD DUP2 LT PUSH2 0x4B5 JUMPI PUSH2 0x4B4 PUSH2 0x8C8 JUMP JUMPDEST JUMPDEST PUSH1 0x20 ADD ADD MLOAD PUSH1 0xF8 SHR PUSH1 0xF8 SHL PUSH31 0xFFFFFFFFFFFFFFFFFFFFFFFFFFFFFFFFFFFFFFFFFFFFFFFFFFFFFFFFFFFFFF NOT AND SWAP1 SHR PUSH1 0xF8 SHR PUSH1 0xFF AND DUP2 MLOAD DUP2 LT PUSH2 0x4FB JUMPI PUSH2 0x4FA PUSH2 0x8C8 JUMP JUMPDEST JUMPDEST PUSH1 0x20 ADD ADD MLOAD PUSH1 0xF8 SHR PUSH1 0xF8 SHL DUP3 PUSH1 0x2 DUP4 PUSH2 0x514 SWAP2 SWAP1 PUSH2 0xB28 JUMP JUMPDEST PUSH1 0x2 PUSH2 0x520 SWAP2 SWAP1 PUSH2 0xB69 JUMP JUMPDEST DUP2 MLOAD DUP2 LT PUSH2 0x531 JUMPI PUSH2 0x530 PUSH2 0x8C8 JUMP JUMPDEST JUMPDEST PUSH1 0x20 ADD ADD SWAP1 PUSH31 0xFFFFFFFFFFFFFFFFFFFFFFFFFFFFFFFFFFFFFFFFFFFFFFFFFFFFFFFFFFFFFF NOT AND SWAP1 DUP2 PUSH0 BYTE SWAP1 MSTORE8 POP DUP3 PUSH1 0xF PUSH1 0xF8 SHL DUP7 DUP4 DUP2 MLOAD DUP2 LT PUSH2 0x578 JUMPI PUSH2 0x577 PUSH2 0x8C8 JUMP JUMPDEST JUMPDEST PUSH1 0x20 ADD ADD MLOAD PUSH1 0xF8 SHR PUSH1 0xF8 SHL AND PUSH1 0xF8 SHR PUSH1 0xFF AND DUP2 MLOAD DUP2 LT PUSH2 0x59B JUMPI PUSH2 0x59A PUSH2 0x8C8 JUMP JUMPDEST JUMPDEST PUSH1 0x20 ADD ADD MLOAD PUSH1 0xF8 SHR PUSH1 0xF8 SHL DUP3 PUSH1 0x2 DUP4 PUSH2 0x5B4 SWAP2 SWAP1 PUSH2 0xB28 JUMP JUMPDEST PUSH1 0x3 PUSH2 0x5C0 SWAP2 SWAP1 PUSH2 0xB69 JUMP JUMPDEST DUP2 MLOAD DUP2 LT PUSH2 0x5D1 JUMPI PUSH2 0x5D0 PUSH2 0x8C8 JUMP JUMPDEST JUMPDEST PUSH1 0x20 ADD ADD SWAP1 PUSH31 0xFFFFFFFFFFFFFFFFFFFFFFFFFFFFFFFFFFFFFFFFFFFFFFFFFFFFFFFFFFFFFF NOT AND SWAP1 DUP2 PUSH0 BYTE SWAP1 MSTORE8 POP DUP1 DUP1 PUSH1 0x1 ADD SWAP2 POP POP PUSH2 0x496 JUMP JUMPDEST POP DUP1 SWAP3 POP POP POP SWAP2 SWAP1 POP JUMP JUMPDEST PUSH0 PUSH1 0x40 MLOAD SWAP1 POP SWAP1 JUMP JUMPDEST PUSH0 DUP1 REVERT JUMPDEST PUSH0 DUP1 REVERT JUMPDEST PUSH0 PUSH1 0x1F NOT PUSH1 0x1F DUP4 ADD AND SWAP1 POP SWAP2 SWAP1 POP JUMP JUMPDEST PUSH32 0x4E487B7100000000000000000000000000000000000000000000000000000000 PUSH0 MSTORE PUSH1 0x41 PUSH1 0x4 MSTORE PUSH1 0x24 PUSH0 REVERT JUMPDEST PUSH2 0x66E DUP3 PUSH2 0x628 JUMP JUMPDEST DUP2 ADD DUP2 DUP2 LT PUSH8 0xFFFFFFFFFFFFFFFF DUP3 GT OR ISZERO PUSH2 0x68D JUMPI PUSH2 0x68C PUSH2 0x638 JUMP JUMPDEST JUMPDEST DUP1 PUSH1 0x40 MSTORE POP POP POP JUMP JUMPDEST PUSH0 PUSH2 0x69F PUSH2 0x617 JUMP JUMPDEST SWAP1 POP PUSH2 0x6AB DUP3 DUP3 PUSH2 0x665 JUMP JUMPDEST SWAP2 SWAP1 POP JUMP JUMPDEST PUSH0 PUSH8 0xFFFFFFFFFFFFFFFF DUP3 GT ISZERO PUSH2 0x6CA JUMPI PUSH2 0x6C9 PUSH2 0x638 JUMP JUMPDEST JUMPDEST PUSH1 0x20 DUP3 MUL SWAP1 POP SWAP2 SWAP1 POP JUMP JUMPDEST PUSH0 DUP1 REVERT JUMPDEST PUSH0 DUP2 SWAP1 POP SWAP2 SWAP1 POP JUMP JUMPDEST PUSH2 0x6EB DUP2 PUSH2 0x6D9 JUMP JUMPDEST DUP2 EQ PUSH2 0x6F5 JUMPI PUSH0 DUP1 REVERT JUMPDEST POP JUMP JUMPDEST PUSH0 DUP2 CALLDATALOAD SWAP1 POP PUSH2 0x706 DUP2 PUSH2 0x6E2 JUMP JUMPDEST SWAP3 SWAP2 POP POP JUMP JUMPDEST PUSH0 PUSH2 0x71E PUSH2 0x719 DUP5 PUSH2 0x6B0 JUMP JUMPDEST PUSH2 0x696 JUMP JUMPDEST SWAP1 POP DUP1 PUSH1 0x20 DUP5 MUL DUP4 ADD DUP6 DUP2 GT ISZERO PUSH2 0x738 JUMPI PUSH2 0x737 PUSH2 0x6D5 JUMP JUMPDEST JUMPDEST DUP4 JUMPDEST DUP2 DUP2 LT ISZERO PUSH2 0x761 JUMPI DUP1 PUSH2 0x74D DUP9 DUP3 PUSH2 0x6F8 JUMP JUMPDEST DUP5 MSTORE PUSH1 0x20 DUP5 ADD SWAP4 POP POP PUSH1 0x20 DUP2 ADD SWAP1 POP PUSH2 0x73A JUMP JUMPDEST POP POP POP SWAP4 SWAP3 POP POP POP JUMP JUMPDEST PUSH0 DUP3 PUSH1 0x1F DUP4 ADD SLT PUSH2 0x77F JUMPI PUSH2 0x77E PUSH2 0x624 JUMP JUMPDEST JUMPDEST PUSH1 0x2 PUSH2 0x78C DUP5 DUP3 DUP6 PUSH2 0x70C JUMP JUMPDEST SWAP2 POP POP SWAP3 SWAP2 POP POP JUMP JUMPDEST PUSH0 DUP1 PUSH1 0x80 DUP4 DUP6 SUB SLT ISZERO PUSH2 0x7AB JUMPI PUSH2 0x7AA PUSH2 0x620 JUMP JUMPDEST JUMPDEST PUSH0 PUSH2 0x7B8 DUP6 DUP3 DUP7 ADD PUSH2 0x76B JUMP JUMPDEST SWAP3 POP POP PUSH1 0x40 PUSH2 0x7C9 DUP6 DUP3 DUP7 ADD PUSH2 0x76B JUMP JUMPDEST SWAP2 POP POP SWAP3 POP SWAP3 SWAP1 POP JUMP JUMPDEST PUSH0 DUP2 MLOAD SWAP1 POP SWAP2 SWAP1 POP JUMP JUMPDEST PUSH0 DUP3 DUP3 MSTORE PUSH1 0x20 DUP3 ADD SWAP1 POP SWAP3 SWAP2 POP POP JUMP JUMPDEST PUSH0 JUMPDEST DUP4 DUP2 LT ISZERO PUSH2 0x80A JUMPI DUP1 DUP3 ADD MLOAD DUP2 DUP5 ADD MSTORE PUSH1 0x20 DUP2 ADD SWAP1 POP PUSH2 0x7EF JUMP JUMPDEST PUSH0 DUP5 DUP5 ADD MSTORE POP POP POP POP JUMP JUMPDEST PUSH0 PUSH2 0x81F DUP3 PUSH2 0x7D3 JUMP JUMPDEST PUSH2 0x829 DUP2 DUP6 PUSH2 0x7DD JUMP JUMPDEST SWAP4 POP PUSH2 0x839 DUP2 DUP6 PUSH1 0x20 DUP7 ADD PUSH2 0x7ED JUMP JUMPDEST PUSH2 0x842 DUP2 PUSH2 0x628 JUMP JUMPDEST DUP5 ADD SWAP2 POP POP SWAP3 SWAP2 POP POP JUMP JUMPDEST PUSH2 0x856 DUP2 PUSH2 0x6D9 JUMP JUMPDEST DUP3 MSTORE POP POP JUMP JUMPDEST PUSH0 PUSH1 0x40 DUP3 ADD SWAP1 POP DUP2 DUP2 SUB PUSH0 DUP4 ADD MSTORE PUSH2 0x874 DUP2 DUP6 PUSH2 0x815 JUMP JUMPDEST SWAP1 POP PUSH2 0x883 PUSH1 0x20 DUP4 ADD DUP5 PUSH2 0x84D JUMP JUMPDEST SWAP4 SWAP3 POP POP POP JUMP JUMPDEST PUSH0 DUP1 PUSH1 0x60 DUP4 DUP6 SUB SLT ISZERO PUSH2 0x8A0 JUMPI PUSH2 0x89F PUSH2 0x620 JUMP JUMPDEST JUMPDEST PUSH0 PUSH2 0x8AD DUP6 DUP3 DUP7 ADD PUSH2 0x76B JUMP JUMPDEST SWAP3 POP POP PUSH1 0x40 PUSH2 0x8BE DUP6 DUP3 DUP7 ADD PUSH2 0x6F8 JUMP JUMPDEST SWAP2 POP POP SWAP3 POP SWAP3 SWAP1 POP JUMP JUMPDEST PUSH32 0x4E487B7100000000000000000000000000000000000000000000000000000000 PUSH0 MSTORE PUSH1 0x32 PUSH1 0x4 MSTORE PUSH1 0x24 PUSH0 REVERT JUMPDEST PUSH0 DUP2 SWAP1 POP SWAP2 SWAP1 POP JUMP JUMPDEST PUSH2 0x90F PUSH2 0x90A DUP3 PUSH2 0x6D9 JUMP JUMPDEST PUSH2 0x8F5 JUMP JUMPDEST DUP3 MSTORE POP POP JUMP JUMPDEST PUSH0 PUSH2 0x920 DUP3 DUP8 PUSH2 0x8FE JUMP JUMPDEST PUSH1 0x20 DUP3 ADD SWAP2 POP PUSH2 0x930 DUP3 DUP7 PUSH2 0x8FE JUMP JUMPDEST PUSH1 0x20 DUP3 ADD SWAP2 POP PUSH2 0x940 DUP3 DUP6 PUSH2 0x8FE JUMP JUMPDEST PUSH1 0x20 DUP3 ADD SWAP2 POP PUSH2 0x950 DUP3 DUP5 PUSH2 0x8FE JUMP JUMPDEST PUSH1 0x20 DUP3 ADD SWAP2 POP DUP2 SWAP1 POP SWAP6 SWAP5 POP POP POP POP POP JUMP JUMPDEST PUSH0 DUP2 MLOAD SWAP1 POP SWAP2 SWAP1 POP JUMP JUMPDEST PUSH0 DUP2 SWAP1 POP SWAP3 SWAP2 POP POP JUMP JUMPDEST PUSH0 PUSH2 0x980 DUP3 PUSH2 0x962 JUMP JUMPDEST PUSH2 0x98A DUP2 DUP6 PUSH2 0x96C JUMP JUMPDEST SWAP4 POP PUSH2 0x99A DUP2 DUP6 PUSH1 0x20 DUP7 ADD PUSH2 0x7ED JUMP JUMPDEST DUP1 DUP5 ADD SWAP2 POP POP SWAP3 SWAP2 POP POP JUMP JUMPDEST PUSH0 PUSH2 0x9B1 DUP3 DUP5 PUSH2 0x976 JUMP JUMPDEST SWAP2 POP DUP2 SWAP1 POP SWAP3 SWAP2 POP POP JUMP JUMPDEST PUSH32 0x506F696E74206164646974696F6E206661696C65640000000000000000000000 PUSH0 DUP3 ADD MSTORE POP JUMP JUMPDEST PUSH0 PUSH2 0x9F0 PUSH1 0x15 DUP4 PUSH2 0x7DD JUMP JUMPDEST SWAP2 POP PUSH2 0x9FB DUP3 PUSH2 0x9BC JUMP JUMPDEST PUSH1 0x20 DUP3 ADD SWAP1 POP SWAP2 SWAP1 POP JUMP JUMPDEST PUSH0 PUSH1 0x20 DUP3 ADD SWAP1 POP DUP2 DUP2 SUB PUSH0 DUP4 ADD MSTORE PUSH2 0xA1D DUP2 PUSH2 0x9E4 JUMP JUMPDEST SWAP1 POP SWAP2 SWAP1 POP JUMP JUMPDEST PUSH32 0x4E487B7100000000000000000000000000000000000000000000000000000000 PUSH0 MSTORE PUSH1 0x11 PUSH1 0x4 MSTORE PUSH1 0x24 PUSH0 REVERT JUMPDEST PUSH0 PUSH2 0xA5B DUP3 PUSH2 0x6D9 JUMP JUMPDEST SWAP2 POP PUSH2 0xA66 DUP4 PUSH2 0x6D9 JUMP JUMPDEST SWAP3 POP DUP3 DUP3 SUB SWAP1 POP DUP2 DUP2 GT ISZERO PUSH2 0xA7E JUMPI PUSH2 0xA7D PUSH2 0xA24 JUMP JUMPDEST JUMPDEST SWAP3 SWAP2 POP POP JUMP JUMPDEST PUSH0 PUSH2 0xA8F DUP3 DUP7 PUSH2 0x8FE JUMP JUMPDEST PUSH1 0x20 DUP3 ADD SWAP2 POP PUSH2 0xA9F DUP3 DUP6 PUSH2 0x8FE JUMP JUMPDEST PUSH1 0x20 DUP3 ADD SWAP2 POP PUSH2 0xAAF DUP3 DUP5 PUSH2 0x8FE JUMP JUMPDEST PUSH1 0x20 DUP3 ADD SWAP2 POP DUP2 SWAP1 POP SWAP5 SWAP4 POP POP POP POP JUMP JUMPDEST PUSH32 0x5363616C6172206D756C7469706C69636174696F6E206661696C656400000000 PUSH0 DUP3 ADD MSTORE POP JUMP JUMPDEST PUSH0 PUSH2 0xAF4 PUSH1 0x1C DUP4 PUSH2 0x7DD JUMP JUMPDEST SWAP2 POP PUSH2 0xAFF DUP3 PUSH2 0xAC0 JUMP JUMPDEST PUSH1 0x20 DUP3 ADD SWAP1 POP SWAP2 SWAP1 POP JUMP JUMPDEST PUSH0 PUSH1 0x20 DUP3 ADD SWAP1 POP DUP2 DUP2 SUB PUSH0 DUP4 ADD MSTORE PUSH2 0xB21 DUP2 PUSH2 0xAE8 JUMP JUMPDEST SWAP1 POP SWAP2 SWAP1 POP JUMP JUMPDEST PUSH0 PUSH2 0xB32 DUP3 PUSH2 0x6D9 JUMP JUMPDEST SWAP2 POP PUSH2 0xB3D DUP4 PUSH2 0x6D9 JUMP JUMPDEST SWAP3 POP DUP3 DUP3 MUL PUSH2 0xB4B DUP2 PUSH2 0x6D9 JUMP JUMPDEST SWAP2 POP DUP3 DUP3 DIV DUP5 EQ DUP4 ISZERO OR PUSH2 0xB62 JUMPI PUSH2 0xB61 PUSH2 0xA24 JUMP JUMPDEST JUMPDEST POP SWAP3 SWAP2 POP POP JUMP JUMPDEST PUSH0 PUSH2 0xB73 DUP3 PUSH2 0x6D9 JUMP JUMPDEST SWAP2 POP PUSH2 0xB7E DUP4 PUSH2 0x6D9 JUMP JUMPDEST SWAP3 POP DUP3 DUP3 ADD SWAP1 POP DUP1 DUP3 GT ISZERO PUSH2 0xB96 JUMPI PUSH2 0xB95 PUSH2 0xA24 JUMP JUMPDEST JUMPDEST SWAP3 SWAP2 POP POP JUMP INVALID LOG2 PUSH5 0x6970667358 0x22 SLT KECCAK256 0xF9 BALANCE PUSH32 0x9EAC2921F8B3468A072259F8A61D41F53EAF6BE1EA99C8EE19A9C26E3164736F PUSH13 0x63430008160033000000000000 "
				},
				"gasEstimates": {
					"creation": {
						"codeDepositCost": "605200",
						"executionCost": "636",
						"totalCost": "605836"
					},
					"external": {
						"pointAdditionWithGasCost(uint256[2],uint256[2])": "infinite",
						"scalarMultiplicationWithGasCost(uint256[2],uint256)": "infinite"
					},
					"internal": {
						"_toHexString(bytes memory)": "infinite"
					}
				},
				"methodIdentifiers": {
					"pointAdditionWithGasCost(uint256[2],uint256[2])": "cdb9f45d",
					"scalarMultiplicationWithGasCost(uint256[2],uint256)": "d7cc7074"
				}
			},
			"storageLayout": {
				"storage": [],
				"types": null
			},
			"userdoc": {
				"kind": "user",
				"methods": {},
				"version": 1
			}
		}
	}
}